:10000000001800000002000072C0000000000000A4
:1000100000000000000000000000000000000000E0
:1000200078FFE4B8200118F6D8F99000007F007E30
:1000300007E4F0A3DFFCDEFA7581070236C5900104
:1000400000E0600690017D7401F022022DFD74AA8B
:100050007583F5758255A574557583FA7582AAA5C1
:1000600074A57583F5758255A522000224C49040BD
:100070007FE493FF64316003EF7002002253A87F96
:100080000080FD02273912380A900100E060081252
:100090002B1AE4900100F022D2AF32020878E7096F
:1000A000F608DFFA8046E709F208DFFA803E888228
:1000B0008C83E709F0A3DFFA8032E309F608DFFA60
:1000C0008078E309F208DFFA807088828C83E30984
:1000D000F0A3DFFA806489828A83E0A3F608DFFA5E
:1000E000805889828A83E0A3F208DFFA804C80D2AC
:1000F00080FA80C680D4806980F28033801080A628
:1001000080EA809A80A880DA80E280CA803389827F
:100110008A83ECFAE493A3C8C582C8CCC583CCF02B
:10012000A3C8C582C8CCC583CCDFE9DEE7800D89D2
:10013000828A83E493A3F608DFF9ECFAA9F0EDFBD9
:100140002289828A83ECFAE0A3C8C582C8CCC58321
:10015000CCF0A3C8C582C8CCC583CCDFEADEE8807A
:10016000DB89828A83E493A3F208DFF980CC88F0EC
:10017000EF60010E4E60C388F0ED2402B40400501D
:10018000B9F582EB2402B4040050AF232345822347
:100190009008CE73EF8DF0A4A8F0CF8CF0A428CEF9
:1001A0008DF0A42EFE22BC000BBE0029EF8DF08442
:1001B000FFADF022E4CCF875F008EF2FFFEE33FE30
:1001C000EC33FCEE9DEC984005FCEE9DFE0FD5F067
:1001D000E9E4CEFD22EDF8F5F0EE8420D21CFEAD70
:1001E000F075F008EF2FFFED33FD4007985006D56E
:1001F000F0F222C398FD0FD5F0EA22C2D5EC30E729
:1002000009B2D5E4C39DFDE49CFCEE30E715B2D500
:10021000E4C39FFFE49EFE120986C3E49DFDE49CB7
:10022000FC800312098630D507C3E49FFFE49EFEDD
:1002300022C5F0F8A3E028F0C5F0F8E58215827039
:10024000021583E038F022BB010A89828A83E0F537
:10025000F0A3E022500687F009E71922BBFE07E36E
:10026000F5F009E3192289828A83E493F5F0740199
:100270009322BB0110E58229F582E5833AF583E0FC
:10028000F5F0A3E0225009E92582F886F008E6227D
:10029000BBFE0AE92582F8E2F5F008E222E5832AAE
:1002A000F583E993F5F0A3E99322BB010789828ADC
:1002B00083020A11500B09C5F027F7C5F01937F76B
:1002C00022BBFE0D09F8E325F0F3C5F019E338F37E
:1002D00022F889828A8374019325F0C5F0F8E493AB
:1002E0003822BB010DC58229C582C5833AC5830268
:1002F0000A115011C58229F808E5F026F618F5F024
:10030000E58236F622BBFE11C58229F808E225F007
:10031000F5F0F218E23582F222F8E58229F582E55D
:10032000832AF58374019325F0F5F0E4933822BB1A
:10033000010A89828A83F0E5F0A3F0225006F709CA
:10034000A7F01922BBFE06F3E5F009F31922F8BB6A
:100350000111E58229F582E5833AF583E8F0E5F0BD
:10036000A3F0225009E92582C8F608A6F022BBFEB8
:1003700009E92582C8F2E5F008F22275F0087582D5
:1003800000EF2FFFEE33FECD33CDCC33CCC582331F
:10039000C5829BED9AEC99E58298400CF582EE9B24
:1003A000FEED9AFDEC99FC0FD5F0D6E4CEFBE4CD42
:1003B000FAE4CCF9A88222B800C1B90059BA002DDC
:1003C000EC8BF084CFCECDFCE5F0CBF97818EF2F95
:1003D000FFEE33FEED33FDEC33FCEB33FB10D703C4
:1003E000994004EB99FB0FD8E5E4F9FA227818EF6D
:1003F0002FFFEE33FEED33FDEC33FCC933C910D7CC
:10040000059BE99A4007EC9BFCE99AF90FD8E0E4D8
:10041000C9FAE4CCFB2275F010EF2FFFEE33FEEDAE
:1004200033FDCC33CCC833C810D7079BEC9AE8997E
:10043000400AED9BFDEC9AFCE899F80FD5F0DAE460
:10044000CDFBE4CCFAE4C8F922EB9FF5F0EA9E423A
:10045000F0E99D42F0EC6480C864809845F022EB9E
:100460009FF5F0EA9E42F0E99D42F0E89C45F022BB
:10047000ECF0A3EDF0A3EEF0A3EFF022A8828583C9
:10048000F0D083D082120C73120C73120C73120C06
:1004900073E473E493A3C583C5F0C583C8C582C85C
:1004A000F0A3C583C5F0C583C8C582C822A4258230
:1004B000F582E5F03583F58322EC8EF0A4CCC5F00F
:1004C000CCCDF8EFA4CEC5F02DFDE43CFCE8A42E85
:1004D000C8C5F03DFDE43CFCEFA4FFE5F028FEE4D8
:1004E0003DFDE43CFC22EF4E6012EF60010EEDBBDF
:1004F000010B89828A83F0A3DFFCDEFA2289F050A7
:1005000007F709DFFCA9F022BBFEFCF309DFFCA919
:10051000F022900134E0FBA3E0FAA3E09002F3F9AB
:10052000E0FF75F002A4F58285F083120A52FDAC5B
:10053000F0900137E0FBA3E0FAA3E0F9229002F289
:10054000E0FF75F002A4F58285F083020A52900262
:10055000F2E0FB25E02413F582E43401F583E0FEAC
:10056000A3E0240CFFEE34FEFE7C007D0A12097429
:100570007D32120986EF24F4FFEE3401FEEB25E014
:100580002413F582E43401F58322900310E0FCA3E8
:10059000E0FD2407F582E43CF583229002F2E0FFBF
:1005A000246BF582E43400F583E0FEEF25E0247649
:1005B000F582E4342EF583E49324C0F582E4342EEE
:1005C000F583EEF022EF75F002A4F58285F0832228
:1005D000247EF582E43401F583E075F002A4244022
:1005E000F582E5F0342EF583229002F7E0FD25E058
:1005F0002452F582E43401F583229001B2E0FF42F7
:10060000ABA3E0FE42ADEFF4FF5289EEF4FE529947
:10061000EF5295EE529A9001B2E0229002F3E0255B
:10062000E02458F582E43401F583229002F7E0FFDC
:100630002461F582E43401F583E004F074612FF560
:1006400082E43401F58322E04401F0E490010CF0EF
:100650009001B8229001B2E0FF4289A3E0FE4299E6
:10066000EFF4FF5295EEF4FE529AEF5296EE529B43
:100670009001B2E0F45280A3E0F4529022F582E4BB
:100680003AF583EFF022E0FEA3E02DFFEE35F0CD4A
:10069000EFCDFF900310E0FAA3E0FB229002F5E01B
:1006A000FEA3E0FF900159E02FF0900158E03EF0EA
:1006B000E0FEA3E0FFD32225E02419F582E4340113
:1006C000F58322246AF582E43401F58322241AF5A5
:1006D00082E43EF583227420902EC4F0902EC32233
:1006E000E5F0FF900310E0FCA3E022FFF45296A394
:1006F000E0FEF4529B902EC07402F0902EC4EEF0F7
:10070000A3EFF022A3F0A37401F0A3229002F3E080
:100710002467F582E43401F58322E04406F0900179
:100720000C7401F022E09001B9F054F0FFF0229037
:100730000310E0FEA3E0229002F4E0FEA3E0FF221B
:10074000742B2FF582E43401F58322F583E493FCC6
:10075000740193FDEF222464F582E43401F58322D1
:10076000C3E0FDEF9D7480F86E9822EC8DF0020BD3
:100770002E25E0240DF582E43401F583E5F0F0A3A5
:1007800022E490016EF09001B0F022F582E4340191
:10079000F583E0227408902ECAF0902EC422748053
:1007A000902EC4F0902EC322F0746B2BF582E434AB
:1007B00001F583E4F0229002F2E004F022120A270D
:1007C000FFAEF090013422FDACF090013422900194
:1007D000B9E0FFED22FFEEF0A3EFF0D394F4EE9436
:1007E000012225E02425F582E43401F58322E493F7
:1007F0008D828C83A3A322C39DFFE5F09CFE2290F3
:1008000002F3E0FD7F05229002F3E0FD7F0422E485
:10081000F0A3F090013422902EC0E4F07402F0EFC7
:100820001422902EC07419F022120A27C39FFFE5EC
:10083000F09E22F090016FF09001B1F022208A0327
:1008400002131C900190E07002A3E0600302131CED
:10085000121703600302131C9001F2E07050900124
:10086000DD12157DFFAEF09001CB12157DD39FE513
:10087000F09E400302131C12157A1215ACF9E5F034
:100880008FF0120B0F9001F4120C5C0000000012AC
:10089000163490024CF0A3F0A37404F014121686E0
:1008A00012173790019612175F90025E8004900233
:1008B0005EE4F0A3740CF0E4F5B2F5BA121695E418
:1008C000FF1215B80FEFB416F8900056E025E0902F
:1008D0002EC3F0A3E4F0A37402F012162790025482
:1008E000E0FFA3E09001C2CFF0A3EFF090030CE093
:1008F000FF6003021316758D20438D20758D804394
:10090000AA08D2AF758B02758EA0EF701B90001CE9
:10091000E0B42014900003E0700EE5DB20E20975DE
:100920008AC4758703000000758B11758A5053AA1D
:10093000F7D390018FE0949090018EE09401400EE7
:10094000A3E02470F090018EE034FEF08007E49084
:10095000018EF0A3F0121627902EC07419F0902E7D
:10096000C0E030E2F9902E02E0FFA3E0900260CFF9
:10097000F0A3EFF0902EC0E4F043890312162D434C
:1009800080039002601217849001C3E09FFF9001E2
:10099000C2E09EFE122DF19001C4EEF0A3EFF0D361
:1009A00090025FE09F90025EE09E50030212F99079
:1009B00001C2E0FEA3E0FF7C007D091209749002F1
:1009C00060E0FAA3E0FB2FFFEA3EFE0D12098690DD
:1009D00001C2EEF0A3EFF09001F2E07060FE7F1034
:1009E000CDEBCDCCEACC121588FBD3120C3F900294
:1009F000F240081215F312170A8007120C5C00006F
:100A000000001217179002F212159BFBD3120C3F35
:100A1000400A9002F2120C5C0000EA609001CE12D3
:100A2000157D1216D59002F212159B121640121760
:100A30000A9002F21215A612168F0212F9900260A5
:100A4000E0FEA3E0FF7C007D10121588FBD3120CA2
:100A50003F9002F240081215F312170A8007120C99
:100A60005C000000001217179002F212159BFBD3D6
:100A7000120C3F400A9002F2120C5C0000EA601275
:100A8000157A1216D59002F212159B121640121703
:100A90000A9002F2A3A3E0F9A3E0FF9001C81215A7
:100AA000B012168F9001CE12157DFFAEF0E4FCFD62
:100AB0009002F212159BFBD3120C3F40791215697C
:100AC000C39FFFE5F09EFE9002621217734003027F
:100AD0001316D3900257E09400900256E094004021
:100AE000381216F650339001CE12157DFFED2446D4
:100AF000FDE43CFCED2FFFEC35F0FE12157AD39FA0
:100B0000E5F09E400E1215AD75F01412178B2414EB
:100B10001216689002561216C712169C90025E12A8
:100B200017849001C5E09F9001C4E09E5008121701
:100B30000370030210CC9001F37401F0229002FACA
:100B4000EFF09002FC120C5C000000009002FAE052
:100B50001215E7E0FEA3E0FF900302EEF0A3EFF032
:100B6000E4A3F0A3F0A3EEF0A3EFF074FFA3F0A3CF
:100B7000F09002FB7401F09002FBE0FFC394104080
:100B800003021403EF1215E5C083C0829002FAE05D
:100B9000D082D08312165C900306121773400BA309
:100BA000ECF0A3EDF0900306801F1215E1C083C0A6
:100BB000829002FAE0D082D08312165CD3900309AF
:100BC000E09F900308E09E4005EEF0A3EFF01215C1
:100BD000E1C083C0829002FAE0D082D08312165C1A
:100BE000900302E0FCA3E0FDC39FEC9E500BA3EC3E
:100BF000F0A3EDF0900302801F1215E1C083C082C4
:100C00009002FAE0D082D08312165CC3900305E014
:100C10009F900304E09E5005EEF0A3EFF012177DC5
:100C20000213579002FC120C5C00000000E49002DA
:100C3000FBF09002FC12159BFB1215E1C083C082F1
:100C40009002FAE0D082D08375F002120C8D121659
:100C50000D12177DE0B410DA900306E0FEA3E0FF6A
:100C6000900303E02FFF900302E03ECBEFCBFA901E
:100C700002FC1216B9C39BFFEE9A121603EEC0E0F7
:100C8000EFC0E0900308E0FEA3E0FF900305E02F33
:100C9000FF900304E03ECBEFCBFAD0E0FFD0E0FEC4
:100CA000C3EF9BFFEE9A121603E47B0C12164E90D4
:100CB00002FC120C509002FCA3A31216709002FAD0
:100CC000E0B4010F900300E0FFA3E0900254CFF0E6
:100CD000A3EFF09002FC120C5C00000000E4900214
:100CE000FBF09002FBE0FFC394105056EF1215E5A5
:100CF000C083C0829002FAE0D082D08312165CC317
:100D0000900301E09FFF900300E09EFE122DF1D3BF
:100D1000EF9432EE648094809002FC12159BFB40AD
:100D200003A380151215E1C083C0829002FAE0D0BF
:100D300082D08375F002120C8D12160D12177D02EF
:100D400014C29002FC121594FBD3120C3F9002FCCB
:100D5000400B1215F39002FC120C508007120C5C31
:100D6000000000001217179002FC12159BFBD31213
:100D70000C3F400A9002FC120C5C0000EA609002FA
:100D8000FCA3A3E0FEA3E0FF229001CEE0FBA3E0E2
:100D9000FAA3E0F9120A27FFAEF09001C8E0FBA326
:100DA000E0FAA3E0F9020A27120C999002F2120C61
:100DB000509002F2E47F207E4EFDFCE0F8A3E0F9C3
:100DC000A3E0FAA3E022A3A3E0F9A3E0FF9001CE01
:100DD000E0FBA3E0FAA3E02274552FF582E434008F
:100DE000F583E0FE75F002EFA42400F582E5F0340F
:100DF0002EF583E49324C0F582E4342EF583EEF0DF
:100E0000229002FBE025E025E024FCF582E4340199
:100E1000F58322E0FCA3E0FDA3E0FEA3E09420FF25
:100E2000EE944EFEED9400FDEC9400FC22E0FEA357
:100E3000E09002FCFFE4FCFDEB2FFFEA3EFEED3903
:100E4000FDEC38FC020C5043AB035389FC5395FC7A
:100E50005396FC229001F8E4F0A3F0A3F0A3F02253
:100E60007B0A2FFFEA3EFEE93DFDE83CFCE4FAF98F
:100E7000F8020B97A3F0A37401F0A32275F00212FD
:100E80000C8DE0FEA3E0FF22F0900258E03400F069
:100E9000E0FFA3E0A3CFF0A3EFF0229002F4E0FE86
:100EA000A3E0FF227403900192F0A374E8F022C93A
:100EB0008FF0020B0F902EC07402F0225389FC5366
:100EC00095FC43960322902E42E0FEA3E0FF7C00B7
:100ED0007D141209749001E622E0FCA3E0FDA3E07A
:100EE000FEA3E022900190E4F0A37464F022F9E400
:100EF000F5F0020B0F7D09FFAEF07C00020C99901B
:100F00002E42E4F0A374FFF02225E02444F582E4AD
:100F10003402F583E022900259E094FA900258E0FE
:100F200094002290001CE06420229002F2020C50F7
:100F3000F9EE8FF0020B0FE47F607EEAFDFC229059
:100F400001C6E0FFA3E090024ACF22E0FEA3E0FB4F
:100F5000CAEECAE4F9F822E4900198F0A3F0227EE8
:100F6000007D007B01020CC6E4F0A374C8F022F9F6
:100F7000746175F0A8020B0F90003B7410F022F022
:100F8000A3F090019CF0A3F022C3EF9414EE6480D0
:100F9000948022E0FCA3E0FDD39FEC9E229002FB14
:100FA000E004F022E0FEA3E0FFC322F9E4120A8A83
:100FB000900259E022121569FDACF0D39FEC9E40DF
:100FC000379001CE12157DFFC3ED9FFFEC95F0FE2B
:100FD000D3EF9430EE9475400D9002F47475F0A345
:100FE0007430F002181B121574C39FFFE5F09E9039
:100FF00002F4F0A3EFF0804312157AFFAEF09001F7
:10100000CE12157DFDACF0C39FFFEC9EFED3EF9496
:1010100010EE9427400C9002F474D8F0A374F0F012
:10102000801212157AFFC3ED9FFEEC95F09002F44A
:10103000F0A3CEF0E49002F4F0A3F09001F2E060AF
:101040004812167BD39400EE64809480401A90017D
:10105000E012157DFDD3EF9DEE95F0400B900196CB
:10106000E4F0A37432F0802BD3900197E0940090C9
:101070000196E09400401C9001CB12157DFF900278
:10108000F4E5F0F0A3EFF0800A90019A7403F0A366
:1010900074E8F012167BD39400EE648094805003C1
:1010A00002198A9001CB1215B012171012167BD3B9
:1010B00094E8EE64809483500BC3EF94C8EE648090
:1010C00094805007E490025AF0A3F090025AE0FE98
:1010D000A3E0FF9002F5E02FF09002F4E03EF0E094
:1010E000FEA3E0FFEE3395E0FDFCE47BB87A88F9DF
:1010F000F8C3120C29500A9002F47488F0A374B853
:10110000F0D3900199E09400900198E09400403968
:101110009001DD12157DFF9002F4E0FCA3E0FDC319
:101120009FEC95F04006900109E0601DD3ED94001E
:10113000EC64809480401212167B7C007D0A1209B8
:10114000DB9002F4EEF0A3EFF09001F2E0603A9051
:10115000019AE07002A3E070309001D412157D7DF9
:101160000F1216D7C8ECC8C9EDC9CAEECACBEFCB6F
:1011700012167BEE3395E0FDFCEB7B1012164290CD
:1011800001D41215B0F9EE800F9002F4E0F9A3E05B
:10119000FF9001D41215B0C98FF0120B0F9001D43B
:1011A00012157D24A8FFE5F0801D9001CB1215B02B
:1011B0001216CE9001D41215B01216CE9002F5E0A0
:1011C00024A8FF9002F4E03461F99001D11215B027
:1011D00012168F22E4FB746A2B120EA5E0640160E4
:1011E00003021B7F74642B120F38E0FA6003021AAB
:1011F00096EB64017056120D6A120F05BF2003D3DF
:101200008001C34005E49001B9F09001B1E0FF64B2
:1012100001701B9001B0E09001B9B40109E04409EC
:10122000120E2A048015120E271210138016EF904A
:1012300001B9B4020BE04405120E2A120F88800493
:10124000120E27F0120FAE120D72EFF0EB64027067
:1012500059120D6A120F05BF2003D38001C3400548
:10126000E49001B9F09001B1E0FF6401701B9001BE
:10127000B0E09001B9B40106120EFAE48020E04417
:1012800004120E2A1210138019EF9001B9B402054E
:10129000E044058003E04404F0E490010CF0900188
:1012A000B8F0120FAE120D72EFF090019CE4F0A3B3
:1012B0007464F0021B75EA64016003021B75EB6441
:1012C000017068120D6A120F05BF2003D38001C39D
:1012D0004005E49001B9F09001B0E0FFB4020B903A
:1012E00001B9E0440A120EFD8013EF6401702690EC
:1012F000016FE09001B9B4010C120EFAE49001B84C
:10130000120F88801EE04402120EFDE49001B8F036
:10131000120F62800E9001B9E04402120EFDE490BB
:1013200001B8F0120FAE120D72EFF0EB64027065AF
:10133000120D6A120F05BF2003D38001C34005E4DC
:101340009001B9F09001B0E0B402139001B9E0440B
:101350000AF09001B87401F090010CF0802F900118
:101360006EE06401701C9001B1E09001B9B4010518
:10137000E044098013E04408120E2A04F0120F61C1
:10138000800B9001B9E04408120E2A04F0120FAE4F
:10139000120D72EFF0746A2B120EA5E4F0C28A0BE4
:1013A000EB640360030219B67F04227E007FFF7D99
:1013B000007B017A007905120CC69003107400F0CE
:1013C000A37405F09001BA7400F0A3746BF090025E
:1013D000657400F0A37455F09001317401F0A374AA
:1013E00000F0A374B9F09001377401F0A37400F019
:1013F00074AD120EE47400F0A37495F0900134748F
:1014000001F0A37400F0A374C7F090013D7401F0E3
:10141000A37400F074D3120EE47400F0A3742012CD
:101420000EE57401F0A37403F09000537403F09080
:101430002DE0E493120EC2FDF5828C83A3EFF090B1
:101440000002E0FFED2404120D74EFF0900001E0C3
:10145000FFED2405120D74EFF0900004E0FFED2481
:1014600006120D74EFF0902E73120FCEF0902E75C1
:10147000120FCEA3F0902DE2E493FFED2412120D93
:1014800074EFF0902DE3E493FFED2414120D74EF4C
:10149000F0902E6FE493FFED2432120D74EFF09074
:1014A0002E71E493FFED2433120D74EFF0ED24342C
:1014B000120D74E4F0ED2435120D747464F0900193
:1014C000467401F0A37400F0A3743D120EE574009D
:1014D000F0A3743F120EE57400F0A37441120EE500
:1014E0007400F0A37443F090014C120D14E475F0F5
:1014F000EB120B0F90014F120D14E475F019120B43
:101500000FE4FF75F002EFA42401F582E5F0342E1C
:10151000F583E493FE74552FF582E43400F583EEF1
:10152000F0EF25E02477F582E4342EF583E493FE92
:10153000746B2FF582E43400F583EEF0746B2F1298
:101540000D820FEFB416BC902F56E0900059F0902A
:101550002F56E090006FF09001007401F09000FFB2
:10156000F090003B7410F090001CF0900029F0A364
:101570007420F090018E7413F0A37488F02290020E
:10158000F3EFF09002F67408F02405A3F0120D11A9
:101590009002F3120D20120FA7120D1475F002EF36
:1015A000120D25120FD79002F4F0A3EFF0122DF1D7
:1015B0009002F6120F404003021E1F9002F3E0FF5C
:1015C000120EF0E0600AEF120DFFE4F0A3F0800CC1
:1015D000120F17120DFBEE8FF0120A11120DFB12F3
:1015E0000E90940FEE6480948040199002F3E0FD19
:1015F000120DFFE4F0A3F0120D11ED120DA6E4752B
:10160000F0018021C3EF94F1EE6480947F50199033
:1016100002F3E0FF120DFFE4F0A3F0120D11120D22
:10162000A574FFF5F0120AC29002F3E0FD242B121C
:101630000F23E4F07F04123C41120FDF021EE690FC
:1016400002F3E0FF242B120F23E07048120F2074E6
:1016500001F0120F17122DF1C3EF9432EE64809453
:10166000805031900134120D149002F3E0120D22DB
:10167000FBAAF0120F177C007D031209DBC3EB9F5E
:10168000FFEA9EFE120D119002F3E0120DA6EE8FFE
:10169000F0120B2E120F17122DF19002F3E0FD1233
:1016A0000E97E0FAA3E0D39FEA9E402674672D12BE
:1016B0000EF2E070239002F3E07F05123607120F5E
:1016C000DF1233B6EF6011120CF2120DA5120F4BA0
:1016D0008006120FDF123C41C39002F5E094F890AF
:1016E00002F4E06480947F501A120FE7123607125A
:1016F0000FE71233B6EF6011120CF2120DA5120FA4
:101700004B8006120FE7123C41120D119002F312AA
:101710000D20120FA7120D1475F002EF120D2512F5
:101720000FD790013D120D149002F3E0120DA6EEBA
:101730008FF0020B2E90017DE024FE601C14602FC0
:10174000147003022059240360030220AC90017D31
:101750007402F012370A123D051208667F017E00FE
:1017600012303190017D7403F0E49001AEF022124A
:101770002F6B900176E0700302203A9001AEE004F6
:10178000F0E49002F1F09002F1E0FFC39403400313
:10179000022035900131120D149002F1E0FE120D7D
:1017A0000275F002EE120DA9120F4B900131120DCD
:1017B000149002F1E0FE120D22120FA7120D147503
:1017C000F002EE120DA9120F4BEF6401703B120FE5
:1017D0000FFF240A120EAFE4F0EF240B120EAFE459
:1017E000F0900131120D149002F1E0120D22120E50
:1017F000C0FD240E120D74EFF09002F1E0120D22E4
:10180000FFED240F120D74EFF09002F1E06402700E
:101810003B120F0FFF240C120EAFE4F0EF240D1259
:101820000EAFE4F0900131120D149002F1E0120DB0
:1018300022120EC0FD2410120D74EFF09002F1E0A0
:10184000120D22FFED2411120D74EFF09002F1E061
:1018500004F0021F66E4900176F09001AEE0C394BC
:10186000034069900108747EF0E4900177F09001E4
:10187000AEF090017D7404F0229001AF7401F0127B
:10188000358312378A90025DE07003122F6B123598
:1018900083900176E064017033122BEB123583E400
:1018A0009002F1F09002F1E0FFC39403500E122574
:1018B000FF1235839002F1E004F080E81220AD12AF
:1018C00019B490017DEFF0E4900176F0229002F2DD
:1018D000747EF0E4A3F09002F3E0FDC394034003B0
:1018E0000221CA7F021233B6EF6003120F61900229
:1018F000F3E0120F36E0600302215C9002F3E0FF98
:10190000120E97E0FCA3E0FDEF120D5EE0FEA3E0F7
:10191000C39DEE9C40409002F3E09002F2F0120F63
:10192000367401F090016EE004F09001B0F0900286
:10193000F3E0FD120EA37401F0E4FF122211122253
:10194000111236079002F3E0FD7F08123607120EDF
:10195000EC7401F080129002F3E0FDE4FF1233B664
:10196000EF6005120EECE4F09002F3E0FD7F01124F
:1019700033B6EF606CE490016F0221BC9002F3E09B
:10198000FF120FC2E0FCA3E0FDEF120D5EE0FEA32C
:10199000E0C39DEE9C40379002F3E0FD9002F2F030
:1019A0007F081233B6EF6039900134E0FBA3E0FA10
:1019B000A3E09002F3120CFF120DA5120F4B12219F
:1019C000D9120EA37401F090016FE004800E122171
:1019D000D9120EA37401F090016FE004F09001B1F0
:1019E000F09002F3E004F00220B69002F2E0FF90E3
:1019F0000179E06F6002EFF0229002F3E0FD2464D1
:101A0000F582E43401F583E4F07F08123C41900252
:101A1000F3E0FDE4FF1236079002F3E0FD7F0112D0
:101A20003C419002F3E0FD7F011236079002F3E0A3
:101A300022123C419002F3E0FD7F02229001F2E08D
:101A400060689001F4120C5C000000001216341261
:101A50001684E490024EF0900256E07004A3E06415
:101A6000016003022372C31216F640030223729030
:101A700001CE12157DFF900263E02432FD900262D8
:101A8000E03400FCED2FFFEC35F0FE12157AD39F09
:101A9000E5F09E400E1215AD75F00512178B24056A
:101AA0001216689002561216C722E49002561216B9
:101AB00038A3F0A3F09001F412159BFBE9C0E0EA13
:101AC000C0E0EBC0E012157AFFE4FCFDD0E0FBD0F3
:101AD000E0FAD0E0F9EB2FFFEA35F0FEED39FDEC4E
:101AE00038FC9001F4120C509001F9E004F07006FB
:101AF0009001F8E004F0900192E07002A3E060032E
:101B00000223729001F41216B9FFEEC0E0EFC0E0BC
:101B1000A312172BD0E0FFD0E0FE120B979001F438
:101B2000120C509001CE12157D2414FFE435F0FE06
:101B3000E4FCFD9001F412159BFBD3120C3F4029ED
:101B400090018EE07002A3E0701F9001FBE004F0B2
:101B500070069001FAE004F0D39001FBE094059048
:101B600001FAE09400401280009001F41215A612D0
:101B7000168FE49001FAF0A3F0E490024EF0900189
:101B8000F4120C5C00000000E49001F8F0A3F012E5
:101B900016842290024C1217849404EE9400502F65
:101BA0009001C6E0FCA3E0FDEF25E0FFEE33FE74FC
:101BB000442FF58274023EF583ECF0A3EDF0900221
:101BC0004DE004F0700690024CE004F002243A90DC
:101BD00002FC7401F09002FCE0FF1216E9FCA3E0A5
:101BE000FDEF25E02442F582E43402F583ECF0A316
:101BF000EDF09002FCE004F0E0B404D99001F2E0D2
:101C0000601912157A1224A6500C12157AFF900250
:101C10004AE5F002243612171F803B12157A12246F
:101C2000A650309001CE12157DFFC39001C7E09FF2
:101C3000FF9001C6E095F0FE122DF11217695005D4
:101C40009001CE80039001C812157DFF90024AE5F5
:101C5000F0800312171FF0A3EFF09002F8120C5C53
:101C600000000000E49002FCF09002FCE0FFD39042
:101C7000024DE09F90024CE09400401D9002F8124B
:101C8000159BFBA3E01216E9FEA3E09002F81216E2
:101C9000149002FCE004F080D09002F81216B9FF14
:101CA000EEC0E0EFC0E090024C12172BD0E0FFD066
:101CB000E0FE120B979002F8120C509002F8A3A3CA
:101CC000E0FEA3E0FF22FF9001C6E0FCA3E0FDC31D
:101CD000EF9DFFE5F09CFE122DF1C3EF9428EE641A
:101CE00080948022C0E0C083C082C0D0ECC0E0ED10
:101CF000C0E0EEC0E0EFC0E0D2AFE5DB30E41D9025
:101D00000003123B74E4F0E5DB30E102803890031D
:101D10000FE5DFF0900312E4F00225E7E5DB30E5A4
:101D20001690030C123B74E06005E4F00225E79086
:101D30000003E4F00225E7900315E4F0E5DB30E171
:101D400035E5DB30E009123B46E0F5DF0225E790A0
:101D50000313E0FFB4080F208A0CD28A123B6524DB
:101D600007123B55E4F0EF641A60030225E7900385
:101D70001404F00225E7900312E0700EA3E5DFF0F3
:101D8000900312123B74F00225E7900313E0903B9E
:101D90001093FFB4FF0F90030FE5DFF0900313E003
:101DA00004F00225E1EF640F702B900313E0FF9025
:101DB0000316E0FCA3E0FD123B54E0540FF0900347
:101DC00013E0FF04F0ED123B54E0FFE5DF54F0FEBA
:101DD000EF4EF0802C123B46E5DFF0900313E0FF5E
:101DE000B4090B123B652408123B55E0F5D3EFB460
:101DF0000A0F900310E0FEA3E02409123B6DE0F50A
:101E0000D490030EE004F075DBFFD0E0FFD0E0FEDD
:101E1000D0E0FDD0E0FCD0D0D082D083D0E03290B2
:101E200002F2EFF0120D11120D1D120FA7120D1478
:101E300075F002EF120D25C39DE5F09C402990013D
:101E400034A3A39002F2E0120D22FDEF120F51ED28
:101E5000F090013D120D14120D1DFDEF120D5EE507
:101E6000F0F0A3EDF0801F9002F2E0FF120D5E1281
:101E70000FEF120D1475F002EF120D25FF9002F214
:101E8000E0120F51EFF09002F2E0FF120D5EE0FC65
:101E9000A3E0C39432EC94005008EF120D5EE4F01E
:101EA000A3F09002F2E0FF64017052EF120D5EE0C9
:101EB000FEA3E09002F3120FB54008120D2EEEF0D3
:101EC000A3EFF09002F2E0FD120D5EE0120E72241C
:101ED0000A120E5DED120D5EA3E0FFEB240B120E55
:101EE0005D120D11120D1DFDEF120D5E120E662416
:101EF0000E120E5DCFEDCFEB240F120E5D9002F2AD
:101F0000E0FF64027052EF120D5EE0FEA3E090026B
:101F1000F5120FB54008120D2EEEF0A3EFF090026F
:101F2000F2E0FD120D5EE0120E72240C120E5DED59
:101F3000120D5EA3E0FFEB240D120E5D120D1112C7
:101F40000D1DFDEF120D5E120E662410120E5DCFF8
:101F5000EDCFEB2411120E5D22C0E0C083C082C021
:101F6000D0D2AF9001A1E004F0D390018FE09400B3
:101F700090018EE09400400CA3E024FFF090018ECD
:101F8000E034FFF0D3900191E09400900190E09450
:101F900000400CA3E024FFF0900190E034FFF0D368
:101FA000900193E09400900192E09400400CA3E033
:101FB00024FFF0900192E034FFF0D3900195E0947B
:101FC00000900194E09400400CA3E024FFF0900105
:101FD00094E034FFF0D3900197E09400900196E0F4
:101FE0009400400CA3E024FFF0900196E034FFF051
:101FF000D3900199E09400900198E09400400CA3E4
:10200000E024FFF0900198E034FFF0D390019FE0CE
:10201000940090019EE09400400CA3E024FFF09017
:10202000019EE034FFF0D390019DE0940090019C6C
:10203000E09400400CA3E024FFF090019CE034FF0A
:10204000F0D390019BE0940090019AE09400400C42
:10205000A3E024FFF090019AE034FFF0D390025700
:10206000E09401900256E09400400CA3E024FFF0BD
:10207000900256E034FFF0D0D0D082D083D0E0324E
:102080009002F7EFF0900134120D149002F7120D48
:1020900020FDACF0900131120D1475F002EF120D1D
:1020A00025120FD7120DC9EE8FF0120A11ED120D85
:1020B000CEE0FEA3E0FF122DF1D3EF9414EE648086
:1020C000948050589002F7E0120DCE120E909403B7
:1020D000EE648094804016120DC9120FEF120D1499
:1020E00075F002ED120DA9E475F0018020C3EF94A4
:1020F000FDEE6480947F50189002F7E0FF120DCE41
:10210000120FEF120D14120DA574FFF5F0120AC292
:102110009002F7E02461120E1FE4F0229002F7E033
:10212000120DCEE0FEA3E0FF122DF19002F7E012B7
:102130000E97E0FCA3E0D39FEC9E400B120E0BE049
:10214000D3940240378009120E0BE0D39401402C47
:102150009002F7E0FF120DCEE4F0A3F090013112EF
:102160000D1475F002EF120D25120FA0120D149030
:1021700002F7E0120DA6EE8FF0120B2E229002F65F
:10218000EFF09002FBE4F0A374FFF0E4A3F0A3F0FF
:10219000A304F0A374FFF0902EC07402F0902EC33D
:1021A0007408F0E49002F7F0A3F09002F7E0FEA3C9
:1021B000E0FFC39409EE94004003022A45EF940720
:1021C000EE940040067E007F0180199002F7A3E0A4
:1021D00004FFE47E01C8EFC8088006CEA2E713CE54
:1021E00013D8F8FF9002F9EEF0A3EFF0121002906E
:1021F0002EC0E030E2F99002F6E0FF75F002A42470
:1022000000120DC0E0FCA3E0FD902EC07402F0D3DC
:10221000ED94FFEC940F40179002F9E0FCA3E0FD71
:1022200075F002EF120DBDEC8DF0120A11802590B1
:1022300002F6120DB9C083C082E0FEA3E0FF900257
:10224000F9E0FCA3E0FDC3EF9DFFEE9CD082D083BC
:10225000F0A3EFF09002F8E004F070069002F7E0CF
:1022600004F002298A7F0022121627121695902E5A
:10227000C4E4F0A3F0FF1215B80FEFB416F812166D
:10228000DF902E401216E2902EC57401F0E4FF128A
:10229000295D902EC57402F07F0112295D438903E8
:1022A00012162D438003121695903BAFE493FE74F3
:1022B0000193FF902E40E0FCA3E0C39FFFEC9EFE45
:1022C0001217699001C150057410F080037487F0F3
:1022D000903BB1E493FE740193FFFD902E42E0FA2F
:1022E000A3E0C39DFDEA9EFCD3ED9414EC648094BE
:1022F000804008902E42EEF0A3EFF09001C1E0FF85
:10230000900310E0FCA3E0241DF582E43CF583EF8C
:10231000F01216A61215B0F9EE8FF0120B0F902ED8
:1023200040E0FEA3E0FF1209749001EF1215B0F92E
:10233000EE8FF0120B0F12169C22120DDA120ECB3A
:102340009000FFE0600FE49002F2F0120D7B120F9C
:1023500096E0B416F6E49002F2F09002F2E0FFC3C9
:1023600094035011747E2F120DB2E4F0A374FFF0A9
:10237000120F9680E5E49002F2F09002F2E0FFC3C3
:1023800094035066EF1460111460162402701874E0
:1023900010120F767420F0800E120F747440F080CB
:1023A00006120F747480F09002F2E0247E120F6B1C
:1023B000FF12295DEF702D9002F2E0B4010F120DB3
:1023C000B0E0FFA3E09001AACFF0A3EFF09002F2FB
:1023D000E0FFB4020F120DB0E0FFA3E090017BCF4D
:1023E000F0A3EFF0120F96022B5A1239E6120E34B8
:1023F0009000FFE06014E49002F2F0120D7B120FE7
:1024000096E0B416F6E49000FFF022122EA2E490BB
:1024100002F2F09002F2E0FFC394034003022CB5F5
:10242000EF7003022C891228609002F2E0FF121D67
:102430005E9001B4E0601F90010CE070199001B84B
:10244000E0701390013D120D149002F2E0120DA6FF
:10245000E4F5F0120B2E90013D120D149002F212D1
:102460000D20FDACF0C39406EC6480948050028093
:102470004DC3ED9432EC64809480505090013D1235
:102480000D149002F2E075F002A4F582E92582F9BC
:10249000EA35F0FA120A27FFAEF07C007D0212093D
:1024A000DBEE8FF0120B0F802390013D120D149084
:1024B00002F2120D20C3E5F064809480500E90016A
:1024C0003DA3A3120DA5E4F5F0120B2E9002F2E04D
:1024D00004F0022BF3E4900176F022758A50538ABF
:1024E000EF9000027411F09000017422F09000044B
:1024F0007433F075997F759A80E4FFFEC2960020D0
:10250000970CD296003097069000027487F00FBFA8
:1025100000010EEF640A4E70E37589FE758901E4CF
:10252000FEFFC2810020800CD28100308006900026
:10253000027487F00FBF00010EEF640A4E70E3755E
:1025400090FF75993F759AC07580FF7589FC7595E8
:1025500003000000E4FEFF3080093081063096035E
:102560002097069000017487F00FBF00010EEF6402
:102570000A4E70E3E4F5AB75AC1DF5ADF5AF7589AA
:10258000FF75913E75991FF59675931CF59BF59512
:10259000F592F59A75AE0675D30575D40575800C60
:1025A000D28A90010404F0229002F8EFF0121695FE
:1025B000E49002F9F09002F9E0FF24551215BB9067
:1025C00002F9E004F0E0B416ECE49002F9F09002B5
:1025D000F8E0FFA3E0C39F500B1233159002F9E01F
:1025E00004F080EA902EC0E4F012169C7F011213D2
:1025F0001D9001C6EEF0A3EFF022123D09023BE16F
:102600000200AB18121B8B1230F690017D7401F0A2
:1026100022EE30E707C3E49FFFE49EFE22D2AF32F2
:10262000021003030A070D100E800FFF0C020BFFB0
:1026300023F724022502070127202A2028022B0243
:1026400029032C032D202E202F102620000000000F
:102650000001000000020000000300000004000070
:102660000005000000060000000700000008000050
:1026700000090000000A0000000B0000000C000030
:10268000000D0000000E0000000F0000001001000F
:10269000023203640464021103060A100D100E8056
:1026A0000FFF0C020BFF23F424042504070127105D
:1026B0002A1028042B0429032C032D202E202F1050
:1026C00026209002F37408F02405A3F0E4FF1228FA
:1026D00060120D11120F9D120D14121009FE9002BE
:1026E000F5F0A3EFF0122DF19002F3120F40501C01
:1026F000120E7C940AEE6480948040028044C3EF02
:1027000094F6EE6480947F5065022F3D9002F5E0D0
:10271000FEA3E0FF122DF19002F4D3120F414016F8
:10272000900134120D14120A27FF120D11E5F08FDB
:10273000F0120B0F8038120E7C9464EE648094804B
:102740004010E4900158F0A3F0120D11E475F0016F
:102750008019C3EF949CEE6480947F5011E4900143
:1027600058F0A3F0120D1174FFF5F0120A8A120D41
:1027700011120F9D120D14121009F990013DE0FB8A
:10278000A3E0FAA3E0C98FF0020B0F120DDA120ECC
:10279000CBE4FF746B2F120D820FEFB416F5E4FF3C
:1027A000120FF7601314601924027021120EB67410
:1027B00010F0902ECAF080157440120EB8740C8080
:1027C00005120F7E7411F0902ECA7408F0121002D8
:1027D000902EC0E030E2F90FEFB403C4E4FF120F13
:1027E000F7601314601924027021120EB67410F0F1
:1027F000902ECAF080157440120F80740C80051260
:102800000F7E7411F0902ECA7408F0121002902EF0
:10281000C0E030E2F9747E2F120F6B75F002A42431
:1028200000120DC0E0FCA3E0FD900131120D141266
:102830000DA5EC8DF0120B2E0FEF640370A0902EFF
:10284000C4E4F0902EC0F0120E349001767401F0C2
:10285000229002F4EEF0A3EFF04E6003122A48E457
:1028600090024CF0A3F090023CF07F10122D8812E1
:1028700016C4A37403F0A374E8F09002561216373E
:10288000A3F0A3F09001C6E0F9A3E0FFA31215B0F6
:1028900012168F9001CB1215B01216CE9001D112E4
:1028A00015B012174F9001D41215B01216CE900128
:1028B000D71215B012174F121758E49001F2F0908A
:1028C0000194F0A37432F090023F120C5C000000FF
:1028D00000E4900243F09001F4120C5C0000000050
:1028E0001216349001C61215A812168FE49001F347
:1028F000F09002F4E07002A3E0600F9001FEE0FFB0
:10290000A3E0900251CFF0A3EFF0E490019E1217E4
:102910005F900253F0227F967A0179C612173F909A
:1029200001C87401F0A37400F074451216547400C9
:10293000F074471216547400F0A3744912165574BB
:1029400000F0A374331216557400F0A3742F1216FE
:10295000557400F0A3742DF09001E37401F0A3749A
:1029600000F0A374271216557400F0A3741D1216FC
:10297000557400F0A37423F0F99001EF7401F0A3F3
:102980007400F0A3E9F09001DA7401F0A37400F090
:10299000A374371216557400F0A3742B12165574D5
:1029A00000F0A37439F09002621217489001DA1215
:1029B00015B0F9E475F0C8120B0F9001DD1215B0D7
:1029C000F9E475F064120B0F9001E01215B0F9E410
:1029D00075F0A0020B0F9001A9E0706B04F0E4FF0A
:1029E000EF25E024D5F582E4343B120F2B25E024BB
:1029F0001FF582E43401F583ECF0A3EDF0EF25E060
:102A000024CFF582E4343B120F2B120E97ECF0A387
:102A1000EDF0EF25E024DBF582E4343B120F2B12BE
:102A20000FC2ECF0A3EDF00FEFB403B490011BA3C1
:102A3000E0120EC2FDF5828C83A3A3EFF090011D7E
:102A4000A3E0120FD0A3F0120F0FF5828E83A3E044
:102A5000B4AA0312393E120F0FFF120EADE0B410EC
:102A60000BEF120EADE4F090025C04F0120F0FFFBA
:102A7000241B120EAFE0700DEF241C120EAFE0B459
:102A80001003123A2A22EF75F003A4247AF582E4A7
:102A90003402F583E58222F583E493FE740193FF0B
:102AA000E4FCFD902F60E0F8A3E0F9A3E0FAA3E0D6
:102AB0002FFFEA3EFEED39EC38222EF582E4358315
:102AC000F5832274E82BF582E43402F58322E4E0F6
:102AD00075F008A42498F582E43402F58322EFF01F
:102AE000FCA3E0FE131313541F2225E02468F58293
:102AF000E43402F58322E0FF74017E00C8EFC808C9
:102B000022902F60A3A3E0FEA3E0FF22F583C3740D
:102B100001939FE4939E2225E0249AF582E4343CBD
:102B200022E0FCA3E0FDD39FEC9E2225E024AEF53D
:102B300082E4343C22121627121695902EC504F01A
:102B4000902EC4E4F0902EC07419F07F047A0279BC
:102B5000FA12173FE4FF902EC0E030E2F9902E0009
:102B6000E0FCA3E0FD9002FBE02DF09002FAE03CD7
:102B7000F0902E02E0FCA3E0FD9002FDE02DF0902D
:102B800002FCE03CF0EFC394015007902EC0E054EB
:102B9000FBF00FEFB402BF902EC5E4F0902EC0F012
:102BA00043890312162D43800390023CE075F00424
:102BB000A424FCF9740135F0C8E9C8FC7D017B014F
:102BC0007A0279FA7E007F0412094E90023CE004FA
:102BD000F0E0540FF0229002F9EDF09002F812327A
:102BE000BEA3F0EE5407A3F09002FAE0FFEC12321D
:102BF000672F12329BE0FD7C009002FB1232D680E0
:102C000005C333CE33CED8F9FFEE5CFEEF5D4E60E8
:102C1000621232E19002F81232AEC083C08290029A
:102C2000F9E0D082D08375F002120C8D123301507E
:102C300042C3EF9DFFEE9CFE9002F8E0FD1232F7DA
:102C40001232EC402E9002FAE0FFED1232672F12A2
:102C5000329BC083C082E0FF9002FBE0FE7401C89B
:102C6000EEC8088002C333D8FCF45FD082D083F072
:102C70007F01227F00224100030041010510410134
:102C8000B2004101B3004101AE004101AC0041017D
:102C9000AF004101B9004101A90041010C0041010F
:102CA000B8004101BD004101AD004101B400410146
:102CB00009004101BC0050017E0D0E0F10101010D4
:102CC00010101010101010101041031200410313C7
:102CD0000042030A000041030C0041030E004103BF
:102CE0000D00410315004103140041030F10410181
:102CF000BE004101C11042026200C841025C0041B5
:102D0000025D00410264004101C0004101BF104169
:102D100002670000900109E090026260097405F00A
:102D2000A374DCF080031217489001CB12157DFFCD
:102D3000D3900263E09F900262E095F0401C900106
:102D4000F2E060279001E012157DFFAEF09001CB1C
:102D500012157DC39FE5F09E4011900198E070022E
:102D6000A3E070279001F204F0802090001CE0B4F2
:102D700020051217378006900198121748E4900139
:102D8000F2F0900196F0A3F01217589001F2E06073
:102D900011900029E090003BB410047410F02274EC
:102DA00020F0229001ADE0146019146049240270F3
:102DB0006430885C1235F69001BC7401F090010912
:102DC000F0804D7F02123C11EF600A7F02123CFC42
:102DD000E49001BCF020883D9001AD7402F09001B8
:102DE000B414F0E49001BCF0900109F07F03123CB0
:102DF000FC7F03023B7B7F03123C11EF60177F03D4
:102E0000123CFC208807E49001ADF080031235F6F7
:102E1000E49001B4F0229001AD7401F07F02123C05
:102E2000FC7F02123B7B229002F9EDF09002F81237
:102E300032BEFDEE5407A3F0EC1232672D12329B26
:102E4000E0FB7A009002FA1232D68005C333CE330B
:102E5000CED8F9FFEE5AFEEF5B4E704D9002F8E0CF
:102E6000FE1232672D12329BC083C082E0FF9002B7
:102E7000FAE0FD7401C8EDC8088002C333D8FC4FE6
:102E8000D082D083F0EE1232F71232779002F8122D
:102E900032AEC083C0829002F9E0D082D08375F058
:102EA00002120C8DEEF0A3EFF022023ADAE493A3C3
:102EB000F8E493A34003F68001F208DFF48029E4EC
:102EC00093A3F85407240CC8C333C4540F4420C838
:102ED000834004F456800146F6DFE4800B010204CF
:102EE0000810204080903456E47E019360BCA3FF1C
:102EF000543F30E509541FFEE493A360010ECF5404
:102F0000C025E060A840B8E493A3FAE493A3F8E4F2
:102F100093A3C8C582C8CAC583CAF0A3C8C582C85E
:102F2000CAC583CADFE9DEE780BEE49001A9F0FFED
:102F3000EF120DCEE4F0A3F0EF120DFFE4F0A3F0DA
:102F4000745E2FF582E43401F583E4120E1BE4F085
:102F5000EF25E02470F582E43401F583E4F0A3F07A
:102F600074642F120F38E4F0746A2F120EA5E4F087
:102F700090016D747EF0120F20E4F0742E2FF58214
:102F8000E43401F583E4F00FEF640370A3E49001EF
:102F90006EF0A3F09001B0F0A3F0900179747EF090
:102FA000900108F0E4900178F022E49001A1F01281
:102FB0001703703290025DE07008900190F0A374E6
:102FC00064F090025D7401F09001C0F090002AE07E
:102FD000B4200812387112101D8003123AA2900119
:102FE000A07401F08041E490025DF09001C0E060C7
:102FF00024900264E004F0E0C39407500B90011B9E
:10300000E4F0A374FAF0800DE49001A9F09002645A
:10301000F09001C0F090002AE0B4200312387190C3
:1030200001A0E06002E4F0023CDE902EC0E4F090EB
:1030300001B3F09001B2F0FC747E2C120F6BFE1302
:103040001313541FFDEE5407FEED14601B04702E85
:103050009001B2E0FD7401C8EEC8088002C333D805
:10306000FC4D9001B2F080169001B3E0FF7401C8EE
:10307000EEC8088002C333D8FC4F9001B3F00CECCB
:10308000B403B5120DDAF45296A3E0F4529B7F0319
:103090002290025CE0700C9001B4E070069001BCDC
:1030A000E0600CE4FFFE123031E490025CF022900C
:1030B000019CE07002A3E06005121703703612381D
:1030C000D87F01122D881223739002F2EEF0A3EF45
:1030D000F07B017A0279F212399D9002F2E0F9A3B5
:1030E000E0FF9001C81215B012168F121795123416
:1030F000F412221C123A6722900314E0605FE490FD
:103100000314F0121627121695902EC4E4F0A3F0C3
:10311000FF1215B80FEFB416F8902E42E0FFA3E0AF
:103120009002F4CFF0A3EFF01216DF902EC57402D8
:10313000F07F0112295D43890312162D438003128B
:1031400016A61215B01217101216959002F4E0FF91
:10315000A3E0902E42CFF0A3EFF012169C22900233
:10316000F17408F0A3E4F0A3743FF0A374DFF0E47B
:10317000FDFCF9758A10538AEF009002F1E0FEA37E
:10318000E02DF582EE3CF583E493FF69F90DBD0077
:10319000010CBC37E5BDDFE29002F3123B5CE49327
:1031A000699003107009123B5CA37402F080061250
:1031B0003B5CA3E4F0758A50538AEF00229002F43E
:1031C000EBF0A3EAF0A3E9F0900190E07002A3E035
:1031D00070339001F3E0602DE49001F3F09002F77A
:1031E00004F07F01122D881223739002F41215B09F
:1031F0001217109002F7E004F0E0C3941040E312BD
:1032000016C412173722900104E0603DC39001AB51
:10321000E094209001AAE094005006900004748786
:10322000F0C390017CE0942090017BE09400500674
:103230009000047487F0E4900104F0900004E01220
:103240000EC22406120D74EFF02212082EE4F5F2DD
:1032500075F30875EEFF75EF3F75EA81F5F675EBCE
:103260000700E5EC30E7FBE4F5EC900310E0FEA38B
:10327000E0FF241B123B6DE5F3F0EF241C123B6DC5
:10328000E5F2F075EB302290003BE0FC9001BFE0EE
:103290006C602E90003BE0FE9001BFF090000CE0CF
:1032A0009001B9F0540FF0EEB42005E04420800AFC
:1032B000ECB4100B9001B9E04410F090000CF0C297
:1032C0008A22E4F5B2F5BA758D20438D20538D7FA7
:1032D00053AAF7F58BE5DB20E21C900003E07016A3
:1032E000F58A758703000000758A5090025C04F02F
:1032F00090002A7420F0758B112212084E53A87F7B
:10330000122CBB122DE4123C6F43A880122DDA124E
:103310003CC0EF24E0600A2410700AC283C282809D
:1033200004D283D2821231B612081E121F1580DF1A
:1033300000000000FFFFFFFF0000FFFFFFFFFFFF97
:10334000FFFFFF00FF000000FFFF000000FFFFFF86
:10335000FFFFFFFF00000000FFFFFFFFFFFFFFFF79
:10336000FFFF00000000900313E0FF04F09003163D
:10337000E0FCA3E02FF582E43CF58322E0FEA3E02D
:10338000F5828E8322900310E0FCA3E022F582E414
:103390003EF583227401F0900315229002F2EFF0C3
:1033A000E024E81232A6E060037F01229002F2E0FE
:1033B000FF24E81232A67401F0EF12330B123277B9
:1033C0009002F2E01232CAEEF0A3EFF07F0022008A
:1033D0006000C700A000A000A000A000A000A00006
:1033E000A000A000A000A000A00018008000B00075
:1033F0009600960096009B009B009B008C008C0022
:103400008C758B11902F647440F0E4FEE4FF12324F
:103410006612329AE4F00FEFB40AF30EEEB403EC46
:103420007F099002E8E4F0A3DFFC902F647480F041
:1034300022CBEFCB1232A3E060241232E1EB123246
:10344000CA1233015018C3EF9DFFEE9CFEEB1233FE
:103450000B1232EC40081232A3E4F07F01227F000D
:1034600022ED131313541FFEED5407FD12326612A2
:10347000329AC083C082E0FFCEEDCE7401C8EEC8A0
:10348000088002C333D8FCF45FD082D083F022904E
:103490000310E0FFA3E0900316CFF0A3EFF0E4F5F4
:1034A000DA75DA4043DA2075D74075DA5875D901F4
:1034B00043A90875B80875F8082201F40028002807
:1034C00001F4009603E801F403E81770006403E8D0
:1034D0000032012C012C012C01F403E8271000C854
:1034E000E4FF90030CE06015123B65F5828C83E0ED
:1034F000FE54F0FFEE540FF0E490030CF022E5B21E
:1035000030E005E5AA20E013E49001A2F075B28E48
:1035100075B6F9F5B743B20143AA012274E82F1238
:1035200032A6E4F02212175822023CDE000000000E
:10353000000000000000000000000000000000008B
:10354000000000000000000000000000000000007B
:10355000000000000000000000000000000000006B
:10356000000000000000000000000000000000005B
:1037F0000000000000000000000000000000008049
:1038000000000000000000000000000000000000B8
:1038100000000000000000000000000000000000A8
:00000001FF
