:100000000060000000030000CCDA000000000000E7
:1000100000000000000000000000000000000000E0
:1000200078FFE4B8200118F6D8F99000007F007E30
:1000300007E4F0A3DFFCDEFA7581070237EA12223B
:100040003A1231BD90023D7401F022023E2B74AA97
:100050007583F5758255A574557583FA7582AAA5C1
:1000600074A57583F5758255A5220002263090404F
:100070007FE493FF64326003EF7002002253A87F95
:100080000080FD0224EE123624900100E060081288
:100090002ACAE4900100F022D2AF32020878E709C0
:1000A000F608DFFA8046E709F208DFFA803E888228
:1000B0008C83E709F0A3DFFA8032E309F608DFFA60
:1000C0008078E309F208DFFA807088828C83E30984
:1000D000F0A3DFFA806489828A83E0A3F608DFFA5E
:1000E000805889828A83E0A3F208DFFA804C80D2AC
:1000F00080FA80C680D4806980F28033801080A628
:1001000080EA809A80A880DA80E280CA803389827F
:100110008A83ECFAE493A3C8C582C8CCC583CCF02B
:10012000A3C8C582C8CCC583CCDFE9DEE7800D89D2
:10013000828A83E493A3F608DFF9ECFAA9F0EDFBD9
:100140002289828A83ECFAE0A3C8C582C8CCC58321
:10015000CCF0A3C8C582C8CCC583CCDFEADEE8807A
:10016000DB89828A83E493A3F208DFF980CC88F0EC
:10017000EF60010E4E60C388F0ED2402B40400501D
:10018000B9F582EB2402B4040050AF232345822347
:100190009008CE73EF8DF0A4A8F0CF8CF0A428CEF9
:1001A0008DF0A42EFE22BC000BBE0029EF8DF08442
:1001B000FFADF022E4CCF875F008EF2FFFEE33FE30
:1001C000EC33FCEE9DEC984005FCEE9DFE0FD5F067
:1001D000E9E4CEFD22EDF8F5F0EE8420D21CFEAD70
:1001E000F075F008EF2FFFED33FD4007985006D56E
:1001F000F0F222C398FD0FD5F0EA22C2D5EC30E729
:1002000009B2D5E4C39DFDE49CFCEE30E715B2D500
:10021000E4C39FFFE49EFE120986C3E49DFDE49CB7
:10022000FC800312098630D507C3E49FFFE49EFEDD
:1002300022C5F0F8A3E028F0C5F0F8E58215827039
:10024000021583E038F022BB010A89828A83E0F537
:10025000F0A3E022500687F009E71922BBFE07E36E
:10026000F5F009E3192289828A83E493F5F0740199
:100270009322BB0110E58229F582E5833AF583E0FC
:10028000F5F0A3E0225009E92582F886F008E6227D
:10029000BBFE0AE92582F8E2F5F008E222E5832AAE
:1002A000F583E993F5F0A3E99322BB010789828ADC
:1002B00083020A11500B09C5F027F7C5F01937F76B
:1002C00022BBFE0D09F8E325F0F3C5F019E338F37E
:1002D00022F889828A8374019325F0C5F0F8E493AB
:1002E0003822BB010DC58229C582C5833AC5830268
:1002F0000A115011C58229F808E5F026F618F5F024
:10030000E58236F622BBFE11C58229F808E225F007
:10031000F5F0F218E23582F222F8E58229F582E55D
:10032000832AF58374019325F0F5F0E4933822BB1A
:10033000010A89828A83F0E5F0A3F0225006F709CA
:10034000A7F01922BBFE06F3E5F009F31922F8BB6A
:100350000111E58229F582E5833AF583E8F0E5F0BD
:10036000A3F0225009E92582C8F608A6F022BBFEB8
:1003700009E92582C8F2E5F008F22275F0087582D5
:1003800000EF2FFFEE33FECD33CDCC33CCC582331F
:10039000C5829BED9AEC99E58298400CF582EE9B24
:1003A000FEED9AFDEC99FC0FD5F0D6E4CEFBE4CD42
:1003B000FAE4CCF9A88222B800C1B90059BA002DDC
:1003C000EC8BF084CFCECDFCE5F0CBF97818EF2F95
:1003D000FFEE33FEED33FDEC33FCEB33FB10D703C4
:1003E000994004EB99FB0FD8E5E4F9FA227818EF6D
:1003F0002FFFEE33FEED33FDEC33FCC933C910D7CC
:10040000059BE99A4007EC9BFCE99AF90FD8E0E4D8
:10041000C9FAE4CCFB2275F010EF2FFFEE33FEEDAE
:1004200033FDCC33CCC833C810D7079BEC9AE8997E
:10043000400AED9BFDEC9AFCE899F80FD5F0DAE460
:10044000CDFBE4CCFAE4C8F922EB9FF5F0EA9E423A
:10045000F0E99D42F0EC6480C864809845F022EB9E
:100460009FF5F0EA9E42F0E99D42F0E89C45F022BB
:10047000ECF0A3EDF0A3EEF0A3EFF022A8828583C9
:10048000F0D083D082120C73120C73120C73120C06
:1004900073E473E493A3C583C5F0C583C8C582C85C
:1004A000F0A3C583C5F0C583C8C582C822A4258230
:1004B000F582E5F03583F58322EC8EF0A4CCC5F00F
:1004C000CCCDF8EFA4CEC5F02DFDE43CFCE8A42E85
:1004D000C8C5F03DFDE43CFCEFA4FFE5F028FEE4D8
:1004E0003DFDE43CFC22EF4E6012EF60010EEDBBDF
:1004F000010B89828A83F0A3DFFCDEFA2289F050A7
:1005000007F709DFFCA9F022BBFEFCF309DFFCA919
:10051000F022208A03021002900250E07002A3E051
:1005200060030210021212366003021002900138BA
:10053000E07050900123121017FFAEF090011112DD
:100540001017D39FE5F09E40030210021210141200
:10055000102BF9E5F08FF0120B0F90013A120C5CA2
:10056000000000001210FA9001AEF0A3F0A3740492
:10057000F01412118B12128F9002561212AE9001CB
:10058000C080049001C0E4F0A3740CF0E4F5B2F56F
:10059000BA12116BE4FF1210560FEFB416F8900068
:1005A00056E025E0902EC3F0A3E4F0A37402F0120D
:1005B00010D79001B6E0FFA3E0900108CFF0A3EFC1
:1005C000F0900321E0FF6003020FF9758D20438D49
:1005D00020758D8043AA08D2AF758B02758EAFEF60
:1005E000701B90001CE0B42014900003E0700EE536
:1005F000DB20E209758AC4758703000000758B1142
:10060000758A5053AAF7D390024FE0949090024E0F
:10061000E09401400EA3E02470F090024EE034FE1E
:10062000F08007E490024EF0A3F01210D753997FA8
:10063000902EC07419F0902EC0E030E2F9902E0296
:10064000E0FFA3E09001C2CFF0A3EFF0902EC0E452
:10065000F04389021210DD1212229001C21212E040
:10066000900109E09FFF900108E09EFE122DE490AA
:10067000010AEEF0A3EFF0D39001C1E09F9001C01A
:10068000E09E5003020FDC9001087D091211A0903A
:1006900001C2E0FAA3E0FB2FFFEA3EFE0D1209863D
:1006A000900108EEF0A3EFF0900138E07063FE7F58
:1006B00010CDEBCDCCEACC121037FBD3120C3F900F
:1006C0000307400B1210A5900307121106800712B2
:1006D0000C5C0000000012126390030712104BFB29
:1006E000D3120C3F400A900307120C5C0000EA6032
:1006F0009001141210171211E090030712104B1200
:1007000011181212F190030712102512114F020F47
:10071000DC9001C2E0FEA3E0FF7C007D10121037E8
:10072000FBD3120C3F90030740171210A59470FFE3
:10073000EE9411FEED9401FDEC9400FC1212F18098
:1007400007120C5C000000001212639003071210E5
:100750004BFBD3120C3F400A900307120C5C0000C5
:10076000EA601210141211E090030712104B1211DC
:10077000181212F1900307A3A3E0F9A3E0FF900180
:100780000E12102F12114F900114121017FFAEF01D
:10079000E4FCFD90030712104BFBD3120C3F407991
:1007A000121003C39FFFE5F09EFE9001C41212C910
:1007B0004003020FF9D39001B9E094009001B8E032
:1007C000940040381212295033900114121017FF70
:1007D000ED2446FDE43CFCED2FFFEC35F0FE12105D
:1007E00014D39FE5F09E400E12102C75F0141212D7
:1007F000E724141211559001B81211D212119490DD
:1008000001C01212E090010BE09F90010AE09E509F
:10081000081212367003020DA112114090013974B2
:1008200001F022900114E0FBA3E0FAA3E0F9120A20
:1008300027FFAEF090010EE0FBA3E0FAA3E0F9027F
:100840000A2790013AA3A3E0F9A3E0FF900114E086
:10085000FBA3E0FAA3E022120C99900307120C50BC
:100860009003077F707E117D017C00E0F8A3E0F922
:10087000A3E0FAA3E02274552FF582E43400F58357
:10088000E0FE75F002EFA42400F582E5F0342EF5C9
:1008900083E49324C0F582E4342EF583EEF02290B5
:1008A0000310E025E025E02442F582E43401F583DD
:1008B00022FAF9F890031AE075F009A4248FF58262
:1008C000E43401F583E0FCA3E0FDA3E0FEA3E02215
:1008D000E0FEA3E0FFE4FCFDEB2FFFEA3EFEED3976
:1008E000FDEC38FC2290031AE075F009A4248DF584
:1008F00082E43401F5832243AB025389FD5395FD15
:100900005396FD22120C5090031AE0FF75F009A4D3
:100910002493F582E43401F5832290013EE4F0A3B0
:10092000F0A3F0A3F0229470FFEE9411FEED940179
:10093000FDEC9400FC020C507B0A2FFFEA3EFEE91E
:100940003DFDE83CFCE4FAF9F8020B97A3F0A37430
:1009500001F0A32275F002120C8DE0FEA3E0FF224D
:100960007F127A01798D7E007D007B01020CC6C961
:100970008FF0020B0FF09001BAE03400F0E0FFA31B
:10098000E0A3CFF0A3EFF02253997F902EC0740222
:10099000F02275F009A4248FF582E43401F5832256
:1009A000900309E0FEA3E0FF227403900252F0A33B
:1009B00074E8F0225389FD5395FD439602227D038E
:1009C000E0FEA3E0FF7C00020974902E42E0FEA34B
:1009D000E0FF7C007D1412097490012C22902E42BD
:1009E000E4F0A374FFF0902EC57402F07F01229012
:1009F0000250E4F0A37464F022F9E4F5F0020B0F66
:100A00007D09FFAEF07C00020C9975F009A42494D6
:100A1000F582E43401F58322FF90018AE02FF09003
:100A20000189E03EF0227D017B017F0412094E9096
:100A30000182E0229BFFEE9AFEED9400FDEC940013
:100A4000FC22438002439980229001BBE094FA90FB
:100A500001BAE094002290001CE0642022F9EE8F9D
:100A6000F0020B0F900318E0F9A3E0FF90031B22A4
:100A70007E007F047D007B01020CC6900310E0FE27
:100A8000A3E022E47F607EEAFDFC2225E024A6F5B7
:100A900082E43401F5832290010CE0FFA3E0900191
:100AA000ACCF22E0FEA3E0FBCAEECAE4F9F822E4F0
:100AB000900258F0A3F022E4F0A374C8F022F97475
:100AC0006175F0A8020B0F90003B7410F022F0A3A8
:100AD000F090025CF0A3F022E0FCA3E0FDC322C989
:100AE000EDC9CAEECACBEFCB22E0FCA3E0FDD39F59
:100AF000EC9E22900310E004F022900311020C50AF
:100B0000E0FEA3E0FFC322F9E4120A8A9001BBE0F1
:100B100022900307020C509001F4E0FBA3E0FAA33B
:100B2000E0900308F9E0FF75F002A4F58285F083F8
:100B3000120A52FDACF09001F7E0FBA3E0FAA3E04B
:100B4000F922900307E0FF75F002A4F58285F08397
:100B5000020A52900307E0FBEF240CFFEE34FEFE86
:100B60007C007D0A1209747D32120986EF24F4FF9D
:100B7000EE3401FEEB25E024D3F582E43401F58365
:100B800022900307E0FF246BF582E43400F583E054
:100B9000FEEF25E02476F582E4342EF583E49324F9
:100BA000C0F582E4342EF583EEF022900325E0FCBC
:100BB000A3E0FD2407F582E43CF58322EF75F00203
:100BC000A4F58285F08322243EF582E43402F58385
:100BD000E075F002A42440F582E5F0342EF583227E
:100BE00090030CE0FD25E02412F582E43402F58345
:100BF00022900308E025E02418F582E43402F5830E
:100C00002290030CE0FF2421F582E43402F583E016
:100C100004F074212FF582E43402F58322F0EF25ED
:100C2000E025E0248EF582E4343BF583E49322E072
:100C30004401F0E49001CCF09002772290030AE0A6
:100C4000FEA3E0FF900219E02FF0900218E03EF0C2
:100C5000E0FEA3E0FFD322F582E43AF583EFF02231
:100C6000E0FEA3E02DFFEE35F0CDEFCDFF900325A4
:100C7000E0FAA3E0FB2225E024D9F582E43401F573
:100C80008322242AF582E43402F58322241AF58291
:100C9000E43EF58322E5F0FF900325E0FCA3E0228B
:100CA000900308E02427F582E43402F58322E0442F
:100CB00006F09001CC7401F022E0900278F054F03C
:100CC000FFF022900325E0FEA3E022900309E0FE5E
:100CD000A3E0FF2274EB2FF582E43401F58322F5C3
:100CE00083E493FC740193FDEF222424F582E43421
:100CF00002F58322C3E0FDEF9D7480F86E98229088
:100D00002EC07402F022EC8DF0020B2E25E024CDD3
:100D1000F582E43401F583E5F0F0A322E490022E9D
:100D2000F090026FF022F582E43402F583E022F0C5
:100D3000742B2BF582E43402F583E4F02290030750
:100D4000E004F022120A27FFAEF09001F422FDAC7D
:100D5000F09001F422900278E0FFED2225E024E5F6
:100D6000F582E43401F58322A3F0A37401F0A322F9
:100D7000C39DFFE5F09CFE22900308E0FD7F052265
:100D8000900308E0FD7F0422E4F0A3F09001F42238
:100D9000F5ABF5AD7589FF7599FF22902ECA7411D8
:100DA000F0902EC422120A27C39FFFE5F09E22F086
:100DB00090022FF0900270F02290030FEFF090035A
:100DC00011120C5C0000000090030FE0121085E08F
:100DD000FEA3E0FF900317EEF0A3EFF0E4A3F0A36F
:100DE000F0A3EEF0A3EFF074FFA3F0A3F0900310D4
:100DF0007401F0900310E0FFC39410400302167CCE
:100E0000EF121083C083C08290030FE0D082D083A2
:100E100012113490031B1212C9400BA3ECF0A3ED86
:100E2000F090031B801F12107FC083C08290030FBD
:100E3000E0D082D083121134D390031EE09F900340
:100E40001DE09E4005EEF0A3EFF012107FC083C0BE
:100E50008290030FE0D082D08312113490031712D6
:100E600012B89FEC9E500BA3ECF0A3EDF09003178B
:100E7000801F12107FC083C08290030FE0D082D009
:100E800083121134C390031AE09F900319E09E501F
:100E900005EEF0A3EFF01212D30215D39003111256
:100EA0000C5C00000000E4900310F090031112109D
:100EB0004BFB12107FC083C08290030FE0D082D022
:100EC0008375F002120C8D1210B01212DA1212D3C6
:100ED000E0B410D790031BE0FEA3E0FF900318E0FE
:100EE0002FFF900317E03ECBEFCBFA9003111210C7
:100EF000A5C3121214EEC0E0EFC0E090031DE0FEA7
:100F0000A3E0FF90031AE02FFF900319E03ECBEF20
:100F1000CBFAD0E0FFD0E0FEC3EF121214E47B0C5A
:100F20001211261212DA900311A3A312115D90037D
:100F30000FE0B4010F900315E0FFA3E09001B6CFDE
:100F4000F0A3EFF0900311120C5C00000000E4909D
:100F50000310F0900310E0FFC394105059EF1210EB
:100F600083C083C08290030FE0D082D083121134FB
:100F7000C3900316E09FFF900315E09EFE122DE440
:100F8000D3EF9432EE6480948090031112104BFBE7
:100F90004003A3801512107FC083C08290030FE02E
:100FA000D082D08375F002120C8D1210B01212DABA
:100FB0001212D3021733900311121043FBD3120CF9
:100FC0003F900311400B1210A590031112110680DF
:100FD00007120C5C00000000121263900311121043
:100FE0004BFBD3120C3F400A900311120C5C000023
:100FF000EA60900311A3A3E0FEA3E0FF2212100316
:10100000FDACF0D39FEC9E4037900114121017FFF7
:10101000C3ED9FFFEC95F0FED3EF9430EE94754056
:101020000D9003097475F0A37430F0021863121068
:101030000EC39FFFE5F09E900309F0A3EFF08043FD
:10104000121014FFAEF0900114121017FDACF0C393
:101050009FFFEC9EFED3EF9410EE9427400C90037C
:101060000974D8F0A374F0F08012121014FFC3EDCD
:101070009FFEEC95F0900309F0A3CEF0E4900309F5
:10108000F0A3F0900138E06048121180D39400EE94
:1010900064809480401A900126121017FDD3EF9DB2
:1010A000EE95F0400B900256E4F0A37432F0802BE2
:1010B000D3900257E09400900256E09400401C90B8
:1010C0000111121017FF900309E5F0F0A3EFF08073
:1010D0000A90025A7403F0A374E8F0121180D394BA
:1010E00000EE6480948050030219C990011112101F
:1010F0002F12123D121180D394E8EE648094835035
:101100000BC3EF94C8EE648094805007E49001BC58
:10111000F0A3F09001BCE0FEA3E0FF90030AE02FF3
:10112000F0900309E03EF0E0FEA3E0FFEE3395E02F
:10113000FDFCE47BB87A88F9F8C3120C29500A90B8
:1011400003097488F0A374B8F0D3900259E09400B6
:10115000900258E094004036900123121017FF903F
:1011600003091212B89FEC95F040069001CBE060A5
:101170001DD3ED9400EC6480948040121211807CA9
:10118000007D641209DB900309EEF0A3EFF09001FB
:1011900038E0603490025AE07002A3E0702A9001B7
:1011A0001A1210177D0F1211E2C8ECC81212BF12EA
:1011B0001180EE3395E0FDFCEB7B1012111A9001CB
:1011C0001A12102FF9EE800F900309E0F9A3E0FF47
:1011D00090011A12102FC98FF0120B0F90011A12E2
:1011E000101724A8FFE5F0801D90011112102F1296
:1011F00011D990011A12102F1211D990030AE0246C
:10120000A8FF900309E03461F990011712102F1222
:10121000114F22E4FB742A2B121464E06401600372
:10122000021BBE74242B1214CCE0FA6003021AD500
:10123000EB6401705612138B121499BF2003D380F4
:1012400001C34005E4900278F0900270E0FF640171
:10125000701B90026FE0900278B40109E04409121B
:10126000141204801512140F12158F8016EF9002BD
:1012700078B4020BE0440512141212150F80041208
:10128000140FF0121535121393EFF0EB640270593E
:1012900012138B121499BF2003D38001C34005E4BD
:1012A000900278F0900270E0FF6401701B90026F72
:1012B000E0900278B4010612148EE48020E0440429
:1012C00012141212158F8019EF900278B40205E003
:1012D00044058003E04404F0E49001CCF0900277F0
:1012E000F0121535121393EFF090025CE4F0A37442
:1012F00064F0021BB4EA64016003021BB4EB6401F6
:10130000706812138B121499BF2003D38001C3405D
:1013100005E4900278F090026FE0FFB4020B9002B7
:1013200078E0440A1214918013EF64017026900251
:101330002FE0900278B4010C12148EE49002771220
:10134000150F801EE04402121491E4900277F0120F
:1013500014FD800E900278E04402121491E4900291
:1013600077F0121535121393EFF0EB6402706512EB
:10137000138B121499BF2003D38001C34005E4905E
:101380000278F090026FE0B40213900278E0440A11
:10139000F09002777401F09001CCF0802F90022E33
:1013A000E06401701C900270E0900278B40105E0E6
:1013B00044098013E0440812141204F01214FC8053
:1013C0000B900278E0440812141204F01215351242
:1013D0001393EFF0742A2B121464E4F0C28A0BEB1F
:1013E000640360030219F57F0422900308EFF09074
:1013F000030B7408F02405A3F012131690030812CF
:10140000132512152E12131975F002EF12132A125A
:101410001550900309F0A3EFF0122DE490030B1286
:1014200014D44003021C8B900308E0FF121484E0E4
:10143000600AEF1213D5E4F0A3F0800C1214AB1283
:1014400013D1EE8FF0120A111213D1121430940F2F
:10145000EE648094804019900308E0FD1213D5E4F7
:10146000F0A3F0121316ED12139DE475F001802124
:10147000C3EF94F1EE6480947F5019900308E0FF6D
:101480001213D5E4F0A3F012131612139C74FFF597
:10149000F0120AC2900308E0FD24EB1214B7E4F046
:1014A0007F04123D48121558021D52900308E0FFB8
:1014B00024EB1214B7E070481214B47401F0121443
:1014C000AB122DE4C3EF9432EE64809480503190DF
:1014D00001F4121319900308E0121327FBAAF0126B
:1014E00014AB7C007D031209DBC3EB9FFFEA9EFE79
:1014F000121316900308E012139DEE8FF0120B2EBC
:101500001214AB122DE4900308E0FD121456E0FA19
:10151000A3E0D39FEA9E402674272D121486E07024
:1015200023900308E07F0512372C121558123470EF
:10153000EF60111212F712139C1214E680061215B6
:1015400058123D48C390030AE094F8900309E06400
:1015500080947F501A12156012372C1215601234C5
:1015600070EF60111212F712139C1214E68006122B
:101570001560123D48121316900308121325121518
:101580002E12131975F002EF12132A121550900142
:10159000FD121319900308E012139DEE8FF0020B59
:1015A0002E900138E0606890013A120C5C00000057
:1015B000001210FA121189E49001B0F09001B8E025
:1015C0007004A3E064016003021F2DC312122940BE
:1015D00003021F2D900114121017FF9001C5E02483
:1015E00032FD9001C4E03400FCED2FFFEC35F0FE3D
:1015F000121014D39FE5F09E400E12102C75F005CA
:101600001212E724051211559001B81211D222E4EA
:101610009001B81210FEA3F0A3F090013A12104B03
:10162000FBE9C0E0EAC0E0EBC0E0121014FFE4FC0C
:10163000FDD0E0FBD0E0FAD0E0F9EB2FFFEA35F087
:101640001210BD90013A120C5090013FE004F0706E
:101650000690013EE004F0900252E07002A3E060C8
:1016600003021F2D90013A1210A5FFEEC0E0EFC05B
:10167000E0A3121283D0E0FFD0E0FE120B9790019E
:101680003A120C509001141210172414FFE435F094
:10169000FEE4FCFD90013A12104BFBD3120C3F40CC
:1016A0003090024EE07002A3E07026900141E00409
:1016B000F07006900140E004F0D3900141E0940501
:1016C000900140E09400406C12102212114F021F52
:1016D0000D900114121017FFAEF0E4FCFD90013ADA
:1016E00012104BFBC3120C3F703A90010DE0241412
:1016F000FF90010CE03400F912102C12114F12105F
:1017000003FDACF0D39FEC9E12102CF94005EC8D3C
:10171000F08017120A27FF90010E12102FF9E5F042
:101720008FF08006121022C98FF0120B0FE4900187
:1017300040F0A3F0E49001B0F090013A120C5C008C
:10174000000000E490013EF0A3F012118922900203
:101750003DE024FE601C14602F14700302207224EC
:101760000360030220CA90023D7402F012382F1267
:101770003E271208667F017E00122F7290023D7490
:1017800003F0E490026EF022123DC7900236E07042
:101790000302205390026EE004F0E4900306F09000
:1017A0000306E0FFC39403400302204E9001F112B0
:1017B0001319900306E0FE12130775F002EE1213E0
:1017C000A01214E69001F1121319900306E0FE1224
:1017D000132712152E12131975F002EE1213A01210
:1017E00014E6EF6401703B1214A3FF240A12146E76
:1017F000E4F0EF240B12146EE4F09001F1121319CF
:10180000900306E0121327121475FD240E1213958F
:10181000EFF0900306E0121327FFED240F1213954B
:10182000EFF0900306E06402703B1214A3FF240C57
:1018300012146EE4F0EF240D12146EE4F09001F136
:10184000121319900306E0121327121475FD2410C9
:10185000121395EFF0900306E0121327FFED241109
:10186000121395EFF0900306E004F0021F7FE4905E
:101870000236F090026EE0C39403406E9001CA7489
:101880007EF0E4900237F090026EF090023D740416
:10189000F0221236A8123A429001BFE07003123DC6
:1018A000C71236A8900236E064017033122EA212DD
:1018B00036A8E4900306F0900306E0FFC3940350BB
:1018C0000E12276B1236A8900306E004F080E8128F
:1018D00020CB1219F390023DEFF0E4900236F09025
:1018E0000261E0A3F0E4900261F022900307747EAD
:1018F000F0E4A3F0900308E0FDC394034003022149
:10190000E87F02123470EF60031214FC900308E0C9
:101910001214CAE0600302217A900308E0FF121457
:1019200056E0FCA3E0FDEF121355E0FEA3E0C39DDB
:10193000EE9C4040900308E0900307F01214CA7434
:1019400001F090022EE004F090026FF0900308E0A6
:10195000FD1214627401F0E4FF12222F12222F12E2
:10196000372C900308E0FD7F0812372C1214807486
:1019700001F08012900308E0FDE4FF123470EF6084
:1019800005121480E4F0900308E0FD7F011234702A
:10199000EF606CE490022F0221DA900308E0FF125E
:1019A000153CE0FCA3E0FDEF121355E0FEA3E0C3FD
:1019B0009DEE9C4037900308E0FD900307F07F0800
:1019C000123470EF60399001F4E0FBA3E0FAA3E079
:1019D00090030812130412139C1214E61221F7123A
:1019E00014627401F090022FE004800E1221F712AD
:1019F00014627401F090022FE004F0900270F090F5
:101A00000308E004F00220D4900307E0FF900239BD
:101A1000E06F6002EFF022900308E0FD2424F582DD
:101A2000E43402F583E4F07F08123D48900308E0B7
:101A3000FDE4FF12372C900308E0FD7F01123D48C2
:101A4000900308E0FD7F0112372C900308E022127A
:101A50003D48900308E0FD7F02227E007FFF7D006D
:101A60007B017A007905120CC69003257400F0A35F
:101A70007405F09002797400F0A3746BF09001C6C5
:101A80007400F0A37455F09001F17401F0A3740098
:101A9000F0A374B9F09001F77401F0A37400F0742E
:101AA000AD1215487400F0A37495F09001F4740120
:101AB000F0A37400F0A374C7F09001FD7401F0A3CB
:101AC0007400F074D31215487400F0A3742012153A
:101AD000497401F0A37403F0902DE0E4931214779D
:101AE000FDF5828C83A3EFF0900002E0FFED24046B
:101AF000121395EFF0900001E0FFED24051213950D
:101B0000EFF0900004E0FFED2406121395EFF09043
:101B10002DE2E493FFED2412121395EFF0902DE3E4
:101B2000E493FFED2414121395EFF0900206740174
:101B3000F0A37400F0A3743DF0E4FF75F002EFA48D
:101B40002401F582E5F0342EF583E493FE74552FDD
:101B5000F582E43400F583EEF0EF25E02477F5829A
:101B6000E4342EF583E493FE746B2FF582E43400A5
:101B7000F583EEF0746B2F1213680FEFB416BC9060
:101B80002F56E0900059F0902F56E090006FF090A3
:101B900001007401F09000FFF090003B7410F09091
:101BA000001CF0900029F0A37420F090024E7413F2
:101BB000F0A37488F0229001AE1212E09404EE9427
:101BC00000502F90010CE0FCA3E0FDEF25E0FFEEBC
:101BD00033FE74A62FF58274013EF583ECF0A3ED7D
:101BE000F09001AFE004F070069001AEE004F00266
:101BF00024649003117401F0900311E0FF12126B42
:101C0000E0FCA3E0FDEF25E024A4F582E43401F537
:101C100083ECF0A3EDF0900311E004F0E0B404D8FD
:101C2000900138E060191210141224D0500C1210D8
:101C300014FF9001ACE5F00224601212778041128B
:101C400010141224D05036900114121017FFC390B4
:101C5000010DE09FFF90010CE095F0FE122DE4C312
:101C6000EF9414EE648094805005900114800390EA
:101C7000010E121017FF9001ACE5F08003121277ED
:101C8000F0A3EFF090030D120C5C00000000E49054
:101C90000311F0900311E0FFD39001AFE09F90019A
:101CA000AEE09400401D90030D12104BFBA3E01218
:101CB000126B1210B090030D120C50900311E0043F
:101CC000F080D090030D1210A5FFEEC0E0EFC0E051
:101CD0009001AE121283D0E0FFD0E0FE120B97907D
:101CE000030D120C5090030DA3A3E0FEA3E0FF220E
:101CF000FF90010CE0FCA3E0FDC3EF9DFFE5F09C2D
:101D0000FE122DE4C3EF9428EE6480948022C0E09C
:101D1000C083C082C0D0D2AF900261E004F0D39003
:101D2000024FE0940090024EE09400400CA3E024A7
:101D3000FFF090024EE034FFF0D3900251E09400A7
:101D4000900250E09400400CA3E024FFF090025079
:101D5000E034FFF0D3900253E09400900252E094FC
:101D600000400CA3E024FFF0900252E034FFF0D3D7
:101D7000900255E09400900254E09400400CA3E0DF
:101D800024FFF0900254E034FFF0D3900257E09427
:101D900000900256E09400400CA3E024FFF0900273
:101DA00056E034FFF0D3900259E09400900258E0DE
:101DB0009400400CA3E024FFF0900258E034FFF0C0
:101DC000D390025FE0940090025EE09400400CA388
:101DD000E024FFF090025EE034FFF0D390025DE07B
:101DE000940090025CE09400400CA3E024FFF0908B
:101DF000025CE034FFF0D390025BE0940090025A62
:101E0000E09400400CA3E024FFF090025AE034FF7D
:101E1000F0D39001B9E094019001B8E09400400C37
:101E2000A3E024FFF09001B8E034FFF0D390018CE0
:101E3000E0940090018BE09400400CA3E024FFF0BC
:101E400090018BE034FFF0D0D0D082D083D0E0324C
:101E5000C0E0C083C082C0D0ECC0E0EDC0E0EEC006
:101E6000E0EFC0E0D2AFE5DB30E41D900003123CB0
:101E7000ADE4F0E5DB30E1028038900324E5DFF0EB
:101E8000900327E4F0022753E5DB30E516900321A9
:101E9000123CADE06005E4F0022753900003E4F04B
:101EA00002275390032AE4F0E5DB30E135E5DB302F
:101EB000E009123C7FE0F5DF022753900328E0FFA2
:101EC000B4080F208A0CD28A123C9E2407123C8E42
:101ED000E4F0EF641A600302275390032904F00230
:101EE0002753900327E0700EA3E5DFF0900327123D
:101EF0003CADF0022753900328E0903C4993FFB497
:101F0000FF0F900324E5DFF0900328E004F00227A0
:101F10004DEF640F702B900328E0FF90032BE0FC43
:101F2000A3E0FD123C8DE0540FF0900328E0FF0485
:101F3000F0ED123C8DE0FFE5DF54F0FEEF4EF08057
:101F40002C123C7FE5DFF0900328E0FFB4090B1270
:101F50003C9E2408123C8EE0F5D3EFB40A0F9003A8
:101F600025E0FEA3E02409123CA6E0F5D49003236B
:101F7000E004F075DBFFD0E0FFD0E0FED0E0FDD064
:101F8000E0FCD0D0D082D083D0E032900307EFF0D5
:101F900012131612132212152E12131975F002EFD6
:101FA00012132AC39DE5F09C40299001F4A3A3904D
:101FB0000307E0121327FDEF1214ECEDF09001FD82
:101FC000121319121322FDEF121355E5F0F0A3EDD1
:101FD000F0801F900307E0FF1213551215681213CB
:101FE0001975F002EF12132AFF900307E01214ECA8
:101FF000EFF0900307E0FF121355E0FCA3E0C39459
:1020000032EC94005008EF121355E4F0A3F0900363
:1020100007E0FF64017050EF12135512143094F46E
:10202000EE94014008121333EEF0A3EFF090030793
:10203000E0FD121355E012144C240A121437ED126D
:102040001355A3E0FFEB240B1214371213161213CF
:1020500022FDEF121355121440240E121437CFED47
:10206000CFEB240F121437900307E0FF6402705087
:10207000EF12135512143094F4EE94014008121329
:1020800033EEF0A3EFF0900307E0FD121355E012DA
:10209000144C240C121437ED121355A3E0FFEB245B
:1020A0000D121437121316121322FDEF12135512CC
:1020B00014402410121437CFEDCFEB241112143733
:1020C00022900318EEF0A3EFF0A3EDF0A3EBF0A342
:1020D000EAF0A3E9F090001CE0B4200F12124412C1
:1020E000102F12114F90031AE0804A90031AE01249
:1020F00011EAE0FEA3E0FF4E601A9003181212B836
:10210000EF9DFFEE9CFE122DE4D3EF9414EE64805D
:102110009480402C900318E0FEA3E0FFA3E0FB12A4
:1021200011EAEEF0A3EFF0E4FCFDEB1211721210D5
:10213000E47401F0EF1210C9E4F0A3F0FE7F012275
:1021400090031AE0121172C083C08212104BFB90F0
:1021500003181210B0D082D0831210E4E004F0EF24
:102160001210ECE0FFD3940A405E1210C5E0FCA30D
:10217000E04C7009CBEFCB121091FF802B90031A2B
:10218000E01210ECE0FBE4121091FF120B97ECC090
:10219000E01212BF1210C512119EE4FDD0E0F81239
:1021A00010B8E47B04FAF9F8120B971210C5EEF0A0
:1021B000A3EFF090031AE0FB121172120C5C000006
:1021C0000000EB1210ECE4F01210C5E0FEA3E0FFFB
:1021D000D39400EE94004008900318EEF0A3EFF0C3
:1021E00012124412102F12114FE4FEFF2290030C22
:1021F000EFF09001F412131990030C121325FDACAB
:10220000F09001F112131975F002EF12132A121552
:10221000501213C0EE8FF0120A11ED1213C5E0FE3A
:10222000A3E0FF122DE4D3EF9414EE648094805069
:102230005890030CE01213C51214309403EE64801E
:10224000948040161213C012156812131975F0020B
:10225000ED1213A0E475F0018020C3EF94FDEE644D
:1022600080947F501890030CE0FF1213C51215687C
:1022700012131912139C74FFF5F0120AC290030C8A
:10228000E024211213F5E4F02290030CE01213C5B0
:10229000E0FEA3E0FF122DE490030CE0121456E0E0
:1022A000FCA3E0D39FEC9E400B1213E1E0D3940219
:1022B000403780091213E1E0D39401402C90030CC5
:1022C000E0FF1213C5E4F0A3F09001F112131975A9
:1022D000F002EF12132A12152712131990030CE0C3
:1022E00012139DEE8FF0120B2E221214DF9000FFBE
:1022F000E0600FE4900307F012136112151DE0B4C3
:1023000016F6E4900307F0900307E0FFC394035030
:1023100011743E2F1213A9E4F0A374FFF012151DDF
:1023200080E5E4900307F0900307E0FFC3940340C7
:1023300003022B99EF14601B14602524027033757F
:10234000AB015389FE902ECA7410F0902EC5740113
:10235000F0801F75AD205399DF12157B7420800B20
:1023600075AD405399BF12157B7440F0902ECA741E
:1023700009F0900307E0243E121506FF122CA4EF8B
:102380007031E4121570900307E0B4010F1213A727
:10239000E0FFA3E090026ACFF0A3EFF0900307E024
:1023A000FFB4020F1213A7E0FFA3E090023BCFF0AF
:1023B000A3EFF012151D022B07123AD89000FFE090
:1023C0006014E4900307F012136112151DE0B416B7
:1023D000F6E49000FFF0227A0379141212507A0189
:1023E00079871212501210D7121168902EC5F090F2
:1023F0002EC4E4F090030FF0902EC07419F0902ECC
:10240000C0E030E2F9902EC0E4F0902E02E0FFA38D
:10241000E0900310CFF0A3EFF012125BFF900317D0
:10242000E02FF0900316E03EF07B017A0379127DF5
:10243000011228A1EF4E601212125B1211F89001E6
:102440008B7407F0A374D0F0802E90018BE07002A3
:10245000A3E0701E90031212119E900311E02FFF53
:10246000900310E03EFEEF7802CEC313CE13D8F9EE
:10247000800312125B1211F890030FE004F0E0C326
:1024800094025003022BD8902EC5E4F0902EC0F099
:102490004389021210DD12122278837C017A0379BB
:1024A00014FE12120675F004A42442F9740135F0EA
:1024B000C8E9C8FC7A0179877E0012120604F0E0B0
:1024C000540FF02290030DEFF0900312E4F0A37488
:1024D000FFF0E4A3F0A3F0A304F0A374FFF0121440
:1024E000DF902EC37408F0E490030EF0A3F0900385
:1024F0000EE0FEA3E0FFC39409EE94004003022D1A
:1025000089EF9407EE940040067E007F01801990C9
:10251000030EA3E004FFE47E01C8EFC8088006CEE6
:10252000A2E713CE13D8F8FF900310EEF0A3EFF05C
:10253000902EC07419F0902EC0E030E2F990030D97
:10254000E0FF75F002A424001213B7E0FCA3E0FD45
:102550001214DFD3ED94FFEC940F4017900310E0BA
:10256000FCA3E0FD75F002EF1213B4EC8DF0120A3B
:1025700011802590030D1213B0C083C082E0FEA32A
:10258000E0FF900310E0FCA3E0FDC3EF9DFFEE9C95
:10259000D082D083F0A3EFF090030FE004F0700638
:1025A00090030EE004F0022CCE7F002290030DEF8A
:1025B000F012116BE490030EF090030EE0FF24552F
:1025C00012105990030EE004F0E0B416ECE490030E
:1025D0000EF090030DE0FFA3E0C39F500B122BB74A
:1025E00090030EE004F080EA902EC0E4F012119403
:1025F0007F0112159990010CEEF0A3EFF02200007C
:102600000301AB60EE30E707C3E49FFFE49EFE22C8
:1026100074FD2F1232AFE4F022123E2E023CE8008D
:10262000021003060A080D100EB60FFF0C020BFF76
:1026300023F724012504070127302A30280E2B0E0A
:1026400029072C072D202E202F1026200000000007
:102650000001000000020000000300000004000070
:102660000005000000060000000700000008000050
:1026700000090000000A0000000B0000000C000030
:10268000000D0000000E0000000F0000001001000F
:10269000023203640464021103060A100D100E8056
:1026A0000FFF0C020BFF23F424042504070127105D
:1026B0002A1028042B0429032C032D202E202F1050
:1026C0002620123041E4900307F0900307E0FFC397
:1026D00094034003022F6CEF7003022F401229CDA8
:1026E000900307E0FF121BCA900273E0601F900185
:1026F000CCE07019900277E070139001FD1213196D
:10270000900307E012139DE4F5F0120B2E9001FDEB
:10271000121319900307121325FDACF0C39406ECB5
:10272000648094805002804DC3ED9432EC648094B8
:102730008050509001FD121319900307E075F002CC
:10274000A4F582E92582F9EA35F0FA120A27FFAEEC
:10275000F07C007D021209DBEE8FF0120B0F80235C
:102760009001FD121319900307121325C3E5F064BD
:10277000809480500E9001FDA3A312139CE4F5F009
:10278000120B2E900307E004F0022EAAE49002360A
:10279000F022900309EEF0A3EFF01211409003092C
:1027A000E07002A3E0600312391CE49001AEF0A3D4
:1027B000F0900182F07F10122D8C1211CFA37403C0
:1027C000F0A374E8F09001B81210FDA3F0A3F0900C
:1027D000010CE0F9A3E0FFA312102F12114F90019A
:1027E0001112102F1211D990011712102F12129ED0
:1027F00090011A12102F1211D990011D12102F12D0
:10280000129E1212A7E4900138F0900254F0A374C3
:1028100032F09001A1120C5C00000000E49001A5D0
:10282000F090013A120C5C000000001210FA9001C6
:102830000C12102712114FE4900139F0900309E0B7
:102840007002A3E0600F900144E0FFA3E09001B3A9
:10285000CFF0A3EFF0E490025E1212AE9001B5F05B
:10286000229003087408F02405A3F0E4FF1229CD98
:10287000121316121524121319121585FE90030A4D
:10288000F0A3EFF0122DE49003081214D4501C12A0
:10289000141C940AEE6480948040028044C3EF9438
:1028A000F6EE6480947F50650230DC90030AE0FE0F
:1028B000A3E0FF122DE4900309D31214D540169023
:1028C00001F4121319120A27FF121316E5F08FF004
:1028D000120B0F803812141C9464EE6480948040B4
:1028E00010E4900218F0A3F0121316E475F00180C2
:1028F00019C3EF949CEE6480947F5011E490021809
:10290000F0A3F012131674FFF5F0120A8A121316D0
:10291000121524121319121585F99001FDE0FBA37D
:10292000E0FAA3E0C98FF0020B0F900269E0706E2D
:1029300004F0E4FFEF25E02481F582E4343B121437
:10294000BF25E024DFF582E43401F583ECF0A3ED4C
:10295000F0EF25E0247BF582E4343B1214BF12141F
:1029600056ECF0A3EDF0EF25E02487F582E4343B4C
:102970001214BF12153CECF0A3EDF00FEFB403B44A
:102980009001DBA3E0121477FDF5828C83A3A3EF03
:10299000F09001DDA3E08D828C83A3A3A3F0121439
:1029A000A3F5828E83A3E0B4AA031239851214A37F
:1029B000FF12146CE0B4100BEF12146CE4F09001F1
:1029C000BE04F01214A3FF241B12146EE0700DEF6E
:1029D000241C12146EE0B41003123B99227FB27AC9
:1029E00001790C12114690010E7401F0A37400F0ED
:1029F000744512112C7400F0744712112C7400F0FD
:102A0000A3744912112D7400F0A3743312112D74A4
:102A100000F0A3742F12112D7400F0A3742DF09008
:102A200001297401F0A37400F0A3742712112D740E
:102A300000F0A3741D12112D7400F0A37423F09004
:102A400001207401F0A37400F0A3743712112D74E7
:102A500000F0A3742B12112D7400F0A37439F090C0
:102A600001C412129790012012102FF9E475F0C8DA
:102A7000120B0F90012312102FF9E475F064120B62
:102A80000F90012612102FF9E475F0A0020B0FEF42
:102A900075F003A4248FF582E43402F583E58222E5
:102AA000F583E493FE740193FFE4FCFD902F60E056
:102AB000F8A3E0F9A3E0FAA3E02FFFEA3EFEED3928
:102AC000EC38222EF582E43583F5832274FD2BF554
:102AD00082E43402F58322E4E075F008A424ADF525
:102AE00082E43402F58322EFF0FCA3E0FE1313131B
:102AF000541F2225E0247DF582E43402F58322E090
:102B0000FF74017E00C8EFC80822902F60A3A3E0E5
:102B1000FEA3E0FF22F583C37401939FE4939E22FA
:102B200025E024A1F582E4343D22E0FCA3E0FDD3BE
:102B30009FEC9E2225E024B5F582E4343D22E4FF9B
:102B40001214DFEF25E025E0248DF582E4343BF517
:102B500083E4937014902EC41213FDF5ABF45289E4
:102B60001213FE902EC5F08013902EC5E41213FDB3
:102B7000F5ADF452991213FE902EC4F0EF25E02526
:102B8000E0248FF582E4343BF583E493902EC3F088
:102B9000EF25E025E02490F582E4343BF583E493CF
:102BA000902ECAF0902EC07419F0902EC0E030E242
:102BB000F9902EC4E4F0A3F0902EC0F012157074BA
:102BC0003E2F12150675F002A424001213B7E0FC84
:102BD000A3E0FD9001F112131912139CEC8DF01279
:102BE0000B2E0FEF6403600302332022758A5053CB
:102BF0008AEF9000027411F09000017422F09000AE
:102C0000047433F07599BF759A40E4FFFEC29500D5
:102C100020960CD295003096069000027487F00F33
:102C2000BF00010EEF640A4E70E37590FF75999F27
:102C3000759A607580FF7589FE759501000000E446
:102C4000FEFF3080063095032096069000017487C1
:102C5000F00FBF00010EEF640A4E70E6E4F5AB75AD
:102C6000AC1DF5ADF5AF7589FF75913E7599FFF512
:102C70009675931CF59BF595F592F59A75AE0675CC
:102C8000D30575D40575800CD28A90010404F02216
:102C900090030EEDF090030D1232C7A3F0EE54072F
:102CA000A3F090030FE0FFEC1232702F1232A4E079
:102CB000FD7C009003101232DF8005C333CE33CE8B
:102CC000D8F9FFEE5CFEEF5D4E60621232EA9003CF
:102CD0000D1232B7C083C08290030EE0D082D08341
:102CE00075F002120C8D12330A5042C3EF9DFFEEB5
:102CF0009CFE90030DE0FD1233001232F5402E9041
:102D0000030FE0FFED1232702F1232A4C083C08295
:102D1000E0FF900310E0FE7401C8EEC8088002C313
:102D200033D8FCF45FD082D083F07F01227F002271
:102D30009001CBE09001C46009741BF0A37458F0BB
:102D40008003121297900111121017FFD39001C542
:102D5000E09F9001C4E095F0401C900138E06027AE
:102D6000900126121017FFAEF0900111121017C338
:102D70009FE5F09E4011900258E07002A3E070279A
:102D800090013804F0802090001CE0B4200512125D
:102D90008F8006900258121297E4900138F090024A
:102DA00056F0A3F01212A7900138E06011900029AC
:102DB000E090003BB410047410F0227420F0224123
:102DC000000300410271004102720041026E0041A5
:102DD000026C0041027800410269004101CC0041CF
:102DE00002770041026D00410273004101CB0041B6
:102DF000027B0050023E000D0E101010101010103B
:102E00001010101010104103270041032800420346
:102E10001F00004103210041032300410322004120
:102E2000032A004103290041032410410105004108
:102E30000107104101BE004101BF004101061041E0
:102E4000027C0000902EC0E4F0900272F0900271BB
:102E5000F0FC743E2C121506FE131313541FFDEEE6
:102E60005407FEED14601B04702E900271E0FD7497
:102E700001C8EEC8088002C333D8FC4D900271F03F
:102E80008016900272E0FF7401C8EEC8088002C389
:102E900033D8FC4F900272F00CECB403B590027181
:102EA000E0FF42ABA3E0FE42ADEFF4FF5289EEF447
:102EB000FE5299EF5295EE529A900271E0F45296BA
:102EC000A3E0F4529B7F032290026DE0146019147A
:102ED00060492402706430885C12371B90027B7456
:102EE00001F09001CBF0804D7F02123D18EF600A97
:102EF0007F02122DF0E490027BF020883D90026D5D
:102F00007402F090027314F0E490027BF09001CB15
:102F1000F07F03122DF07F03023CB47F03123D18B3
:102F2000EF60177F03122DF0208807E490026DF008
:102F3000800312371BE4900273F02290026D74013B
:102F4000F07F02122DF07F02123CB42290030EEDAE
:102F5000F090030D1232C7FDEE5407A3F0EC1232CD
:102F6000702D1232A4E0FB7A0090030F1232DF8042
:102F700005C333CE33CED8F9FFEE5AFEEF5B4E7069
:102F80004D90030DE0FE1232702D1232A4C083C0AA
:102F900082E0FF90030FE0FD7401C8EDC8088002D5
:102FA000C333D8FC4FD082D083F0EE1233001232FC
:102FB0008090030D1232B7C083C08290030EE0D020
:102FC00082D08375F002120C8DEEF0A3EFF0220296
:102FD0003B1CE493A3F8E493A34003F68001F208BA
:102FE000DFF48029E493A3F85407240CC8C333C446
:102FF000540F4420C8834004F456800146F6DFE4B1
:10300000800B010204081020408090359FE47E016F
:103010009360BCA3FF543F30E509541FFEE493A323
:1030200060010ECF54C025E060A840B8E493A3FA35
:10303000E493A3F8E493A3C8C582C8CAC583CAF0C1
:10304000A3C8C582C8CAC583CADFE9DEE780BEE47B
:10305000900269F0FFEF1213C5E4F0A3F0EF121332
:10306000D5E4F0A3F0741E2FF582E43402F583E476
:103070001213F1E4F0EF25E02430F582E43402F598
:1030800083E4F0A3F074242F1214CCE4F0742A2FFC
:10309000121464E4F090022D747EF01214B4E4F083
:1030A00074EE2FF582E43401F583E4F00FEF64034E
:1030B00070A3E490022EF0A3F090026FF0A3F090C2
:1030C0000239747EF09001CAF0E4900238F0229048
:1030D00001BEE0700C900273E0700690027BE0602D
:1030E0000CE4FFFE122F72E49001BEF02290025C0D
:1030F000E07002A3E06005121236703C9001CBE054
:1031000070031239E47F01122D8C1223969003076D
:10311000EEF0A3EFF07B017A037907123A8F900368
:1031200007E0F9A3E0FF90010E12102F12114F12C9
:1031300017DD123510121D81123BD6221210D71244
:103140001168902EC4E4F0A3F0FF1210560FEFB4F4
:1031500016F81211BD122CA44389021210DD1212AE
:1031600022903B5DE493FE740193FF902E42E0FCBD
:10317000A3E0C39FFFEC9E90030BF0A3EFF0900140
:1031800007E0FF900325E0FCA3E0241DF582E43C6A
:10319000F583EFF01211AA12102FF9EE8FF0120B37
:1031A0000F121194229003067408F0A3E4F0A374A4
:1031B0003FF0A374DFF0E4FDFCF9758A10538AEF49
:1031C00000900306E0FEA3E02DF582EE3CF583E4DB
:1031D00093FF69F90DBD00010CBC37E5BDDFE2903E
:1031E0000308123C95E493699003257009123C95FD
:1031F000A37403F08006123C95A3E4F0758A505343
:103200008AEF0022900329E06057E4900329F0122E
:1032100010D7121168902EC4E4F0A3F0FF121056DC
:103220000FEFB416F8902E42E0FFA3E0900309CF11
:10323000F0A3EFF01211BD122CA44389021210DD8D
:103240001212221211AA12102F12123D12116B909B
:103250000309E0FFA3E0902E42CFF0A3EFF012119C
:103260009422121236702E9001BFE0700890025026
:10327000F0A37464F09001BF7401F090002AE0B4F0
:1032800020081238AF120CF28003123C1190026039
:103290007401F08017E49001BFF090002AE0B420A0
:1032A000031238AF900260E06002E4F0023E099041
:1032B0000309EBF0A3EAF0A3E9F0900250E07002FA
:1032C000A3E07033900139E0602DE4900139F09073
:1032D000030C04F07F01122D8C1223969003091227
:1032E000102F12123D90030CE004F0E0C394104044
:1032F000E31211CF12128F22900104E0603DC390BF
:10330000026BE0942090026AE09400500690000462
:103310007487F0C390023CE0942090023BE094005C
:1033200050069000047487F0E4900104F0900004CB
:10333000E01214772406121395EFF02212084E5370
:10334000A87F1233CC12081E123D7643A880122D9E
:10335000F9900100E0600690023D7401F0123DEB2F
:10336000EF24E0600A2410700AC283C2828004D273
:1033700083D28212310A121F2E80E2006000C70041
:10338000A000A000A000A000A000A000A000A0003D
:10339000A000A000A00018008000A00096009600E9
:1033A00096009B009B009B008C008C008C00011001
:1033B00010022011090240110912082EE4F5F275DD
:1033C000F30875EEFF75EF3F75EA81F5F675EB07CB
:1033D00000E5EC30E7FBE4F5EC900325E0FEA3E02C
:1033E000FF241B123CA6E5F3F0EF241C123CA6E5DB
:1033F000F2F075EB302290003BE0FC900106E06CAF
:10340000602E90003BE0FE900106F090000CE090F2
:103410000278F0540FF0EEB42005E04420800AEC6E
:10342000B4100B900278E04410F090000CF0C28AC7
:1034300022E4F5B2F5BA758D20438D20538D7F536C
:10344000AAF7F58BE5DB20E21C900003E07016F58F
:103450008A758703000000758A509001BE04F090C1
:10346000002A7420F0758B112200000000FFFFFF7E
:10347000FF0000FFFFFFFFFFFFFFFFFF00FF000057
:1034800000FFFF000000FFFFFFFFFFFFFF00000045
:1034900000FFFFFFFFFFFFFFFFFFFF0000000090A6
:1034A0000328E0FF04F090032BE0FCA3E02FF5825B
:1034B000E43CF58322E0FEA3E0F5828E83229003B4
:1034C00025E0FCA3E022F582E43EF583227401F0BE
:1034D00090032A22900307EFF0E024FD1232AFE0C0
:1034E00060037F0122900307E0FF24FD1232AF74D6
:1034F00001F0EF123314123280900307E01232D33E
:10350000EEF0A3EFF07F0022758B11902F647440D2
:10351000F0E4FEE4FF12326F1232A3E4F00FEFB4D6
:103520000AF30EEEB403EC7F099002FDE4F0A3DF92
:10353000FC902F647480F022CBEFCB1232ACE060B1
:10354000241232EAEB1232D312330A5018C3EF9D21
:10355000FFEE9CFEEB1233141232F540081232AC2F
:10356000E4F07F01227F0022ED131313541FFEEDC0
:103570005407FD12326F1232A3C083C082E0FFCE27
:10358000EDCE7401C8EEC8088002C333D8FCF45FE6
:10359000D082D083F022900325E0FFA3E090032B9C
:1035A000CFF0A3EFF0E4F5DA75DA4043DA2075D70F
:1035B0004075DA5875D90143A90875B80875F80837
:1035C0002201F40028002801F4009603E801F40326
:1035D000E81770006403E80032012C012C012C0173
:1035E000F403E8271000C81214DFE4FF746B2F12F5
:1035F00013680FEFB416F5902EC4E4F0A3F0123365
:103600001E12331E9002367401F022E4FF90032153
:10361000E06015123C9EF5828C83E0FE54F0FFEED4
:10362000540FF0E4900321F022E5B230E005E5AA62
:1036300020E013E4900262F075B28E75B6F9F5B72A
:1036400043B20143AA01221212A722D2AF32023E94
:103650000900000000000000000000000000000061
:10366000000000000000000000000000000000005A
:10367000000000000000000000000000000000004A
:10368000000000000000000000000000000000003A
:10369000000000000000000000000000000000002A
:1036A000000000000000000000000000000000001A
:1036B000000000000000000000000000000000000A
:1036C00000000000000000000000000000000000FA
:1036D00000000000000000000000000000000000EA
:1036E00000000000000000000000000000000000DA
:1036F00000000000000000000000000000000000CA
:1037000000000000000000000000000000000000B9
:1037100000000000000000000000000000000000A9
:103720000000000000000000000000000000000099
:103730000000000000000000000000000000000089
:103740000000000000000000000000000000000079
:103750000000000000000000000000000000000069
:103760000000000000000000000000000000000059
:103770000000000000000000000000000000000049
:103780000000000000000000000000000000000039
:103790000000000000000000000000000000000029
:1037A0000000000000000000000000000000000019
:1037B0000000000000000000000000000000000009
:1037C00000000000000000000000000000000000F9
:1037D00000000000000000000000000000000000E9
:1037E00000000000000000000000000000000000D9
:1037F0000000000000000000000000000000001FAA
:1038000000000000000000000000000000000000B8
:1038100000000000000000000000000000000000A8
:00000001FF
