:100000000018000000040000D112000000000000F1
:1000100000000000000000000000000000000000E0
:1000200078FFE4B8200118F6D8F99000007F007E30
:1000300007E4F0A3DFFCDEFA758107023578900152
:1000400000E0600690017A7401F022022DFD74AA8E
:100050007583F5758255A574557583FA7582AAA5C1
:1000600074A57583F5758255A5220002247290400F
:100070007FE493FF64316003EF7002002253A87F96
:100080000080FD0226E31233B2900100E060081206
:1000900029F2E4900100F022D2AF32020878E70999
:1000A000F608DFFA8046E709F208DFFA803E888228
:1000B0008C83E709F0A3DFFA8032E309F608DFFA60
:1000C0008078E309F208DFFA807088828C83E30984
:1000D000F0A3DFFA806489828A83E0A3F608DFFA5E
:1000E000805889828A83E0A3F208DFFA804C80D2AC
:1000F00080FA80C680D4806980F28033801080A628
:1001000080EA809A80A880DA80E280CA803389827F
:100110008A83ECFAE493A3C8C582C8CCC583CCF02B
:10012000A3C8C582C8CCC583CCDFE9DEE7800D89D2
:10013000828A83E493A3F608DFF9ECFAA9F0EDFBD9
:100140002289828A83ECFAE0A3C8C582C8CCC58321
:10015000CCF0A3C8C582C8CCC583CCDFEADEE8807A
:10016000DB89828A83E493A3F208DFF980CC88F0EC
:10017000EF60010E4E60C388F0ED2402B40400501D
:10018000B9F582EB2402B4040050AF232345822347
:100190009008CE73EF8DF0A4A8F0CF8CF0A428CEF9
:1001A0008DF0A42EFE22BC000BBE0029EF8DF08442
:1001B000FFADF022E4CCF875F008EF2FFFEE33FE30
:1001C000EC33FCEE9DEC984005FCEE9DFE0FD5F067
:1001D000E9E4CEFD22EDF8F5F0EE8420D21CFEAD70
:1001E000F075F008EF2FFFED33FD4007985006D56E
:1001F000F0F222C398FD0FD5F0EA22C2D5EC30E729
:1002000009B2D5E4C39DFDE49CFCEE30E715B2D500
:10021000E4C39FFFE49EFE120986C3E49DFDE49CB7
:10022000FC800312098630D507C3E49FFFE49EFEDD
:1002300022C5F0F8A3E028F0C5F0F8E58215827039
:10024000021583E038F022BB010A89828A83E0F537
:10025000F0A3E022500687F009E71922BBFE07E36E
:10026000F5F009E3192289828A83E493F5F0740199
:100270009322BB0110E58229F582E5833AF583E0FC
:10028000F5F0A3E0225009E92582F886F008E6227D
:10029000BBFE0AE92582F8E2F5F008E222E5832AAE
:1002A000F583E993F5F0A3E99322BB010789828ADC
:1002B00083020A11500B09C5F027F7C5F01937F76B
:1002C00022BBFE0D09F8E325F0F3C5F019E338F37E
:1002D00022F889828A8374019325F0C5F0F8E493AB
:1002E0003822BB010DC58229C582C5833AC5830268
:1002F0000A115011C58229F808E5F026F618F5F024
:10030000E58236F622BBFE11C58229F808E225F007
:10031000F5F0F218E23582F222F8E58229F582E55D
:10032000832AF58374019325F0F5F0E4933822BB1A
:10033000010A89828A83F0E5F0A3F0225006F709CA
:10034000A7F01922BBFE06F3E5F009F31922F8BB6A
:100350000111E58229F582E5833AF583E8F0E5F0BD
:10036000A3F0225009E92582C8F608A6F022BBFEB8
:1003700009E92582C8F2E5F008F22275F0087582D5
:1003800000EF2FFFEE33FECD33CDCC33CCC582331F
:10039000C5829BED9AEC99E58298400CF582EE9B24
:1003A000FEED9AFDEC99FC0FD5F0D6E4CEFBE4CD42
:1003B000FAE4CCF9A88222B800C1B90059BA002DDC
:1003C000EC8BF084CFCECDFCE5F0CBF97818EF2F95
:1003D000FFEE33FEED33FDEC33FCEB33FB10D703C4
:1003E000994004EB99FB0FD8E5E4F9FA227818EF6D
:1003F0002FFFEE33FEED33FDEC33FCC933C910D7CC
:10040000059BE99A4007EC9BFCE99AF90FD8E0E4D8
:10041000C9FAE4CCFB2275F010EF2FFFEE33FEEDAE
:1004200033FDCC33CCC833C810D7079BEC9AE8997E
:10043000400AED9BFDEC9AFCE899F80FD5F0DAE460
:10044000CDFBE4CCFAE4C8F922EB9FF5F0EA9E423A
:10045000F0E99D42F0EC6480C864809845F022EB9E
:100460009FF5F0EA9E42F0E99D42F0E89C45F022BB
:10047000ECF0A3EDF0A3EEF0A3EFF022A8828583C9
:10048000F0D083D082120C73120C73120C73120C06
:1004900073E473E493A3C583C5F0C583C8C582C85C
:1004A000F0A3C583C5F0C583C8C582C822A4258230
:1004B000F582E5F03583F58322EC8EF0A4CCC5F00F
:1004C000CCCDF8EFA4CEC5F02DFDE43CFCE8A42E85
:1004D000C8C5F03DFDE43CFCEFA4FFE5F028FEE4D8
:1004E0003DFDE43CFC22EF4E6012EF60010EEDBBDF
:1004F000010B89828A83F0A3DFFCDEFA2289F050A7
:1005000007F709DFFCA9F022BBFEFCF309DFFCA919
:10051000F022208A03020FF190018DE07002A3E027
:100520006003020FF11216C86003020FF19001EC94
:10053000E070509001D712153AFFAEF09001C5124D
:10054000153AD39FE5F09E4003020FF112153712C2
:100550001569F9E5F08FF0120B0F9001EE120C5CAB
:10056000000000001215F1900246F0A3F0A37404FD
:10057000F0141216431216FC9001931217249002E5
:10058000588004900258E4F0A3740CF0E4F5B2F53E
:10059000BA12165CE4FF1215750FEFB416F890004E
:1005A00056E025E0902EC3F0A3E4F0A37402F0120D
:1005B00015E490024EE0FFA3E09001BCCFF0A3EF62
:1005C000F0900305E0FF6003020FEB758D20438D73
:1005D00020758D8043AA08D2AF758B02758EA0EF6F
:1005E000701B90001CE0B42014900003E0700EE536
:1005F000DB20E209758AC4758703000000758B1142
:10060000758A5053AAF7D390018CE0949090018B97
:10061000E09401400EA3E02470F090018BE034FEE2
:10062000F08007E490018BF0A3F01215E4902EC047
:100630007419F0902EC0E030E2F9902E02E0FFA392
:10064000E090025ACFF0A3EFF0902EC0E4F043897F
:10065000021215EA43800290025A12173F9001BD20
:10066000E09FFF9001BCE09EFE122DF19001BEEED6
:10067000F0A3EFF0D3900259E09F900258E09E5013
:1006800003020FCE9001BCE0FEA3E0FF7C007D09D9
:1006900012097490025AE0FAA3E0FB2FFFEA3EFE33
:1006A0000D1209869001BCEEF0A3EFF09001ECE092
:1006B0007060FE7F10CDEBCDCCEACC121545FBD39C
:1006C000120C3F9002EB40081215B01216CF8007B3
:1006D000120C5C000000001216DC9002EB121558A0
:1006E000FBD3120C3F400A9002EB120C5C0000EAB4
:1006F000609001C812153A1216A49002EB12155818
:100700001215FD1216CF9002EB12156312164C0251
:100710000FCE90025AE0FEA3E0FF7C007D10121580
:1007200045FBD3120C3F9002EB40081215B0121695
:10073000CF8007120C5C000000001216DC9002EB68
:10074000121558FBD3120C3F400A9002EB120C5CBE
:100750000000EA601215371216A49002EB12155829
:100760001215FD1216CF9002EBA3A3E0F9A3E0FF50
:100770009001C212156D12164C9001C812153AFF65
:10078000AEF0E4FCFD9002EB121558FBD3120C3FC7
:100790004079121526C39FFFE5F09EFE90025C1281
:1007A000172E4003020FEBD3900251E09400900209
:1007B00050E0940040381216BB50339001C8121517
:1007C0003AFFED2446FDE43CFCED2FFFEC35F0FE56
:1007D000121537D39FE5F09E400E12156A75F0147E
:1007E000121746241412162590025012169612164D
:1007F0005290025812173F9001BFE09F9001BEE057
:100800009E50081216C87003020DA19001ED7401EC
:10081000F022900131E0FBA3E0FAA3E09002ECF9B2
:10082000E0FF75F002A4F58285F083120A52FDAC58
:10083000F0900134E0FBA3E0FAA3E0F9229002EB90
:10084000E0FF75F002A4F58285F083020A5290025F
:10085000EBE0FBEF240CFFEE34FEFE7C007D0A1281
:1008600009747D32120986EF24F4FFEE3401FEEBA9
:1008700025E02410F582E43401F58322900309E099
:10088000FCA3E0FD2407F582E43CF583229002EB13
:10089000E0FF246BF582E43400F583E0FEEF25E011
:1008A0002476F582E4342EF583E49324C0F582E4C3
:1008B000342EF583EEF022EF75F002A4F58285F078
:1008C0008322247BF582E43401F583E075F002A4F1
:1008D0002440F582E5F0342EF583229002F0E0FD0D
:1008E00025E0244FF582E43401F583229002ECE008
:1008F00025E02455F582E43401F583229002F0E0EE
:10090000FF245EF582E43401F583E004F0745E2F89
:10091000F582E43401F58322E04401F0E49001091A
:10092000F09001B4229002EEE0FEA3E0FF900156A9
:10093000E02FF0900155E03EF0E0FEA3E0FFD3226F
:10094000F582E43AF583EFF022E0FEA3E02DFFEE1E
:1009500035F0CDEFCDFF900309E0FAA3E0FB2225AF
:10096000E02416F582E43401F583222467F582E45D
:100970003401F58322241AF582E43EF58322E5F062
:10098000FF900309E0FCA3E022A3F0A37401F0A30D
:100990002275AD205399DF7420902EC4F0902EC3A1
:1009A000229002ECE02464F582E43401F583229085
:1009B0002EC07402F09001AFE0902EC4F09001AE12
:1009C000E0902EC5F02275AB015389FE902EC574C0
:1009D00001F0902EC37410F0902ECAF022E044066D
:1009E000F09001097401F022E09001B5F054F0FF9D
:1009F000F022900309E0FEA3E022E4F5ABF5AD752B
:100A000089FF7599FF229002EDE0FEA3E0FF2274BA
:100A1000282FF582E43401F58322F583E493FC74F6
:100A20000193FDEF222461F582E43401F58322C3B2
:100A3000E0FDEF9D7480F86E9822EC8DF0020B2E95
:100A400025E0240AF582E43401F583E5F0F0A322E1
:100A5000E490016BF09001ACF022F582E43401F5F2
:100A600083E022F0902ECA7408F022F074682BF50F
:100A700082E43401F583E4F0229002EBE004F022FA
:100A8000120A27FFAEF090013122FDACF090013147
:100A9000229001B5E0FFED2225E02422F582E43426
:100AA00001F58322E4938D828C83A3A322C39DFF4F
:100AB000E5F09CFE229002ECE0FD7F05229002EC26
:100AC000E0FD7F0422E4F0A3F090013122902EC0DB
:100AD000E4F07402F0EF1422902EC07419F0227525
:100AE000AD405399BF22120A27C39FFFE5F09E2213
:100AF000F090016CF09001ADF0229002F3EFF090D5
:100B000002F5120C5C000000009002F3E01215A444
:100B1000E0FEA3E0FF9002FBEEF0A3EFF0E4A3F011
:100B2000A3F0A3EEF0A3EFF074FFA3F0A3F0900204
:100B3000F47401F09002F4E0FFC394104003021338
:100B4000C0EF1215A2C083C0829002F3E0D082D021
:100B5000831216199002FF12172E400BA3ECF0A37C
:100B6000EDF09002FF801F12159EC083C08290029C
:100B7000F3E0D082D083121619D3900302E09F9045
:100B80000301E09E4005EEF0A3EFF012159EC08336
:100B9000C0829002F3E0D082D0831216199002FB3B
:100BA000E0FCA3E0FDC39FEC9E500BA3ECF0A3ED93
:100BB000F09002FB801F12159EC083C0829002F34A
:100BC000E0D082D083121619C39002FEE09F9002FB
:100BD000FDE09E5005EEF0A3EFF01217380213145B
:100BE0009002F5120C5C00000000E49002F4F0901A
:100BF00002F5121558FB12159EC083C0829002F3B5
:100C0000E0D082D08375F002120C8D1215CA121733
:100C100038E0B410DA9002FFE0FEA3E0FF9002FC9F
:100C2000E02FFF9002FBE03ECBEFCBFA9002F512F3
:100C30001688C39BFFEE9A1215C0EEC0E0EFC0E02D
:100C4000900301E0FEA3E0FF9002FEE02FFF900280
:100C5000FDE03ECBEFCBFAD0E0FFD0E0FEC3EF9B50
:100C6000FFEE9A1215C0E47B0C12160B9002F512DF
:100C70000C509002F5A3A312162D9002F3E0B401DC
:100C80000F9002F9E0FFA3E090024ECFF0A3EFF047
:100C90009002F5120C5C00000000E49002F4F09069
:100CA00002F4E0FFC394105056EF1215A2C083C0A7
:100CB000829002F3E0D082D083121619C39002FA18
:100CC000E09FFF9002F9E09EFE122DF1D3EF9432E7
:100CD000EE648094809002F5121558FB4003A380C7
:100CE0001512159EC083C0829002F3E0D082D0839B
:100CF00075F002120C8D1215CA12173802147F906B
:100D000002F5121551FBD3120C3F9002F5400B1265
:100D100015B09002F5120C508007120C5C00000018
:100D2000001216DC9002F5121558FBD3120C3F404E
:100D30000A9002F5120C5C0000EA609002F5A3A391
:100D4000E0FEA3E0FF229001C8E0FBA3E0FAA3E0ED
:100D5000F9120A27FFAEF09001C2E0FBA3E0FAA36C
:100D6000E0F9020A27120C999002EB120C50900243
:100D7000EBE47F207E4EFDFCE0F8A3E0F9A3E0FA6F
:100D8000A3E022A3A3E0F9A3E0FF9001C8E0FBA346
:100D9000E0FAA3E02274552FF582E43400F583E0F5
:100DA000FE75F002EFA42400F582E5F0342EF58301
:100DB000E49324C0F582E4342EF583EEF022900211
:100DC000F4E025E025E024F6F582E43401F5832201
:100DD000E0FCA3E0FDA3E0FEA3E09420FFEE944E30
:100DE000FEED9400FDEC9400FC22E0FEA3E09002F6
:100DF000F5FFE4FCFDEB2FFFEA3EFEED39FDEC389C
:100E0000FC020C5043AB025389FD5395FD5396FDF4
:100E1000229001F2E4F0A3F0A3F0A3F0227B0A2FCA
:100E2000FFEA3EFEE93DFDE83CFCE4FAF9F8020B7E
:100E300097A3F0A37401F0A32275F002120C8DE0C9
:100E4000FEA3E0FF22F0900252E03400F0E0FFA3A6
:100E5000E0A3CFF0A3EFF0229002EDE0FEA3E0FFCD
:100E600022740390018FF0A374E8F022C98FF0027E
:100E70000B0F5389FD5395FD43960222902EC074AB
:100E800002F022902E42E0FEA3E0FF7C007D1412CF
:100E900009749001E022902E42E4F0A374FFF090D8
:100EA0002EC57402F07F0122E0FCA3E0FDA3E0FE6A
:100EB000A3E02290018DE4F0A37464F022F9E4F53C
:100EC000F0020B0F7D09FFAEF07C00020C9925E0CB
:100ED000243EF582E43402F583E022900253E0944C
:100EE000FA900252E094002290001CE064202290CC
:100EF00002EB020C50F9EE8FF0020B0FE47F607EE4
:100F0000EAFDFC229001C0E0FFA3E0900244CF2262
:100F1000E0FEA3E0FBCAEECAE4F9F822E4900195F2
:100F2000F0A3F0227E007D007B01020CC6E4F0A35A
:100F300074C8F022F9746175F0A8020B0F90003BA1
:100F40007410F022F0A3F0900199F0A3F022E0FCDD
:100F5000A3E0FDD39FEC9E229002F4E004F022E097
:100F6000FEA3E0FFC322F9E4120A8A900253E022B2
:100F7000121526FDACF0D39FEC9E40379001C812AD
:100F8000153AFFC3ED9FFFEC95F0FED3EF9430EEE2
:100F90009475400D9002ED7475F0A37430F0021753
:100FA000D6121531C39FFFE5F09E9002EDF0A3EF3E
:100FB000F08043121537FFAEF09001C812153AFDCC
:100FC000ACF0C39FFFEC9EFED3EF9410EE9427404D
:100FD0000C9002ED74D8F0A374F0F0801212153763
:100FE000FFC3ED9FFEEC95F09002EDF0A3CEF0E490
:100FF0009002EDF0A3F09001ECE06048121638D3B7
:101000009400EE64809480401A9001DA12153AFD43
:10101000D3EF9DEE95F0400B900193E4F0A3743272
:10102000F0802BD3900194E09400900193E0940021
:10103000401C9001C512153AFF9002EDE5F0F0A3B7
:10104000EFF0800A9001977403F0A374E8F0121691
:1010500038D39400EE6480948050030219459001C7
:10106000C512156D1216D5121638D394E8EE6480A9
:101070009483500BC3EF94C8EE648094805007E4CF
:10108000900254F0A3F0900254E0FEA3E0FF90021F
:10109000EEE02FF09002EDE03EF0E0FEA3E0FFEE88
:1010A0003395E0FDFCE47BB87A88F9F8C3120C298B
:1010B000500A9002ED7488F0A374B8F0D3900196B2
:1010C000E09400900195E0940040399001D712150A
:1010D0003AFF9002EDE0FCA3E0FDC39FEC95F040E9
:1010E00006900108E0601DD3ED9400EC64809480CC
:1010F00040121216387C007D0A1209DB9002EDEED8
:10110000F0A3EFF09001ECE0603A900197E07002FC
:10111000A3E070309001CE12153A7D0F1216A6C8CA
:10112000ECC8C9EDC9CAEECACBEFCB121638EE3304
:1011300095E0FDFCEB7B101215FF9001CE12156DB2
:10114000F9EE800F9002EDE0F9A3E0FF9001CE12DE
:10115000156DC98FF0120B0F9001CE12153A24A80D
:10116000FFE5F0801D9001C512156D12169D9001CE
:10117000CE12156D12169D9002EEE024A8FF90028B
:10118000EDE03461F99001CB12156D12164C22E49A
:10119000FB74672B12114DE064016003021B3A746B
:1011A000612B121207E0FA6003021A51EB6401701E
:1011B0005612105C1211C8BF2003D38001C3400532
:1011C000E49001B5F09001ADE0FF6401701B900167
:1011D000ACE09001B5B40109E044091210FB0480B1
:1011E000151210F81212D08016EF9001B5B4020B50
:1011F000E044051210FB12124B80041210F8F0129A
:101200001271121064EFF0EB6402705912105C124C
:1012100011C8BF2003D38001C34005E49001B5F09D
:101220009001ADE0FF6401701B9001ACE09001B54E
:10123000B401061211BDE48020E044041210FB1238
:1012400012D08019EF9001B5B40205E04405800387
:10125000E04404F0E4900109F09001B4F01212713E
:10126000121064EFF0900199E4F0A37464F0021B93
:1012700030EA64016003021B30EB640170681210F5
:101280005C1211C8BF2003D38001C34005E4900164
:10129000B5F09001ACE0FFB4020B9001B5E0440A58
:1012A0001211C08013EF6401702690016CE0900170
:1012B000B5B4010C1211BDE49001B412124B801EA2
:1012C000E044021211C0E49001B4F0121231800E19
:1012D0009001B5E044021211C0E49001B4F0121282
:1012E00071121064EFF0EB6402706512105C121161
:1012F000C8BF2003D38001C34005E49001B5F0903E
:1013000001ACE0B402139001B5E0440AF09001B4DE
:101310007401F0900109F0802F90016BE06401707E
:101320001C9001ADE09001B5B40105E044098013C3
:10133000E044081210FB04F0121230800B9001B54B
:10134000E044081210FB04F0121271121064EFF066
:1013500074672B12114DE4F0C28A0BEB6403600337
:101360000219717F04227E007FFF7D007B017A00DD
:101370007905120CC69003097400F0A37405F0906F
:1013800001B67400F0A3746BF090025E7400F0A3D9
:101390007455F090012E7401F0A37400F0A374B999
:1013A000F09001347401F0A37400F074AD1211696F
:1013B0007400F0A37495F09001317401F0A37400EF
:1013C000F0A374C7F090013A7401F0A37400F074B4
:1013D000D31211697400F0A3742012116A7401F021
:1013E000A37403F09000537403F0902DE0E4931283
:1013F0001160FDF5828C83A3EFF0900002E0FFED19
:101400002404121066EFF0900001E0FFED240512B5
:101410001066EFF0900004E0FFED2406121066EF76
:10142000F0902E73121284F0902E75121284A3F095
:10143000902DE2E493FFED2412121066EFF0902D50
:10144000E3E493FFED2414121066EFF0902E6FE4A6
:1014500093FFED2432121066EFF0902E71E493FFAB
:10146000ED2433121066EFF0ED2434121066E4F030
:10147000ED24351210667464F09001437401F0A3FA
:101480007400F0A3743D12116A7400F0A3743F124B
:10149000116A7400F0A3744112116A7400F0A3740D
:1014A00043F0900149121014E475F0EB120B0FE4B5
:1014B000FF75F002EFA42401F582E5F0342EF583E8
:1014C000E493FE74552FF582E43400F583EEF0EFDB
:1014D00025E02477F582E4342EF583E493FE746BE3
:1014E0002FF582E43400F583EEF0746B2F12107444
:1014F0000FEFB416BC902F56E0900059F0902F5685
:10150000E090006FF09001007401F09000FFF09007
:10151000003B7410F090001CF0900029F0A37420A0
:10152000F090018B7413F0A37488F0229002ECEF1A
:10153000F09002EF7408F02405A3F012101190024D
:10154000EC12102012126A12101475F002EF121031
:101550002512128D9002EDF0A3EFF0122DF1900202
:10156000EF12120F4003021DCD9002ECE0FF1211AA
:1015700085E0600AEF1210D0E4F0A3F0800C1211A5
:10158000E61210CCEE8FF0120A111210CC121119C3
:10159000940FEE6480948040199002ECE0FD1210EC
:1015A000D0E4F0A3F0121011ED121098E475F001E0
:1015B0008021C3EF94F1EE6480947F50199002EC87
:1015C000E0FF1210D0E4F0A3F01210111210977483
:1015D000FFF5F0120AC29002ECE0FD24281211F28D
:1015E000E4F07F04123B20121295021E949002EC4C
:1015F000E0FF24281211F2E070481211EF7401F09C
:101600001211E6122DF1C3EF9432EE6480948050F3
:10161000319001311210149002ECE0121022FBAA5A
:10162000F01211E67C007D031209DBC3EB9FFFEA99
:101630009EFE1210119002ECE0121098EE8FF01244
:101640000B2E1211E6122DF19002ECE0FD12113F6B
:10165000E0FAA3E0D39FEA9E402674642D1211871E
:10166000E070239002ECE07F051234BA121295125A
:10167000316DEF6011120FF212109712121A8006DC
:10168000121295123B20C39002EEE094F89002ED06
:10169000E06480947F501A12129D1234BA12129D87
:1016A00012316DEF6011120FF212109712121A80A0
:1016B0000612129D123B201210119002EC12102003
:1016C00012126A12101475F002EF12102512128D08
:1016D00090013A1210149002ECE0121098EE8FF084
:1016E000020B2E90017AE024FE601C14602F14700F
:1016F000030220072403600302205490017A74023D
:10170000F01235BD123BEA1208667F017E00122CF2
:101710007590017A7403F0E49001ABF022122EA2CE
:10172000900173E07003021FE89001ABE004F0E465
:101730009002EAF09002EAE0FFC394034003021F24
:10174000E390012E1210149002EAE0FE12100275CE
:10175000F002EE12109B12121A90012E1210149029
:1017600002EAE0FE12102212126A12101475F00240
:10177000EE12109B12121AEF6401703B1211D2FF8D
:10178000240A121157E4F0EF240B121157E4F090E1
:10179000012E1210149002EAE012102212115EFDC6
:1017A000240E121066EFF09002EAE0121022FFED14
:1017B000240F121066EFF09002EAE06402703B1210
:1017C00011D2FF240C121157E4F0EF240D1211571F
:1017D000E4F090012E1210149002EAE0121022128E
:1017E000115EFD2410121066EFF09002EAE0121074
:1017F00022FFED2411121066EFF09002EAE004F0EF
:10180000021F14E4900173F09001ABE0C394034015
:1018100063900107747EF0E4900174F09001ABF0E6
:1018200090017A7404F02212343612382A9002574A
:10183000E07003122EA2123436900173E06401703E
:1018400033122ADC123436E49002EAF09002EAE025
:10185000FFC39403500E1225AD1234369002EAE015
:1018600004F080E812205512196F90017AEFF0E42D
:10187000900173F0229002EB747EF0E4A3F09002EA
:10188000ECE0FDC3940340030221727F0212316D2C
:10189000EF60031212309002ECE0121205E06003D8
:1018A0000221049002ECE0FF12113FE0FCA3E0FDF6
:1018B000EF121050E0FEA3E0C39DEE9C404090026A
:1018C000ECE09002EBF01212057401F090016BE075
:1018D00004F09001ACF09002ECE0FD12114B7401A9
:1018E000F0E4FF1221B91221B91234BA9002ECE0EF
:1018F000FD7F081234BA1211817401F08012900237
:10190000ECE0FDE4FF12316DEF6005121181E4F0AF
:101910009002ECE0FD7F0112316DEF606CE490010C
:101920006C0221649002ECE0FF121278E0FCA3E06C
:10193000FDEF121050E0FEA3E0C39DEE9C403790F7
:1019400002ECE0FD9002EBF07F0812316DEF6039A0
:10195000900131E0FBA3E0FAA3E09002EC120FFF4C
:1019600012109712121A12218112114B7401F09069
:10197000016CE004800E12218112114B7401F09071
:10198000016CE004F09001ADF09002ECE004F00294
:10199000205E9002EBE0FF900176E06F6002EFF0D6
:1019A000229002ECE0FD2461F582E43401F583E449
:1019B000F07F08123B209002ECE0FDE4FF1234BA05
:1019C0009002ECE0FD7F01123B209002ECE0FD7FF5
:1019D000011234BA9002ECE022123B209002ECE0BB
:1019E000FD7F022290024612173F9404EE940050AD
:1019F0002F9001C0E0FCA3E0FDEF25E0FFEE33FEF9
:101A0000743E2FF58274023EF583ECF0A3EDF09066
:101A10000247E004F07006900246E004F0022291D2
:101A20009002F57401F09002F5E0FF1216AEFCA3EF
:101A3000E0FDEF25E0243CF582E43402F583ECF090
:101A4000A3EDF09002F5E004F0E0B404D99001ECCD
:101A5000E060191215371222FD500C121537FF9055
:101A60000244E5F002228D1216E48041121537126D
:101A700022FD50369001C812153AFFC39001C1E013
:101A80009FFF9001C0E095F0FE122DF1C3EF94147A
:101A9000EE6480948050059001C880039001C212CA
:101AA000153AFF900244E5F080031216E4F0A3EF2C
:101AB000F09002F1120C5C00000000E49002F5F0DE
:101AC0009002F5E0FFD3900247E09F900246E09439
:101AD00000401D9002F1121558FBA3E01216AEFE55
:101AE000A3E09002F11215D19002F5E004F080D04D
:101AF0009002F1121688FFEEC0E0EFC0E0900246BF
:101B00001216F0D0E0FFD0E0FE120B979002F11217
:101B10000C509002F1A3A3E0FEA3E0FF22FF90018E
:101B2000C0E0FCA3E0FDC3EF9DFFE5F09CFE122D9D
:101B3000F1C3EF9428EE64809480229001ECE06081
:101B4000689001EE120C5C000000001215F11216F4
:101B500041E4900248F0900250E07004A3E0640178
:101B60006003022471C31216BB400302247190016A
:101B7000C812153AFF90025DE02432FD90025CE04D
:101B80003400FCED2FFFEC35F0FE121537D39FE546
:101B9000F09E400E12156A75F005121746240512C4
:101BA000162590025012169622E49002501215F556
:101BB000A3F0A3F09001EE121558FBE9C0E0EAC0D3
:101BC000E0EBC0E0121537FFE4FCFDD0E0FBD0E015
:101BD000FAD0E0F9EB2FFFEA35F0FEED39FDEC38F5
:101BE000FC9001EE120C509001F3E004F0700690AE
:101BF00001F2E004F090018FE07002A3E0600302C4
:101C000024719001EE121688FFEEC0E0EFC0E0A351
:101C10001216F0D0E0FFD0E0FE120B979001EE120A
:101C20000C509001C812153A2414FFE435F0FEE47C
:101C3000FCFD9001EE121558FBD3120C3F40299089
:101C4000018BE07002A3E0701F9001F5E004F070DA
:101C5000069001F4E004F0D39001F5E094059001C2
:101C6000F4E09400401280009001EE121563121609
:101C70004CE49001F4F0A3F0E4900248F09001EEFF
:101C8000120C5C00000000E49001F2F0A3F01216C8
:101C90004122C0E0C083C082C0D0ECC0E0EDC0E013
:101CA000EEC0E0EFC0E0D2AFE5DB30E41D90000312
:101CB000123A53E4F0E5DB30E1028038900308E5A6
:101CC000DFF090030BE4F0022595E5DB30E516909C
:101CD0000305123A53E06005E4F0022595900003F5
:101CE000E4F002259590030EE4F0E5DB30E135E504
:101CF000DB30E009123A25E0F5DF02259590030C70
:101D0000E0FFB4080F208A0CD28A123A442407124A
:101D10003A34E4F0EF641A600302259590030D0451
:101D2000F002259590030BE0700EA3E5DFF0900321
:101D30000B123A53F002259590030CE09039EF9383
:101D4000FFB4FF0F900308E5DFF090030CE004F010
:101D500002258FEF640F702B90030CE0FF90030FB0
:101D6000E0FCA3E0FD123A33E0540FF090030CE0E6
:101D7000FF04F0ED123A33E0FFE5DF54F0FEEF4EE2
:101D8000F0802C123A25E5DFF090030CE0FFB40957
:101D90000B123A442408123A34E0F5D3EFB40A0F98
:101DA000900309E0FEA3E02409123A4CE0F5D49038
:101DB0000307E004F075DBFFD0E0FFD0E0FED0E0E9
:101DC000FDD0E0FCD0D0D082D083D0E0329002EBC6
:101DD000EFF012101112101D12126A12101475F089
:101DE00002EF121025C39DE5F09C4029900131A31C
:101DF000A39002EBE0121022FDEF121220EDF09002
:101E0000013A12101412101DFDEF121050E5F0F0FF
:101E1000A3EDF0801F9002EBE0FF1210501212A50C
:101E200012101475F002EF121025FF9002EBE01271
:101E30001220EFF09002EBE0FF121050E0FCA3E064
:101E4000C39432EC94005008EF121050E4F0A3F069
:101E50009002EBE0FF64017050EF12105012111964
:101E600094F4EE9401400812102EEEF0A3EFF090DF
:101E700002EBE0FD121050E0121135240A1211207D
:101E8000ED121050A3E0FFEB240B121120121011E1
:101E900012101DFDEF121050121129240E121120E4
:101EA000CFEDCFEB240F1211209002EBE0FF640284
:101EB0007050EF12105012111994F4EE9401400872
:101EC00012102EEEF0A3EFF09002EBE0FD12105096
:101ED000E0121135240C121120ED121050A3E0FF76
:101EE000EB240D12112012101112101DFDEF121013
:101EF000501211292410121120CFEDCFEB24111212
:101F0000112022C0E0C083C082C0D0D2AF90019E19
:101F1000E004F0D390018CE0940090018BE09400F9
:101F2000400CA3E024FFF090018BE034FFF0D3904D
:101F3000018EE0940090018DE09400400CA3E02419
:101F4000FFF090018DE034FFF0D3900190E0940019
:101F500090018FE09400400CA3E024FFF090018FEB
:101F6000E034FFF0D3900192E09400900191E0946E
:101F700000400CA3E024FFF0900191E034FFF0D387
:101F8000900194E09400900193E09400400CA3E051
:101F900024FFF0900193E034FFF0D3900196E09499
:101FA00000900195E09400400CA3E024FFF0900124
:101FB00095E034FFF0D390019CE0940090019BE009
:101FC0009400400CA3E024FFF090019BE034FFF06C
:101FD000D390019AE09400900199E09400400CA302
:101FE000E024FFF0900199E034FFF0D3900198E0F5
:101FF0009400900197E09400400CA3E024FFF0903F
:102000000197E034FFF0D3900251E0940190025028
:10201000E09400400CA3E024FFF0900250E034FF75
:10202000F0D0D0D082D083D0E0329002F0EFF090A8
:1020300001311210149002F0121020FDACF090014A
:102040002E12101475F002EF12102512128D1210BC
:10205000BBEE8FF0120A11ED1210C0E0FEA3E0FFFC
:10206000122DF1D3EF9414EE6480948050589002B6
:10207000F0E01210C01211199403EE6480948040B5
:10208000161210BB1212A512101475F002ED1210E8
:102090009BE475F0018020C3EF94FDEE6480947F93
:1020A00050189002F0E0FF1210C01212A512101486
:1020B00012109774FFF5F0120AC29002F0E0245E4D
:1020C0001210F0E4F0229002F0E01210C0E0FEA343
:1020D000E0FF122DF19002F0E012113FE0FCA3E0CE
:1020E000D39FEC9E400B1210DCE0D394024037806B
:1020F000091210DCE0D39401402C9002F0E0FF12B2
:1021000010C0E4F0A3F090012E12101475F002EF4D
:102110001210251212631210149002F0E01210989F
:10212000EE8FF0120B2E229002EFEFF09002F4E40B
:10213000F0A374FFF0E4A3F0A3F0A304F0A374FFF2
:10214000F0902EC07402F0902EC37408F0E4900258
:10215000F0F0A3F09002F0E0FEA3E0FFC39409EEDC
:10216000940040030229EFEF9407EE940040067EAE
:10217000007F0180199002F0A3E004FFE47E01C813
:10218000EFC8088006CEA2E713CE13D8F8FF90025E
:10219000F2EEF0A3EFF01212B8902EC0E030E2F9A8
:1021A0009002EFE0FF75F002A424001210B2E0FCF0
:1021B000A3E0FD902EC07402F0D3ED94FFEC940FD9
:1021C00040179002F2E0FCA3E0FD75F002EF121060
:1021D000AFEC8DF0120A1180259002EF1210ABC007
:1021E00083C082E0FEA3E0FF9002F2E0FCA3E0FDEA
:1021F000C3EF9DFFEE9CD082D083F0A3EFF090025E
:10220000F1E004F070069002F0E004F00229347F5F
:10221000002212118F9000FFE0600FE49002EBF0BB
:1022200012106D121259E0B416F6E49002EBF09021
:1022300002EBE0FFC394035011747B2F1210A4E44F
:10224000F0A374FFF012125980E5E49002EBF090D5
:1022500002EBE0FFC394034003022ABEEF14601BAD
:102260001460292402703175AB015389FE902ECA87
:102270007410F0902EC57401F0801D75AD20539937
:10228000DF121244902EC47420F0800C1212BF1280
:102290001244902EC47440F09002EBE0247B1212A2
:1022A0003AFF122907EF70301211DA9002EBE0B416
:1022B000010F1210A2E0FFA3E09001A7CFF0A3EF5F
:1022C000F09002EBE0FFB4020F1210A2E0FFA3E0D7
:1022D000900178CFF0A3EFF0121259022A2F123892
:1022E000C59000FFE06014E49002EBF012106D1254
:1022F0001259E0B416F6E49000FFF022122BACE481
:102300009002EBF09002EBE0FFC394034003022B3A
:10231000A6EF7003022B7A12280A9002EBE0FF125C
:102320001D0C9001B0E0601F900109E07019900150
:10233000B4E0701390013A1210149002EBE0121006
:1023400098E4F5F0120B2E90013A1210149002EB63
:10235000121020FDACF0C39406EC6480948050020F
:10236000804DC3ED9432EC64809480505090013ADB
:102370001210149002EBE075F002A4F582E92582B8
:10238000F9EA35F0FA120A27FFAEF07C007D02125E
:1023900009DBEE8FF0120B0F802390013A1210141C
:1023A0009002EB121020C3E5F064809480500E90F0
:1023B000013AA3A3121097E4F5F0120B2E9002EB52
:1023C000E004F0022AE4E4900173F0229002EC743D
:1023D00008F02405A3F0E4FF12280A1210111212CB
:1023E000601210141212C6FE9002EEF0A3EFF0126B
:1023F0002DF19002EC12120F501C121105940AEEEE
:102400006480948040028044C3EF94F6EE6480942C
:102410007F5065022C479002EEE0FEA3E0FF122DF4
:10242000F19002EDD31212104016900131121014E7
:10243000120A27FF121011E5F08FF0120B0F8038EF
:102440001211059464EE648094804010E49001556C
:10245000F0A3F0121011E475F0018019C3EF949C01
:10246000EE6480947F5011E4900155F0A3F01210B7
:102470001174FFF5F0120A8A121011121260121074
:10248000141212C6F990013AE0FBA3E0FAA3E0C9E6
:102490008FF0020B0F9002EDEEF0A3EFF04E600311
:1024A00012363DE4900246F0A3F0900236F07F1021
:1024B0001237D8121693A37403F0A374E8F09002B5
:1024C000501215F4A3F0A3F09001C0E0F9A3E0FFCF
:1024D000A312156D12164C9001C512156D12169DA2
:1024E0009001CB12156D1217149001CE12156D12BA
:1024F000169D9001D112156D12171412171DE4903C
:1025000001ECF0900191F0A37432F0900239120CBA
:102510005C00000000E490023DF09001EE120C5CC3
:10252000000000001215F19001C012156512164C42
:10253000E49001EDF09002EDE07002A3E0600F90F6
:1025400001F8E0FFA3E090024BCFF0A3EFF0E4909E
:10255000019B12172490024DF022758A50538AEF86
:102560009000027411F09000017422F09000047445
:1025700033F07599BF759A40E4FFFEC2950020962E
:102580000CD295003096069000027487F00FBF00C1
:10259000010EEF640A4E70E37590FF75999F759A6E
:1025A000607580FF7589FE759501000000E4FEFFEF
:1025B0003080063095032096069000017487F00F56
:1025C000BF00010EEF640A4E70E6E4F5AB75AC1D7A
:1025D000F5ADF5AF7589FF75913E7599FFF5967567
:1025E000931CF59BF595F592F59A75AE0675D30596
:1025F00075D40575800CD28A90010404F022000085
:102600000401AB18121B46122F5C90017A7401F082
:1026100022EE30E707C3E49FFFE49EFE22D2AF32F2
:10262000021003030A070D100E800FFF0C020BFFB0
:1026300023F724022502070127202A2028022B0243
:1026400029032C032D202E202F102620000000000F
:102650000001000000020000000300000004000070
:102660000005000000060000000700000008000050
:1026700000090000000A0000000B0000000C000030
:10268000000D0000000E0000000F0000001001000F
:10269000023203640464021103060A100D100E8056
:1026A0000FFF0C020BFF23F424042504070127105D
:1026B0002A1028042B0429032C032D202E202F1050
:1026C000262012118FE4FF746B2F1210740FEFB4D9
:1026D00016F5E4FF1212AD600C146010240270199C
:1026E0001211A68014121171740C800A1212BF7498
:1026F0004012117974111212431212B8902EC0E0D8
:1027000030E2F91211DA0FEF640370C8E4FF12121D
:10271000AD600C1460102402701D1211A6801812F6
:102720001171740C800E1212BF902EC47440F09080
:102730002EC374111212431212B8902EC0E030E270
:10274000F91211DA747B2F12123A75F002A42400E8
:102750001210B2E0FCA3E0FD90012E121014121032
:1027600097EC8DF0120B2E0FEF640370A1902EC426
:10277000E4F0902EC0F090017304F0227F967A016D
:1027800079C01217049001C27401F0A37400F074B0
:10279000451216117400F074471216117400F0A35C
:1027A00074491216127400F0A374331216127400D6
:1027B000F0A3742F1216127400F0A3742DF0900180
:1027C000DD7401F0A37400F0A374271216127400D4
:1027D000F0A3741D1216127400F0A37423F090017C
:1027E000D47401F0A37400F0A374371216127400AD
:1027F000F0A3742B1216127400F0A37439F0900237
:102800005C12170D9001D412156DF9E475F0C81221
:102810000B0F9001D712156DF9E475F064120B0FD0
:102820009001DA12156DF9E475F0A0020B0F90011A
:10283000A6E0706B04F0E4FFEF25E024B4F582E439
:10284000343A1211FA25E0241CF582E43401F583B0
:10285000ECF0A3EDF0EF25E024AEF582E4343A127B
:1028600011FA12113FECF0A3EDF0EF25E024BAF5D8
:1028700082E4343A1211FA121278ECF0A3EDF00F60
:10288000EFB403B4900118A3E0121160FDF5828C3F
:1028900083A3A3EFF090011AA3E0121286A3F01213
:1028A00011D2F5828E83A3E0B4AA0312371B121152
:1028B000D2FF121155E0B4100BEF121155E4F09055
:1028C000025604F01211D2FF241B121157E0700DB2
:1028D000EF241C121157E0B4100312390922EF75CE
:1028E000F003A42473F582E43402F583E58222F533
:1028F00083E493FE740193FFE4FCFD902F60E0F805
:10290000A3E0F9A3E0FAA3E02FFFEA3EFEED39ECE5
:1029100038222EF582E43583F5832274E12BF5828B
:10292000E43402F58322E4E075F008A42491F582F2
:10293000E43402F58322EFF0FCA3E0FE13131354FA
:102940001F2225E02461F582E43402F58322E0FFB2
:1029500074017E00C8EFC80822902F60A3A3E0FE98
:10296000A3E0FF22F583C37401939FE4939E222585
:10297000E02479F582E4343B22E0FCA3E0FDD39F20
:10298000EC9E2225E0248DF582E4343B229002F275
:10299000EDF09002F1123116A3F0EE5407A3F0907F
:1029A00002F3E0FFEC1230BF2F1230F3E0FD7C00A9
:1029B0009002F412312E8005C333CE33CED8F9FF06
:1029C000EE5CFEEF5D4E60621231399002F1123121
:1029D00006C083C0829002F2E0D082D08375F002FC
:1029E000120C8D1231595042C3EF9DFFEE9CFE90A8
:1029F00002F1E0FD12314F123144402E9002F3E01B
:102A0000FFED1230BF2F1230F3C083C082E0FF9081
:102A100002F4E0FE7401C8EEC8088002C333D8FC9B
:102A2000F45FD082D083F07F01227F0022900108E2
:102A3000E090025C60097405F0A374DCF08003127E
:102A4000170D9001C512153AFFD390025DE09F90DB
:102A5000025CE095F0401C9001ECE060279001DA08
:102A600012153AFFAEF09001C512153AC39FE5F07A
:102A70009E4011900195E07002A3E070279001EC58
:102A800004F0802090001CE0B420051216FC8006A3
:102A900090019512170DE49001ECF0900193F0A3D2
:102AA000F012171D9001ECE06011900029E09000F9
:102AB0003BB410047410F0227420F0221215E412BA
:102AC000165C902EC5F0902EC4E4F0902EC07419C0
:102AD000F07F047A0279F3121704E4FF902EC0E02D
:102AE00030E2F9902E02E0FCA3E0FD9002F6E02D2A
:102AF000F09002F5E03CF0EFC394015007902EC037
:102B0000E054FBF00FEFB402D3902EC5E4F0902E0A
:102B1000C0F04389021215EA438002900236E07544
:102B2000F004A424F6F9740135F0C8E9C8FC7D016D
:102B30007B017A0279F37E007F0412094E900236FF
:102B4000E004F0E0540FF022410003004101AE0028
:102B50004101AF004101AB004101A9004101B500B5
:102B60004101A600410109004101B4004101AA0050
:102B70004101B000410108004101B80050017B0053
:102B80000D0E101010101010101010101010104119
:102B9000030B0041030C0042030300004103050046
:102BA000410307004103060041030E0041030D00ED
:102BB000410308104101B9004101BB1042025C0011
:102BC000C841025600410257004101BA104102605B
:102BD0000000902EC0E4F09001AFF09001AEF0FC48
:102BE000747B2C12123AFE131313541FFDEE54077C
:102BF000FEED14601B04702E9001AEE0FD7401C860
:102C0000EEC8088002C333D8FC4D9001AEF08016A8
:102C10009001AFE0FF7401C8EEC8088002C333D84A
:102C2000FC4F9001AFF00CECB403B59001AEE0FFA7
:102C300042ABA3E0FE42ADEFF4FF5289EEF4FE5248
:102C400099EF5295EE529A9001AEE0F45296A3E0BD
:102C5000F4529B7F03229001AAE01460191460498A
:102C60002402706430885C1234A99001B87401F0B9
:102C7000900108F0804D7F02123AF0EF600A7F0267
:102C8000123BDBE49001B8F020883D9001AA740269
:102C9000F09001B014F0E49001B8F0900108F07FDA
:102CA00003123BDB7F03023A5A7F03123AF0EF60D4
:102CB000177F03123BDB208807E49001AAF0800312
:102CC0001234A9E49001B0F0229001AA7401F07FBF
:102CD00002123BDB7F02123A5A229002F2EDF09090
:102CE00002F1123116FDEE5407A3F0EC1230BF2DA5
:102CF0001230F3E0FB7A009002F312312E8005C30C
:102D000033CE33CED8F9FFEE5AFEEF5B4E704D90C6
:102D100002F1E0FE1230BF2D1230F3C083C082E01A
:102D2000FF9002F3E0FD7401C8EDC8088002C333D0
:102D3000D8FC4FD082D083F0EE12314F1230CF90BA
:102D400002F1123106C083C0829002F2E0D082D03C
:102D50008375F002120C8DEEF0A3EFF0220239B968
:102D6000E493A3F8E493A34003F68001F208DFF4B0
:102D70008029E493A3F85407240CC8C333C4540F28
:102D80004420C8834004F456800146F6DFE4800BFB
:102D90000102040810204080903328E47E019360F3
:102DA000BCA3FF543F30E509541FFEE493A3600128
:102DB0000ECF54C025E060A840B8E493A3FAE49392
:102DC000A3F8E493A3C8C582C8CAC583CAF0A3C840
:102DD000C582C8CAC583CADFE9DEE780BEE49001C8
:102DE000A6F0FFEF1210C0E4F0A3F0EF1210D0E451
:102DF000F0A3F0745B2FF582E43401F583E4121044
:102E0000ECE4F0EF25E0246DF582E43401F583E491
:102E1000F0A3F074612F121207E4F074672F1211FF
:102E20004DE4F090016A747EF01211EFE4F0742B1F
:102E30002FF582E43401F583E4F00FEF640370A30F
:102E4000E490016BF0A3F09001ACF0A3F090017658
:102E5000747EF0900107F0E4900175F0221215E401
:102E600012165C902EC4E4F0A3F0FF1215750FEF5C
:102E7000B416F81216761229074389021215EA438E
:102E80008002903A90E493FE740193FFFD902E42ED
:102E9000E0FAA3E0C39DFDEA9EFCD3ED9414EC643C
:102EA0008094804008902E42EEF0A3EFF09001BB9A
:102EB000E0FF900309E0FCA3E0241DF582E43CF56B
:102EC00083EFF012166312156DF9EE8FF0120B0FEF
:102ED00012165222900256E0700C9001B0E070067B
:102EE0009001B8E0600CE4FFFE122C75E4900256ED
:102EF000F022900199E07002A3E060051216C870FC
:102F00003612377A7F011237D81221C49002EBEEC5
:102F1000F0A3EFF07B017A0279EB12387C9002EBA0
:102F2000E0F9A3E0FF9001C212156D12164C1217C2
:102F30005012320D12231B123946229002EA7408F5
:102F4000F0A3E4F0A3743FF0A374DFF0E4FDFCF918
:102F5000758A10538AEF009002EAE0FEA3E02DF597
:102F600082EE3CF583E493FF69F90DBD00010CBCD2
:102F700037E5BDDFE29002EC123A3BE4936990033F
:102F8000097009123A3BA37404F08006123A3BA37D
:102F9000E4F0758A50538AEF002290030DE06057E9
:102FA000E490030DF01215E412165C902EC4E4F0C8
:102FB000A3F0FF1215750FEFB416F8902E42E0FF44
:102FC000A3E09002EDCFF0A3EFF0121676122907DE
:102FD0004389021215EA43800212166312156D121C
:102FE00016D512165C9002EDE0FFA3E0902E42CFC2
:102FF000F0A3EFF0121652229002F1EFF012165CDD
:10300000E49002F2F09002F2E0FF2455121578905D
:1030100002F2E004F0E0B416ECE49002F2F0900268
:10302000F1E0FFA3E0C39F500B12329C9002F2E04C
:1030300004F080EA902EC0E4F01216527F011212C2
:10304000DA9001C0EEF0A3EFF022E490019EF012BE
:1030500016C8702E900257E0700890018DF0A3748E
:1030600064F09002577401F090002AE0B420081236
:1030700036B4120CF2800312398190019D7401F074
:103080008017E4900257F090002AE0B42003123633
:10309000B490019DE06002E4F0023BBD9002EDEBD4
:1030A000F0A3EAF0A3E9F090018DE07002A3E070D4
:1030B000339001EDE0602DE49001EDF09002F0041A
:1030C000F07F011237D81221C49002ED12156D1253
:1030D00016D59002F0E004F0E0C3941040E312161D
:1030E000931216FC22900104E0603DC39001A8E019
:1030F00094209001A7E0940050069000047487F09B
:10310000C3900179E09420900178E09400500690FB
:1031100000047487F0E4900104F0900004E01211C0
:10312000602406121066EFF02212082EE4F5F27504
:10313000F30875EEFF75EF3F75EA81F5F675EB075D
:1031400000E5EC30E7FBE4F5EC900309E0FEA3E0DA
:10315000FF241B123A4CE5F3F0EF241C123A4CE525
:10316000F2F075EB302290003BE0FC9001BAE06C8D
:10317000602E90003BE0FE9001BAF090000CE090D1
:1031800001B5F0540FF0EEB42005E04420800AECC5
:10319000B4100B9001B5E04410F090000CF0C28A1E
:1031A00022E4F5B2F5BA758D20438D20538D7F53FF
:1031B000AAF7F58BE5DB20E21C900003E07016F522
:1031C0008A758703000000758A5090025604F090BB
:1031D000002A7420F0758B112212084E53A87F121A
:1031E0002D3A122DE4123B4E43A880123BE4123BD1
:1031F0009FEF24E0600A2410700AC283C282800418
:10320000D283D28212300E12081E121EC380DF003B
:10321000000000FFFFFFFF0000FFFFFFFFFFFFFFB9
:10322000FFFF00FF000000FFFF000000FFFFFFFFA7
:10323000FFFFFF00000000FFFFFFFFFFFFFFFFFF9A
:10324000FF0000000090030CE0FF04F090030FE08B
:10325000FCA3E02FF582E43CF58322E0FEA3E0F539
:10326000828E8322900309E0FCA3E022F582E43EF3
:10327000F583227401F090030E229002EBEFF0E050
:1032800024E11230FEE060037F01229002EBE0FFB8
:1032900024E11230FE7401F0EF1231631230CF904E
:1032A00002EBE0123122EEF0A3EFF07F002200608B
:1032B00000C700A000A000A000A000A000A000A0E7
:1032C00000A000A000A000A00018008000A00096B0
:1032D00000960096009B009B009B008C008C008C4D
:1032E000758B11902F647440F0E4FEE4FF1230BE41
:1032F0001230F2E4F00FEFB40AF30EEEB403EC7FF9
:10330000099002E1E4F0A3DFFC902F647480F022C6
:10331000CBEFCB1230FBE06024123139EB123122BB
:103320001231595018C3EF9DFFEE9CFEEB12316332
:1033300012314440081230FBE4F07F01227F00226A
:10334000ED131313541FFEED5407FD1230BE12305F
:10335000F2C083C082E0FFCEEDCE7401C8EEC80893
:103360008002C333D8FCF45FD082D083F022900374
:1033700009E0FFA3E090030FCFF0A3EFF0E4F5DA4C
:1033800075DA4043DA2075D74075DA5875D90143AC
:10339000A90875B80875F8082201F400280028016A
:1033A000F4009603E801F403E81770006403E800F2
:1033B00032012C012C012C01F403E8271000C8E491
:1033C000FF900305E06015123A44F5828C83E0FE1D
:1033D00054F0FFEE540FF0E4900305F022E5B23014
:1033E000E005E5AA20E013E490019FF075B28E7528
:1033F000B6F9F5B743B20143AA012274E12F1230A6
:10340000FEE4F022123BEE023AC012171D22023BEC
:10341000BD000000000000000000000000000000EF
:10342000000000000000000000000000000000009C
:10343000000000000000000000000000000000008C
:10344000000000000000000000000000000000007C
:10345000000000000000000000000000000000006C
:1037F000000000000000000000000000000000BA0F
:1038000000000000000000000000000000000000B8
:1038100000000000000000000000000000000000A8
:00000001FF
