:1000000000B6000000010000FB66000000000000D8
:1000100000000000000000000000000000000000E0
:10002000801878FFE4B8200118F6D8F99000007F16
:10003000007E07E4F0A3DFFCDEFA7581200231FCCC
:10004000902EC5E4F0902ECDF0A3F0FFFEEE901BB5
:100050001393600D746C2FF582E43402F583EEF097
:100060000F0EEEB410E72200000000021D5375B21F
:100070008E75B6F9E4F5B743B20143AA01023641E1
:10008000000000023397C0E0758D0175AA0043AAF5
:1000900001D2AFD0E0320000000000021066902EC6
:1000A000C0E4F0902ECB74D7F0902F58E0540F247A
:1000B000F0902EC8F0902ECC7408F0902EC97428C1
:1000C000F0A3743FF0902E4074811212A9F0A3F0B7
:1000D000A374041212A97402F0A37404F0902EC643
:1000E0007414F0902EC17490F0A37403F0A3748084
:1000F000F0A37407F043E310121020900003EFF018
:1001000022F07D037F111214082D1211E6E4F02273
:100110000100ABB6900453E0FF75F08DA42433F5D5
:1001200082E5F03400F583E0FCA3E0FDEF75F08D8F
:10013000A42443F582E5F03400F58322F583E493AB
:10014000FC740193FD75F002EFA424D0F582E5F074
:100150003401F583ECF0A3EDF090043FE0FF25E0DF
:1001600022F583E0FCA3E0FDEF75F002A42417F56F
:1001700082E5F03400F58322900459E0FEA3E0FF0D
:10018000900453E0FD75F08DA42467F582E5F0340A
:1001900000F58322900453E075F08DA42453F5827A
:1001A000E5F03400F5832275F0021224BDE0FCA3D3
:1001B000E0FDEF75F08DA42433F582E5F03400F511
:1001C0008322F583E493FC740193FD75F002EFA4A0
:1001D0002275F002EBA4240BF582E5F03400F583E0
:1001E000E0FCA3E0FD75F002EBA42405F582E5F048
:1001F0003400F58322EB25E025E02417F582E43472
:1002000002F583E5822FF582E43583F5832290049D
:100210003EE0FE75F08DA42423F582E5F03400F570
:1002200083EF75F0020224BDE4900004F090039F78
:10023000F074DC2DF582E43401F583E4F074E22DF2
:10024000F582E43401F58322E04409F0E4900004EF
:10025000F090039F22241DF582E5F03400F583EC35
:10026000F0A3EDF090043FE004F022900453E0FF8F
:1002700075F08DA42423F582E5F03400F5832290F7
:100280000459C3E0FDEF9D7480F86E982275F0026A
:10029000EBA4240BF582E5F03400F58322FEEB7528
:1002A000F002A42411F582E5F03400F583229004D5
:1002B00053E0FEA3E0FF900068E02FF0900067E0BD
:1002C0003EF0E0FEA3E0FFD322F0A3F0A3F0A3F002
:1002D000A3F0A3F0A322900453E075F08DA424773B
:1002E000F582E5F03400F58322EF25E02441F58224
:1002F000E43404F5832275F002A424CAF582E5F003
:1003000034012290039FF074E32DF582E43401F56B
:1003100083E4F022A3F0902ECEF0902EC074C2F0B1
:10032000900000742EF0A32253E2FB902EC5E4F05F
:10033000902ECEF0900000E0FAA3E0F5828A83755B
:10034000F002E0FAA3E0FBED22900440E0FD121081
:10035000E6900440E0FD2224DCF582E43401F583DC
:1003600022900003E0FF90043FE0C39F22E490004E
:1003700067F0A3F0900044E022EB25E02433F582FF
:10038000E4341DF583E493FE740193FF22A424D684
:10039000F582E5F0340122F09003A3E0FCA3E0FD38
:1003A000A3E0FEA3E022E4F0A3F075F08DEEA4221A
:1003B000E0FCA3E0FD75F08D22902ECB74F4F0A349
:1003C0007448F0741E902EC6F0902EC322E4F0A361
:1003D000F0900454E004F022EE75F0020224BD24F3
:1003E000EAF582E43401F583E422E49001E6F0903A
:1003F0000268F022FFE0FCA3E0C39FFFEC9EFE2218
:10040000900454E0FFC3940822E04406F0900004F6
:100410007401F022E0FCA3E0FDEC541F22ECF0A3F9
:10042000EDF0E4900454F022EF25E025E02417F5E8
:1004300082E43402F583E58222900453E0FD7F0AD2
:1004400022E0FEA3E02DFFEE3CFE90043FE0229070
:10045000020AE0640122E0FEA3E0FFC32290044010
:10046000E004F022A4246FF582E5F03402F5832243
:10047000E4900077F0A3F022900457EEF0A3EFF0A1
:10048000229003B6E054F0F02224FFF0900043E005
:1004900034FFF022EE8FF012245975F08DED2224F6
:1004A00063F582E5F03400F583222465F582E5F0FA
:1004B0003400F58322E0FAA3E0D39478EA94002292
:1004C000E0FEA3E0C39478EE940022C3EF94E2EE42
:1004D0006480947F22E0FEA3E0C39D2224DFF582A6
:1004E000E43401F58322C3EF94CEEE6480947F223E
:1004F000E0FF90043FE022E0FCA3E0FDC322F09087
:1005000001E7F0900269F022CFF0A3EFF075F08DD3
:10051000EB22E4900447F0A3F090020BE090045229
:100520007003F080037414F0122AE6E490043FF0A4
:100530009000031214D0FDC39F40030218009004E2
:10054000521214D0FC1212D6F583E0FAA3E0C39F36
:10055000FFEA9400FEEF7803CEC313CE13D8F9FF61
:1005600090044CEEF0A3EFF0EC1212CAE4F0A3F00A
:10057000900447F0A3F0ED70030217F7E490021324
:10058000F0900440F0900440E0FDC39408500D90BA
:10059000043FE0FF12281D12143D80E9900213E091
:1005A000C39408402AE4900440F090043F12124E95
:1005B000C083C082900440E0FED082D083121187B5
:1005C0001213B8ECF0A3EDF012143DE0B408DB9088
:1005D000043FE0FF121806E490044BF090044EF044
:1005E000A3F0A3F0A3F0900440F0900440E0FFC318
:1005F0009408400302168190043FE0FE1211781225
:100600001201E0FCA3E0FD900448E02DF0900447C7
:10061000E03CF0C3ED9404EC64809480501A75F0D3
:100620008DEE12117BC083C082900440E0D082D056
:1006300083121202E4F0A3F090043F121177C083FA
:10064000C082900440E0D082D083121202E0FEA368
:10065000E0FF90044C1214D7EF9DEE9C40069004EE
:100660004BE004F090044EE0FCA3E0FDD3EF9DEEE0
:100670009C402890043F121177C083C082900440B0
:10068000E0FFD082D083121202E0FDA3E090044E7E
:10069000CDF0A3EDF0A3E4F0A3EFF012143D0215AA
:1006A000CAC3900447E0648094805004E4F0A3F04F
:1006B000900447E0FEA31214D0FD75F08DA412142F
:1006C0007FEEF0A3EFF090044E75F08D121322A48C
:1006D00012148AEAF0A3EBF0C3EF9BFFEE9AFE90B0
:1006E0000447F0A3EFF07C007D07122423A3EEF073
:1006F000A3EFF0900449E0FCA3E0FD900451E02555
:10070000E0FF900450E033FE90043F121177E58241
:100710002FF582E5833EF583ECF0A3EDF0E4900441
:1007200040F090044BE0C394084012A3E0FEA3E025
:10073000FF90044AE09F900449E09E501990043FC6
:10074000121177C083C082900440E0D082D083121F
:100750001202E4F0A3F0900461E090043F6022E014
:10076000FF121178C083C082900440E0D082D08311
:100770001212021211071214211212CAEE8FF08007
:100780001FE0FF121178C083C082900440E0D08245
:10079000D083121202E0FCA3E0FD1212C9EC8DF02E
:1007A00012245912143DE0640860030217029004F9
:1007B00061E0602C90043FE0B4010F1212CAE0FF28
:1007C000A3E0900263CFF0A3EFF090043FE0FF645A
:1007D0000270441212C9E0FFA3E090020ECF8033F2
:1007E00090043FE0FF12110DE0FCA3E01211AA12E9
:1007F0001272ECF0A3EDF090043FE0FF1212CAE099
:10080000FCA3E01211AA12127212142175F0021246
:1008100011C9EEF0A3EFF090043FE004F0021510D0
:10082000E4900205F022900453EFF0900455740513
:10083000F09003A0E070191210F41213FD1213E0EF
:100840004003021AC91211741212011213AD80ED85
:10085000900455E0FD2402A3F0900453E01212D658
:10086000F583E0FEA3E07803CEC313CE13D8F9FFDF
:100870001214587C00D39DEE9C400A900457E0FE71
:10088000A3E0FF8006CEECCECFEDCF12145890043B
:1008900053E0FF12110D12118D1214B5FFEE9C9052
:1008A0000459F0A3EFF090026BE06401600690043D
:1008B00063E06027121ACAC3EF940AEE6480948042
:1008C00050191210F41213FD1213E04003021AC95A
:1008D0001211741212011213AD80ED900087E064C2
:1008E000016011D3900054E09401900053E06480C3
:1008F000948040191210F41213FD1213E040030209
:100900001AC91211741212011213AD80ED121ACA13
:10091000900455121262400302197F900453E0FFC5
:100920001214BCE0601175F08DEF121168E4F0A3B1
:10093000F0900459F0A3F0900453E0FF1213BFF0BD
:10094000900459121390EF121168EC8DF012245993
:10095000900453E01211651212A2941EEE6480946A
:10096000804011121160E4F0A3F0ED12110DE47556
:10097000F00180181214AB5016900453E0FF1211CE
:1009800065E4F0A3F012110C74FFF5F01224591273
:1009900014191210E6900453E0FD7F02021A8690AB
:1009A00001E8E064017065121AD6900456121262D2
:1009B000500B1210F4ECF0A3EDF00219E1121158F3
:1009C0001214741211681212A29432EE6480948090
:1009D0004014121160E4F0A3F075F08DED121110C7
:1009E000E475F00180181214C65016900453E0FF0D
:1009F000121165E4F0A3F012110C74FFF5F012244B
:100A000059900453E01213BFF0021A89121AD6D378
:100A1000900458E09F900457E09E404612115812EF
:100A200014741211681212A29432EE648094804001
:100A300014121160E4F0A3F075F08DED121110E4C2
:100A400075F00180181214C65035900453E0FF125F
:100A50001165E4F0A3F012110C74FFF5F0122459A3
:100A6000801D900453E0FD7F021210E6900453E0D5
:100A7000FF121165E4F0A3F074EA2F1213C1F0C362
:100A8000900459E064809480501912141912350BA7
:100A90001214191232C1EF60101210F4ECF0A3ED31
:100AA000F080061214191210E6E4900454F01213A8
:100AB000E05036900453E0FE12119312120112130B
:100AC00090EE121110121436ED9FFFEC9EFE1211E3
:100AD00074C083C082900454E0D082D0831212028A
:100AE000EEF0A3EF1213B080C522900459E0FEA3EC
:100AF000E0FF12363522900459E0FEA3E0FF1236E3
:100B000035223F3F3F3F3F3F3F3F3F0032003217DC
:100B100070001E02580064025800040004001E0009
:100B20000A00C800C8000F0064000A000A000C0098
:100B3000140014000000000000000000000000008D
:100B40000101010D0E0F030405060708090A0B0C2D
:100B500000010200500050005000500050005000B2
:100B60005000500050005000500050005000500005
:100B700050005000550055005500550055005500D7
:100B800055005500550055005500550055005500BD
:100B90005500550046004600460046004600460007
:100BA0004600460046004600460046004600460015
:100BB00046004600280028002800280028002800B9
:100BC00028002800280028002800280028002800E5
:100BD000280028006400640064006400640064006D
:100BE00064006400640064006400640064006400E5
:100BF00064006400690069006900690069006900B7
:100C0000690069006900690069006900690069009C
:100C1000690069005A005A005A005A005A005A00E6
:100C20005A005A005A005A005A005A005A005A00F4
:100C30005A005A002D002D002D002D002D002D00F2
:100C40002D002D002D002D002D002D002D002D003C
:100C50002D002D00C800C800C800C800C800C8008A
:100C6000C800C800C800C800C800C800C800C80044
:100C7000C800C800CD00CD00CD00CD00CD00CD0016
:100C8000CD00CD00CD00CD00CD00CD00CD00CD00FC
:100C9000CD00CD00BE00BE00BE00BE00BE00BE0046
:100CA000BE00BE00BE00BE00BE00BE00BE00BE0054
:100CB000BE00BE002D002D002D002D002D002D00AA
:100CC0002D002D002D002D002D002D002D002D00BC
:100CD0002D002D003200320032003200320032008E
:100CE0003200320032003200320032003200320074
:100CF0003200320037003700370037003700370046
:100D0000370037003700370037003700370037002B
:100D10003700370028002800280028002800280075
:100D20002800280028002800280028002800280083
:100D3000280028002D002D002D002D002D002D0055
:100D40002D002D002D002D002D002D002D002D003B
:100D50002D002D00FA00FA00FA00FA00FA00FA005D
:100D6000FA00FA00FA00FA00FA00FA00FA00FA00B3
:100D7000FA00FAC0E0C083C082C0D0E8C0E0E9C099
:100D8000E0EAC0E0EBC0E0EEC0E0EFC0E0D2AFE5EB
:100D9000DB30E4239003B57401F0E5DB30E1028041
:100DA000339003B1E5DFF0900436E4F090026AF08E
:100DB000900216F0021F54E5DB30E50E9003AD748F
:100DC00001F09003B5E4F0021F54E5DB30E135E5B6
:100DD000DB30E01A90043B123544900437E0FF0406
:100DE000F08F8275830012235BF5DF021F5490049D
:100DF00037E064016003021F54308A03021F54D29B
:100E00008A021F54900436E0700DA3E5DFF09004D1
:100E1000367401F0021F54900437E090324193FF82
:100E2000B4FF099003B1E5DFF0021F48EF640F70D3
:100E30002F90043B123544900437E0FF123565547F
:100E40000F12238890043B123544900437E0FF04CE
:100E5000F0123565FFE5DF54F04F122388021F4E74
:100E600090043B123544900437E0FFF5827583000F
:100E7000E5DF12239AEF6413706FE5DFB42027904B
:100E8000020BE09003B4F090020BE4F090020A042D
:100E9000F0900438F09003A9E0B40104E4F0800677
:100EA0009003B07401F0E5DF6410703D9003B4E08E
:100EB000FFB4020512356E800FEF90020BB40305EC
:100EC0007403F080037401F012354D900438E4F09F
:100ED0009003B0F09003B3E0B40108C283C282C2B1
:100EE000888006D283D282D288900437E0FF6415CE
:100EF000703AE5DFB4201290020BE090043AF090D3
:100F0000020B7401F090020AF0E5DFB4101E9004A9
:100F10003AE0FEB4020512356E800EEE90020BB47C
:100F200003057403F08002E4F012354DEF6416708F
:100F300037E5DFB4201190020BE0900439F0900205
:100F40000B7403F012354DE5DFB4101C900439E04A
:100F5000FFB4020512356E800CEF90020B7003F0A7
:100F600080037401F012354D900437E004F09003D3
:100F7000AFE004F075DBFFD0E0FFD0E0FED0E0FB97
:100F8000D0E0FAD0E0F9D0E0F8D0D0D082D083D051
:100F9000E032E4FD900003E0FFEDC39F4003022137
:100FA0007212121DE06401600302216E74DC2D12C6
:100FB0001339E0FC6003022045121461ED640170F6
:100FC0004D900269E0FE6401701B900268E090039E
:100FD000B6B40106121228048025E0440112122B37
:100FE0001214DE8029EE6402701A900215E0600689
:100FF00012121DE480099003B6E0440512122B1270
:1010000012E6800A9003B6E0440112122BF0ED6460
:1010100002703D900269E0FE6401701B900268E07E
:101020009003B6B401061213E9E48020E0440412F0
:10103000122B1214DE8019EE9003B6B40205E044C0
:10104000058003E04404F0E4900004F090039FF076
:1010500012121DE4F0900215E06005E4F002216E2A
:10106000C28A02216EEC6401600302216E121461D7
:10107000ED64016003022107900268E0FF640270E2
:1010800048900438E070339003A112149540089002
:101090000265121495502312122CF074DC2D1213D9
:1010A00039E4F074DD2DF582E43401121219E412F2
:1010B00012E690021504F00221079003B6E0440AFC
:1010C0001213EC1212E3022107EF6401705990042D
:1010D00038E0702A9002651212A2943CEE9400400F
:1010E0001DEF9478EE940050159003A11214A050B7
:1010F0000D121208E4F01213CB90021504F09001C7
:10110000E7E0B4010A9003B61213E9E41212E39087
:1011100001E6E0B401119003B6E044021213ECE4DE
:1011200090039FF01213CBED64027055900438E0E9
:10113000702B9003A11212A2943CEE9400401EEF7B
:101140009478EE940050169002651214A0500E127E
:101150001208E4F09001E6F090021504F09001E628
:10116000E06401701C900269E09003B6B4010712BC
:10117000122804F0800BE0440812122B04F0121322
:10118000CA12121DE4F0900215E07002C28A0D022C
:101190001F747F042290043F747EF0E4A3F090005B
:1011A00003E0FF900440E0FDC39F40030223297F3A
:1011B000081232C1EF60031213CA900440E0FF121C
:1011C0001337E0600302223DEFB4010F121149E032
:1011D000FFA3E09003A1CFF0A3EFF0900440E0B4B0
:1011E000020F121149E0FFA3E0900265CFF0A3EFD8
:1011F000F0900440E0FF1212D61211411214B5EE25
:101200009C4039900440E090043FF0121337740181
:10121000F09001E6E004F0900268F0900440E0FDF8
:1012200024E21212207401F0FF1210E67F0812135C
:101230002912350B7F0612132912350B7F01122359
:10124000386009900440E01214BCE4F07F071223D8
:10125000387003022320E49001E702231B9004402E
:10126000E0FF75F00212136D1211411214B5EE9CDD
:1012700050030222D7900440E0FD90043FF07F0627
:101280001232C1EF70030223209004401210F7ECD9
:10129000F0A3EDF0900440E0121337E4F012146173
:1012A000900004E0FF700990039FE0700302233771
:1012B000EF601290039FE0600C12122CF09003B6C6
:1012C000E04405802E900004E0601290039FE070DF
:1012D0000C12122DF09003B6E04401801690000429
:1012E000E0707490039FE0606E12122CF09003B6D1
:1012F000E04404F0C28A2290020BE0B4030B900495
:1013000040E0121149E4F0A3F0900440E0FD121314
:1013100037E4F07F0612132E7F0112350B90044044
:10132000E0FD7F0712132E12350B900440E024E2FB
:101330001212207401F09001E7E004F0900269F0CD
:10134000900440E004F002217E90043FE0FF900210
:1013500008E06F6002EFF022900440E0FD1232C11D
:10136000EF22BB010689828A83E0225002E722BB7A
:10137000FE02E32289828A83E49322BB010CE58288
:1013800029F582E5833AF583E0225006E92582F8C3
:10139000E622BBFE06E92582F8E222E58229F582F3
:1013A000E5833AF583E49322BB010689828A83F0C0
:1013B000225002F722BBFE01F322F8BB010DE582A9
:1013C00029F582E5833AF583E8F0225006E9258283
:1013D000C8F622BBFE05E92582C8F222EF8DF0A4F3
:1013E000A8F0CF8CF0A428CE8DF0A42EFE22BC0055
:1013F0000BBE0029EF8DF084FFADF022E4CCF87530
:10140000F008EF2FFFEE33FEEC33FCEE9DEC98403E
:1014100005FCEE9DFE0FD5F0E9E4CEFD22EDF8F5DA
:10142000F0EE8420D21CFEADF075F008EF2FFFED3A
:1014300033FD4007985006D5F0F222C398FD0FD532
:10144000F0EA22C2D5EC30E709B2D5E4C39DFDE451
:101450009CFCEE30E715B2D5E4C39FFFE49EFE127C
:1014600023CEC3E49DFDE49CFC80031223CE30D543
:1014700007C3E49FFFE49EFE22C5F0F8A3E028F036
:10148000C5F0F8E582158270021583E038F022EB92
:101490009FF5F0EA9E42F0E99D42F0E89C45F0227B
:1014A000ECF0A3EDF0A3EEF0A3EFF022A882858389
:1014B000F0D083D0821224A31224A31224A31224D6
:1014C000A3E473E493A3C583C5F0C583C8C582C8EC
:1014D000F0A3C583C5F0C583C8C582C822A42582F0
:1014E000F582E5F03583F58322EF4E6012EF60015F
:1014F0000EEDBB010B89828A83F0A3DFFCDEFA22AA
:1015000089F05007F709DFFCA9F022BBFEFCF309C4
:10151000DFFCA9F02290020BE01460661470030255
:1015200025B51470030226082403600302266C12FA
:10153000142F600302266CF090043FF01213414018
:1015400003022663E0FF25E024D3F582E4341C1275
:10155000111C24B3F582E4341C1211A21212DA1207
:10156000113224F3F582E4341C1211A212136E120C
:1015700011322413F582E4341D1211A21212350225
:10158000251C12142F600302266CF090043FF01209
:101590001341503EE0FF25E02453F582E4341C1251
:1015A000111C2433F582E4341C1211A21212DA1237
:1015B00011322473F582E4341C1211A212136E123C
:1015C00011322493F582E4341C1211A21212350256
:1015D000256F02266312142F600302266CF090041C
:1015E0003FF0121341503EE0FF25E024D3F582E4A2
:1015F000341B12111C24B3F582E4341B1211A21205
:1016000012DA12113224F3F582E4341B1211A21201
:10161000136E1211322413F582E4341C1211A2123B
:1016200012350225C202266312142F705FF0900457
:101630003FF0121341504CE0FF25E02453F582E4C3
:10164000341B12111C2433F582E4341B1211A21234
:1016500012DA1211322473F582E4341BF58374011B
:101660009324FBFDE49334FFFC75F002EF12136D3D
:101670001211322493F582E4341B1211A212123596
:101680000226129001CCA3E09003BAF09003B7E0D9
:10169000B4AA0312333B9003D1E07011A3E0B4105D
:1016A0000CE49003D1F0A37410F01233ED227D030B
:1016B0007F051232C1EF6005E49003A9F09002119A
:1016C000E024FE603314603914700302279714700D
:1016D000030228132404600302281C9002117402E0
:1016E000F0E4900267F090026AF0900216F07D0339
:1016F0007F121210E612350B9002117403F0022DC6
:1017000036122C12900205E07003022777900267D0
:10171000E004F0E490043EF0900003E0FF90043E0B
:10172000E0C39F5072E4FF1211EE121390EE1211FB
:1017300010121201ECF0A3EDF01211EE121390EE64
:10174000121196121201ECF0A3EDF00FEFB408D7CE
:1017500090043EE0FF121149E4F0A3F0EF12127F73
:101760007404F0A3E4F0EFB40110E49003C0F0A31C
:10177000F09003C47404F0E4A3F0EFB40210E4901A
:1017800003C2F0A3F09003C67404F0E4A3F0900445
:101790003EE004F00226F8900267E0C39403500391
:1017A00002281C900002747EF0E4900206F0900281
:1017B000671210E10228167D037F121232C1EF601A
:1017C000069003A07401F0123486122C1212348693
:1017D000900205E060661214F2E490043EF090007E
:1017E00003E0FE90043EE0FFC39E501912302D121C
:1017F000343C90043EE0FF12299C12348690043E53
:10180000E004F080D91235751221759003B0E060C4
:10181000199003B2E004F0E0D39427401FE4F09065
:1018200003B0F09002117402F022121F72900211A4
:10183000EFF0221235A49002117404F022900453A8
:10184000EFF0A3EDF09004597403F0900463E060AE
:101850001D12124BC083C082900454E0FED082D08F
:1018600083121187EE121202ECF0A3EDF022900029
:1018700087E06401703212124BC083C0829004541E
:10188000E0FED082D0831211871213B8ECF0A3EDE2
:10189000F01212B6C083C082900454E0D082D0838C
:1018A000121202E4F0A3F022900453E0FF1211930D
:1018B000C083C082900454E0FED082D08312120212
:1018C000121390EF1212531213B8E0FEA3E0FBCAFA
:1018D000EECAC39DFEEA9C900455F0A3CEF090049E
:1018E00053E0F912110D121436EB9FFFEA9E90049B
:1018F00057F0A3EFF0900455E0FEA3E0FF75F08DE4
:10190000E91212BDC083C082900454E0FDD082D0A1
:1019100083121202EE8FF01224591212B6ED121336
:10192000B91212A29419EE64809480402D90045351
:10193000E0FD1212BAC083C082900454E0FCD08251
:10194000D083121202E4F0A3F0ED12119375F002AD
:10195000EC1224BDE475F0018031C3EF94E7EE642E
:1019600080947F5029900453E0FF1212BAC083C0C4
:1019700082900454E0FED082D083121202E4F0A3DD
:10198000F01211921213B874FFF5F01224591229B3
:101990009012299012125F5010900455E0FEA3E0BF
:1019A000FF12363512125F4006900213E004F02257
:1019B000900457E0FEA3E0FF12363522CBEFCB12A6
:1019C000126DE0FEA3E0FF1211C51214D79FEC9E2A
:1019D0005003022A49E42DFFEC3404FE12126D126A
:1019E00014D7EF9DFFEE9C12127DEEF0A3EFF012E4
:1019F000126DE0FEA3E0FF1211C51213D575F002BF
:101A0000EB12114CEEF0A3EFF012135975F002EB4C
:101A100012114CE0FCA3E0FDD39FEC9E4026121374
:101A200059C3ED9FFFEC9EC313FEEF13FFEB25E0C0
:101A30002433F582E4341DF5837401932FFFE4937E
:101A40003EFE801775F002EB12114CE0FEA3E0FFA2
:101A50007C007D631223BC0D1223CE75F002EB12C5
:101A6000114CEEF0A3EFF080211211C5E0FEA3E0CF
:101A7000FF12126DE0FCA3E0C39FEC9EC3940475BB
:101A8000F002EB12114CE4F0A3F09003B0E060160A
:101A9000EBB40107121149E4F0A3F0EBB402071212
:101AA0001149E4F0A3F075F002EB12114CE0FEA333
:101AB000E02400FFEE340412127DEEF0A3EFF0EB11
:101AC0006401701E75F002EB12114C1213F49003B6
:101AD000C0F0EDA3F012127E1213F49003C4F0EDE7
:101AE000A3F0EB6402701E75F002EB12114C12139E
:101AF000F49003C2F0EDA3F012127E1213F49003DF
:101B0000C6F0EDA3F0229004557404F02405A3F070
:101B100012313D900043E0FEA3E09000331213D455
:101B2000900453F0A3EFF0900053EEF0A3EFF01207
:101B30003635900455121262505C12128E941EEECD
:101B400064809480400F12134D04F0701390004392
:101B5000E004F0800B1214AB500612134D121469FE
:101B60009001E8E07003022C02E4FD7F0B12350BBC
:101B7000E4FD7F0B1232C1EF7003022C02E49001EE
:101B8000E8F0900087F0FD7F0C1210E612350B9004
:101B900001E97401F022E4FD7F0B1210E69001E9E7
:101BA000E0700B9001E804F0900087F0801A122C8E
:101BB00003D31212634002800AE4FD7F0C1232C18B
:101BC000EF6005E49001E9F09001E8E064017052F3
:101BD000122C03E0FDD3121265401C900453E0FE6A
:101BE000A3E0FF7C007D02122423900044E02FF04C
:101BF000900043E03EF02212128E9464EE648094D2
:101C000080400E12134D04F07018900043E004F071
:101C100022C3EF949CEE6480947F500612134D1201
:101C2000146922900453E0FEA3E0FF1236359004BD
:101C30005622D2AF902ECBE044C0F0902EC6741E38
:101C4000F0E4FD902EC8E044F0F0A37428F0902E4C
:101C5000C37480F0A37407F0EDC39401503675AEE1
:101C6000207599DF1213997480F0A37405F0742025
:101C70001212F4741AF0E4FEFFE5E220E20B0FBF4B
:101C800000010EBE07F3BFD0F0121308121253EA80
:101C9000F0A3EBF075AE407599BF902ECB74D4F0E5
:101CA000A37488F0743E1213A57440F0A3740BF073
:101CB00074401212F4741CF0E4FEFFE5E220E20B23
:101CC0000FBF00010EBE07F3BFD0F053E2FB902E12
:101CD000C5E4F0902ECEF0900000E0FEA3E0F58287
:101CE0008E83E0FEA3E0FF75F002EDA424B0F58240
:101CF000E5F03400F583EEF0A3EFF075AE80759952
:101D00007F1213997410F0A37408F0A37480121258
:101D1000F5741EF0E4FEFFE5E220E20B0FBF0001C8
:101D20000EBE07F3BFD0F0121308A4243DF582E5E0
:101D3000F03401F583EAF0A3EBF00DED64086003E5
:101D4000022C239002057401F0902ECBE0543FF05A
:101D5000902ECEE4F0227E027F057D007B017A008A
:101D600079051224C91234CA90020A7401F01224AF
:101D7000F5E4FE900003E0FFEEC39F4003022E2C2B
:101D8000E4FF75F08DEE1211681212011213862411
:101D900087F582E5F034001211E1E412138924770B
:101DA000F582E5F034001211FF121386248FF582BC
:101DB000E5F034001211E1E41213892497F582E56D
:101DC000F034001211E1E4F075F008EEA424EDF512
:101DD00082E5F034011211E1E4F00FEF640870A223
:101DE00075F08DEEA424AFF582E5F03400F583E4C0
:101DF000F0CDEECD7F011210E67F071210E60F1234
:101E000010E67F061210E67F0A1210E67F0212101B
:101E1000E674DC2E121339E4F074E22E121220E480
:101E2000F09001E5747EF0E4A3F0A3F0900268F076
:101E3000A3F074EA2E1213C112138912147F121325
:101E40008612148AE4F0A3F00E022D53E49001E808
:101E5000F0A3F0FD7F0B1210E60F1210E6900208BF
:101E6000747EF0900002F0E4900207F022E4900407
:101E700040F0FF90043FF0EF14601E1460351460D2
:101E80004C14605B240470749004417401F0A374DA
:101E90002FF0A37458F0022ED61235419000011293
:101EA000235BFED3941F40031235541223426E70FD
:101EB0004B804312354190000212235BFED39406FF
:101EC00040031235541223426E703180291235417D
:101ED00090000312235BFE1223426E701F801712C4
:101EE000354190000412235BFE648B60031235546D
:101EF0001223426E700690043FE004F00FEF640579
:101F00006003022E5790043FE0B40504A37401F06F
:101F1000900440E0FD60079003CAE0547FF0CFEDED
:101F2000CF2275200153A87F122F9D1235D243A8CE
:101F30008012104E1235F9123618EF24E0602D246D
:101F400010704F9003B37401F090020BE060437D7A
:101F5000037F0F1210E67D037F0F12350B90046391
:101F6000E04410F0C283C282C2888026E49003B3AA
:101F7000F090020BE0601B7D037F101210E67D03E2
:101F80007F1012350B900463E04401F0D283D282BB
:101F9000D2887D037F0F1232C1EF6007900463E0A7
:101FA00054EFF07D037F101232C1EF60079004639D
:101FB000E054FEF01224F512268E022F17758A5077
:101FC000538AEF90045F7411F090045E7422F090D5
:101FD00004607433F075997F759A80E4FFFEC296B1
:101FE00020970BD29630970690045F7487F00FBF4E
:101FF00000010EEF640A4E70E57590FF75993F750C
:102000009AC0E4FEFF30960320970690045E748722
:10201000F00FBF00010EEF640A4E70E9E4F5AD75F4
:10202000AEE075AF1DF5AC7589FF75913D75991FD3
:10203000F59675931CF59BF595F592F59A75800CC0
:10204000758801F590D28A90046104F022CBEFCB21
:1020500075F08DEB121253E0FFA3E090043F1214D1
:10206000E8121196E0FFA3E09004411214E8121167
:1020700010E0FFA3E0900443CFF0A3EFF0EB640186
:1020800070281211B1E0900406F01211C5A3E0907F
:102090000407F0ECA3F0EDA3F0900263E09003D608
:1020A000F0900263A3E09003D7F0EB640270271274
:1020B00011B1E090040AF01211C5A3E090040BF0F6
:1020C000ECA3F0EDA3F090020EE0FAA3E0FBEA909F
:1020D00003D8F0EBA3F0224104630041026A0041FF
:1020E0000216004102140041026700410210004143
:1020F00000040041039F0042020C00004203A700BD
:102100000041020A014102120041026B004103A09A
:1021100000410213004203A1000042026500004199
:1021200002150041043600410437004203AA0000B2
:102130004103AD004103AF004103AE004103B110C4
:102140004103B0004103B2004103A901410438003A
:102150004103B3004103AC004103B50000900459B2
:102160007403F0900033E0FEA3E09000231213D438
:10217000900457F0A3EFF012363590045912126212
:10218000504C900457E0FEA3E0FF900078E02FF061
:1021900090007712129F940AEE648094804012128D
:1021A0001450900034E004F07006900033E004F026
:1021B00022C3EF94F6EE6480947F50241214509062
:1021C0000034E024FFF0900033E034FFF0221214DA
:1021D00050900023E0FFA3E0900033CFF0A3EFF096
:1021E00022022F02E493A3F8E493A34003F68001B4
:1021F000F208DFF48029E493A3F85407240CC8C341
:1022000033C4540F4420C8834004F456800146F67A
:10221000DFE4800B01020408102040809030B7E416
:102220007E019360BCA3FF543F30E509541FFEE4D8
:1022300093A360010ECF54C025E060A840B8E4939A
:10224000A3FAE493A3F8E493A3C8C582C8CAC583DC
:10225000CAF0A3C8C582C8CAC583CADFE9DEE78061
:10226000BE0F00FF00000000000000FFFFFFFFFFA7
:10227000FFFFFFFF00000000000000000000000062
:10228000000000000000000000000000000000004E
:10229000000000000000000000000000000000003E
:1022A000000000000000000000000000000000002E
:1022B000000000000000000000000000000000001E
:1022C000000000000000000000000000000000000E
:1022D00000000000000000000000000000000000FE
:1022E0000090045CEDF090045BEFF0A3E0FE1214AC
:1022F000082E1211E6E0606090045BE075F01012A9
:102300001444C083C08290045CE0D082D08375F016
:10231000041224BDE0F8A3E0F9A3E0FAA3E0FB1265
:102320001378C39BFBEE9AFAED99F9EC98F89004B8
:102330005BE025E024EBF582E4341A121363E4FC3D
:10234000FDC312246F401190045CE0FF90045BE039
:102350001211D6E4F07F01227F0022900440741015
:10236000F0A3E4F0A3743FF0A374FFF0E4FDFCF9E4
:10237000758A10538AEF000000900440E0FEA3E04D
:1023800012355BFF69F90DBD00010CBC2FEBBDFFE1
:10239000E8900442E0FEA3E0F5828E83E493697046
:1023A000079003B704F08005E49003B7F0758A50F6
:1023B000538AEF00000022C0E0C0F0C083C082C09A
:1023C000D0E8C0E0ECC0E0EDC0E0EEC0E0EFC0E07F
:1023D000D2AF900210E004F0C3940A4016E4121346
:1023E000772401FFE43EFEE43DFDE43CFC9003A3C2
:1023F000122480D0E0FFD0E0FED0E0FDD0E0FCD0A1
:10240000E0F8D0D0D082D083D0F0D0E0327F007E10
:1024100010E4FDFC900440F0A3F0758A10538AEF9D
:10242000000000EF12355BFB900441E02BF09004BC
:1024300040E03400F00DBD00010CED7003EC6430A1
:1024400070E1900440E0FCA3E0FDEC9003D1F0EDDE
:10245000A3F0758A50538AEF00000022900461E0D7
:10246000604390026312143694E0EE942E500EEF07
:1024700094F8EE942A40069004607487F090020E5F
:102480001214369428EE9423500EEF9440EE941FCD
:1024900040069004607487F0E4900461F09004605A
:1024A000E09003BEF022900212E024FE601114605E
:1024B00022240370343089319002127402F02220F9
:1024C00089279002127403F090026B74011210E1DC
:1024D00002350B7D037F111232C1EF600C1210E246
:1024E000E4900212F090026BF0227E007F807D006B
:1024F0007B017A0379B61224C9E49003B6F0A304F1
:10250000F0E4A3F09003C874ABF09003CA74B6F083
:1025100090045FE09003BCF090045EE09003BDF097
:10252000900460E09003BEF0022E4D90045BEDF04D
:10253000CBEFCBE0FF1211D5E070251211D574015D
:10254000121377FF75F010EB121444C083C0829011
:10255000045BE0D082D08375F0041224BD12248085
:1025600022900441E0FBA3E0FAA3E0F92290020AE2
:102570007401F0229004407401F0222DF582EE3CAB
:10258000F583E49322E92FF9E43AFA022342900218
:102590000B7402F022E4FFFE900003E0FDEEC39D09
:1025A000501C121148E0FCA3E0FDEE121149E0FAC4
:1025B000A3E0D39DEA9C4003CFEECF0E80DA9002D9
:1025C00009EFF022E5DB20E2289003B5E07022D28B
:1025D000AFE4F5A8F5A9F5AA43A908F58B758E090E
:1025E000F58643AA08758DA0758A70438A8475871D
:1025F000032290043B7401F0A37403F0A374B6F0BB
:10260000E4F5DA75DA4043DA2075D74075DA5843D5
:10261000A90875B80875F808227D037F051210E631
:1026200012350B12107E90020B7402F090020A1405
:10263000F0900211F0022D36E4FD9003ADE0601140
:102640009003B6E0FE54F0FDEE540FF0E49003ADBD
:10265000F0CFEDCF22EE30E707C3E49FFFE49EFE0C
:10266000229003A312248C0000000022000000002E
:10267000000000000000000000000000000000005A
:10268000000000000000000000000000000000004A
:10269000000000000000000000000000000000003A
:1026A000000000000000000000000000000000002A
:10301000000000000000000000000000000000317F
:00000001FF
