:10000000544649530001000054290200BD2835A47C
:1000100009320106170410104331304F0932020033
:10002000170410104331304F093201041704101027
:100030004331304F030000000000000000000000CA
:100040005446435300200000CC1102000000000081
:1000500000000210012100002521000041220000C3
:10006000292100002B2100002D2100003D2100004E
:100070003D2100003D2100003D2100002F21000016
:10008000312100003D210000332100007D59000096
:10009000635A0000372100003D210000F1CF00101D
:1000A000372100000D3E0000133E00003D210000FE
:1000B0003D210000B3550000FD4C0000193E00003A
:1000C00025530000372100003D2100003D210000A4
:1000D0000000000000000000000000000000000020
:1000E0000000000000000000000000000000000010
:1000F0000000000000000000000000000000000000
:1001000000000000000000000000000000000000EF
:1001100000000000000000000000000000000000DF
:1001200000000000000000000000000000000000CF
:1001300000000000000000000000000000000000BF
:1001400000000000000000000000000000000000AF
:1001500000F003F800F020F8FEE70D480168890878
:100160008900002001C101C101C101C17047000027
:10017000D8EF0010FEE7FEE7FEE7FEE7FEE7FEE74A
:10018000FEE7FEE7FEE703480047FEE7FEE7000064
:10019000202100003D21000000F002F800F068F886
:1001A0000AA090E8000C82448344AAF10107DA45D2
:1001B00001D100F05DF8AFF2090EBAE80F0013F0BC
:1001C000010F18BFFB1A43F001031847081F010075
:1001D000481F01000A444FF0000C10F8013B13F0D7
:1001E000070408BF10F8014B1D1108BF10F8015B90
:1001F000641E05D010F8016B641E01F8016BF9D183
:1002000013F0080F1EBF10F8014BAD1C0C1B09D1D9
:100210006D1E58BF01F801CBFAD505E014F8016B4B
:1002200001F8016B6D1EF9D59142D6D370470000DD
:10023000103A24BF78C878C1FAD8520724BF30C812
:1002400030C144BF04680C607047000000230024E4
:1002500000250026103A28BF78C1FBD8520728BFD6
:1002600030C148BF0B6070471FB51FBD10B510BD32
:10027000DFF80CD0FFF7F8FF05F025F811F0F6F9DC
:100280000000021003B4FFF7F1FF03BC11F0F6F910
:100290001EF0040F0CBFEFF30880EFF309800AF0A3
:1002A00029B8000008B5002103200B460A4600913A
:1002B00010F052FB08BD38B5FE4D00242C816C8136
:1002C000AC8110F022FBE861FF20A871FA482346B8
:1002D00022460460446004720120E8716C612C7055
:1002E00003202146009410F037FB012038BD38B5BB
:1002F000F04D0228AC7922460DD0052810D0A2423C
:1003000008BF38BD0020034602462146009010F089
:1003100023FBAC7138BD022914BF01240224EEE78F
:10032000022914BF64246524E9E738B513460A4658
:100330004FF0010C002401466046009410F00CFBC5
:1003400038BDDC48C0697047DA4901204870704701
:10035000D84840787047D7490020487070472DE949
:10036000F04104460127002503F00700D14E8846DE
:10037000012804BF0020B08146D0022844D1B089B2
:1003800004280BD2002818BFB06902D110F005FB79
:10039000B06110F8011B2170B0612EE0062808D270
:1003A00010F0FDFAB189C1F10501C900C840207003
:1003B00023E0082808D210F0F6FAB189C1F107014C
:1003C000C900C840207018E00C2808D210F09DFA2F
:1003D000B189C1F10B01C900C84020700DE00E28A1
:1003E00008D210F094FAB189C1F10D01C900C840DA
:1003F000207002E0FF2020700027B089401C80B2EE
:10040000B0810E2828BF012588F800503846BDE885
:10041000F08130B403F007000024DFF898C201280F
:100420000BD06046BCF80C300089022B0CD21202B3
:1004300042EA1020ACF8080010E0ACF80840ACF834
:100440000A40ACF80C400CE01844851EB5F5806FEE
:1004500004DADCF81C50284400F8022C581CACF8D4
:100460000C000C7030BC00207047F0B40746002030
:1004700003F007048F4D0646012C04BFAE812E61A8
:1004800025D0DFF830C2022CBCF80AC003D013F02C
:10049000070F0DD01BE0AA890CEB0203B3F5806FA8
:1004A00015D2E869C05C3870501CA88101200EE0AC
:1004B000120242EA1C226A812B69012B05D1B2F596
:1004C000806F24BF40F2FF326A815A1C2A610E708D
:1004D000F0BC704738B503F0070000240D46012832
:1004E0000AD1744821460B4684810481448102204C
:1004F0000A46009410F030FA2C70002038BD002914
:100500001CBF0129704730B583B00D46044604F086
:10051000E7FE05281CBF03B030BD09F082FF0428A8
:1005200004BF03B030BD002D0CBFC020C1208DF82A
:10053000000060788DF8010060880123000A8DF8C2
:100540000200A0788DF80300A0880622000A8DF82A
:10055000040020798DF80500694607200DF0F2F8B7
:1005600003B030BD30B50C0054A183B009684FF022
:100570000002029108BF03250AD0217802AB5D5C1E
:10058000002D18BF022D41D0012D7ED0032D0DD19D
:100590000F2101700321417042808280C28002815C
:1005A00042818281817B21F001018173002D1EBF78
:1005B000012D03B030BD04F093FE05281CBF03B02D
:1005C00030BD09F02EFF042804BF03B030BD002D5C
:1005D0000CBFC020C1208DF8000060788DF80100AC
:1005E00060880123000A8DF80200A0788DF80300CE
:1005F000A0880622000A8DF8040020798DF80500F5
:10060000694607200DF09EF803B030BD617800EB1D
:10061000011202F8101C617800EB011101F80F5C67
:100620006278618800EB021222F80E1C6278A188C1
:1006300000EB021222F80C1C6278A17900EB021286
:1006400022F80A1C6278217A00EB021222F8081CB8
:100650006278617A00EB021222F8061C6278217B34
:1006600000EB021222F8041CE1790529617800EB05
:10067000011010F8021C0EBF41F0010121F0010130
:1006800000F8021C92D13AE0FFE7617800EB011319
:1006900003F8101C6378012100EB031303F80F1C0F
:1006A0006378618800EB031323F80E1CA18863783C
:1006B00006E0000000040110200801100300020100
:1006C00000EB031323F80C1C617800EB011121F8F7
:1006D0000A2C617800EB011121F8082C617800EBFD
:1006E000011121F8062C617800EB011121F8042C8E
:1006F000617800EB011010F8021C21F0010100F8F4
:10070000021C53E769490020887070476748807869
:1007100070476649012088707047654A11547047D8
:10072000624800B5C06983B04FF00001407810F016
:10073000020F0AD000918DF80410012305226946AA
:1007400000200DF036F803B000BD10F0040F12D0F9
:1007500001208DF800008DF801108DF802108DF841
:1007600003108DF8041003460522694600200DF0A1
:1007700020F803B000BD03B001230022632107204D
:100780005DF804EB0CF0AEBF026812F0C00F10D0A1
:10079000464812F0400F04BF0021017004D001212F
:1007A00001704169491C41610123002106200CF0C0
:1007B00099BF01230022632107200CF093BF7047EB
:1007C0003A49002818BF0120C87170473748C079DE
:1007D00070473648C0787047002818BF0120334959
:1007E000C87070473148C078704730490871704709
:1007F0002E480079002818BF0120704701460020CC
:10080000072904BF2B487047082908BF2A487047AA
:1008100010B44FF0000C072808BFDFF898C003D0D1
:10082000082808BFDFF890C04FF00000ABB1002AE5
:100830009CBF10BC70473CF91030141A01EB440403
:1008400034F9024C234403EBD3735B102CF81030C3
:10085000401C8242EFD810BC7047002A9CBF10BCDD
:100860007047131A01EB430333F8023C2CF81030A5
:10087000401C8242F5D810BC70470C480078002814
:1008800018BF01207047094840697047074948610F
:100890007047002818BF0120044948717047034879
:1008A0004079002818BF01207047000000040110A3
:1008B000200801106A0801102A0801107047FE483C
:1008C000D0F8C00000F00100704770B5FA4C050088
:1008D0000AD001F041FA38B9D4F8C00010F0010F85
:1008E0001CBF0020A06005D10120A060002D08BF22
:1008F000002000D001202062002D18BF70BDD4F868
:10090000D410D4F8D00011F0010F18BF11F0600F0F
:1009100024D0D4F8B02222F48032C4F8B02241F0BE
:10092000610242F0FF22C4F8D42040F0610242F09C
:10093000FF22C4F8D02021F06102C4F8D42020F0B6
:100940006102C4F8D020D4F8B02242F48032C4F856
:10095000B022C4F8D410C4F8D00070BD10F0010F5C
:1009600018BF10F0600FD4D170BDD348006A0028C2
:1009700018BF01207047C00000F1804000F5A04082
:1009800041637047C00000F1804000F5A040006B5B
:1009900000F4807070471021C00000F1804000F525
:1009A000A04041637047C449D1F8402160F30D2253
:1009B000C1F840217047C048D0F84001C0F305207D
:1009C00070470207520DC0F3031002EB401000F114
:1009D000804000F5A0400029D0F8401114BF41F03C
:1009E000010121F00101C0F8401170470107490DD4
:1009F000C0F3031001EB401000F1804000F5A0406F
:100A0000D0F8400100F001007047AB4900230B62B1
:100A100002680A6042684A6082688A60C268CA6086
:100A2000426A0A64826A4A6402698A614269CA61E6
:100A3000426B0A66826B0A67C26B4A67026C8A67FE
:100A4000426CC1F88020826CC1F88420C26CC1F86D
:100A50008820026DC1F88C20026EC1F89C20426E85
:100A6000C1F8A020826EC1F8A420C26EC1F8A820EF
:100A7000C26FC1F8C020D0F88020C1F8C420D0F8DF
:100A80008420C1F8C820D0F88820C1F8CC20D0F844
:100A90008C20C1F8D020D0F89C20C1F8E020D0F8FC
:100AA000A420C1F8F020D0F8A820C1F8F420D0F894
:100AB000AC20C1F8F820D0F8B020C1F8FC202122E9
:100AC0004A63CA63C2694A62C26A8A64026BCA64C0
:100AD000026FC1F8AC20D0F89020C1F8D420D0F833
:100AE0009420C1F8D820D0F8A020C1F8E420426FAB
:100AF000C1F8B020826FC1F8B420D0F8F821C1F855
:100B00008022D0F8FC21C1F88422D0F80022C1F85C
:100B10008822D0F80422C1F88C22D0F80822C1F82B
:100B20009022D0F80C22C1F89422D0F81022C1F8FB
:100B30009822D0F81422C1F89C22D0F8182222F46E
:100B40008032C1F8B022D0F8B420C1F80021D0F82A
:100B5000B820C1F80421D0F8BC20C1F80821D0F891
:100B6000C020C1F80C21D0F8C420C1F81021D0F861
:100B7000C820C1F81421D0F8CC20C1F81821D0F831
:100B8000D020C1F81C21D0F8D420C1F82021D0F801
:100B9000D820C1F82421D0F8DC20C1F83021D0F8C9
:100BA000E020C1F84021D0F8E420C1F84421D0F879
:100BB000E820C1F84821D0F8F020C1F85021D0F841
:100BC000F420C1F85421D0F8F820C1F85821D0F809
:100BD000FC20C1F85C21D0F8EC20C1F84C21D0F801
:100BE0002021C1F88021D0F82421C1F88421D0F837
:100BF0002821C1F88821D0F82C21C1F88C21D0F807
:100C00003021C1F89021D0F83421C1F89421D0F8D6
:100C10003821C1F89821D0F83C21C1F89C21D0F8A6
:100C20004021C1F8A021D0F84421C1F8A421D0F876
:100C30004821C1F8B021D0F84C21C1F8C021D0F82A
:100C40005021C1F8C421D0F85421C1F8C821D0F8EE
:100C50005C21C1F8D021D0F86021C1F8D421D0F8AE
:100C60006421C1F8D821D0F86821C1F8DC21D0F87E
:100C70006C21C1F8E021D0F87021C1F8E421D0F84E
:100C80007421C1F8E821D0F87C21C1F8F021D0F816
:100C90008021C1F8F421D0F88421C1F8F821D0F8DE
:100CA0008821C1F8FC21D0F85821C1F8CC21D0F816
:100CB0007821C1F8EC2101E000500040D0F88C21EF
:100CC000C1F80022D0F89021C1F80422D0F8942174
:100CD000C1F80822D0F89821C1F80C22D0F89C2144
:100CE000C1F81022D0F8A021C1F81422D0F8A42114
:100CF000C1F81822D0F8A821C1F81C22D0F8AC21E4
:100D0000C1F82022D0F8B021C1F82422D0F8B421B3
:100D1000C1F83022D0F8B821C1F84022D0F8BC2167
:100D2000C1F84422D0F8C021C1F84822D0F8C82127
:100D3000C1F85022D0F8CC21C1F85422D0F8D021EB
:100D4000C1F85822D0F8D421C1F85C22D0F8D821BB
:100D5000C1F86022D0F8DC21C1F86422D0F8E0218B
:100D6000C1F86822D0F8E821C1F87022D0F8EC214F
:100D7000C1F87422D0F8F021C1F87822D0F8F4211B
:100D8000C1F87C22D0F8C421C1F84C22D0F8E4216B
:100D9000C1F86C22FE4A126832F0FF0C05D1D1F87E
:100DA00090C062F3030CC1F890C0FA4A5370C36F4D
:100DB00013F0010F1CBF01235370D1F8C03023F092
:100DC0000103C1F8C030D0F88C3013F0010F03D00C
:100DD000537843F002035370D1F8D03023F001036D
:100DE000C1F8D030D0F8900010F0010F03D0507847
:100DF00040F004005070D1F8D40020F00100C1F898
:100E0000D4007047E34800787047E2488078704724
:100E1000E049C8707047DF48C0787047DE4951F834
:100E2000C42F60F309020A607047DB48D0F8C400A1
:100E3000C0F309007047D74948607047D648C0687A
:100E400070472DE9F047DFF84C93054615F4003F55
:100E500099F8010099F8031000EA010418BF24F082
:100E6000010415F4802F18BF24F0020415F4002F9C
:100E700018BF24F0040415F4801F18BF24F00804E0
:100E8000DFF81483D8F8B00220F48030C8F8B0023C
:100E900014F00F0F59D0D9F80460D8F8B802002721
:100EA00040F00100C8F8B802D8F8B80220F00100FC
:100EB000C8F8B802D8F8B00240F48030C8F8B002E0
:100EC0004FF0630A0DE002F0EAFD5046D8F8B81280
:100ED00011F0010F01D0012703E0011EA0F1010074
:100EE000F4DC301EA6F1010601DD002FEBD067B364
:100EF000D8F8C00014F0010F0CBF20F0010040F042
:100F00000100C8F8C000D8F8D00014F0020F14BFD8
:100F100040F0010020F00100C8F8D000D8F8D4005B
:100F200014F0040F14BF40F0010020F00100C8F8D5
:100F3000D40089F80240012089F80000D8F8B002F6
:100F400040F48030C8F8B00233E0D8F8C00020F098
:100F50000100C8F8C000D8F8D00020F00100C8F89F
:100F6000D000D8F8D40020F00100C8F8D400002048
:100F700089F80200ACB1022089F80000D8F8B0026C
:100F800040F48030C8F8B002D8F8B80240F0010050
:100F9000C8F8B802D8F8B80220F00100C8F8B802C2
:100FA00007E0D8F8B01221F48031C8F8B01289F8FF
:100FB0000000D8F8400115F0020F20F00D0018BF16
:100FC00040F0010015F0080F18BF40F0040015F0C4
:100FD000040F18BF40F00800C8F8400115F0010FD9
:100FE00021D001F0A4F8044601F0A4F80146D8F895
:100FF0000C0000280EBF2046084621460028D8F8DD
:10100000C00114BF40F0010020F00100C8F8C00189
:10101000D8F8E001002914BF40F0010020F00100E1
:10102000C8F8E0010BE0D8F8C00120F00100C8F8D2
:10103000C001D8F8E00120F00100C8F8E00115F087
:10104000200F18BF002417D0204601F07AF800289E
:101050004FEA441000F1804000F5A040D0F8401263
:1010600014BF41F0010121F00101C0F84012641CDD
:10107000022CE9D3BDE8F087D8F8400220F0010047
:10108000C8F84002D8F8600220F00100C8F86002F9
:10109000BDE8F0872DE9F0030246002011074C0D52
:1010A000C2F3031104EB411101F1804101F5A041AC
:1010B000D1F8401111F0010F11D142F01001C1F32C
:1010C000031104EB411101F1804101F5A041D1F878
:1010D000401111F0010F04BFBDE8F0037047D601C5
:1010E00006F1804101F5A041D1F81C31C3F3080994
:1010F000294BDB69D1F8001103F008071FFA81F8CA
:10110000002142EA0113C3F3031304EB431303F179
:10111000804303F5A043D3F8403113F0010F18D0FA
:1011200006EB411303F1804303F5A043D3F844C118
:10113000CCF3080517F1000C1CBFD3F844C1CCF365
:10114000023CD3F8403105FA0CFCC3F3054360447C
:101150001844491C0229D4D300FB08F0C9EB09113B
:10116000BDE8F00300EB4100704710B50120FFF728
:1011700091FF04460220FFF78DFF044400F0E7FBD7
:1011800020444FF47A71484347F2305106E00000A2
:10119000E0FE03002004011000500040B0FBF1F01D
:1011A00010BD2DE9F041FE4E0546306810F01F04D9
:1011B00008BF01240120FFF76DFF07460220FFF75B
:1011C00069FF074400F0C3FB3918F64F002D18BF24
:1011D00000294DD0D6F8C000002210F0010F34D005
:1011E0007820B0EB151F08D9D6F8CC0020F00F00FE
:1011F00040F00100C6F8CC002CE0D6F8C400EA4B61
:10120000C0F309006043A0EB001003EB4003E74884
:10121000A0FB05C04FEA502CB3FBF1F0102828BF0B
:101220000F20844598BF6046002808BF012005D0E4
:10123000012884BF00FB1132B2FBF0F2D6F8CC30AB
:1012400060F30303C6F8CC3004E0B7FBF5F0884246
:1012500088BF421AC4EB04104000B2FBF0F0B0F5B6
:10126000005F28BF41F6FF70726860F30C02726085
:101270007068C0F30C006043C0EB001001EB40004D
:10128000B7FBF0F0BDE8F081C548D0F8C01011F010
:10129000010F07D0D0F8CC0000F00F00C0EB001019
:1012A0008001704770B50168406801F01F05C0F308
:1012B0000C060120FFF7EEFE04460220FFF7EAFECF
:1012C000044400F044FB06FB05F1C1EB011104EB03
:1012D00041010844B349B1FBF0F070BDB048D0F80B
:1012E000CC0000F00F007047AD494A684B68C2F36C
:1012F0000C0260F30C034B6010467047A84840682E
:10130000C0F30C007047C00100F1804000F5A04020
:10131000D0F800014EF6602180B2B1FBF0F0401C25
:101320004008704730B44EF6602331B1B3FBF1F1A1
:10133000491C4A08B2F5804F01D343F6FF72B3FB54
:10134000F2F1491C4D08C101530801F1804101F53A
:10135000A041002807BF981FA3F10C0CD1F804018D
:1013600080B218BFA2F1060C2CF0010CD1F800419C
:1013700062F30F04C1F80041D1F8002163F31F426A
:10138000C1F80021D1F8042160F30F02C1F8042153
:10139000D1F810016CF30F00C1F81001284630BCE1
:1013A0007047C00100F1804000F5A040D0F8000176
:1013B000000C7047C20102F1804202F5A042D2F84F
:1013C000003161F31F43C2F80031002818BF704795
:1013D0008A1F901F20F001017148D0F8043162F398
:1013E0000F03C0F80431D0F8102161F30F02C0F8E8
:1013F000102170470107490DC0F3031001EB4010A5
:1014000000F1804000F5A040D0F84401C0F308008E
:1014100070470207520DC0F30310654B02EB4010FA
:1014200000F1804000F5A0409B58D0F84421CB1A31
:1014300061F30802C0F84421D0F844119B1E63F305
:101440001841C0F8441170475549C969594A11F00B
:10145000100F4FEA00714FEA5151C0F3031001EB36
:10146000401000F1804000F5A0405258D0F84401EF
:10147000D2B2C0F3080008BF0022801A0004000C9A
:1014800008BF012070470309DB0103EB810101F173
:10149000405101F5C0410007C00E0B6802FA00F090
:1014A0001843086070470209D20102EB810101F183
:1014B000405101F5C04100070968C00E21FA00F053
:1014C00000F0030070470207520DC0F3031002EB57
:1014D000401000F1804000F5A040C0F84C1170476A
:1014E0000107490DC0F3031001EB401000F18040EB
:1014F00000F5A040D0F84C017047294A0021D2697C
:1015000012F0080F0DD00107490DC0F3031001EBD5
:10151000401000F1804000F5A040D0F84401C0F335
:101520000231084670471E4AD36943F00803D3616D
:101530000207520DC0F3031002EB401000F180408F
:1015400000F5A040D0F8442161F30E32C0F84421E8
:101550007047134A0021D26912F0080F0DD001071D
:10156000490DC0F3031001EB401000F1804000F57D
:10157000A040D0F84801C0F3024108467047020776
:10158000520DC0F3031002EB401000F1804000F553
:10159000A040D0F8482161F31242C0F848217047BA
:1015A0000050004000389C1C1B81070089888888F7
:1015B0001451004020510040042988BF704710B4E6
:1015C0000023FD4CE26912F0080F4FEA00724FEA67
:1015D0005252C0F3031002EB401000EB04021CBF98
:1015E000D2F84401C0F302330020D4F81CC01CF030
:1015F000080F1CBFD2F84801C0F30240C91A0844C2
:10160000042803DD081A011D042003E00028BCBFE4
:10161000014400201944E36943F00803E361D2F870
:10162000443161F30E33C2F84431D2F8481160F30B
:101630001241C2F8481110BC7047DF490028886980
:1016400014BF40F0080020F0080088617047DA48B5
:101650008069C0F3C00070470207520DC0F3031049
:1016600002EB401000F1804000F5A040D0F8482186
:1016700061F30F02C0F8482170470107490DC0F31C
:10168000031001EB401000F1804000F5A040D0F8BD
:10169000480180B27047C84AD2F8CC10022903D161
:1016A00010F0010F18BF7047D2F8400110F0010F81
:1016B00008BF7047D2F84801D2F844110304C1F3BF
:1016C00002311B0C14BF002970474FF6FF714840D0
:1016D000C2F848017047B84A0021D26912F0080FD9
:1016E0000DD00107490DC0F3031001EB401000F1CC
:1016F000804000F5A040D0F84801C0F300510846F2
:1017000070470120704710B4022ADDF804C026BFDC
:10171000921E52080022022B26BF9B1E5B0800234C
:10172000A64CA4FB0C4C4FEA1C144FEA007C4FEA79
:101730005C5CC0F303100CEB401000F1804000F53E
:10174000A040D0F854C161F31B6C62F3134C63F3F7
:101750000B2C64F3070CC0F854C110BC704770B474
:101760000407640DC0F3031004EB401000F1804047
:1017700000F5A040DDF80CC0D0F854010029C0F3FA
:101780000366C0F30345C0F30324C0B218BF0E6064
:1017900012B16900891C116013B16100891C1960C4
:1017A000BCF1000F04BF70BC704700EB80008000EC
:1017B000CCF8000070BC704770B491B000224FF4B8
:1017C00080456C10EC4601E0082A05D2531C03EB5F
:1017D0008303B5FBF3F304E0D31F03EB8303B4FBF4
:1017E000F3F35B1A48BF5B424CF82230521C102ABC
:1017F000EAD30026009B01215CF821209A42BCBF5D
:1018000013460E46491C1029F6D30107490DC0F3B3
:10181000031001EB401000F1804101F5A041D1F827
:101820005801D1F8582100F00F0066F30302C1F807
:101830005821082807D2401C00EB8000B5FBF0F0CF
:1018400011B070BC7047C01F00EB8000B4FBF0F01B
:1018500011B070BC70470107490DC0F3031001EBD4
:10186000401000F1804000F5A040D0F8580100F091
:101870000F00082834BF401CC01F00EB800034BF9D
:101880004FF480414FF40051B1FBF0F0704710F07D
:101890000F0F08BF70470007400D00F1804000F5B2
:1018A000A0400029D0F824110CBF21F4803141F46C
:1018B0008031C0F824117047002110F00F0F0BD0B9
:1018C0000007400D00F1804000F5A040D0F8240151
:1018D00010F4803F18BF012108467047364AD2F8FD
:1018E000AC0011F0010FD2F8AC10C0F3C00014BF6F
:1018F00041F0080121F00801C2F8AC1070472E4AEF
:101900005067916770472C490028D1F8AC0014BF8C
:1019100040F0020020F00200C1F8AC0070472649F8
:101920000028D1F8AC0014BF40F0010020F0010005
:10193000C1F8AC0070472048D0F8DC0070471E4961
:10194000C1F8E00070471C48D0F89800704770B4A8
:10195000194E0020D6F8401111F0010F04BF70BCE1
:10196000704711F0040FD6F81C3101F00805D6F8C5
:1019700000C1C3F308031FFA8CF4D6F844C1CCF3BA
:10198000080C18BFC1F30740F269C1F3052112F03A
:1019900008021CBFD6F84421C2F30232002D18BF42
:1019A000491C0CFA02F201FB0200604370BCC3EB5D
:1019B000031100EB4100704700500040CDCCCCCC6F
:1019C000FEF7D3BF10B5FEF7D0FF012818BF10BD3A
:1019D0000020FEF77AFF21210020FEF7CCFF212115
:1019E000BDE810400120FEF7C6BF10B5FEF766FF48
:1019F000FEF7BBFF01280AD10020FEF766FF212178
:101A00000020FEF7B8FF21210120FEF7B4FF0121DD
:101A1000052001F082FB0121052001F07EFBFC493D
:101A20000020087110BD10B54FF4066001F0CBFB2B
:101A3000BDE810404FF4066001F0B6BBF44A014621
:101A4000107B002818BF0120002918BF0121117345
:101A50007047EF4A516A506208467047EC490020CF
:101A6000C872887048707047E9490020C872887051
:101A7000487070470007C00EE64A801E02EBC01097
:101A80004FF480720FF000BE70B50646FEF793FF6C
:101A9000E14D0446C6B1A201314628460FF0F4FDDF
:101AA00005EB84100021016041608160C16001612B
:101AB00041618161C161016241628162C162016310
:101AC00041638163C16370BD800100F1400128461C
:101AD000BDE870400FF0DDBD10B5CD4CE061FFF703
:101AE000B0F9FFF78FF9A1696FF30F01A161A26946
:101AF000C1B242EA0121A161022818BF10BDA0694C
:101B000040F00100A06110BDC4488168C44A11437F
:101B100081600168521C1143016000F0EABD2DE9AB
:101B2000F047BE4A0D4606469368BD48184390608C
:101B30001068BC490843106000F0DBFD0024002D54
:101B40006FD00020FEF7C1FE286820B1FEF75DFFD0
:101B50000020FEF7BAFE3046FFF7BEFF0020FEF77A
:101B600045FF002852D0D5F80480FEF724FFDFF8A7
:101B7000A89201260746B8F1000F1ED0BA014146CF
:101B800048460FF081FD09EB8710046044608460D3
:101B9000C460046144618461C4610462446284621B
:101BA000C462046344638463C4639F48E96859B1B1
:101BB0004FF480720FF068FD21E0800100F14001D8
:101BC00048460FF066FDF0E7984F4FF480710FF034
:101BD00060FD0020395600290EDB0A09D20102EB14
:101BE000800202F1405202F5C0420907C90E136893
:101BF00006FA01F119431160401C2028EAD38C48F1
:101C0000696949B14FF480720FF03EFD0120FEF783
:101C1000EDFE804E50B905E04FF480710FF039FDB4
:101C2000F4E719E01120FEF7E1FE30B1A96821B117
:101C300030464FF480720FF027FD0220FEF7D6FEEB
:101C400018B91220FEF7D2FE30B1296921B17948C6
:101C50004FF480720FF018FD6D48C47284704470A8
:101C60004462017B002101734FF4066001F0ABFA7E
:101C7000BDE8F0474FF4066001F096BA10B50020B9
:101C8000FEF723FE00F022FD6148C078002808BF5F
:101C900010BD6248016821F0030141F00D7141F06F
:101CA00080510160816821F0020141F00D7141F025
:101CB0008051816010BD4FF4066001F07ABA10B512
:101CC0004FF4066001F075FAFEF74FFE01280AD1C5
:101CD0000020FEF7FAFD21210020FEF74CFE212115
:101CE0000120FEF748FE5448D0F8B01221F48031AC
:101CF000C0F8B0120020FEF7E8FD00F0E7FC444811
:101D0000C078002808BF10BD4448016821F00301D5
:101D100041F00D7141F080510160816821F00201B4
:101D200041F00D7141F08051816010BD10B501F09E
:101D300045FA10F0600018BF012010BD3448C0699A
:101D4000704733488069704772B631498A6922EA20
:101D50000000886162B670472D480078002818BFDF
:101D60000120704770B5FEF700FE002818BF70BD57
:101D70000024274DEC72AC706C7021212046FEF7D8
:101D8000FAFD21210120FEF7F6FD2C70BDE8704020
:101D90000120FEF79ABD70B50446FEF7E6FD002867
:101DA00018BF70BD00211A4DE972A9706970212118
:101DB0000020FEF7E0FD21210120FEF7DCFD022CD2
:101DC0003CBF0120FEF7E7FD012028702C62BDE832
:101DD0007040FEF77ABD10B5FEF7C7FD002818BFAA
:101DE00010BD00200A4CE072A07060702121FEF747
:101DF000C2FD21210120FEF7BEFD0120FEF7CBFD33
:101E0000012020702062BDE81040FEF75EBD00009A
:101E1000280401104048003000400030008000409D
:101E2000020034120300341200600030AC080110CC
:101E30000080003040490030005000400020FEF794
:101E400044BDFA490020887048700120FEF73DBD6E
:101E5000F64988627047F548806A7047002000F0B4
:101E60007FBB012000F07CBB10B5FFF764FD04468A
:101E7000FFF765FDEE48044208BF10BDEB488169DD
:101E800041F0040181610E2101EAD43104F0010224
:101E90000A43816962F31F418161E648016841F0AC
:101EA0002001016010BD002818BF0120DF49C87063
:101EB0007047E1487047E1487047DC48C06A7047A6
:101EC000DA48006B7047D948406B70472DE9F00F36
:101ED000D94E4FF0000C88B006F14007E1464FF0B4
:101EE000FF3806F80C8007F80C900CF1010CBCF1DF
:101EF000200FF6DB4FF0000C002807DD12F80C4035
:101F000006F80C400CF1010C6045F7DC0024224679
:101F10004FF0010A00280EDD16F902C0BCF1000FD7
:101F200006DBBCF1200F3CBF0AFA0CFC4CEA0404AF
:101F3000521C8242F0DB002294466D460AFA02FBF4
:101F40001BEA040F1ABF05F802C00CF1010C05F8DA
:101F50000280521C202AF1DB0022002810DD16F935
:101F600002C0BCF1000F08DBBCF1200F3ABF15F82E
:101F70000CC007F802C007F80280521C8242EEDB58
:101F8000AA4C00220028C4F82C9008DD17F902C0E2
:101F9000944501D0E76202E0521C8242F6DBA84F72
:101FA0000020A7F1600CA7F120060CF8008006F8CD
:101FB000009007F80090401C2028F6DB0020002944
:101FC00005DD1A5C0CF80020401C8142F9DC00227F
:101FD000104600290BDD1CF90030002B04DB202B00
:101FE0003CBF0AFA03F31A43401C8842F3DB00208B
:101FF00003460AFA00FB1BEA020F1ABF2B545B1CB4
:1020000005F80080401C2028F3DB002000290ADDB1
:102010001CF90030002B03DB202B3CBFEB5C3B5456
:10202000401C8842F4DB0020C4F83490002907DD0E
:102030003B56834201D0676302E0401C8842F7DBD5
:1020400011F0010F18BF1F2009D00AFA00F3134244
:1020500003D10AFA00F0024301E0401EF5D500204A
:1020600003460AFA00F717421ABF2B545B1C05F807
:102070000080401C2028F4DB002000290ADD1CF928
:102080000020002A03DB202A3CBFAA5C3254401CFB
:102090008842F4DB0020C4F830900029DEBF08B08D
:1020A000BDE8F00F70473256824204D0266308B074
:1020B000BDE8F00F7047401C8842F4DB08B0BDE873
:1020C000F00F70475F4900EB401001EB8010704744
:1020D00000EBC0005C4900EB400001EB8000704762
:1020E000DFF848C1012B8CF805008CF8061003D9E5
:1020F000401C20F0010011468CF807008CF80810F5
:1021000000FB01F24FF6FF7101EA4202ACF8122027
:1021100001EA4000ACF8140070474448007A704768
:102120004248C0797047414A5072917270473F48A7
:10213000807A70473D48407A7047444A1070517029
:1021400070474249085C7047384A30B4116B044606
:1021500089B152793E4C0021002AC4BFDFF8F0C09B
:10216000ACF69C1307DD5D5630F815502CF8115075
:10217000491C8A42F7DC204630BC70472DE9F04705
:10218000DFF8A890044699F80C00002804BF99F8DD
:1021900001000FF083FA99F80B00002808BFBDE892
:1021A000F0874FF00008D9F81C00474646464546E0
:1021B00010F0020F1CBFDFF88C8010F0040F05D068
:1021C000B9F812101F4A21F001018F1810F0010F09
:1021D00018BF1D4E10F0200F18BF1E4DD9F8280053
:1021E0002060FEF712FE10F0010F06D0FFF776F820
:1021F000022828BF99F8020000D20020E760C4E955
:102200000108C4E904650120BDE8F0870749002002
:10221000C872704710B50446FEF7CDFB8201204618
:10222000BDE810400C490FF02FBA0000280401103F
:102230000100070064040110AC080110CC08011073
:102240002C0901104C0901108C11011035040110EA
:10225000A812011064120110004000302DE9F04175
:10226000FEF7A9FB04460020FFF73AF90022002CF4
:1022700084BF012541F6F0761ED900214FEA821C69
:1022800005FA01F3034211D04B080CEB830303F171
:10229000405303F58043CF071B68FF0EFB40C3F399
:1022A0000C03B34202D90020BDE8F081491C20296B
:1022B000E6D3521CA242E0D30120BDE8F0810B46D8
:1022C0000007C00EC449801E01EBC0114FF480729C
:1022D00018460FF0D9B92DE9F05F00F00F06700035
:1022E0000025A0F1020B012741F6F07846EA051916
:1022F0004846FEF77BFB002835D04846FFF7FDF83F
:1023000007FA00F4022C88BF02244846FFF7E8F8D9
:102310000022002C84BF0BEB05014FEAC11A22D921
:1023200000210AEB821907FA01F3034215D04B088A
:1023300009EB830303F1405303F580434FEAC17C6B
:10234000D3F840384FEADC6C23FA0CF3C3F30C03E8
:10235000434502D90020BDE8F09F491C2029E2D363
:10236000521CA242DCD36D1C022DBFD30120BDE85C
:10237000F09F2DE9F05F0026984C4FF6FF7500287E
:102380000F4644D000F00F01C0F3031001290EBF27
:1023900000210229BDE8F09F022828BFBDE8F09F78
:1023A00001EB0009FEF7E1FA5FEA00081CBF00201C
:1023B000FEF78BFA00204FEAC919002209EB8011C1
:1023C000530801EB830303F1405CD307DB0E0CF5EC
:1023D000804C05FA03FBDCF840A807FA03F32AEA6D
:1023E0000B0A4AEA0303521CCCF84038202AE7D3F0
:1023F000401C0228E1D3B8F1000F08BFBDE8F09FF0
:10240000A6706670BDE8F05F0120FEF75EBAFEF7C9
:10241000ACFA5FEA00081CBF0020FEF756FA002065
:1024200000228101530801EB83034FEAC27C03F1D0
:1024300040534FEADC6C03F5804305FA0CFAD3F8FD
:10244000009007FA0CFC29EA0A0949EA0C0C521C14
:10245000C3F800C0202AE5D3401C2128E0D3B8F1FE
:10246000000FCDD1BDE8F09F10B5FEF7EDFF5B4941
:10247000088210BD594AC1B200F4F853128A914241
:1024800088BF11464FF0640C01FB0CF1B1FBF2F177
:102490001A0A02FB0C1110F4005F12BF08B2484286
:1024A00000B2704710B54FF480714D4C4D480FF09D
:1024B000F0F8002001232156002910DB0A09D2017F
:1024C00002EB800202F1405202F5C0420907C90E38
:1024D000D2F800C003FA01F14CEA01011160401C7E
:1024E0002028E8D310BD10B53D4C4FF480713D4815
:1024F0000FF0CFF8002001232156002910DB0A0934
:10250000D20102EB800202F1405202F5C0420907FB
:10251000C90ED2F800C003FA01F14CEA01011160C2
:10252000401C2028E8D3BDE810404FF424612E4819
:102530000FF0AFB8294810B5808B00F48170FFF719
:10254000CBFA4FF4807127480FF0A3F84FF40461E1
:1025500025480FF09EF8BDE810400020FEF7C4BEED
:1025600070B51E4C0546A06A401CA062207850B190
:10257000206A10B1206A401E2062206A002804BF31
:102580000020FEF7A2F920212846FEF7F4F9616A3F
:1025900000291CBF28468847FEF734FC022815D1C5
:1025A0001248D0F8B81211F0010F0FD0D0F8B812BD
:1025B00041F00101C0F8B812D0F8B81221F00101C1
:1025C000C0F8B812A06940F00200A0610848016894
:1025D00041F02001016070BD404800302804011026
:1025E000AC08011000600030004000300050004096
:1025F000640401102DE9F0410027634D01260028F5
:1026000008BF2E701FD001282F7018BF6F701AD00E
:10261000DFF87881D8F800005D490843C8F8000069
:1026200029785C4C002914BF4BF608305A48E0600A
:1026300014BF5A484FF0BB70A0605948006830F092
:10264000FF0206D101E06E70E2E7E26860F3030288
:10265000E26051B1A06840F01800A060012000F0D5
:1026600071F8A06840F48050A060012000F06AF882
:10267000687818B1E06840F03000E060D4F8B0004D
:1026800040F00100C4F8B000012000F05BF8E667FC
:102690004FF4E0602061C4F888702878002818BFE3
:1026A000C4F89460E06820F03000E060A06820F496
:1026B0008050A060D8F8000020F0040040F00D70B9
:1026C00040F08050C8F80000BDE8F0813148C16892
:1026D00021F03001C160816821F4805181602B4874
:1026E000016821F0040141F00D7141F08051016059
:1026F000704726480268264911430160224925484F
:102700000A783AB1826842F018028260826842F424
:1027100080528260497819B1C16841F03001C160CE
:10272000D0F8B01041F00101C0F8B01070471D4959
:10273000C0B241EA002017490864704715491A4899
:102740000864704782B040F24C42009013E000BF32
:1027500000BF00BF00BF00BF00BF00BF00BF00BF81
:1027600000BF00BF00BF00BF00BF00BF00BF019897
:10277000411E0191EBD20098411E009128BF0192A9
:10278000F5D202B0704700006004011000800040E4
:10279000040034120060004005F401002000BB007A
:1027A000D0FE030013005FA000005FA04148404935
:1027B0008161891CC161491E4163026822F00302E4
:1027C00042F00D7242F080520260426922F0010232
:1027D00042F00D7242F08052426102691143016180
:1027E000354981603549C16035490020086070472E
:1027F00010B501F04CF932480468002C08BF30BF16
:10280000FAD00021016001F046F9204610BD10B554
:1028100001F03DF926482A4B2649421C1C682CB180
:102820000020186001F037F9204610BD72B64863E9
:102830008A6120BF88614A6362B6BFF36F8FBFF3BE
:102840004F8FEBE71B48016821F0030141F00D7148
:1028500041F0805101601B49816001691A4A1143AE
:10286000016130BF704772B6114912484163C91CFB
:10287000C161891E816162B670470E480168134AC2
:102880001143016070470B48016821F0030141F0DA
:102890000D7141F080510160704772B604490548DE
:1028A0008161891CC161491E416362B670470000A5
:1028B00000003412008000403C0034122800341222
:1028C00064040110080034120100341203003412B1
:1028D0007047002818BF01204FF4E021486070477E
:1028E0000022B2EBD10F26D20368B3F1FF3F04BF41
:1028F0004368B3F1FF3F17D18368B3F1FF3F04BFD3
:10290000C368B3F1FF3F0FD10369B3F1FF3F04BFC9
:102910004369B3F1FF3F07D18369B3F1FF3F04BFC0
:10292000C369B3F1FF3F01D0002070472030521C33
:10293000B2EBD10FD8D30120704710B40023B3EB12
:10294000D20F30D2D0F800C00C68A44522D1D0F804
:1029500004C04C68A4451DD1D0F808C08C68A445BB
:1029600018D1D0F80CC0CC68A44513D1D0F810C051
:102970000C69A4450ED1D0F814C04C69A44509D106
:10298000D0F818C08C69A44504D1D0F81CC0CC691B
:10299000A44502D010BC00207047203020315B1CC1
:1029A000B3EBD20FCED310BC012070472DE9F0411C
:1029B000054601F074F8002021264FF48257844622
:1029C0004FF4E0221660C5F800C0116841F0040120
:1029D0001160116811F0040FFBD1176040232C46E1
:1029E0000021D4F80080B8F1FF3F04BFD4F8048080
:1029F000B8F1FF3F1DD1D4F80880B8F1FF3F04BF04
:102A0000D4F80C80B8F1FF3F13D1D4F81080B8F19E
:102A1000FF3F04BFD4F81480B8F1FF3F09D1D4F8C8
:102A20001880B8F1FF3F04BFD4F81C80B8F1FF3F15
:102A300008D0C2F800C0401CC0B20828C2D302208F
:102A4000BDE8F081491C2034B1EBD30FC9D3C2F8E3
:102A500000C00120BDE8F0812DE9F041054601F0FC
:102A60001EF80020092684464FF4E0231E60C5F8B6
:102A700000C0196841F004011960196811F0040FD1
:102A8000FBD12C464FF4806200212768B7F1FF3F4D
:102A900004BF6768B7F1FF3F17D1A768B7F1FF3FE1
:102AA00004BFE768B7F1FF3F0FD12769B7F1FF3FD8
:102AB00004BF6769B7F1FF3F07D1A769B7F1FF3FCF
:102AC00004BFE769B7F1FF3F08D0C3F800C0401C5E
:102AD000C0B20328CAD30220BDE8F081491C2034CB
:102AE000B1EBD20FD1D3C3F800C00120BDE8F08113
:102AF0002DE9F05F0F46804604264FF0020A4FF0A2
:102B0000000B4FF4E02900F0CAFF44463846C9F8EC
:102B100000A00F21B0E82C10A4E82C10491EF9D217
:102B2000D9F8000040F00400C9F80000D9F800000E
:102B300010F0040F06D000BF00BFD9F8000010F05D
:102B4000040FF8D1C9F800B0454638460F21D5E941
:102B50000023D5E902C4D0F800E0964504BF4268DE
:102B60009A4205D18268624504BFC268A24208D079
:102B7000761E03D34046FFF719FFC4E70220BDE8E5
:102B8000F09F10301035491EE1D20120BDE8F09FC2
:102B900070B50D46044600F082FF4FF48072214666
:102BA00028460EF071FD012070BD2DE9F041C0B046
:102BB00014460E46054610F0FF0F23D025F0FF08FF
:102BC0006F4600F06CFF4FF48072414638460EF0BD
:102BD0005BFDE8B2C0F58077A74288BF274668440E
:102BE0003A4631460EF05FFD4046FFF7DFFE022811
:102BF00043D069464046FFF77BFF022841D03D4461
:102C00003E44E41BB4F5807F19D34FF48072314603
:102C100068460EF048FD2846FFF7C8FE02282CD073
:102C200069462846FFF764FF02282AD0A4F580747D
:102C300005F5807506F58076B4F5807FE5D2C4B1E0
:102C40006F4600F02CFF4FF48072294638460EF094
:102C50001BFD2246314668460EF025FD2846FFF74B
:102C6000A5FE022809D069462846FFF741FF022841
:102C700007D040B00120BDE8F08140B00A20BDE897
:102C8000F08140B00B20BDE8F08100002E490860C3
:102C9000086100F010B82C490860486100F00BB8DA
:102CA00029494867704728498867704726480121A5
:102CB0000166016570474FF04022116B10F0010F63
:102CC00018BF21F4404110F0020F1CBF21F4405105
:102CD00041F4805110F0040F18BF21F4406110F04E
:102CE000080F18BF41F4407110F0100F18BF41F0E9
:102CF000C00110F0200F18BF41F0300110F0400F5C
:102D000018BF41F00C0110F0800F18BF41F0030113
:102D100041F4BE0141F020411163D2F8901010F44B
:102D2000807F1CBF21F0030141F0020110F4007FFD
:102D30001CBF21F00C0040F0080141F4BE0040F03F
:102D40002040C2F890007047001000407047D04803
:102D50008268D0490A438260C2681143C1604169F8
:102D6000CD4A114341617047C948416921F00101D1
:102D700041F00D7141F080514161C16821F0400185
:102D800041F00D7141F08051C160816821F0400136
:102D900041F00D7141F080518160704710B5BC4C1D
:102DA000A168BC480143A160E1680843E060606934
:102DB000B94908436061B94843F63F71C1600021D9
:102DC00081638164C0F8B01003210A2000F0A5F9E6
:102DD0000A2000F0C5F9606920F0010040F00D7094
:102DE00040F080506061E06820F0400040F00D70DD
:102DF00040F08050E060A06820F0400040F00D708E
:102E000040F08050A06010BDA44A1060516048435B
:102E100090607047A14A10605160484310F0010F64
:102E200018BF401C906070479C49C1F8B0007047C3
:102E30009A49002818BF0120886470479749886321
:102E4000C86840F00200C8607047DFF850C2CCF894
:102E50002000CCF82410CCF82820CCF82C3001200D
:102E6000CCF83000DCF8340010F0010F05D020BFA2
:102E7000DCF8340010F0010FF9D110F0020018BF97
:102E80004FF0FF3070478548C16821F00201C160F2
:102E900070478248C16841F00101C16070477F4BB3
:102EA000186259629A6201201864586C10F0010F80
:102EB00004D020BF586C10F0010FFAD110F00600BA
:102EC00018BF4FF0FF3070477448C16821F001010E
:102ED000C16070477148C16841F00401C16070472A
:102EE000027C017B02F03F0241EA02416B4A91659C
:102EF00001685162416891628168D1620121116566
:102F0000516D11F0010F04D020BF516D11F0010F70
:102F1000FAD1D36D8382D36D1B0CC382136E0383EE
:102F2000136E1B0C4383536E8383526EC2F30E42A7
:102F3000C28311F0020018BF4FF0FF3070475748AE
:102F4000C16821F00401C16070475448C16841F074
:102F50000801C1607047DFF844C1CCF87820CCF894
:102F60002000CCF82430CCF828100120CCF87000D8
:102F7000DCF8740010F0010F05D020BFDCF87400FD
:102F800010F0010FF9D110F0060018BF4FF0FF301C
:102F900070474248C16821F00801C160704701686C
:102FA0004FEA31423D49C1F89C204068C1F8A00079
:102FB000C86840F02000C860704701684FEA31429D
:102FC0003649C1F89C208088C1F8A000C86840F04C
:102FD0002000C8607047314B18625A629962012024
:102FE000C3F89400D3F8980010F0010F05D020BF6B
:102FF000D3F8980010F0010FF9D110F0060018BFB7
:103000004FF0FF307047254A106251620120C2F82C
:103010009000D2F8980010F0010F05D020BFD2F830
:10302000980010F0010FF9D110F0060018BF4FF012
:10303000FF3070471948C16821F02001C160704716
:103040001648C16841F01001C1607047A3F1050C3A
:10305000124BC3F888C018625A6299620120C3F803
:103060008000D3F8840010F0010F05D020BFD3F802
:10307000840010F0010FF9D110F0060018BF4FF0D6
:10308000FF3070470548C16821F01001C1607047EA
:1030900000800040400034120100341200900040D3
:1030A0001B4810B5022140F8501F01210161102179
:1030B000416241F206014161002181610421816385
:1030C00090214163416B41F0010141634FF48171F3
:1030D00001610161032000F043F80021032000F0AA
:1030E0001CF8002010BD10B5032000F045F808487A
:1030F0004FF4807101660021016610218167022171
:103100004165002010BD0349002008707047000091
:103110000030004068040110704700F00303DA003B
:103120004FF0FF0C0CFA02F24FF0050C0CEBC3034E
:1031300001FA03F300F00C0101F1E021002807DAA5
:10314000D1F8140D90431A401043C1F8140D704784
:10315000D1F8000490431A401043C1F800047047AE
:1031600000F01F01012202FA01F14009800000F184
:10317000E020C0F80011704700F01F01012202FAA0
:1031800001F14009800000F1E020C0F88011704793
:1031900000F01F01012202FA01F14009800000F154
:1031A000E020C0F8801270474FF0E021C1F8000124
:1031B00070474FF0E021C1F8800170474FF0E020E8
:1031C000D0F8000170474FF0E021C1F8800270474D
:1031D000084800687047074A116810600846704741
:1031E000044A126800F1100352F8230042F8231039
:1031F0007047000008ED00E002210C20FFF78DBFB2
:10320000B8488268B8490A438260C2681143C16005
:103210007047B448816821F4805141F00D7141F04C
:1032200080518160C16821F4805141F00D7141F0FD
:103230008051C1607047AD4881B0016F11F4007FCB
:10324000FBD1816E11F0010F1CBFD0F884100091EA
:1032500004D0D0F88410009A9142FAD0016F11F492
:10326000007F04BF4CF27101016642F24131816678
:1032700001B070479D4981B04FF40D528A660A6FC4
:10328000CA66012898BF012005D9401EB0F5803FCD
:1032900028BF4FF6FF7082B24FF05C5040EA022028
:1032A00048664FF01140C1F88000086F10F4007FAD
:1032B000FBD1886E10F0010F1CBFD1F88400009084
:1032C00004D0D1F88400009A9042FAD0086F10F42C
:1032D000007F04BF4CF27100086642F241308866FC
:1032E00001B07047814881B0016F11F4007FFBD1BC
:1032F000816E11F0010F1CBFD0F88410009104D032
:10330000D0F88410009A9142FAD04FF40D518166A2
:1033100001B070477348806810F4805008BF704750
:103320007248806E00F0010070477048406EC0F334
:103330000F2070476D48D0F88400704710B50C20FE
:10334000FFF726FF0C20FFF70BFF684902204867B4
:1033500010BD664910B5032088670C20FFF70CFFED
:10336000BDE810400C20FFF713BF614A11681060E0
:10337000084670475D4810B5016FC1665C4800683B
:10338000002818BF80475B48016841F48051016004
:1033900010BD574840687047524810B5826852497E
:1033A0000A438260C2681143C160504903208867A4
:1033B0000C20FFF7E1FE0C20FFF7EAFE00F066F9B3
:1033C0004D4B0420C3F888004FF6FF70C3F88C0003
:1033D00072B66033FFF74EFF4FF40070186062B6AC
:1033E00010BDF8B572B64148016F11F4007FFBD1F2
:1033F000816E11F0010F1CBFD0F88410009104D031
:10340000D0F88410009A9142FAD04FF40D518166A1
:1034100039494FF400320A6662B6D1F80412314DD0
:10342000002946D0324C4FF6FF73591AA160AA69A1
:10343000D5F81CC002F00F020CF00F0C6244121DF4
:1034400001FA02F2A2F5EA41DFF8B0C03139614574
:103450002FD2D0F88400191AE160B1F5803F28D24C
:10346000274B4FF0000CA1FB03070CFB037301FB80
:103470000C3163460EF01CF9401C40082061B0F589
:103480007A7F38BF4FF47A701E4B9968002908BFC5
:1034900098605A681A609968C3E901108A421BD97A
:1034A000824205D9814201D9616002E0606000E09A
:1034B000626000F0F7F8A86820F4805040F00D70CA
:1034C00040F08050A860E86820F4805040F00D7013
:1034D00040F08050E860F8BD8242E9D88142E5D8EA
:1034E000E2E70000008000400010341200C00040FD
:1034F0006C0401106404011000A000402F6E16003F
:1035000000879303E81201100F4881680F4A1143A6
:1035100081600F48016841F404710160001F016877
:1035200041F004010160016841F010010160704741
:10353000084908607047BFF34F8F08490648086084
:10354000BFF34F8FFEE700000080004004003412FC
:1035500014ED00E008ED00E00400FA050CED00E0D9
:1035600018488168184A114381601003416941F08D
:1035700001014161016A21F00F0214490A4302620C
:10358000134B8A1EC3F8C420016570474FF04020DA
:10359000006900F0700070474FF040200D4940F87E
:1035A000301F0D4941600D4901660D494166704764
:1035B0004FF0402148680B4A904202BF496C0029F5
:1035C00009487047008000400400341203005FA0E7
:1035D00000600040C0845FA055995FA00A005FA012
:1035E00000005FA061A5650561B66505022824BFDE
:1035F00000207047DE4B53F8202043F8201010467F
:10360000704770B5DB4C206FD94D10F0010F05D01D
:103610000120E0662868002818BF8047206F10F05E
:10362000020F08BF70BD0220E0666868002808BF6E
:1036300070BDBDE870400047CF4810B58268CF49E3
:103640000A438260C2681143C160CA4902220A6506
:1036500001230B660323CB664A65816821F0800154
:1036600041F00D7141F080518160C16821F080010D
:1036700041F00D7141F08051C1600920FFF770FDEC
:103680000221BDE810400920FFF747BDBA48826813
:10369000BA490A438260C2681143C160B549022039
:1036A00008657047B34902204865B348816821F036
:1036B000800141F00D7141F080518160C16821F0BD
:1036C000800141F00D7141F08051C1607047AA48FE
:1036D0008068C0F3C0107047A648016F11F4007FE6
:1036E00014BF4FF440714FF480710166704710B5FC
:1036F000A04CE06F10F0020F4FF0010018BF032044
:10370000606700F068F99C498A69C96902F00F0294
:10371000D04001F00F01C8400521B0FBF1F04FF49B
:1037200005710009C4F880109549A1FB00104009FB
:10373000C4F88400206F10F4007F14BF4FF4407071
:103740004FF48070206610BD8A48016F11F4807FAD
:1037500014BF4FF440714FF4007101667047854B00
:1037600030B4DA6F12F0010F14BF032202225A673D
:1037700000EB4005C5EBC0104FF49674C1EBC000E0
:103780004C4300EB80007F4904EB4010A1FB00108C
:10379000794900224FF0020C8C69C008C96904F015
:1037A0000F0401F00F012144C8400521B0FBF1F0E6
:1037B000B0F5803F05D3511C4008CAB2B0F5803F38
:1037C000F9D242EA0C2141F01001C3F88810C3F885
:1037D0008C00186F10F4807F14BF4FF440704FF4CA
:1037E0000070186630BC70476248016F11F4003FEA
:1037F00014BF4FF440314FF48031016670475D488B
:10380000016F11F4803F14BF4FF440314FF4003189
:10381000016670475748006FC0F300207047554855
:10382000006FC0F34020704753498968C1F3C0114D
:10383000002904BF002070474E4900280CBFD1F872
:103840000002D1F8040270474B4B9A68C2F3C012D1
:10385000002A04BF00207047464A00280CBFD2F857
:103860008000D2F88800C0F30A200CBFD2F8802074
:10387000D2F8882002F00F02D3F818C0DB690CF0F0
:103880000F0C03F00F0363441A449140012202EB32
:10389000400048433C49A1FB0010000970473B49E8
:1038A00001200870704770B4334BC1EB011149001F
:1038B0009A69D3F81CC002F00F020CF00F0C62449E
:1038C000121DD14008BF012104D0B1F5803F28BFAF
:1038D0004FF6FF719A68C2F3C012002A1CBF70BC79
:1038E0007047D3F808C0254A4CEA020CC3F808C058
:1038F000D3F80CC04CEA0202DA601E4A4FF0020C08
:10390000C2F850C04FF4003414660425C2F8885041
:10391000C2F88C101E4DD566C2F874C01D4902282D
:103920003CBF134E46F820100021184801704FF498
:1039300000711166017819B920BF01780029FBD008
:1039400014669567D566C2F854C0986820F0800068
:1039500040F00D7040F080509860D86820F08000F2
:1039600040F00D7040F08050D86070BC704700008F
:103970008404011000A00040008000408000341248
:103980001F85EB51CDCCCCCC898888888004011070
:10399000020002024F5800004FF0E0210020886131
:1039A00008611F494860704710B54FF0E02460611E
:1039B0000020A0610221401EFFF7AFFB072020611D
:1039C00010BD4FF0E02100200861704714480188C5
:1039D000491C018070471248806870472DE9F0410A
:1039E0000F4C002705462780A0684FF47A71B0FB82
:1039F000F1F04FF0E026401E7061B7610221C81E51
:103A0000FFF78BFB072030612188A942FCD3376187
:103A1000BDE8F081034948430149886070470000D0
:103A20008C04011040420F00704770B505464FF4FA
:103A30000D500406A0660320E066264860664CF23E
:103A4000710020662448C4F8800042F24630A06627
:103A500002210020FFF761FB0020FFF781FB002D12
:103A600008BF70BDA06E42F241310843A06670BD30
:103A7000012110B5880781674FF40D518166002040
:103A8000FFF77AFBBDE810400020FFF781BB012063
:103A900081074867704701208107886770474CF2AB
:103AA00071008107086670470C4A1168106008466B
:103AB00070470A4808B5006818B18047002818BF49
:103AC00008BD4CF2710188070166016FC166006F85
:103AD000009008BD07383937009C1C9198040110EC
:103AE00070B5F94E00244FF4407134707470F47066
:103AF000F6480DF0CEFD4FF44071F5480DF0C9FDCC
:103B0000F44DB46034712C606C60AC60EC602C617E
:103B10006C61AC61EC612C626C62AC62EC622C6337
:103B20006C63AC63EC632C646C64AC64EC642C6517
:103B30006C65AC65EC6574714C2105F160000DF0AD
:103B4000A8FD4C2105F1AC000DF0A3FDF460B471AB
:103B5000C5F84441C5F84841C5F84C41C5F8504145
:103B6000C5F85441C5F85841C5F85C41C5F86041F5
:103B7000C5F86441C5F86841C5F86C41C5F87041A5
:103B8000C5F87441C5F87841C5F87C41C5F8804155
:103B9000C5F88441C5F88841C5F88C41C5F8904105
:103BA000C5F89441C5F89841C5F89C41C5F8A041B5
:103BB000C5F8A441C5F8A841C5F8AC41C5F8B04165
:103BC000C5F8B441C5F8B841C5F8BC41C5F8C04115
:103BD000346170BDBC49002048707047BA484078D5
:103BE0007047B9480079002818BF01207047B648CF
:103BF0008079002818BF01207047B3484079002819
:103C000018BF01207047B048C078002818BF0120B5
:103C10007047B148704770B5B04A05461078517882
:103C20004218520014462946AB480DF03CFD22468E
:103C30002946AB480DF037FDA3490120887170BDBE
:103C4000A14800697047A048407800EB400101EBB3
:103C50000010A44901EB800070472DE9F0419A4D16
:103C60000446A0496A78A04F02EB420000EB021024
:103C70009E4E01EB80033A78307821461044420092
:103C800018460DF010FD6A78994902EB420000EBEE
:103C9000021001EB80033A7830782146104442004C
:103CA00018460DF000FD01206871BDE8F0818648DE
:103CB000C068704784488549407800EB400001EBBC
:103CC000002070472DE9F0417F4E074630780028EC
:103CD00014BF88488848047814BF88488848057805
:103CE00004FB05F8FFF733F829462046FFF78CF868
:103CF0007078774C00EB400004EB0022A4F5407193
:103D000001EB00203B460146FFF79FF8FFF72CF838
:103D100070784FEA480200EB400004EB002039467F
:103D20000DF0C1FC0120F070BDE8F0812DE9F047F5
:103D3000654D044665496878DFF8B88100EB4000BE
:103D400001EB002C2878DFF8B0916C4E6C4F2146C7
:103D5000002815BF98F8002099F8002033783B78A8
:103D600002FB03F04FEA400260460DF09CFC6878CD
:103D7000574900EB400001EB002C28782146002831
:103D800015BF98F8002099F8002033783B7802FBA3
:103D900003F04FEA400260460DF085FC0120E87018
:103DA000BDE8F08748488068704770B5554C0546B7
:103DB00001462278474852000DF075FC22782946CA
:103DC000520051480DF06FFC3F490120087170BD51
:103DD0002DE9F04FADF5517DDFF8EC800120CA9060
:103DE00098F80300C99098F80400C89098F8050066
:103DF000C79098F80600C69001F072FA0446FDF7E5
:103E0000DFFDCF90FDF7A8FFCE90FDF777FACD90BC
:103E1000FCF7FBFF0546FCF7F5FF0746FDF7D2FD73
:103E200098F8020000264FF01E09002804BF042065
:103E3000C8F8180007D0022C18BF0A200CD0C8F808
:103E4000180088F80260FDF71FFA083000094FF0EB
:103E5000010A022F0AD01AE00DF02FFC10F4817F26
:103E600014BF0F20C8F81890E9D1EAE7022C05D05A
:103E7000052C08BFC8F8189007D008E04FF47A71F5
:103E8000484390FBF1F0C8F8180088F802A0D8F871
:103E900018000428BCBF0420C8F8180098F80200D5
:103EA000B8F81810000240EA014040F00102002377
:103EB0009121072009F016FC15F0010F26D0FDF71F
:103EC00051FF0020CA9026E09C040110F41201105A
:103ED000F4150110F41E011038200110D504011052
:103EE00078200110541F0110D2040110D3040110D6
:103EF000A01F0110D0040110CD040110D104011045
:103F0000CE040110D4040110241F01100020FDF77D
:103F1000EBF9FDF760FF37464FF0000B05F094F921
:103F2000012818D0C0A8FEF729F9002800F05A820D
:103F3000C0A806F040F8002088F80100D8F8180062
:103F4000C01E8642CABF874201240024C398A0B382
:103F5000C89820B131E04FF0010B00F031BAC3989E
:103F6000FEF7F2F88146C3907CB1FE4D49462878B1
:103F70004200FD480DF097FB287849464200FB4877
:103F80000DF091FB88F804A017E0FEF7E0FEF54D78
:103F900001212878FEF738FFF44A4B46A2F13001A0
:103FA0000846FEF752FFFEF7DFFE2878494642003A
:103FB000EE480DF078FB88F804A0C298002800F0C5
:103FC000C280C99800287BD198F80000C29DD8BB58
:103FD000D8F80890B9F1000F20D0E5480078CC90CF
:103FE000E4480078CB90FEF7B2FEDDE9CB10FEF797
:103FF00011FF29464A460846FEF751FFFEF7B4FE78
:10400000DD480078022804BF484605F0B7FCDA48CE
:104010000078092804BF284605F0B0FCD74800788E
:10402000012816D9DFF8509399F80000042804BF3E
:10403000284605F0A3FC294668460DF043FB0546DB
:1040400099F80000052800E003E004BF284605F0C9
:1040500095FCB4B398F8010098F8002000EB4001FB
:10406000C748002A00EB012029460CBFC54AC04AB8
:10407000137814BFBF4AC44A127803FB02F24FEA16
:1040800042020DF010FB98F8010000EB4001BF4820
:1040900000EB012398F800002946002814BFB4481B
:1040A000B848007814BFB34AB74A127800FB02F050
:1040B0004FEA400218460DF0F6FA88F803A035E002
:1040C00041E0FFE7CB9598F80000002814BFA8480E
:1040D000AC4890F8009014BFA648AB48057809FB9F
:1040E00005F0CC90FEF733FE29464846FEF78CFEDD
:1040F00098F80100A54D00EB400005EB0022A5F566
:10410000407101EB00200146CB9BFEF79EFEFEF7BF
:104110002BFECC98CB99420098F8010000EB4000B0
:1041200005EB00200DF0BFFA88F803A09248007854
:10413000032808D198F8010000EB4001904800EBFB
:10414000012005F01BFCC49800287DD0C7980028EA
:104150007AD198F80000C49D48BBD8F80C90B9F10A
:10416000000F24D08A4801788A4800780844401C0F
:104170004008019002200090FEF7E9FDDDE9001003
:10418000FEF748FE29464A460846FEF788FEFEF737
:10419000EBFD81480078022804BF484605F0F2FC98
:1041A0007D480078092804BF284605F0EBFC4CB395
:1041B00098F80100DFF8DC9100EB400101EB001101
:1041C000764800EB810372482946027899F800008E
:1041D0001044420018460DF066FA98F801006C4A47
:1041E00000EB400101EB00116D48127899F80030A6
:1041F00000EB81001A44294652000DF054FA88F869
:1042000005A030E0624800950178624800780D18FA
:10421000FEF79DFD681C40080221FEF7F5FD98F8A9
:104220000100DFF87C9100EB400101EB0010A9F1E7
:104230004C0109EB800201EB80010846009BFEF770
:1042400004FEFEF791FD00E01CE098F801006A0012
:1042500000EB400101EB001009EB800000990DF02C
:1042600022FA88F805A04C48007803280AD198F86B
:10427000010000EB400101EB0011484800EB810018
:1042800005F080FCC598002863D0C698002860D14E
:1042900098F80000C59D40BBD8F81090B9F1000F08
:1042A00023D04048017840780844401C40080190E1
:1042B00002200090FEF74BFDDDE90010FEF7AAFD9D
:1042C00029464A460846FEF7EAFDFEF74DFD364808
:1042D0000078022804BF484605F073FD3248007894
:1042E000092804BF284605F06CFD2E480178407867
:1042F00074B108444400224629462C480DF0D3F9F5
:10430000224629462A480DF0CEF988F806A017E083
:104310000C18FEF71CFD601C40080221FEF774FD1E
:10432000234A2B46A2F140010846FEF78EFDFEF718
:104330001BFD620029461E480DF0B5F988F806A05D
:1043400019480078032804BF184805F03AFD0DF01D
:10435000BEF9FDF75BFFD8F81800761C7F1C86427B
:1043600028E00000D4040110F41E0110241F0110E5
:10437000D0040110D104011041050110CF04011037
:10438000F4120110CD040110CE040110F415011037
:10439000D2040110D304011046050110541F01106E
:1043A000A01F0110D50401104B0501103820011089
:1043B00078200110A8BF87420EDBD8F8140058B14E
:1043C000FDF700FBCD98FCF78FFFCF9878B1CE9822
:1043D00058B1FDF700FD0AE0CA98002818BFFDF7A4
:1043E000FAFC9BE500F0C9FF98E5FDF7BBFCBBF1CB
:1043F000000F04BF0420C8F818000BD0C99888F833
:104400000300C89888F80400C79888F80500C69883
:1044100088F80600B8F818104FEA0B2040EA01426D
:1044200000239121072009F05DF90DF5517D5846D3
:10443000BDE8F08F10B50024FDF780FCFF4910F0B7
:10444000020F0AD0CA78002A08BF012410F0040F16
:1044500003D00A79002A08BF012410F0010F03D00D
:104460004A79002A08BF012410F0200F03D0887970
:10447000002808BF01240020002C08BF10BD002028
:104480000870BDE81040A3E408B50F2101F03DF825
:10449000012804D1FFF7CEFF009001F0A9F9E74809
:1044A000C17800291CBF4179002906D081790029F3
:1044B0001FBF00790028012008BD002008BDE3E7E8
:1044C000704770B5DD4D0024EC702C716C71FCF7F9
:1044D000E6F9002818BFAC71BDE8704009F0CBBD0B
:1044E00010B54FF44071D6480DF0D3F8BDE8104038
:1044F0004FF44071D3480DF0CCB8D3487047D3483F
:104500000178D348007848434100CF480DF0C1B846
:1045100070B50646CD480478CD480578FEF717FCFF
:1045200029462046FEF776FCC448C549407800EB92
:10453000400001EB00223146C348FEF7B0FCFEF715
:1045400013FCC4480078152818BF70BDBE48BDE8EC
:10455000704005F013BA002818BF0120B749C87091
:10456000704710B5B54C002804BFA06010BDDFF83F
:10457000E8C2BA490B78BA490A7801465A43520050
:1045800060460DF090F8B448A06010BDB549002019
:10459000086048608860C860086148618861C861D7
:1045A000086248628862C862086348638863C863B7
:1045B000086448648864C864086548658865C86597
:1045C0007047A8487047002818BF01209B49087110
:1045D000704710B54C21A4480DF05BF8BDE81040C1
:1045E0004C21A2480DF055B8002818BF012093496E
:1045F0004871704710B5914C002804BFE06010BDB1
:104600004C2201469A480DF04EF89948E06010BDE2
:1046100094490020C1F84401C1F84801C1F84C0197
:10462000C1F85001C1F85401C1F85801C1F85C014A
:10463000C1F86001C1F86401C1F86801C1F86C01FA
:10464000C1F87001C1F87401C1F87801C1F87C01AA
:10465000C1F88001C1F88401C1F88801C1F88C015A
:10466000C1F89001C1F89401C1F89801C1F89C010A
:10467000C1F8A001C1F8A401C1F8A801C1F8AC01BA
:10468000C1F8B001C1F8B401C1F8B801C1F8BC016A
:10469000C1F8C0017047002818BF01206749887120
:1046A000704710B5654C002804BF206110BD7149EA
:1046B0000A78497811444A0001466F480CF0F3FF2C
:1046C0006D48206110BD30B44FF0000C029C634374
:1046D00004BF30BC704732F91C4051F82C502C44B8
:1046E00040F82C400CF1010C6345F4D830BC704705
:1046F000002B08BF704710B4DDF804C0BCF1000FF8
:104700004FF0000C11D0002A9CBF10BC704751F82C
:104710002C4004EB5304B4FBF3F420F81C400CF1E0
:10472000010C6245F3D810BC7047002A9CBF10BC36
:10473000704751F82C4094FBF3F420F81C400CF126
:10474000010C6245F5D810BC704770B53B4D002692
:104750000446EE702E716E71FCF7A1F8002818BFA8
:10476000AE7109F088FC002C14BF012000202870D5
:10477000BDE87040FFF72CBB2DE9F04FA9B04FF416
:10478000407135480CF085FF4C2139480CF081FF11
:1047900034480021C0F8C411C0F8C811C0F8CC11C9
:1047A000C0F8D011C0F8D411C0F8D811C0F8DC118D
:1047B000C0F8E011C0F8E411C0F8E811C0F8EC113D
:1047C000C0F8F011C0F8F411C0F8F811C0F8FC11ED
:1047D000C0F80012802168460CF05BFFFDF7AEFACE
:1047E0000446FDF7EDF82890FDF7B6FA2790FCF7A0
:1047F00085FD2690FDF7E6F80020FCF775FDFDF736
:10480000EAFA0026354604F01FFD01287ED020A8D4
:10481000FDF7B4FC00287AD020A805F0CCFB14F0FA
:10482000020F3ED00D48DFF830B0DDF8889090F8E8
:1048300000800B48DA46077820E000009C04011055
:10484000F4120110F4150110F4180110CD04011038
:10485000CE04011041050110F41B0110D004011019
:10486000D1040110F41E0110541F0110A01F0110EB
:10487000EC1F0110D5040110B8200110FEF767FAF3
:104880000120FEF7D5FA39464046FEF7C3FA5246F4
:1048900049465846FEF703FB0020FEF7C9FAFEF72B
:1048A00063FA14F0010F20D0FF48DFF8F8B34FF09F
:1048B00002080178FD48DA46DDF890900078084457
:1048C000401C4708FEF743FA0120FEF7B1FA4146C3
:1048D0003846FEF79FFA524649465846FEF7DFFA39
:1048E0000020FEF7A5FAFEF73FFA14F0200F1FD0C4
:1048F000EF496B46022791F800C049781A46614497
:10490000491C4FEA510C0021259801E018E024E0F1
:104910005FEA4C0818BF0CFB07FC09D030F9117096
:1049200052F82180474443F82170491C8C45F5D842
:10493000FDF76CFC761C102E03D2FDF74CFA62E7F3
:104940000125FDF73FF82698FCF7CEFC289848B1E2
:10495000279828B1FDF73FFA04E000F00EFD52E77A
:10496000FDF700FA002D59D1DFF848C314F0020F0B
:104970001BD0D248D04E0178D1483746007801FB91
:1049800000F210200021002A88BF03460AD937F917
:10499000118008EB5008B8FBF3F826F81180491C89
:1049A0008A42F4D8C448CCF8080014F0010F19D09A
:1049B000BD48BC4B0178BD481E4600780A184FF030
:1049C00010004FF000010AD036F9118008EB5008B2
:1049D000B8FBF0F723F81170491C8A42F4D8B148AB
:1049E000CCF80C0014F0200F18D0B148B54B6C4631
:1049F000017840780A184FF010014FF000000AD0FB
:104A000054F8206006EB5106B6FBF1F623F810606F
:104A1000401C8242F4D8AB48CCF8100029B028469C
:104A2000BDE8F08F01207047A7487047A64800688E
:104A30007047A5490A68B2F1FF3F15D0052804BFA9
:104A4000C87A704728DC012804BF0879704702281B
:104A500004BF087A7047032804BF487A70470428C7
:104A600004BF887A704727E0052813D007DC0128A7
:104A700022D002281CBF032804280BD01CE01428D5
:104A800012BF15282D207047162804BF2820704714
:104A9000172811D100207047142804BF087B7047E5
:104AA000152804BF487B7047162804BF887B7047D1
:104AB000172804BFC87B7047FF20704730B5C1B0CE
:104AC00000244FF4807168460CF0E3FDFF227E4D18
:104AD000511C68460CF000FEFF21224661F30702DC
:104AE0002D23214663F3070163F30F2128234BF69F
:104AF000BB3063F3174164F31F61CDE90002CDE9D8
:104B0000024104942846FDF751FF69462846FDF707
:104B1000EFFF41B030BD2DE9FF4FDFF8AC81C1B0F0
:104B20008346D8F800004E9F91468A464446B0F12D
:104B3000FF3F08BFFFF7C2FFD4E901106BF3070185
:104B40008B466AF30700449969F30F2061F317401D
:104B50002568D4E9036467F31F600746FF22511CF0
:104B600068460CF0B9FD0297CDE90364CDE9005B1E
:104B70004046FDF71BFF69464046FDF7B9FF012897
:104B800018BF002045B0BDE8F08F2DE9F74FDFF8E2
:104B9000389183460020D9F80060C0B08A464C4660
:104BA000B6F1FF3F04BF43B0BDE8F08FD4E9028502
:104BB0006768FF22511C6846D9F810400CF08CFD44
:104BC0006BF3070542986AF30F2560F31745012040
:104BD00060F31F65CDF80880CDE903544846CDE960
:104BE0000067FDF7E3FE69464846FDF781FF43B0E5
:104BF000BDE8F08F2DE9F04F3348344E00250368AF
:104C0000C1B074422F461720FFF713FF84461420CB
:104C1000FFF70FFF40B2B3F1FF3F04D0BCF1000F2C
:104C200003D12D2801D0FFF749FF1420FFF701FF22
:104C300040B202901520FFF7FCFE4FFA80F91620D3
:104C4000FFF7F7FE40B201901620FFF7F2FE404258
:104C500040B20090FDF772F8DFF858A083460020BC
:104C60008AF803008AF804008AF80500FBF717FEAB
:104C700000281CBF00208AF8060009F0FCF900207B
:104C80008AF80000FFF7A4F81BF0010F04D00CF025
:104C900028FD012808BF01251BF0020F7ED00C481B
:104CA00018E00000EC1F0110D2040110D304011021
:104CB000D50401109C040110F41B0110D004011054
:104CC000D1040110B820011000AE0200F1D8FFFF9E
:104CD000CE04011090F800C05B489AF801105B4ABE
:104CE000007801EB410102EB01224FF0000800289F
:104CF000C8BFACF1010A1EDD0021BAF1000F16DDBC
:104D000001F1010B01FB00830BFB008B32F8133028
:104D100032F81BB0A3EB0B031BB2002BB8BF5B42F6
:104D20001BB2BB42C8BF1F46491C5145E8DB08F116
:104D300001088045E0DBB945B8BF45F002054FF0FA
:104D40000008C146BCF1000FC8BFA0F1010A1BDD7D
:104D50000021BAF1000F13DD09FB001332F813B084
:104D600002EB43035B88ABEB03031BB2002BB8BF22
:104D70005B421BB24345C8BF9846491C5145EBDB1B
:104D800009F10109E145E3DB02994145B8BF45F06E
:104D900004054FF00009BCF1000F00E01CE013DD3A
:104DA000002300280CDD09FB003132F91110B1425B
:104DB000C8BF0E46A142B8BF0C465B1C8342F2DB63
:104DC00009F10109E145EBDB0198B04202DB0098F3
:104DD000A04201DD45F0080560421D4C08F0FF0BC4
:104DE00000F0FF08206807F0FF0A06F0FF09B0F1A5
:104DF000FF3F08BFFFF762FED4E901106BF3070025
:104E00006AF30F20266869F31740D4E9037465F349
:104E1000070168F31F600D468046FF22511C68465B
:104E20000CF05AFCCDF80880CDE90374084CCDE9AC
:104E300000652046FDF7BAFD69462046FDF758FE9D
:104E400041B0BDE8F08F0000CD040110F412011054
:104E500000AE0200FE4800897047FD484089704757
:104E600070B515460E46044609F08AF9002C18BFA5
:104E700070BD042806D0F748006890F82400A842C6
:104E800088BF70BD3046BDE870400CF02FBC0843B1
:104E900004BF0020107070472DE9F05F1446DDE973
:104EA0000C689946002709F0E3F801280BD005F0BB
:104EB0005BFF012807D0B8F91200962800DD012712
:104EC0003846BDE8F09FE448E4490125007891F8B0
:104ED00000A01FFA89FC4FEA194BE3451ED3E049B5
:104EE0001FFA84F94FEA144E4B469E450FD30CFB34
:104EF000003231F9124036F91220A21A1E323C2A31
:104F000001D900250AE05A1C93B29E45EFD22DB17B
:104F10000CF101021FFA82FCE345E5D2400000FBE0
:104F20000AF23146CE480CF0BEFB002D1CBFB8F98A
:104F30001200B0F5877FC3DDC1E72DE9FF5F9B4617
:104F4000DDE90F238446C4480024DDE911A9DDF81A
:104F50003880007827462646C34525D003FB00BE8F
:104F600003FB00273CF91E603CF91720B51A48BF27
:104F7000951B03FB00833CF913C0BCEB020048BF48
:104F8000A2EB0C00284406B231F91EC031F917001B
:104F9000BCEB000248BFA0EB0C0231F91330191A28
:104FA00048BFC11A501807B20298012823D0012522
:104FB0000CF0A1FBAB490A7802EB0B0102EB080CE9
:104FC0008C4584BF02EB0A034A4421D98B421CBFA3
:104FD000A1EB020818F1020F30F9118000EB410932
:104FE000B9F90290A8EB090808D008F11E08B8F139
:104FF0003C0F0AD907E0B7420EDD0CE008F10A08C1
:10500000B8F1140F01D9002502E0491C8C45DDD808
:10501000B74201DD05B1012404B02046BDE8F09F90
:105020008B48002181718181704770B515460E460D
:10503000044609F01DF80021854B002802BF997134
:10504000998170BDB3F90C008442C8BF9C81B3F94B
:105050000C0000EB8012844880FB02204211A2EB7E
:10506000E070A0420FDD012E0DD09879401CC0B237
:105070009871032898BF70BD997199810120D870EB
:10508000801E286070BD997170BD2DE9FF5F0446D8
:1050900076480A256E4E90F800907248DDF838B0D8
:1050A000924690F80080012B08BFBBF1000F06D09C
:1050B00030890027E8B109F029F830B119E070799A
:1050C000052824BF0520707130E0BAF1010F02D12C
:1050D0007089C8280DD808F0CBFF012818BF1E23FF
:1050E0000CD0002119EB080213D034F911009842BA
:1050F0000BDD777104B00020BDE8F09FBBF1010F1C
:105100000EBF2D2328230525EBE7481C81B28A42D8
:10511000EBD87079401CC0B27071854206D20198FC
:105120004FF0FF3101600120F070777104B0002072
:10513000BDE8F09F70B51E4615460C4608F098FF76
:1051400001281AD10021DFF808C1002DC2BF8CF858
:105150000410002070BD012E0FD09CF80400401CEC
:10516000C0B28CF804000A2807D94FF0FF30206045
:1051700001208CF803008CF80410002070BD3C4A1C
:105180000280428000218280C1800181534243819C
:105190008181C1810182418282827047009800141E
:1051A0000028CCBF0120002070472DE9FF4F83B0BD
:1051B000064610A81C4690E8000F154608F0E0FFD0
:1051C000019608F069FF224E002730BB09F0DAF89B
:1051D000014601AA5846FFF728FF4B46424601A95F
:1051E000CDF800A00498FFF750FF08F041FF012818
:1051F00013D1B8F1000FC8BF37710EDCB9F1010F40
:105200000BD03079401CC0B230710A2805D94FF05C
:10521000FF3001900120F07037710198B0F1FF3F2D
:1052200013D1F07801281CBF07B0BDE8F08F2846E5
:10523000FFF76EF9F770002D1CBF2846FEF776FDCC
:10524000002C1CBF2046FEF708FD0198002811E045
:10525000B8040110EC050110CD040110CE040110BA
:10526000F8200110D30401101F85EB51D204011066
:10527000F1D8FFFF07BF7078012807B0BDE8F08FB5
:10528000777008F07DFF042810D005F0CAF80428D4
:105290000CD0002D1CBF2846FEF748FD002C1CBF7B
:1052A0002046FEF7DAFC07B0BDE8F08F002D1CBFEA
:1052B0002846FEF707FD002C1CBF20460CF020FA04
:1052C00007B0BDE8F08F10B505F07AFF06F023F8BF
:1052D000002010BDF94988707047F8488078704701
:1052E000F64800787047F54840787047F3480078F2
:1052F000022805D005281CBF0020704705F091B892
:1053000008F03EBFED490870704770B5EB4E04469B
:105310000D463078A04212D002281AD0052814BFBA
:10532000002005F07EF844EA05213278002341EAA6
:10533000024141EA00626121072008F0D3F975704B
:10534000072C28BF70BDDFE804F016070B13160FFB
:10535000160008F015FFE6E7284600F055FA0AE0C7
:10536000284608F008FF06E0284605F04FF802E05E
:10537000284608F06FFA347070BDD14900200968E2
:10538000B1F8641011F4807F08BF7047FDF730BAA0
:10539000CB4900200968B1F8641011F4807F08BF80
:1053A0007047FDF734BAC64900200968B1F86410A7
:1053B00011F4007F08BF70470CF0A7B9C049002066
:1053C0000968B1F8641011F4806F08BF70470CF0E1
:1053D000A1B9BA49C87800281CBF401EC8707047E0
:1053E00070B5B849D1F8CC00B44C10F0030F0AD016
:1053F00040F4BE0040F02040C1F8C800E07800282A
:1054000004BF0120E070B0488068AD4D10F0020F7D
:10541000296807D14FF04020406910F0010F01D0FA
:10542000E07840B1B1F86410002011F4807F18BF1B
:10543000FDF7EDF907E0B1F86410002011F4806F7A
:1054400018BF0CF067F9A149084208BF70BD296870
:10545000496E090CE17070BD10B572B6FEF708FB1D
:10546000BDE81040FEF767B810B5012802D0022849
:1054700005D008E04FF42F30FDF798FA03E04FF025
:1054800040219348086772B6FEF7F2FABDE8104073
:10549000FEF751B8894900280A7918BF0120087120
:1054A000C0B2824208BF70470022002818BF012204
:1054B00000230121022008F015B980480079002856
:1054C00018BF012070477D48406970477B480069DC
:1054D00070477A480069002818BFC07A704777493A
:1054E000886170477548806970477449C861704722
:1054F0007248C06970477248026802F5C073118A29
:10550000508A02F5A072FCF7E1BC2DE9F04FDFF8FC
:10551000AC9197B08A46C9F8140005F073FDC9F83C
:105520001000002800F0A48090F800C089F805C0A1
:10553000417889F80610837804460CF1010089F857
:10554000073000F0FE0089F80800E27889F80920A9
:10555000207989F80A00607989F80B0009F10D05B6
:10556000A0792870E0796870207889F80C0060468E
:10557000FCF7B6FD99F80B1099F80A00FCF7D3FD7B
:1055800069782878FCF7D9FD6946204605F063FD67
:10559000608AD9F8185000281CBF6843050BB4F87E
:1055A0001A80D9F81C60B8F1000F08BF4FF480587A
:1055B000678C002F08BF4FF4805700201AF0040FAB
:1055C00018BF4FF485701AF0080F18BF40F00400A0
:1055D0001AF0020F1CBF40F2012108431AF0010F1C
:1055E00018BF40F48460616A6FF30F0A08406FF3DC
:1055F0000F0108434AEA000A00981090049811909D
:10560000089812900C981490019813900798159090
:1056100010A95046FCF783FA1AF0020F71D005F07A
:105620000AF95FEA000B30D005F01CF96843050B5E
:1056300059460020FBF776FE218A00291CBF002076
:10564000FBF7E7FE05F02EF97043000B8030020AED
:105650000820012101FA00F3134201D1401EF9D5BF
:10566000061FA07B002818BFA0F1010B17D112E084
:1056700013480068B0F8640010F4807F18BFFDF78D
:10568000C6F8002017B0BDE8F08FB4F80CB0BBF13D
:10569000000FCDD1D0E70020FBF72FFF8346E07B42
:1056A000002814BF401EFBF754FF0BEB0601042932
:1056B00010DD711A0E1D042110E00000C804011055
:1056C000EC0501100060004000800040080003006D
:1056D000AD2007B00029BCBF761A00210644042E75
:1056E00003DD301FC540042604E0002E02DA7042BC
:1056F000854000260020FBF716FF31460020FBF70F
:105700003EFF1AF0010F23D0A18A00291CBF0120FF
:10571000FBF708FE268B3EB131460120FBF779FEF0
:1057200031461120FBF775FEA67D3EB1711E0120AA
:10573000FBF7F9FE711E1120FBF7F5FEE67D3EB189
:10574000711E0120FBF71BFF711E1120FBF717FFD5
:105750001AF0200F23D0A18B00291CBF0220FBF7D9
:10576000E1FD268C3EB131460220FBF752FE314668
:105770001220FBF74EFEA67F3EB1711E0220FBF702
:10578000D2FE711E1220FBF7CEFEE67F3EB1711EE7
:105790000220FBF7F4FE711E1220FBF7F0FEE07A08
:1057A00000281CBF0001FBF7FCFC029805F01FF865
:1057B000039830B12B4699F8062099F805100BF0A4
:1057C000AEFF3A46414628460BF0AEFF0598FEF77D
:1057D000C8FE0998FEF70EFF05F03AFC10F4005FD2
:1057E0001CBF0D98FEF75DFF012017B0BDE8F08FDC
:1057F00010B5FCF764FA05F002F8024900200861D0
:10580000012010BDC8040110FE4908707047FD4812
:1058100000787047FC4810B4FC4A0168914218D1E6
:105820004168B1F5907F14D80022D0F808C0034633
:105830001146B2EB9C0F24BF10BC704753F82140B7
:10584000491C2244B1EB9C0FF8D3002A04BF10BCC2
:105850007047002010BC7047EB48FDF7A7B82DE952
:10586000F041C0B0044605F0ADFB40B18169216252
:10587000C16961624169A162C068E06205E04FF000
:10588000FF30E062A0626062206238250020C4E937
:105890000250DE4F4FF49076C4E90076224601466E
:1058A0002B4652F820C0401C6144B0EB930FF8D354
:1058B000C1F10008FF22511C6846C4F80C800BF0AF
:1058C0000BFFCDF80C800097CDE9016510340DF188
:1058D00010080FCC88E80F000FCC0DF1200888E8E5
:1058E0000F00D4E90001C84CCDE90C012046FDF7BA
:1058F0005DF869462046FDF7FBF8012818BF002037
:1059000040B0BDE8F081BF4901200870704770B514
:105910000E4605461024FFF7D9FD15F0020F18BFFB
:10592000052408D115F0010F18BF092403D115F083
:10593000200F18BF0D243246102C28BF70BD002A3E
:1059400008BF70BD204490F928102046BDE8704083
:1059500005F0B4BBF0B5ADF6040D0446FFF7B6FD97
:10596000054614F0020F0AD06F4604263846FCF7AD
:1059700051FC95F92C103A46304605F09FFB14F087
:10598000010F0BD06F46082639460120FCF797FC23
:1059900095F930103A46304605F090FB14F0200F90
:1059A00004BF0DF6040DF0BD0C246E4631460220F6
:1059B000FCF785FC95F934103246204605F07EFB55
:1059C0000DF6040DF0BD2DE9F34F8BB000200590CE
:1059D0000868069008790190487900908879B1F9B3
:1059E00008904A6908924A89D1E90684C0F5807610
:1059F00002EA00070B98C968079110F0010F15D053
:105A000000984FF0000B002840F2FA80012107981F
:105A100001FA0BF2104018BF0120049008990020F1
:105A200001EB8B118246029100F0E1B80020FBF7F8
:105A300068FE8246DDE900014843032101EB400096
:105A400020F00302414620460BF02DFE5046FBF7A6
:105A500058FE00984FF0000B002840F2D180012240
:105A6000079802FA0BF1084018BF012000210490AA
:105A700008980D4600EB8B1E4EE0012000FA01F263
:105A80000698024245D038F9020B6D1CA0EB090CB8
:105A90000498002818BFCCF1000C480803905EF869
:105AA0002000CA074FEAD26A029020FA0AF082B2B6
:105AB000C2F30420D3B212F4005F03D0BCF1000F94
:105AC00003DB04E0BCF1000F01DD9C1B00E09C192E
:105AD000BC4205DD1F283ABF0024401C3C4606E0BE
