:100000000110010020000000203A0000FF00000065
:10001000021CA143D42043F42022FF0234EC300020
:100020000D7F011237A490011F7401F0800B7F0136
:1000300012366C90011F7402F075BF0F43B9205344
:10004000B9FD43BA0143B901D2D822022827AB0730
:10005000AA06D3EB9DEA9C4007EB9DFFEA9CFE229B
:10006000C3ED9BFFEC9AFE22FFFFFF0222F8BB01CB
:100070000689828A83E0225002E722BBFE02E32245
:1000800089828A83E49322EF8DF0A4A8F0CF8CF0CC
:10009000A428CE8DF0A42EFE22C5F0F8A3E028F00F
:1000A000C5F0F8E582158270021583E038F022EF82
:1000B0002BFFEE3AFEED39FDEC38FC22C3EF9BFF3F
:1000C000EE9AFEED99FDEC98FC22E88FF0A4CC8B23
:1000D000F0A42CFCE98EF0A42CFC8AF0EDA42CFCFE
:1000E000EA8EF0A4CDA8F08BF0A42DCC3825F0FD3D
:1000F000E98FF0A42CCD35F0FCEB8EF0A4FEA9F036
:10010000EB8FF0A4CFC5F02ECD39FEE43CFCEAA481
:100110002DCE35F0FDE43CFC2275F008758200EF31
:100120002FFFEE33FECD33CDCC33CCC58233C58229
:100130009BED9AEC99E58298400CF582EE9BFEEDE2
:100140009AFDEC99FC0FD5F0D6E4CEFBE4CDFAE4B1
:10015000CCF9A88222B800C1B90059BA002DEC8BA5
:10016000F084CFCECDFCE5F0CBF97818EF2FFFEE81
:1001700033FEED33FDEC33FCEB33FB10D70399403A
:1001800004EB99FB0FD8E5E4F9FA227818EF2FFF7A
:10019000EE33FEED33FDEC33FCC933C910D7059BBC
:1001A000E99A4007EC9BFCE99AF90FD8E0E4C9FA18
:1001B000E4CCFB2275F010EF2FFFEE33FEED33FDA4
:1001C000CC33CCC833C810D7079BEC9AE899400AC7
:1001D000ED9BFDEC9AFCE899F80FD5F0DAE4CDFB45
:1001E000E4CCFAE4C8F922EB9FF5F0EA9E42F0E98C
:1001F0009D42F0EC6480C864809845F022EB9FF546
:10020000F0EA9E42F0E99D42F0E89C45F022E86069
:100210000FECC313FCED13FDEE13FEEF13FFD8F14B
:1002200022E86010ECA2E713FCED13FDEE13FEEFE5
:1002300013FFD8F022E8600FEFC333FFEE33FEED7B
:1002400033FDEC33FCD8F122BB010789828A83029B
:1002500002AF5005E9F8020395BBFE05E9F802027A
:10026000BB22E6FC08E6FD08E6FE08E6FF22E0FC0D
:10027000A3E0FDA3E0FEA3E0FF22E2FC08E2FD080C
:10028000E2FE08E2FF22E0F8A3E0F9A3E0FAA3E02F
:10029000FB22E2FB08E2F908E2FA08E2CBF822BB13
:1002A000010789828A830202765005E9F802037801
:1002B000BBFE05E9F802028289828A83020385EC8B
:1002C000F0A3EDF0A3EEF0A3EFF022ECF208EDF2D4
:1002D00008EEF208EFF222A8828583F0D083D08264
:1002E0001202DE1202DE1202DE1202DEE473E49378
:1002F000A3C583C5F0C583C8C582C8F0A3C583C59F
:10030000F0C583C8C582C822D083D082E493F208A6
:10031000740193F208740293F208740393F2740464
:1003200073A42582F582E5F03583F58322FAE6FB96
:100330000808E6F925F0F618E6CA3AF622E0FBA32B
:10034000E0FAA3E0F922EBF0A3EAF0A3E9F022E45B
:1003500093FB740193FA740293F922EC8EF0A4CC0F
:10036000C5F0CCCDF8EFA4CEC5F02DFDE43CFCE803
:10037000A42EC8C5F03DFDE43CFCEFA4FFE5F02849
:10038000FEE43DFDE43CFC22E6FB08E6F908E6FA63
:1003900008E6CBF822E493F8740193F9740293FA17
:1003A000740393FB22ECF608EDF608EEF608EFF680
:1003B00022AB07E4900156F0A31202C70000000030
:1003C000EB70030204A5123896E4900154F09001FA
:1003D00054E0FFC39401501DEF25E025E024EBF528
:1003E00082E43400F5831202C7000000009001543B
:1003F000E004F080D912382AE4900154F0900154BE
:10040000E0FFC39401503DEF25E025E024EBF582A9
:10041000E43400F583C083C082120276C0009001EC
:1004200054E02428F582E43401F583E0FF12319989
:10043000D00012009FD082D0831202AF900154E00E
:1004400004F080B9900156E004F0E0C3940540A5A3
:10045000E4900154F0900154E0FBC39401505674B1
:100460002D2BF8E6FFE4FCFDFEEB25E025E024EB78
:10047000F582E43400F5831202761200BAC00790C8
:100480000156E0FFFBE4FAF9F8D0071201457807BE
:100490001201FE9001571202AF90015712025E90B6
:1004A0000154E025E025E0242EF81202BB9001540F
:1004B000E004F080A0E4900154F0E4900155F09045
:1004C0000154E0FB25E025E0242EF812026AEB75CA
:1004D000F014A424ACF582E43400F583C083C08218
:1004E000900155E0D082D08375F0041203111202FE
:1004F000AF900155E004F0E0B405C4900154E0254C
:10050000E025E0242EF812026AE47B05FAF9F812DD
:1005100000BA900154E0FB25E025E024C0F582E418
:100520003400F5831202AFEB25E025E024C0F5820C
:10053000E43400F58312025EC004C005C006C007A3
:1005400090015F1202C700010000900154E025E015
:1005500025E02490F582E43400F58312025E9001D8
:10056000631202AFD007D006D005D004121FE89066
:100570000154E0FB25E025E024C4F582E43400F5D5
:10058000831202AFEB25E025E024C4F582E43400B9
:10059000F58312025EEF24D0FFEE348AFEED34FFC5
:1005A000FDEC34FFFCEB25E025E024A8F582E434E3
:1005B00000F5831202AFEB25E024C8F582E4340095
:1005C000F5837475F0A37430F0EB25E024CAF5824E
:1005D000E43400F5837475F0A37430F0EB25E02467
:1005E000CAF582E43400F583E0FEA3E0FFE4FCFDFD
:1005F0007804120225EB25E025E024CCF582E434D2
:1006000000F5831202AFEB25E02432F87475F2088E
:100610007430F2EB25E02436F8E4F208F2EB25E042
:100620002434F87475F2087430F2EB25E025E024E8
:10063000EBF582E43400F5831202C700000000EB02
:1006400025E024F1F582E43400F583E4F0A3F09092
:1006500000D0F0900155F0900154E0FB25E025E03A
:1006600024C0F582E43400F58312025EEB75F014C9
:10067000A424D1F582E43400F583C083C0829001C4
:1006800055E0D082D08375F0041203111202AF90AE
:100690000155E004F0E0B405BEE49000E5F09001FF
:1006A00054E0FB25E025E024C0F582E43400F58326
:1006B00012025EEB25E025E024E6F582E43400F545
:1006C000831202AF900154E025E02418F582E4344F
:1006D00001F583E4F0A3F0900154E004F0E0C3944A
:1006E0000150030204AA22E4900151F0900151E06C
:1006F000FB25E025E024C0F582E43400F5831202F6
:100700005E9001561202AF90015612025EEB75F038
:1007100014A424ACF582E43400F583C083C0829035
:1007200000D0E0D082D08375F0041203111202765B
:100730001200AC9001561202AF90015612025E9068
:100740000151E025E025E0242EF812028212009FDC
:100750009001561202AF900151E0FB25E025E02404
:100760002EF812026AEB75F014A424ACF582E4347E
:1007700000F583C083C0829000D0E0D082D0837522
:10078000F0041203111202AF90015612025E9001A2
:1007900051E025E025E024C0F582E43400F5831221
:1007A00002AF900151E004F0E0640160030206DC56
:1007B0009000D0E004F0E075F00584E5F0F0E490FE
:1007C0000151F0900151E0FFC3940140030209EF91
:1007D000EF25E025E024C0F582E43400F583120221
:1007E0005EC004C005C006C00790015F1202C700CA
:1007F000010000900151E025E025E02490F582E41D
:100800003400F58312025E9001631202AFD007D06C
:1008100006D005D004121FE8900151E0FB25E02529
:10082000E024C4F582E43400F5831202AFEB25E046
:1008300025E024A8F582E43400F58312025EAB07BC
:10084000AA06A905A804900151E025E025E024C4EA
:10085000F582E43400F58312025E1200AC9001527E
:100860001202AFE4FFFEFDFC900152120276C312A9
:1008700001D750037F0222E47FFF7EFFFDFC900141
:1008800052120276D31201D7400A9001521202C7C7
:100890000000FFFF90015212025E900151E0FD2521
:1008A000E024C8F582E43400F583EEF0A3EFF0ED28
:1008B00025E024CAF582E43400F583E0FEA3E0FFDE
:1008C000ED25E024C8F582E43400F583E0FCA3E0E4
:1008D000FD12003EAC06AD07900151E0FB25E0247F
:1008E0008AF582E43435F583E493C313FE740193EF
:1008F00013FFD3ED9FEC9E4053900151E0FF25E0A4
:1009000024C8F582E43400F583E0FCA3E0FDEF2584
:10091000E024CAF582E43400F583ECF0A3EDF0EBBB
:1009200025E024C8F582E43400F583E0FEA3E0FF6F
:10093000E4FCFD7804120225EB25E025E024CCF54B
:1009400082E43400F5831202AF0209C730064590F5
:100950000151E075F004A424CCF9740035F0FA7B61
:1009600001E025E024C8F582E43400F583E0FEA32D
:10097000E0FFE4FCFD9001617404F0122EF8900198
:1009800051E025E024CAF582E43400F583EEF0A3BB
:10099000EFF08043900151E075F004A424CCF97489
:1009A0000035F0FA7B01E025E024C8F582E434004C
:1009B000F583E0FEA3E0FFE4FCFD9001617420F00C
:1009C000122EF8900151E025E024CAF582E43400AB
:1009D000F583EEF0A3EFF0900151E0FF25E024CA8B
:1009E000F582E43400F583E0F8A3E0FDEF25E02490
:1009F00032C8F208EDF2900151E004F00207B37F33
:100A00000622900150EEF0A3EFF0E4900153F0A322
:100A1000F0A3F090011DE0FFA3E0900154CFF0A3FC
:100A2000EFF0E4900152F0900152E0FBC3940240D9
:100A300003020B9590019EE0701690011AE0B4033A
:100A40000FD390010DE0940090010CE09400402C35
:100A5000900152E0FF25E0245BF582E43400F58349
:100A6000E4F0A3F0EF25E025E0244FF582E4340024
:100A7000F5831202C700000000020B8CEB25E02476
:100A80005BF582E43400F583E0FEA3E04E70229033
:100A90000152E0FF25E02410F8E2FC08E2FDEF251A
:100AA000E02457F582E43400F583ECF0A3EDF08008
:100AB00079900152E0FD25E02457F582E43400F5F9
:100AC00083E0FEA3E0FFED25E02410F8E2FC08E25D
:100AD000FD12003EC3900155E09F900154E09E50EE
:100AE00049900152E0FF25E02410F8E2FC08E2FD05
:100AF000EF25E02457F582E43400F583ECF0A3ED14
:100B0000F0900152E0FF25E0245BF582E43400F52B
:100B100083E4F0A3F0EF25E025E0244FF582E434F0
:100B200000F5831202C700000000900152E0FF258B
:100B3000E02410F8E2FC08E2FDEF25E025E0244F78
:100B4000F582E43400F583C083C082120276AE04DD
:100B5000AF05E4FCFD12009FD082D0831202AF905B
:100B60000152E0FF25E0245BF582E43400F583E4E4
:100B700075F001120089EF25E0245BF582E4340072
:100B8000F583E0FEA3E0FF900150E0FCA3E0FDC38D
:100B9000EF9DEE9C4006900153E004F0900152E07E
:100BA00004F0020A17900153E064026003020C1E75
:100BB000900152F0900152E0FFC394025070EF2573
:100BC000E0245BF582E43400F583E0FEA3E0FF4E11
:100BD000605CAB07AA06E4F9F8900152E025E02535
:100BE000E0244FF582E43400F58312025E120145E1
:100BF000900152E0FD25E02414F8EEF208EFF2ED4A
:100C000025E0245BF582E43400F583E4F0A3F0ED05
:100C100025E025E0244FF582E43400F5831202C775
:100C200000000000C218900152E004F0808622907B
:100C30000151EEF0A3EFF0E4A3F0900153E0FFC305
:100C400094014003020E3B74017E00A80708800552
:100C5000C333CE33CED8F9FF9001A0E0FDE4FAEF24
:100C60005DFB703A900153E0FF241BF582E43401F0
:100C7000F583E0B4052874EA2FF582E43400F583A7
:100C8000E0707A900153E025E0240EF582E434010F
:100C9000F583E0FEA3E0D39400EE9400405F900162
:100CA00053E0FF25E024F1F582E43400F583E4F01D
:100CB000A3F0EF25E025E024EBF582E43400F58392
:100CC0001202C70000000090008012025E90007CBB
:100CD0001202AFEB4A7003020E32900153E0FF257F
:100CE000E02410F582E43401F583E4F0A3F074010C
:100CF0002FF582E43401F583E4F0020E32900153C3
:100D0000E025E025E024EBF582E43400F583C083A0
:100D1000C082120276C000900153E025E02432F830
:100D2000E2FE08E2FFE4FCFDD00012009FD082D07A
:100D3000831202AF900153E0FF25E024F1F582E435
:100D40003400F583E475F001120089EF25E024F109
:100D5000F582E43400F583E0FEA3E0FF900151E06A
:100D6000FCA3E0FDC3EF9DEE9C504A90007C120274
:100D70005E9001581202AF90008012025E1236346B
:100D8000E47B78FAF9F8C31201ED4029A20B300692
:100D900001B34021900153E0FF24EAF582E43400DE
:100DA000F583E0701074012FF582E43401F583E0DF
:100DB0007003020E32900153E025E024F1F582E445
:100DC0003400F583E0FEA3E0FFFBAA06E4F9F89007
:100DD0000153E025E025E024EBF582E43400F583BF
:100DE00012025E120145900153E0FD25E02434F823
:100DF000EEF208EFF2ED25E024F1F582E43400F59F
:100E000083E4F0A3F0ED25E025E024EBF582E43463
:100E100000F5831202C70000000090008012025EFD
:100E200090007C1202AF900153E0FF24EAF582E4C7
:100E30003400F583E4F074012FF582E43401F58386
:100E4000E4F0900153E004F0020C2A22E4900155F2
:100E5000F0EF60631238969000991202C70000000C
:100E60000012382A900099120276C000900124E006
:100E7000FF123199D00012009F9000991202AF909A
:100E80000155E004F0E0C3940540D6782CE6FFE479
:100E9000FCFDFE9000991202761200BAC007900184
:100EA00055E0FFFBE4FAF9F8D00712014578071284
:100EB00001FE78241202BBE4900154F0900154E04A
:100EC000FBC39405501E782412026AEB25E025E04E
:100ED0002464F582E43400F5831202AF900154E0FB
:100EE00004F080D8E47F05FEFDFC78241202821213
:100EF00000BA9000781202AF90007812025E900063
:100F0000801202AF90007812025E780412022590DF
:100F100000841202AF90008012025E90007C1202E8
:100F2000AFE4900154F0900154E0FFC394014003FA
:100F300002100CEF25E025E02490F582E43400F562
:100F40008312025EE4FBFAF9F8C31201ED600302BA
:100F5000100390008012025E9000881202AF900091
:100F60008812025EAB07AA06A905A804900154E006
:100F700025E024B2F582E43435F583E493FE740170
:100F800093FFEE3395E0FDFC1200BA780A120211CD
:100F9000900154E0FB25E025E0248CF582E4340048
:100FA000F5831202AFEB25E025E0248CF582E434D2
:100FB00000F58312025E90008812027612009FC034
:100FC00004C005C006C007900154E025E025E024D8
:100FD0008CF582E43400F58312025E9000801202E8
:100FE0007612009F90015F1202AF9001631202C758
:100FF00000010000D007D006D005D004121FE890F1
:101000000154E025E025E02490F582E43400F583E6
:101010001202AF900154E004F0020F16900080120B
:10102000025EEF24D0FFEE348AFEED34FFFDEC3497
:10103000FFFC9000941202AF78287475F2087430A7
:10104000F2E4900098F022E4900151F0EF70030276
:101050001135123896E4900150F0900150E0FFC332
:101060009402501DEF25E025E0244FF582E4340082
:10107000F5831202C700000000900150E004F080E8
:10108000D912382AE4900150F0900150E0FFC39447
:1010900002503DEF25E025E0244FF582E43400F5D1
:1010A00083C083C082120276C000900150E02420E9
:1010B000F582E43401F583E0FF123199D00012008B
:1010C0009FD082D0831202AF900150E004F080B92B
:1010D000900151E004F0E0C3940540A5E490015074
:1010E000F0900151E0FFFBE4FAF9F8900150E0259F
:1010F000E025E0244FF582E43400F58312025E120D
:101100000145C004A905AA06AB07900150E0242AB6
:10111000F8E6FFE4FCFDFED0001200BA9001521286
:1011200002AF90015212025E78071201FE90015048
:10113000E025E025E02408F81202BB900150E0040D
:10114000F0E0B4029CE4900150F0900150E0FFC345
:1011500094024003021226EF25E025E02408F8124D
:10116000026AE47B107A27F9F8C31201ED5042902D
:101170000150E0FB25E025E02408F812026AEF2484
:10118000F0FFEE34D8FEED34FFFDEC34FFFCEB2530
:10119000E025E0243BF582E43400F5831202AF90B1
:1011A0000150E025E02410F87427F2087410F28052
:1011B00032900150E0FB25E025E0243BF582E43449
:1011C00000F5831202C700000000EB25E025E024B3
:1011D00008F812026A900150E025E02410F8EEF2BF
:1011E00008EFF2900150E0FB25E025E0244FF58266
:1011F000E43400F5831202C700000000EB25E02470
:101200005BF582E43400F583E4F0A3F0900150E054
:10121000FF25E02410F8E2FC08E2FDEF25E02414AD
:10122000F8ECF208EDF2E025E02418F8E4F208F218
:10123000E004F002113A22E4900150F0A3F0A3F090
:10124000FCA3F020CA030214127896E6700302147D
:1012500012E4900150F0900150E0FE2496F8E6FD73
:1012600074942EF582E43401F583EDF0E4F69001F8
:1012700050E004F0E0B40ADE900194E0FE54F0FC8B
:10128000EE540F900153F0AF04EF2480602D24F052
:10129000700302132924F070030213DA24F07003A0
:1012A00002135A24F0700302140F24506003021436
:1012B00012E4FF12392B7829A60722900195E07FCE
:1012C00000FE900151F0A3EFF0900196E0FDEEEDED
:1012D000FF900151EEF0A3EFF0D3940AEE9400409A
:1012E00003021412900153E0FFB40F2DE49001505B
:1012F000F0900150E0FEC394024003021412A3E0F8
:10130000FCA3E0FDEE75F008A42434F8A60408A6BA
:1013100005900150E004F080D8EFC394024003022E
:101320001412900151E0FEA3E0FFA3E075F008A4C1
:101330002434F8A60608A60722900153E0FF701196
:101340007827E6FE20E10302141254FDF6751C0214
:1013500022EF640160030214127827E6FF30E103F4
:101360000214124402F6751C0222900153E0FF7031
:101370003A7827E654DFF6E4900150F0900150E00F
:10138000FE25E02482F582E43435F583E493FC7491
:101390000193FDEE75F008A42434F8A60408A60510
:1013A000900150E004F0E0B402D222EF64017072C8
:1013B0007827E64420F6E4900150F0900150E0FFD9
:1013C00025E0249AF582E43435F583E493FC740136
:1013D00093FDEF75F008A42434F8A60408A6059040
:1013E0000150E004F0E0B402D222900153E0FD701D
:1013F000157827E6FE30E22A54FBF690011CE04403
:1014000008F0751C0222EDB401187827E6FF20E2EF
:10141000114404F690011CE04404F0751C022212F1
:1014200034A022E4900150F0900150E0FE75F008E5
:10143000A4243AFBEE25E025E02408F812026A789D
:10144000041201FEAD07AC06AF031239D79001506C
:10145000E0FE75F008A42438FFEE25E02418F8E239
:10146000FC08E2FD1239D7900150E0FE75F008A4A7
:101470002436FFEE25E0241CF8E2FC08E2FD1239D8
:10148000D7900150E004F0E0C39402409BE4900147
:1014900050F0900150E0FEC454F02454FFEE25E0DB
:1014A000248AF582E43435F583E493FC740193FDDA
:1014B0001239D7900150E0FEC454F02456FFEE25B7
:1014C000E0248AF582E43435F583740193249CFD8D
:1014D000E49334FFFC1239D7900150E0C454F02457
:1014E00058FF7D647C001239D7900150E0FEC4544F
:1014F000F0245EFFEE25E02432F8E2FC08E2FD1263
:1015000039D7900150E0FB25E025E024C0F582E4C6
:101510003400F58312025E780A1201FEEBC454F027
:101520002462F8A607300F3E900150E0C454F02426
:1015300060FFC007782012026AAD07AC06D0071220
:1015400039D7900150E0C454F0245AFF7D397C30E3
:101550001239D7900150E0C454F0245CFF7D397CEF
:10156000301239D7804B900150E0FEC454F0246013
:10157000FFEE25E02434F8E2FC08E2FD1239D790B2
:101580000150E0FEC454F0245AFFEE25E02438F860
:10159000E2FC08E2FD1239D7900150E0FEC454F09D
:1015A000245CFFEE25E02436F8E2FC08E2FD123967
:1015B000D7900150E004F0E0C3940150030214827C
:1015C0007827E6F52222E4900152F0A31202C70028
:1015D000000000E4900151F0900151E0FFC394013C
:1015E00040030217459000FDE060030216B290012F
:1015F00003E09400900102E09400500302166DEFA6
:1016000025E025E024E6F582E43400F58312025E4D
:10161000AB07AA06A905A804900151E025E025E042
:1016200024C0F582E43400F58312025E1200AC900F
:1016300001531202AF900151E025E0248AF582E4C3
:101640003435F58374019325E0FFE49333FEE4FC25
:10165000FD900153120276D31201D7500302173CBA
:10166000900152E0FF900151E0FE7401A80608804D
:1016700002C333D8FC4F900152F002173C90015145
:10168000E0FF25E0248AF582E43435F583E493FC19
:10169000740193FDEF25E02439F9C3E39D19E39C20
:1016A000500302173C900152E0FF900151E0FE749C
:1016B00001A806088002C333D8FC4F900152F00203
:1016C000173C300D44900151E0FD25E0248AF5825D
:1016D000E43435F58374019325E0FFE49333FEEDA4
:1016E00025E02439F9C3E39F19E39E405F9001523E
:1016F000E0FF900151E0FE7401A806088002C333A8
:10170000D8FC4F900152F08043900151E0FF25E05A
:10171000248AF582E43435F583740193249CFDE436
:101720009334FFFCEF25E02439F9C3E39D19E39CD2
:10173000401A900152E0FF900151E0FE7401A806AA
:10174000088002C333D8FC4F900152F0900151E061
:1017500004F00215C8900152E09001A0F022900020
:101760007812025E9001521202AF90015212025E94
:10177000900098E025E025E02464F582E43400F54B
:10178000831202761200AC9001521202AF90015205
:1017900012025E782412028212009F9001521202FD
:1017A000AF782412026A900098E025E025E02464D6
:1017B000F582E43400F5831202AF900098E004F063
:1017C000E075F00584E5F0F090015212025E9000A1
:1017D000781202AF7B017A00798490007812025E61
:1017E0009001617420F0122EF89000801202AFD3A5
:1017F00090010BE0940090010AE09400400C9000EE
:101800008012025E9000881202AFE4900151F090C5
:10181000008812025EAB07AA06A905A80490015130
:10182000E025E024B2F582E43435F583E493FE74D8
:101830000193FFEE3395E0FDFC1200BA780A120224
:1018400011900151E0FB25E025E0248CF582E43481
:1018500000F5831202AFEB25E025E0248CF582E44D
:101860003400F58312025E90008812027612009F07
:101870009001521202AF900151E025E025E0248C46
:10188000F582E43400F58312025E90008012027645
:1018900012009F90015F1202AF9001631202C70015
:1018A00001000090015212025E121FE8900151E007
:1018B00025E025E02490F582E43400F5831202AFA0
:1018C000900151E004F0E0C3940150030217FF902F
:1018D000009412025EAB07AA0690008012025EC35B
:1018E000EF9B7829F2EE9A18F27F0622E4FD30157C
:1018F00026ED25E0249AF582E43435F583E493FE61
:10190000740193FFED25E02450F582E43401F58362
:10191000EEF0A3EFF08024ED25E02482F582E4349C
:1019200035F583E493FE740193FFED25E02450F533
:1019300082E43401F583EEF0A3EFF0ED25E02447D7
:10194000F582E43400F583E0FEA3E0FFED25E0241A
:101950001DF9D3E39F19E39E401CED25E0241CF8FC
:10196000E2FE08E2FFED25E02447F582E43400F5CD
:1019700083EEF0A3EFF0ED25E02450F582E434018E
:10198000F583E0C313FEA3E013FFED25E0241DF96A
:10199000D3E39F19E39E504EED25E02450F582E4F9
:1019A0003401F583E0FEA3E0FFED75F008A42434D4
:1019B000F8A60608A607ED25E02450F582E43401D8
:1019C000F583A3E025E0FF0582D582021583158209
:1019D000E033FEED25E02447F582E43400F583EEA4
:1019E000F0A3EFF08042ED25E02492F582E4343557
:1019F000F583E493FE740193FFED25E0241DF9D3F4
:101A0000E39F19E39E4021ED25E02447F582E4346D
:101A100000F583E0C313FEA3E013FFED75F008A407
:101A20002434F8A60608A6070DED64026003021828
:101A3000DE229001507407F0A3F0A31202C7000049
:101A40000000123896900150E0FF602074017E0083
:101A5000A807088005C333CE33CED8F9FFADACE478
:101A6000EF5D7008900150E014F080D9900151E0D2
:101A7000FF602074017E00A807088005C333CE33C1
:101A8000CED8F9FFADAEE4EF5D7008900151E014DF
:101A9000F080D9900150E0FF7401A807088002C3CC
:101AA00033D8FCF5AC900151E0FF7401A807088021
:101AB00002C333D8FCFFF5AD8FAE53AACF90015AC5
:101AC000E5BAF053BA0F43BA1012382AE490015025
:101AD000F0900151E02420F582E43401F583E0FF29
:101AE0001231999001561202AF90015612025E9087
:101AF0000152120276C31201ED500C9001561202EF
:101B00005E9001521202AF900150E004F0E0C394E5
:101B10000240BE900152120276C0009001521202A1
:101B20005E78031201FED00012009F900152120253
:101B3000AF90015212025E90005F1202AF9001520C
:101B400012025E78101201FE8FB390015212025EF3
:101B500078081201FE8FB290015212025E8FB143DB
:101B6000AA3090015AE0F5BA75AC0375ADC075AEF8
:101B7000C022123896900156E5BAF053BA0F43BA14
:101B800010E4900150F0900150E0FFC39402501710
:101B9000EF25E025E02400F81202F8000000009094
:101BA0000150E004F080DF9001507405F075ABFF48
:101BB00012382AE4900151F0900151E0FFC39402E1
:101BC0005047EF25E025E02400F8C00012026AC06B
:101BD00004C005C006C007900151E02420F582E44E
:101BE0003401F583E0FF123199A804A905AA06ABD8
:101BF00007D007D006D005D00412009FD0001202F3
:101C0000BB900151E004F080AFE4F5AB12382AE458
:101C1000900151F0900151E0FFC394025047EF252D
:101C2000E025E02400F8C00012026AC004C005C02C
:101C300006C007900151E02420F582E43401F583C9
:101C4000E0FF123199A804A905AA06AB07D007D076
:101C500006D005D0041200ACD0001202BB90015196
:101C6000E004F080AF900150E014F0E06003021B4C
:101C70009DE4900151F0900151E0FBC39402502A81
:101C8000A31202C700148200EB25E025E02400F82F
:101C900012028290015212025E120145900151E03F
:101CA000242AF8A607E004F080CC900156E0F5BAAB
:101CB00022439F04E453C6DFE5C600B5C6F375832F
:101CC0000075820775FD0DE4E5FEF4FF7583007570
:101CD000820675FD0DE4E5FEB50704F59E800375EB
:101CE0009E0078100000D8FC53C6E043C60843C6E7
:101CF0008075960775970575830075820475FD0DCF
:101D0000E5FD0404F58F75830075820375FD0DE410
:101D1000E5FEF4FF75830075820275FD0DE4E5FEB6
:101D2000B50704F595800375958375BE0E5392FE35
:101D30009001007F007E02E4F0A3DFFCDEFA780071
:101D40007F00E4F208DFFC78FFE4F6D8FD7581A49B
:101D5000021D81020000022C42E493A3F8E493A345
:101D60004003F68001F208DFF48029E493A3F854DD
:101D700007240CC8C333C4540F4420C8834004F460
:101D800056800146F6DFE4800B0102040810204073
:101D9000809033B6E47E019360BCA3FF543F30E5EE
:101DA00009541FFEE493A360010ECF54C025E060E8
:101DB000A840B8E493A3FAE493A3F8E493A3C8C5B6
:101DC00082C8CAC583CAF0A3C8C582C8CAC583CAA7
:101DD000DFE9DEE780BE9001507407F0FBA312023A
:101DE000C700000000123896900150E0FF60207498
:101DF000017E00A807088005C333CE33CED8F9FF93
:101E0000ADACE4EF5D7008900150E014F080D9EBC8
:101E1000601B74017E00A803088005C333CE33CE57
:101E2000D8F9FFADAEE4EF5D70031B80E290015086
:101E3000E0FF7401A807088002C333D8FCF5AC7436
:101E400001A803088002C333D8FCFFF5AD8FAE5361
:101E5000AACF900159E5BAF053BA0F43BA1012381D
:101E60002AE4900150F0900150E0FFC39401503BF0
:101E700074282FF582E43401F583E0FF1231999044
:101E800001551202AF90015512025E9001511202EB
:101E900076C31201ED500C90015512025E90015173
:101EA0001202AF900150E004F080BB900151120289
:101EB00076C00090015112025E78031201FED0003C
:101EC00012009F9001511202AF90015112025E90D8
:101ED00000F31202AF43AA30900159E0F5BA75AC95
:101EE0000375ADC075AEC0229001511202C700004B
:101EF0000000300079E4900150F0900150E0FB24A4
:101F00002AF8E6FFE4FCFDFEEB25E025E02400F8DE
:101F10001202821200BA78071201FE900150E0FB13
:101F200025E025E02408F81202BBEB25E025E0249B
:101F30003BF582E43400F58312025EEB25E025E0F8
:101F40002408F8120282C31201ED4014900150E0FF
:101F500025E025E02408F812026AEC4D4E4F70038C
:101F60007F0222900150E004F0E06402708C782C33
:101F7000E6FFE4FCFDFE78201202821200BA780728
:101F80001201FE78241202BB782412026AEC4D4E34
:101F90004F70037F0222E4900150F0900150E0FB6B
:101FA000242DF8E6FFE4FCFDFEEB25E025E0242AE5
:101FB000F81202821200BA78071201FE9001511243
:101FC00002AF90015112025E900150E0FB25E02526
:101FD000E0242EF81202BBEB25E025E0242EF812B7
:101FE000026AEC4D4E4F70037F0222900150E004D4
:101FF000F0E0B401A67F052290015B1202AFE47B02
:10200000E87A03F9F890015B12025E120145900133
:102010006B1202AFE47FE87E03FDFC90016B1202BD
:10202000761200BAA804A905AA06AB0790015B12B4
:10203000025E1200AC90016F1202AF9001631202B7
:102040005E90016B1202761200BA9001671202AF25
:1020500090015F12027690016712025E12014590B4
:1020600001731202AF90015F12025E9001731202BF
:10207000761200BAA804A905AA06AB079001671258
:10208000025E1200AC9001771202AF90016312025F
:102090005E90016F1202761200BA9001671202AFD1
:1020A000900167120276C000C001C002C003E47F45
:1020B000E87E03FDFC9001771202761200BAD0038D
:1020C000D002D001D00012009F9001671202AF90A1
:1020D000015F12027690016712025E1201459001C3
:1020E0007B1202AFE47FE87E03FDFC9001731202D5
:1020F000761200BA90017B12027612009F22E4FF52
:10210000D390010BE0940090010AE0940040077422
:10211000FFF5F0120089D390010DE0940090010CBE
:10212000E09400400774FFF5F0120089D390011588
:10213000E09400900114E09400401374FFF5F01255
:102140000089900114E07002A3E07002D2059001B2
:1021500004E475F001120089E4FFEF25E0240EF598
:1021600082E43401F583E0FCA3E0D39400EC940016
:102170004013EF25E0240EF582E43401F58374FF6B
:10218000F5F0120089EF25E02410F582E43401F522
:1021900083E0FCA3E0D39400EC94004033EF25E00F
:1021A0002410F582E43401F58374FFF5F012008900
:1021B000EF25E02410F582E43401F583E0FCA3E090
:1021C0004C700D74012FF582E43401F5837401F035
:1021D0000FEF64017084D3900113E094009001121A
:1021E000E09400400774FFF5F0120089D3900103DA
:1021F000E09400900102E09400400774FFF5F012B3
:10220000008922E4900150F07824F6FF12392B90D7
:102210000150EFF0BFFF067825760180047825761F
:10222000FF78267620E408F6782976FFFFEF25E090
:102230002482F582E43435F583E493FC740193FD44
:10224000EF75F008A42434F8A60408A605EF75F08D
:1022500008A42436F8E4F608F6EF75F008A424384C
:10226000F8E4F608F6EF75F008A4243AF8E4F60866
:10227000F60FEFB402B7E4FFEF25E0248AF582E41D
:102280003435F583E493FC740193FDEFC454F024DA
:1022900054F8A60408A605EF25E0248AF582E43464
:1022A00035F583740193249CFDE49334FFFCEFC463
:1022B00054F02456F8A60408A605EFC454F0245898
:1022C000F87600087664EFC454F0245AF8E4F6086F
:1022D000F6EFC454F0245CF8E4F608F6EFC454F0CA
:1022E000245EF8E4F608F6EFC454F02460F8E4F64F
:1022F00008F6EFC454F02462F8E4F60FEF640160CE
:102300000302226875182422C0E0C0F0C083C08296
:10231000C0D075D008C2CFD20730CD030223D5304C
:10232000CB3A20CC3778A0A6CEE6FFC394804023DA
:1023300075F003EF902CF412031112033F8B198AEE
:102340001A891B7819E475F00112031D12005EF55D
:10235000CE800978A0E62518F8E6F5CE30CC437893
:10236000A0E6FFB4C006789676C08077EFB4C106C9
:1023700078967690806DEFB4C206789676918063F9
:10238000EFC3948040107819E475F00112031D1218
:10239000005EF5CE804D78A006E62518F8E6F5CE6D
:1023A000804120CB3E85CE1D78A0E6FF7024E51D40
:1023B000B410099001A1E0F452808027E51DB420FB
:1023C000089001A1E04280801A7896A61D78A006A8
:1023D0008011EFC3940A500878A0E62496F8A61D51
:1023E00078A006D205D0D0D082D083D0F0D0E03211
:1023F0007B077A079001501202C7000000001238D4
:1024000096EB601B74017E00A803088005C333CEE1
:1024100033CED8F9FFADACE4EF5D70031B80E2EA88
:10242000601B74017E00A802088005C333CE33CE42
:10243000D8F9FFADAEE4EF5D70031A80E2AF03742C
:1024400001A807088002C333D8FCF5AC7401A802C8
:10245000088002C333D8FCFFF5AD8FAE53AACF90EE
:102460000158E5BAF053BA0F43BA1012382A900156
:1024700024E0FF1231999001541202AF90015412DE
:10248000025E900150120276C31201ED500C9001D1
:102490005412025E9001501202AF90015012027667
:1024A000C00090015012025E78031201FED00012AB
:1024B000009F9001501202AF90015012025E9000F6
:1024C000A11202AF43AA30900158E0F5BA75AC03EF
:1024D00075ADC075AEC022E4900151F0900151E09D
:1024E000FF25E02414F8E2FC08E2FDEF25E02410CB
:1024F000F8E2FE08E2FFD39DEE9C401BE025E024BD
:1025000014F8E2FC08E2FDC3EF9DFFEE9CFEE4FC44
:10251000FDA31202AF800A9001521202C700000010
:102520000090015212025E780712022590015212A9
:1025300002AF900151E025E02418F8E2FE08E2FF26
:10254000E4FCFD78071202259001561202AF9000BC
:10255000F8E070247F03FEFDFC9001521202761217
:1025600000BA90015612027612009F78021201FE04
:102570009001561202AF801A90015212025E900131
:102580005612027612009F78011201FE9001561237
:1025900002AF90015612025E78071201FE900151BF
:1025A000E025E02418F8EEF208EFF2E004F0E06431
:1025B0000260030224CC22E4900151F0900151E02A
:1025C000FBC39401400302266FEB25E025E024C005
:1025D000F582E43400F58312025EEB75F014A42456
:1025E000D1F582E43400F583C083C0829000E5E039
:1025F000D082D08375F0041203111202AF90015300
:102600001202C700000000A20B300601B35067E4BD
:10261000900152F090015312025E900151E075F06A
:1026200014A424D1F582E43400F583C083C08290E1
:102630000152E0D082D08375F004120311120276A9
:1026400012009F9001531202AF900152E004F0E09B
:10265000B405C1E47B05FAF9F890015312025E1249
:102660000145900151E025E025E024E6F582E434BF
:1026700000F5831202AF900151E004F00225AC9006
:1026800000E5E004F0E075F00584E5F0F022123A90
:10269000039000FCEFF0122DEEEF700302275412AE
:1026A0002B0D7F02123775AD07AC06D390010BE0FE
:1026B000940090010AE09400400FED7805CEC3131A
:1026C000CE13D8F9FDAC06801DD3900103E0940031
:1026D000900102E09400400EECC4F854F0C868FC8D
:1026E000EDC4540F48FDAE04AF05120C1F9000FD61
:1026F000E0FFA3E06F606D122BADE4900150F0900D
:102700000150E0FFC39401505574017E00A80708F2
:102710008005C333CE33CED8F9FF9000FFE0FDE44F
:10272000EF5D60327F08123775900150E025E0249C
:102730000EF582E43401F583EEF0A3EFF07F111281
:102740003775900150E025E02410F582E43401F55E
:1027500083EEF0A3EFF0900150E004F080A1900030
:10276000FDE0A3F022122D65122FEE1238F4900036
:10277000F7EFF0123745EF70030228267F0112377A
:1027800075AD07AC06D390010BE0940090010AE010
:1027900094004010ECC4F854F0C868FCEDC4540F29
:1027A00048FD8030301810ECC4F854F0C868FCEDD7
:1027B000C4540F48FD801DC390004CE0941E90004F
:1027C0004BE09400500EECC4F854F0C868FCEDC423
:1027D000540F48FDAE04AF051209F29000F8E06016
:1027E000287F06123775D3900109E09F900108E019
:1027F0009E400AE49000F7F0A3F0123A139001080B
:10280000E475F0011200898007E4900108F0A3F05C
:102810009000F8E0FFA3E06F601C122CD69000F847
:10282000E0A3F0A3E054F0600D7F0712377590012C
:102830000CEEF0A3EFF022C0E0C0F0C083C082C075
:10284000D075D01053B9FD90011FE0640170459020
:10285000017FF090017FE0FFC39402502574202F88
:10286000F582E43401F583E0FF12319990017FE0B5
:1028700025E025E02400F81202BB90017FE004F07F
:1028800080D17F0112366C43B901D2D890011F74F8
:1028900002F0806690011FE0B4021F900124E0FF67
:1028A00012319978201202BB7F011237D143B9014E
:1028B000D2D890011F7406F0804090011FE064069A
:1028C000703890017FF090017FE0FFC394015025A4
:1028D00074282FF582E43401F583E0FF12319990DA
:1028E000017FE025E025E0242AF81202BB90017F59
:1028F000E004F080D190011FE4F0D0D0D082D083EA
:10290000D0F0D0E032E4900150F090011CE054038C
:102910006032C2057F0A123775900114EEF0A3EF02
:10292000F090011CE054FCF0C29278947600087696
:1029300096789408E6161886067001164E60030015
:1029400080EFD29290011CE0FF30E2179000FFE090
:10295000540FFE602A7833F6E47824F69001500490
:10296000F0801CEF30E3189000FFE0540FFF600F81
:10297000C454F07833F6E47824F690015004F090D3
:10298000011CE054F3F0200F31900150E0602BC2A5
:10299000057F0A123775900114EEF0A3EFF07894DA
:1029A0007600087696C292789408E6161886067025
:1029B00001164E60030080EFD29222900150120265
:1029C000C700000000E4900154F0123896900155C1
:1029D000E5BAF053BA0F43BA1078201202F800009B
:1029E00000009001547405F075ABFF12382A78206E
:1029F000120282C000900124E0FF123199D000122F
:102A0000009F78201202BBE4F5AB12382A7820121E
:102A1000026AC004C005C006C007900124E0FF128E
:102A20003199A804A905AA06AB07D007D006D0059E
:102A3000D0041200AC78201202BB900154E014F0D4
:102A4000E070A59001501202C7001A5E00782012B3
:102A5000028290015012025E120145782CA6079066
:102A60000155E0F5BA900124E090357993F5AB2259
:102A7000E4900150F0A3F0300717900106F0A37422
:102A80002DF07F0C123775900112EEF0A3EFF0C21B
:102A900007A206920B7827E6FF20E10330E20D90B3
:102AA0000106E4F0A3742DF0C2068038D390010B28
:102AB000E0940090010AE094005011900113E0941A
:102AC00000900112E09400500320050D900106E4EF
:102AD000F0A3742DF0C206800B900106E4F0A374FD
:102AE00003F0D206300608E4FF1236A41237FEA225
:102AF0000B300601B350179000FDE06004D20D804A
:102B00000D7F03123775900102EEF0A3EFF09000F5
:102B1000FDE07008300D031234A0C20D22E49001D4
:102B200051F0900151E0FF25E02434F8E2FC08E286
:102B3000FDEF25E02432F8E2FE08E2FFC39DEE9CA3
:102B4000503FE025E02435F8C3E29FFF18E29EFEE7
:102B5000D3EF9432EE94004015E025E02418F5827E
:102B6000E43401F583E475F00112008980139001CB
:102B700051E025E02418F582E43401F583E4F0A364
:102B8000F07F05123775900151E0FD25E02418F51E
:102B900082E43401F583E0FAA3E0D39FEA9E400D7E
:102BA00074EA2DF582E43400F5837401F09001514C
:102BB000E004F0E0C394015003022B122290015173
:102BC000EFF090011CE06003022C41F9FFFE74015C
:102BD000A806088002C333D8FCFD900151E05DFCDB
:102BE0009000FEE05D6C600D30010A200F0790013F
:102BF0001CE04402F09000FEE05DB50513EE2404F5
:102C0000FC7401A804088002C333D8FC49F9800D84
:102C10007401A806088002C333D8FC49F990015119
:102C2000E05DB5050F7401A806088002C333D8FC27
:102C30004FFF8011EE2404FD7401A805088002C333
:102C400033D8FC4FFF0EEE64017083E95F9000FF04
:102C5000F0221238D612399C1239F61221F31238AA
:102C60007412371112330BD2AF751C01E51C24FE10
:102C7000602224FE603114604314604D2405705AB4
:102C80001239121239591239B11239701239427F80
:102C900002123536D2D81230CE90011FE070FA12EF
:102CA000000E751C048036D2D890011FE070FA1215
:102CB0001ED88F1C122A6012000E80211234068F3B
:102CC0001C1214131220EE80143000031227551228
:102CD000267E123135751C048003751C01123A0CD6
:102CE000121227808722900150EFF090011CE060C3
:102CF00003022D64F9FFFE7401A806088002C333A5
:102D0000D8FCFD900150E05DFC9000F9E05D6C6046
:102D10000790011CE04401F09000F9E05DB5051357
:102D2000EE2404FC7401A804088002C333D8FC49D3
:102D3000F9800D7401A806088002C333D8FC49F954
:102D4000900150E05DB5050F7401A806088002C32C
:102D500033D8FC4FFF8011EE2404FD7401A8050850
:102D60008002C333D8FC4FFF0EEE64027089E95F26
:102D70009000FAF022781CE2FE08E2FF900150EE8B
:102D8000F0A3EFF0A3EEF0A3EFF07F01EF25E02436
:102D90001CF8E2FC08E2FDD3900151E09D90015047
:102DA000E09C400FEF25E0241CF8E2FD08E2CDF0A6
:102DB000A3EDF0EF25E0241CF8E2FC08E2FDC3904F
:102DC0000153E09D900152E09C500FEF25E0241C40
:102DD000F8E2FD08E2CDF0A3EDF00FEFB402AD9004
:102DE0000150E0FFA3E090004DCFF0A3EFF0900181
:102DF00052E0FFA3E090004BCFF0A3EFF022900150
:102E000051EFF0E4F99001527405F074017E00A8CE
:102E100001088005C333CE33CED8F9FF900151E0CD
:102E2000FDE4EF5DFD9000FDE0FBE4EF5B6D700104
:102E3000E46014900151E09000FDF0741B29F582CC
:102E4000E43401F583E4F09000FDE0700690015257
:102E50007402F0741B29F582E43401F583E004FF69
:102E6000F0900152E0FEEFC39E50037F0022741BDE
:102E700029F582E43401F5837405F009E9640170F1
:102E8000847F0122FE0010FE0028FE0032FE0014A6
:102E9000FE0034FE0018FE0036FE001CFE0038FE68
:102EA0000000FE0020FE002AFE0008FE0024FE00B6
:102EB0002E0100C00100C40100C80100CA01007851
:102EC00001008001008801009001019E01019F0125
:102ED00000F70100F80100FA0101A00100FC010067
:102EE000FD0100FF01010801010401010601010AC1
:102EF00001011201011401010A01011C010130014B
:102F0000013801014001014890015D1202AF9001BA
:102F10005A1203369001621202C7000000009001AD
:102F20005D12025E780412022590015D1202AF90DC
:102F30000161E024FFFFE434FFFEE4FCFD12028F98
:102F40001200BA90015D12027612009FC007900134
:102F500061E0FFFBE4FAF9F8D00712014590016245
:102F60001202AF90016212025E90015A12032D12FA
:102F7000023890016212025E78041201FE90016232
:102F80001202AF90016212025E22E4FBFE90003A50
:102F9000E0FD74202EF582E43401F583E09035796C
:102FA00093FCED4C90003AF00EEEB402E09000631A
:102FB000E0FF900124E090357993FDEF4D900063A0
:102FC000F0E4FE9000A5E0FF74282EF582E43401C1
:102FD000F583E090357993FDEF4D9000A5F00EEE6E
:102FE000B401E0900063E0FF90003AE04FFF9000F2
:102FF000A5E04FFB42D442F442E4F452DC22E490D8
:103000000150F0900150E0FF25E02414F8E2FC08A4
:10301000E2FDEF25E02410F8E2FE08E2FFC39DEE9A
:103020009C5043E025E02415F8C3E29FFF18E29E80
:10303000FE7C007D6412034BC006C007E025E0243F
:1030400043F582E43400F583E0FEA3E0FFFBAA062B
:10305000E4F9F8D007D006120145D3EF940AEE94B4
:10306000004003D21822900150E004F0E0B4029333
:1030700022E4900151F0900151E0FFC39402505BB3
:10308000EF25E025E0243BF582E43400F5831202CD
:1030900076C000900151E025E025E02408F81202F6
:1030A0006AD0001200AC9001521202AFE47FFF7EA2
:1030B000FFFDFC900152120276C31201ED40037F26
:1030C000022290015212025E900151E025E024108C
:1030D000F8EEF208EFF2E004F0809B7F06227827FA
:1030E000E6FF30E104D2008002C200EF30E204D2F9
:1030F000018002C201E4900104F0A3F0900180F08D
:10310000A3F0A202300001B35018A20092021231C3
:10311000FC30000BE4FF1237A40F121037800312AB
:103120003A1330080BE4FF1237A40F121037C2080D
:10313000A203300101B35004A20192033009051229
:1031400034A0C209229000FBE0FF9000FAE0FE6F7D
:10315000601D900100E0FD9000FFE0FC6D6010300C
:1031600000047824A6063001337833A604802D901D
:1031700000FAE0FE6F600D3000227824A606E478A5
:1031800033F68018900100E0FF9000FFE0FE6F60D2
:103190000B3001087833A606E47824F69000FAE0B4
:1031A000A3F09000FFE0A3F022EFC3940450055376
:1031B000B9EF800343B910EF6003B4040C78A2A602
:1031C000B708A6B608A6B5803DEF64016004EFB469
:1031D000050C78A2A6EB08A6EA08A6E98028EF6409
:1031E000026004EFB4060C78A2A6F308A6F208A6C3
:1031F000F18013EF64036004EFB4070A78A2A6FB22
:1032000008A6FA08A6F978A112025222E4FF90005B
:10321000F8F0A3F090011AF0900108F0A3F09001EB
:103220000CF0A3F09000FAF0A3F0F523EF25E024D2
:1032300043F582E43400F583E0FCA3E0FD90011D3A
:10324000EC8DF01200890FEFB402E190011DE0C394
:1032500013F0A3E013F090011DE0FEA3E07802CE8E
:10326000C313CE13D8F9F0EE90011DF022E49001C3
:1032700051F0900151E0FFC394025047EF25E02444
:1032800018F8E2FE08E2FF7C007D6412034BC006E2
:10329000C007E025E02443F582E43400F583E0FE36
:1032A000A3E0FFFBAA06E4F9F8D007D00612014517
:1032B000900151E025E0241CF8EEF208EFF2E00462
:1032C000F080AF22E4900151F0900151E0FFC394EF
:1032D000015047EF25E02436F8E2FE08E2FF7C00CB
:1032E0007D6412034BC006C007E025E024A6F582EA
:1032F000E43400F583E0FEA3E0FFFBAA06E4F9F85E
:10330000D007D006120145900151E025E02438F89D
:10331000EEF208EFF2E004F080AF22E4FFEF25E0E8
:1033200024A2F582E43435F583E493FC740193FD23
:10333000EF25E02443F582E43400F583ECF0A3EDBF
:10334000F00FEFB402D7E4FFEF25E024AAF582E402
:103350003435F583E493FC740193FDEF25E024A656
:10336000F582E43400F583ECF0A3EDF00FEFB40147
:10337000D722A907E4FFFEEEC394005014742C2E4C
:10338000F582E43401F583E0903579934FFF0E80A8
:10339000E6E96005EF42D48004EFF452D4EFF4FE86
:1033A00052F4EF42E4ED6005EF42EC8003EE52ECA4
:1033B000EFF4FE52DCEB6005EF42808003EE5280BA
:1033C0009001A1EFF022602900F70000000000004A
:1033D00000000000000000000000000000000000ED
:1033E00000000000000000000000000000000000DD
:1033F0000000004401200304FFFF44012400FFFFFC
:10340000FF44012807FFFFFF44012CFFFFFFFF04DB
:10341000A100000000009001507406F03000161268
:103420003061900150EFF0BF0205D208E0FF221298
:1034300024C712325D12174E900150EFF0BF020503
:10344000D208E0FF221206D7900150EFF0BF02052C
:10345000D209E0FF221225A71234541232B490018F
:1034600050E0FF22E4FFEF25E02434F8E2FC08E21C
:10347000FDEF25E02432F8E2FA08E2FBD39DEA9C56
:10348000401EEF25E02434F8E2FC08E2FDC3EB9D8A
:10349000FDEA9CF8EF25E02436C8F208EDF2800A38
:1034A000EF25E02436F8E4F208F20FEFB401B7227A
:1034B00090011FE070FAE4FF1203A1E4FF120E3C3A
:1034C000E49000FDF09000FFF0FF741B2FF582E404
:1034D0003401F583E4F0EF25E0240EF582E43401B5
:1034E000F583E4F0A3F0EF25E02410F582E4340145
:1034F000F583E4F0A3F00FEFB401CF22C0E0C0F0F9
:10350000C083C082C0D075D000C000C28D758C321F
:10351000758AEB900180E475F001120089C3900177
:1035200081E09414900180E09400400D900104E447
:10353000F0A3F0900180F0A3F0D000D0D0D082D0E2
:1035400083D0F0D0E0327827A607EFB40208D20289
:10355000D200C203C201EFB40408C202C200D20307
:10356000D201EFB40608D202D200D203D2019001F8
:1035700006E4F0A3742DF07F0B12377590010AEE6C
:10358000F0A3EFF0C206C20B220102040810204093
:10359000800700320032003C003C03E8003C003C65
:1035A000003C00780078003C003C03E803E8003C65
:1035B000003C00C800C8006400640064006400644B
:1035C00000640000000000000000E4FF9000FDF037
:1035D000A3F0A3F0A3F0C20D741B2FF582E4340115
:1035E000F583E4F0EF25E0240EF582E43401F58361
:1035F000E4F0A3F0EF25E02410F582E43401F58334
:10360000E4F0A3F00FEFB401CF22E4FFFEEE75F07B
:1036100008A42435F8E624FDFD18E634FFFCEE2569
:10362000E0241DF9C3E39D19E39C400D7401A80635
:10363000088002C333D8FC4FFF0EEEB402CF9001D6
:103640009FEFF0229001541202AF90015812025ED7
:10365000900154120276D31201ED401090015812DD
:10366000027690015412025E1200AC2290015412B4
:10367000027690015812025E1200AC2253BA0F4338
:10368000BA2075BB7A75A9C0900063E0F5B4EF70FD
:103690000AF5B375B27575B130800E9000A2E0F5F1
:1036A000B3A3E0F5B2A3E0F5B1900124E090357941
:1036B00093F5AB22E490011FF053B9FD53B9DF43FA
:1036C000CC02C2D9439F10539FFD4387607592621D
:1036D000C28DEF700675BD0D75BC0112398775BEC0
:1036E0000CD28C4387030000000022E4FFFEEE753D
:1036F000F008A42434F8E6FC08E6FDEE25E0241DDD
:10370000F9C3E39D19E39C400D7401A806088002EB
:10371000C333D8FC4FFF0EEEB402D390019EEFF0FE
:103720002243F80875CD4053CC7F43CC4043CC2096
:1037300043CC1043CC0453CCFD43CB0243CB0153C9
:10374000CBBF43E80853E5FC43E30243F503439052
:103750000343ED03227E039000F8E06F6007EFF073
:10376000E490011AF09000F8E070027E01AF06903C
:10377000011AE004F0C39F50037F002290011A74E5
:1037800003F07F01227B017A00EFC394125020EFF7
:1037900025E02451F582E43438F583E493FF7E007C
:1037A000900106E0FCA3E0FD120077AA06AB07AE8D
:1037B00002AF032253BA0F43BA2075BBFF75A9505D
:1037C00090003AE0F5B4EF7009F5B375B27575B1D4
:1037D0003022900060E0F5B3A3E0F5B2A3E0F5B1CC
:1037E0002253BA0F43BA2075BB7A75A9C09000A5C1
:1037F000E0F5B4EF7009F5B375B2EA75B1602290E7
:1038000000F4E0F5B3A3E0F5B2A3E0F5B122E4FFE4
:1038100075BE0E439F100FEFB4FFFB439F02539FF3
:10382000EFE4FF0FEFB4FFFB75BC0243B9207592C4
:1038300076E4F5BFD2D953CCFD2275BF0F0000004E
:10384000000000000000000000000000000000D2A6
:10385000D853B9FD43B901E5B930E1FBE4F5BF2226
:103860000002010102080301040505010606070123
:10387000080109020A010B030C010D0F0E040F01D0
:10388000103C1102438901C28DD2A953B8FDE490C6
:103890000180F0A3F0900104F0A3F0758C32758ADA
:1038A000EBD28CD2AF2253BAFEE5B920E0069001EC
:1038B0001FE06005E5B930E1FBE4F5BF53B9FD5306
:1038C000B9FE90011FF022EF600543D50480035339
:1038D000D5FB53F5FB53E5FB43E30443ED04E490D0
:1038E000011CF0D29222E4F5E3439F10439F02FFB4
:1038F0000FEFB4FFFB539FEF75BE0EE4F5BFF5B9B4
:10390000759276221218DC1236DB1235FA9000F826
:10391000E0700790019EE0FB800590019FE0FBAF07
:10392000032275AA3B53BAF343BA0875AC0375ADCD
:10393000C075AEC043B92053B9BF22E4FFF582F58C
:10394000837440FEE493F42FFFA3EEB583F6227F49
:103950000022E4900114F0A3F07F0C12377590015F
:1039600012EEF0A3EFF0D20522E4FF1237A4121BEF
:1039700062121A227F011237A41210371231FC2270
:10398000E4FF1237D11239C5121DC67F011237D19B
:103990001203A11235BA22438901C28CC28FE4906E
:1039A0000180F0A3F0758CFB758AED22122F7A7BD3
:1039B000017D01E4FF1233627F011238B712000368
:1039C00022E4FF12366C1229AB1223E07F0112367B
:1039D0006C120E3C22E4FF782CE6FE742D2FF8A624
:1039E000060FEFB401F12220C90CC2AFA807A6044C
:1039F00008A605D2AF2222308509300C081234A067
:103A0000C20C22D20C22C2DA53D80F43D8D0D2D85B
:103A1000D2D9221215B69001A0E0FF221228F51289
:103A200039E722E4FF12103722FFFFFFFFFFFFFFFD
:00000001FF
