:10000000011008001C000000E0380000FF000000A4
:10001000021BA343D42043F42022FF02334F3000BD
:100020000D7F011235CF9001217401F0800B7F010B
:100030001235FC9001217402F075BF0F43B92053B3
:10004000B9FD43BA0143B901D2D822022670AB07E9
:10005000AA06D3EB9DEA9C4007EB9DFFEA9CFE229B
:10006000C3ED9BFFEC9AFE22FFFFFF0222EFBB01D4
:100070000689828A83E0225002E722BBFE02E32245
:1000800089828A83E49322EF8DF0A4A8F0CF8CF0CC
:10009000A428CE8DF0A42EFE22C5F0F8A3E028F00F
:1000A000C5F0F8E582158270021583E038F022EF82
:1000B0002BFFEE3AFEED39FDEC38FC22C3EF9BFF3F
:1000C000EE9AFEED99FDEC98FC22E88FF0A4CC8B23
:1000D000F0A42CFCE98EF0A42CFC8AF0EDA42CFCFE
:1000E000EA8EF0A4CDA8F08BF0A42DCC3825F0FD3D
:1000F000E98FF0A42CCD35F0FCEB8EF0A4FEA9F036
:10010000EB8FF0A4CFC5F02ECD39FEE43CFCEAA481
:100110002DCE35F0FDE43CFC2275F008758200EF31
:100120002FFFEE33FECD33CDCC33CCC58233C58229
:100130009BED9AEC99E58298400CF582EE9BFEEDE2
:100140009AFDEC99FC0FD5F0D6E4CEFBE4CDFAE4B1
:10015000CCF9A88222B800C1B90059BA002DEC8BA5
:10016000F084CFCECDFCE5F0CBF97818EF2FFFEE81
:1001700033FEED33FDEC33FCEB33FB10D70399403A
:1001800004EB99FB0FD8E5E4F9FA227818EF2FFF7A
:10019000EE33FEED33FDEC33FCC933C910D7059BBC
:1001A000E99A4007EC9BFCE99AF90FD8E0E4C9FA18
:1001B000E4CCFB2275F010EF2FFFEE33FEED33FDA4
:1001C000CC33CCC833C810D7079BEC9AE899400AC7
:1001D000ED9BFDEC9AFCE899F80FD5F0DAE4CDFB45
:1001E000E4CCFAE4C8F922EB9FF5F0EA9E42F0E98C
:1001F0009D42F0EC6480C864809845F022EB9FF546
:10020000F0EA9E42F0E99D42F0E89C45F022E86069
:100210000FECC313FCED13FDEE13FEEF13FFD8F14B
:1002200022E86010ECA2E713FCED13FDEE13FEEFE5
:1002300013FFD8F022E8600FEFC333FFEE33FEED7B
:1002400033FDEC33FCD8F122BB010789828A83029B
:1002500002A35005E9F80203AFBBFE05E9F802026C
:10026000AF22E0FCA3E0FDA3E0FEA3E0FF22E2FC5E
:1002700008E2FD08E2FE08E2FF22E0F8A3E0F9A3AD
:10028000E0FAA3E0FB22E2FB08E2F908E2FA08E266
:10029000CBF822BB010789828A8302026A5005E9F2
:1002A000F8020392BBFE05E9F802027689828A838E
:1002B00002039FECF0A3EDF0A3EEF0A3EFF022EC2D
:1002C000F208EDF208EEF208EFF222A8828583F040
:1002D000D083D0821202D21202D21202D21202D2E1
:1002E000E473E493A3C583C5F0C583C8C582C8F091
:1002F000A3C583C5F0C583C8C582C822D083D08278
:10030000E493F208740193F208740293F208740300
:1003100093F2740473A42582F582E5F03583F583A6
:1003200022FAE6FB0808E6F925F0F618E6CA3AF6DE
:1003300022E0FBA3E0FAA3E0F922EBF0A3EAF0A3AA
:10034000E9F022E493FB740193FA740293F922D04A
:1003500083D082F8E4937012740193700DA3A39379
:10036000F8740193F5828883E4737402936860EFF4
:10037000A3A3A380DFEC8EF0A4CCC5F0CCCDF8EF26
:10038000A4CEC5F02DFDE43CFCE8A42EC8C5F03D8C
:10039000FDE43CFCEFA4FFE5F028FEE43DFDE43C79
:1003A000FC22E6FB08E6F908E6FA08E6CBF822E4C8
:1003B00093F8740193F9740293FA740393FB22EC9B
:1003C000F608EDF608EEF608EFF622AB07E490012A
:1003D00048F0A31202BB00000000EB70030204B758
:1003E000123717E4900146F0900146E0FFC39401F4
:1003F0005017EF25E025E02480F81202EC00000001
:1004000000900146E004F080DF1236ABE490014634
:10041000F0900146E0FFC394015041EF25E025E054
:100420002480F8C00012025EC004C005C006C007E8
:10043000900146E0242CF8E6FF1230BEA804A9057E
:10044000AA06AB07D007D006D005D00412009FD073
:10045000001202AF900146E004F080B5900148E040
:1004600004F0E0C3940540A1E4900146F0900146F9
:10047000E0FBC394015050744F2BF8E6FFE4FCFD01
:10048000FEEB25E025E02480F81202761200BAC0C7
:1004900007900148E0FFFBE4FAF9F8D007120145A4
:1004A00078071201FE9001491202A390014912023D
:1004B00052900146E025E025E0242EF81202AF908C
:1004C0000146E004F080A6E4900146F0E490014784
:1004D000F0900147E0FBC394055029900146E0FAF3
:1004E00025E025E0242EF812025EEA75F014A4241B
:1004F00041F8EB25E025E028F81202AF900147E033
:1005000004F080CD900146E025E025E0242EF8128D
:10051000025EE47B05FAF9F81200BA900146E0FBAE
:1005200025E025E02455F81202AFEB25E025E02474
:1005300055F812025EC004C005C006C00790015104
:100540001202BB00002000900146E025E025E024D7
:10055000E2F582E43400F583120252900155120252
:10056000A3D007D006D005D004121EF5900146E0B6
:10057000FB25E025E02459F81202AFEB25E025E049
:100580002459F812025EEF24D0FFEE348AFEED34D7
:10059000FFFDEC34FFFCEB25E025E0243DF81202E2
:1005A000AFEB25E0245DF87475F2087430F2EB25AA
:1005B000E0245FF87475F2087430F2EB25E0245FF4
:1005C000F8E2FE08E2FFE4FCFD7804120225EB25C8
:1005D000E025E02461F81202AFEB25E02432F87444
:1005E00075F2087430F2EB25E02436F8E4F208F2F4
:1005F000EB25E02434F87475F2087430F2EB25E052
:1006000025E02480F81202EC00000000EB25E02435
:1006100086F8E4F208F27865F2900147F09001471D
:10062000E0FBC394055029900146E0FA25E025E05F
:100630002455F812025EEA75F014A42466F8EB253E
:10064000E025E028F81202AF900147E004F080CDE9
:10065000E4787AF2900146E0FB25E025E02455F8A5
:1006600012025EEB25E025E0247BF81202AF900138
:1006700046E025E0241AF582E43401F583E4F0A392
:10068000F0900146E004F0E0C3940150030204BC82
:1006900022E4900143F0900143E0FB25E025E024B3
:1006A00055F812025E9001481202A390014812020E
:1006B00052EB75F014A42441F8C0007865E2D00034
:1006C00025E025E028F81202761200AC90014812CD
:1006D00002A3900148120252900143E025E025E078
:1006E000242EF812027612009F9001481202A39065
:1006F0000143E0FB25E025E0242EF812025EEB75B5
:10070000F014A42441F8C0007865E2D00025E0256B
:10071000E028F81202AF900148120252900143E023
:1007200025E025E02455F81202AF900143E004F0E3
:10073000E0640160030206867865E204F2E275F087
:100740000584E5F0F2E4900143F0900143E0FFC33B
:100750009401400302091DEF25E025E02455F8121D
:10076000025EC004C005C006C0079001511202BB62
:1007700000002000900143E025E025E024E2F5821E
:10078000E43400F5831202529001551202A3D007FF
:10079000D006D005D004121EF5900143E0FB25E001
:1007A00025E02459F81202AFEB25E025E0243DF8BE
:1007B00012025EAB07AA06A905A804C004C005C0C2
:1007C00006C007900143E025E025E02459F8120215
:1007D0005ED003D002D001D0001200AC90014412D0
:1007E00002A3E4FFFEFDFC90014412026AC3120161
:1007F000D750037F0222E47FFF7EFFFDFC9001447F
:1008000012026AD31201D7400A9001441202BB00BF
:1008100000FFFF900144120252900143E0FD25E0E9
:10082000245DF8EEF208EFF2ED25E0245FF8E2FE39
:1008300008E2FFED25E0245DF8E2FC08E2FD12008D
:100840003EAC06AD07900143E0FB25E024EDF582C8
:10085000E43433F583E493C313FE74019313FFD39D
:10086000ED9FEC9E403A900143E0FF25E0245DF8C7
:10087000E2FC08E2FDEF25E0245FF8ECF208EDF27F
:10088000EB25E0245DF8E2FE08E2FFE4FCFD7804DD
:10089000120225EB25E025E02461F81202AF806DFD
:1008A000300636900143E075F004A42461F9E4FABF
:1008B0007BFEE025E0245DF8E2FE08E2FFE4FCFDBB
:1008C0009001537404F0122D42900143E025E0247E
:1008D0005FF8EEF208EFF28034900143E075F00427
:1008E000A42461F9E4FA7BFEE025E0245DF8E2FE51
:1008F00008E2FFE4FCFD9001537420F0122D4290B9
:100900000143E025E0245FF8EEF208EFF2900143A6
:10091000E0FF25E0245FF8E2FC08E2FDEF25E0249B
:1009200032F8ECF208EDF2E004F002073A7F06221A
:10093000900143EEF0A3EFF0E4900146F0A3F0A3A2
:10094000F090011FE0FFA3E0900147CFF0A3EFF08C
:10095000E4900145F0900145E0FBC394024003029E
:100960000AC3900190E0701690011CE0B4030FD30D
:1009700090010FE0940090010EE09400402C900153
:1009800045E0FF25E024ADF582E43400F583E4F092
:10099000A3F0EF25E025E024A1F582E43400F583FF
:1009A0001202BB00000000020ABAEB25E024ADF5FC
:1009B00082E43400F583E0FEA3E04E70229001450E
:1009C000E0FF25E02410F8E2FC08E2FDEF25E0243A
:1009D000A9F582E43400F583ECF0A3EDF080799082
:1009E0000145E0FD25E024A9F582E43400F583E02B
:1009F000FEA3E0FFED25E02410F8E2FC08E2FD1282
:100A0000003EC3900148E09F900147E09E5049900E
:100A10000145E0FF25E02410F8E2FC08E2FDEF25A7
:100A2000E024A9F582E43400F583ECF0A3EDF09026
:100A30000145E0FF25E024ADF582E43400F583E4D0
:100A4000F0A3F0EF25E025E024A1F582E43400F5E1
:100A5000831202BB00000000900145E0FF25E02466
:100A600010F8E2FC08E2FDEF25E025E024A1F58284
:100A7000E43400F583C083C08212026AAE04AF057D
:100A8000E4FCFD12009FD082D0831202A3900145A6
:100A9000E0FF25E024ADF582E43400F583E475F051
:100AA00001120089EF25E024ADF582E43400F583DE
:100AB000E0FEA3E0FF900143E0FCA3E0FDC3EF9D57
:100AC000EE9C4006900146E004F0900145E004F001
:100AD000020945900146E064026003020B4C90015C
:100AE00045F0900145E0FFC394025070EF25E024EB
:100AF000ADF582E43400F583E0FEA3E0FF4E605CD8
:100B0000AB07AA06E4F9F8900145E025E025E024CA
:100B1000A1F582E43400F5831202521201459001DE
:100B200045E0FD25E02414F8EEF208EFF2ED25E0B3
:100B300024ADF582E43400F583E4F0A3F0ED25E084
:100B400025E024A1F582E43400F5831202BB000005
:100B50000000C218900145E004F0808622E4900174
:100B600042F0900142E0FE75F008A4245CFBEE2503
:100B7000E025E02408F812025E78041201FEAD07B9
:100B8000AC06AF03123890900142E0FE75F008A465
:100B9000245AFFEE25E02418F8E2FC08E2FD1238A2
:100BA00090900142E0FE75F008A42458FFEE25E085
:100BB000241CF8E2FC08E2FD123890900142E004A7
:100BC000F0E0C39402409B7F6CC007785512025E30
:100BD00078041201FEAD07AC06D0071238907F688A
:100BE000C0079000CA12025278041201FEAD07AC91
:100BF00006D0071238907F74C007782012025E7802
:100C0000011201FEAD07AC06D0071238907F70903C
:100C10000192E0FD7C00123890E4900142F09001D6
:100C200042E0FEC454F02476FFEE25E024EDF58288
:100C3000E43433F583E493FC740193FD123890900F
:100C40000142E0FEC454F02478FFEE25E024EDF5E7
:100C500082E43433F58374019324CEFDE49334FFAE
:100C6000FC123890900142E0C454F0247AFF7D26B3
:100C70007C02123890900142E0FB25E025E0242A16
:100C8000F812025E780A1201FEEBC454F02484F8D4
:100C9000A607300F46900142E0C454F02480FF7D47
:100CA000397C30123890900142E0C454F02482FF25
:100CB0007D397C30123890900142E0C454F0247C9D
:100CC000FF7D397C30123890900142E0C454F0240A
:100CD0007EFF7D397C301238908064900142E0FEC6
:100CE000C454F02480FFEE25E02432F8E2FC08E250
:100CF000FD123890900142E0FEC454F02482FFEED1
:100D000025E02434F8E2FC08E2FD1238909001421C
:100D1000E0FEC454F0247CFFEE25E02438F8E2FC29
:100D200008E2FD123890900142E0FEC454F0247EA7
:100D3000FFEE25E02436F8E2FC08E2FD1238909040
:100D40000142E004F0E0C394015003020C0E78204D
:100D500012025E780A1201FE78B6A6077849E6F517
:100D60002222E4900142F0A3F0A3F0FCA3F020CAF9
:100D700003020F48E5377003020F48E4900142F088
:100D8000900142E0FE2437F8E6FD74862EF582E4F9
:100D90003401F583EDF0E4F6900142E004F0E0B4B4
:100DA0000ADE900186E0FE54F0FCEE540F900145FF
:100DB000F0AF04EF12033F0DC3500DCD600DD7709F
:100DC0000DE1800E5F900F10A00E90B00F45C00097
:100DD000000F487849E64401F6123303227849E6C9
:100DE00054FEF612330322E4FF1237E4784BA607D1
:100DF00022900187E07F00FE900143F0A3EFF09086
:100E00000188E0FDEEEDFF900143EEF0A3EFF0D39B
:100E1000940AEE94004003020F48900145E0FFB4AD
:100E20000F2DE4900142F0900142E0FEC394024095
:100E300003020F48A3E0FCA3E0FDEE75F008A42434
:100E400056F8A60408A605900142E004F080D8EF09
:100E5000C394024003020F48900143E0FEA3E0FF69
:100E6000A3E075F008A42456F8A60608A607229069
:100E70000145E0FF70117849E6FE20E103020F48CA
:100E800054FDF675340222EF64016003020F4878C6
:100E900049E6FF30E103020F484402F675340222AE
:100EA000900145E0FF703A7849E654DFF6E490019E
:100EB00042F0900142E0FE25E024E5F582E434337F
:100EC000F583E493FC740193FDEE75F008A42456B9
:100ED000F8A60408A605900142E004F0E0B402D2AE
:100EE00022EF640170727849E64420F6E4900142F2
:100EF000F0900142E0FF25E024FDF582E43433F573
:100F000083E493FC740193FDEF75F008A42456F874
:100F1000A60408A605900142E004F0E0B402D22243
:100F2000900145E0FD70157849E6FE30E22A54FB59
:100F3000F690011EE04408F075340222EDB4011869
:100F40007849E6FF20E2114404F690011EE04404D3
:100F5000F07534022212330322E4900147F0EF606F
:100F60005C1237179000EB1202BB00000000123633
:100F7000AB9000EB12026AAF281230BE12009F90B5
:100F800000EB1202A3900147E004F0E0C394054097
:100F9000DD784EE6FFE4FCFDFE9000EB12026A12E3
:100FA00000BAC007900147E0FFFBE4FAF9F8D00768
:100FB00012014578071201FE78241202AFE4900175
:100FC00046F0900146E0FBC39405501E78241202BF
:100FD0005EEB25E025E024B6F582E43400F58312CB
:100FE00002A3900146E004F080D8E47F05FEFDFCFA
:100FF00078241202761200BA9000CA1202A390005E
:10100000CA1202529000D21202A39000CA120252D7
:1010100078041202259000D61202A39000D2120288
:10102000529000CE1202A3E4900146F0900146E0F7
:10103000FFC394014003021112EF25E025E024E2F2
:10104000F582E43400F583120252E4FBFAF9F8C3A6
:101050001201ED60030211099000D21202529000B9
:10106000DA1202A39000DA120252AB07AA06A9050F
:10107000A804900146E025E02415F582E43434F517
:1010800083E493FE740193FFEE3395E0FDFC1200C0
:10109000BA780A120211900146E0FB25E025E0240F
:1010A000DEF582E43400F5831202A3EB25E025E0AF
:1010B00024DEF582E43400F5831202529000DA1245
:1010C000026A12009FC004C005C006C00790014616
:1010D000E025E025E024DEF582E43400F583120209
:1010E000529000D212026A12009F9001511202A384
:1010F0009001551202BB00002000D007D006D00599
:10110000D004121EF5900146E025E025E024E2F52A
:1011100082E43400F5831202A3900146E004F00259
:10112000101C9000D2120252EF24D0FFEE348AFE3F
:10113000ED34FFFDEC34FFFC9000E61202A37828AA
:101140007475F2087430F2E49000EAF022900143E2
:10115000EEF0A3EFF0E4A3F0900145E0FFC39401AB
:10116000400302132A74017E00A807088005C333D8
:10117000CE33CED8F9FF900192E0FDE4FAEF5DFBAB
:101180007044900145E0FF25E02437F9D3E394262D
:1011900019E394025030741D2FF582E43401F58375
:1011A000E0B40522900145E0247FF8E2706BEF2562
:1011B000E02410F582E43401F583E0FEA3E0D3944B
:1011C00000EE94004053900145E0FF25E02486F8AE
:1011D000E4F208F2EF25E025E02480F81202EC00AA
:1011E0000000009000D21202529000CE1202A3EB37
:1011F0004A7003021321900145E0FF25E02412F517
:1012000082E43401F583E4F0A3F074012FF582E465
:101210003401F583E4F0021321900145E025E02537
:10122000E02480F8C00012025EC006C007900145AD
:10123000E025E02432F8E2FE08E2FFFBAA06E4F92A
:10124000F8D007D00612009FD0001202AF900145DF
:10125000E0FF25E02486F808E22401F218E23400D9
:10126000F2EF25E02487F9900143E0FEA3E0FFC3FD
:10127000E39F19E39E50419000CE12025290014A22
:101280001202A39000D2120252123497E47B78FA31
:10129000F9F8C31201ED4020A20A300601B340184C
:1012A000900145E0FF247FF8E2700D74012FF58274
:1012B000E43401F583E06079900145E025E024867F
:1012C000F8E2FE08E2FFE4FCFDC004C005C006C071
:1012D00007E025E025E02480F812025ED003D0026A
:1012E000D001D000120145900145E0FD25E02434F5
:1012F000F8EEF208EFF2ED25E02486F8E4F208F2C9
:10130000ED25E025E02480F81202EC0000000090BA
:1013100000D21202529000CE1202A3900145E0FFCB
:10132000247FF8E4F274012FF582E43401F583E4BC
:10133000F0900145E004F002114822E4900144F0ED
:10134000A31202BB00000000E4900143F0900143AF
:10135000E0FFC3940140030214BE9000FDE060036F
:1013600002142B900103E09400900102E0940050DD
:10137000030213E6EF25E025E0247BF812025EABC2
:1013800007AA06A905A804C004C005C006C00790A6
:101390000143E025E025E02455F812025ED003D099
:1013A00002D001D0001200AC9001451202A39001BE
:1013B00043E025E024EDF582E43433F583740193B2
:1013C00025E0FFE49333FEE4FCFD90014512026A40
:1013D000D31201D750030214B5900144E0FF9001ED
:1013E00043E0FE7401A806088002C333D8FC4F9086
:1013F0000144F00214B5900143E0FF25E024EDF52F
:1014000082E43433F583E493FC740193FDEF25E02B
:101410002439F9C3E39D19E39C50030214B59001EC
:1014200044E0FF900143E0FE7401A806088002C377
:1014300033D8FC4F900144F00214B5300D449001B4
:1014400043E0FD25E024EDF582E43433F5837401B7
:101450009325E0FFE49333FEED25E02439F9C3E35F
:101460009F19E39E405F900144E0FF900143E0FE3E
:101470007401A806088002C333D8FC4F900144F0E1
:101480008043900143E0FF25E024EDF582E434330E
:10149000F58374019324CEFDE49334FFFCEF25E043
:1014A0002439F9C3E39D19E39C401A900144E0FFFD
:1014B000900143E0FE7401A806088002C333D8FC03
:1014C0004F900144F0900143E004F002133D90017D
:1014D00044E0900192F022E4900144F0EF700302A6
:1014E00015BF123717E4900143F0900143E0FFC3AA
:1014F0009402501DEF25E025E024A1F582E434009C
:10150000F5831202BB00000000900143E004F0806C
:10151000D91236ABE4900143F0900143E0FFC3944D
:10152000025037EF25E025E024A1F582E43400F5F0
:1015300083C083C08212026AC000900143E0242469
:10154000F8E6FF1230BED00012009FD082D0831286
:1015500002A3900143E004F080BF900144E004F056
:10156000E0C3940540ABE4900143F0900144E0FFF8
:10157000FBE4FAF9F8900143E025E025E024A1F529
:1015800082E43400F583120252120145C004A90519
:10159000AA06AB07900143E0244CF8E6FFE4FCFD0B
:1015A000FED0001200BA9001451202A3900145122C
:1015B000025278071201FE900143E025E025E02465
:1015C00008F81202AF900143E004F0E0B4029CE49A
:1015D000900143F0900143E0FBC3940240030216E4
:1015E00061EB25E025E02408F812025EEF24D0FF2D
:1015F000EE348AFEED34FFFDEC34FFFCEB25E025F4
:10160000E0248DF582E43400F5831202A3900143B7
:10161000E0FF25E02410F87475F2087430F2EF252D
:10162000E025E024A1F582E43400F5831202BB003A
:10163000000000900143E0FF25E024ADF582E43492
:1016400000F583E4F0A3F0EF25E02410F8E2FE08B3
:10165000E2FF900143E0FD25E02414F8EEF208EFEC
:10166000F2ED25E02418F8E4F208F2E004F00215A7
:10167000C4229000CA1202529001441202A39001A7
:10168000441202529000EAE025E025E024B6F582FB
:10169000E43400F58312026A1200AC900144120295
:1016A000A3900144120252782412027612009F90F5
:1016B00001441202A3782412025E9000EAE025E0C1
:1016C00025E024B6F582E43400F5831202A39000ED
:1016D000EAE004F0E075F00584E5F0F090014412D2
:1016E00002529000CA1202A37B017A0079D69000C0
:1016F000CA1202529001537420F0122D429000D26F
:101700001202A3D390010DE0940090010CE094002C
:10171000400C9000D21202529000DA1202A3E49020
:101720000143F09000DA120252AB07AA06A905A8FD
:1017300004900143E025E02415F582E43434F58378
:10174000E493FE740193FFEE3395E0FDFC1200BAC2
:10175000780A120211900143E0FB25E025E024DE27
:10176000F582E43400F5831202A3EB25E025E024A2
:10177000DEF582E43400F5831202529000DA1202A0
:101780006A12009F9001441202A3900143E025E0F9
:1017900025E024DEF582E43400F583120252900045
:1017A000D212026A12009F9001511202A3900155B9
:1017B0001202BB00002000900144120252121EF5DA
:1017C000900143E025E025E024E2F582E43400F5D1
:1017D000831202A3900143E004F0E0C3940150039C
:1017E0000217139000E6120252AB07AA069000D22D
:1017F000120252C3EF9B7829F2EE9A18F27F06226A
:10180000E4FD301526ED25E024FDF582E43433F5C2
:1018100083E493FE740193FFED25E02443F582E415
:101820003401F583EEF0A3EFF08024ED25E024E50C
:10183000F582E43433F583E493FE740193FFED25E0
:10184000E02443F582E43401F583EEF0A3EFF0EDFC
:1018500025E02499F582E43400F583E0FEA3E0FF5F
:10186000ED25E0241DF9D3E39F19E39E401CED25EF
:10187000E0241CF8E2FE08E2FFED25E02499F58261
:10188000E43400F583EEF0A3EFF0ED25E02443F51A
:1018900082E43401F583E0C313FEA3E013FFED25DA
:1018A000E0241DF9D3E39F19E39E504EED25E0247B
:1018B00043F582E43401F583E0FEA3E0FFED75F02B
:1018C00008A42456F8A60608A607ED25E02443F54B
:1018D00082E43401F583A3E025E0FF0582D582028E
:1018E00015831582E033FEED25E02499F582E4347A
:1018F00000F583EEF0A3EFF08042ED25E024F5F54E
:1019000082E43433F583E493FE740193FFED25E024
:10191000241DF9D3E39F19E39E4021ED25E024998E
:10192000F582E43400F583E0C313FEA3E013FFED7A
:1019300075F008A42456F8A60608A6070DED640263
:1019400060030217F2229001427407F0A3F0A31281
:1019500002BB00000000123717900142E0FF602038
:1019600074017E00A807088005C333CE33CED8F9B2
:10197000FFADACE4EF5D7008900142E014F080D957
:10198000900143E0FF602074017E00A807088005F5
:10199000C333CE33CED8F9FFADAEE4EF5D7008901F
:1019A0000143E014F080D9900142E0FF7401A807E0
:1019B000088002C333D8FCF5AC900143E0FF74010A
:1019C000A807088002C333D8FCFFF5AD8FAE53AA39
:1019D000CF90014CE5BAF053BA0F43BA101236ABB0
:1019E000E4900142F0900143E02424F8E6FF123035
:1019F000BE9001481202A390014812025290014485
:101A000012026AC31201ED500C900148120252906A
:101A100001441202A3900142E004F0E0C3940240AA
:101A2000C490014412026AC000900144120252782C
:101A3000031201FED00012009F9001441202A390F5
:101A400001441202529000B11202A390014412020A
:101A50005278101201FE8FB390014412025278089E
:101A60001201FE8FB29001441202528FB143AA308C
:101A700090014CE0F5BA75AC0375ADC075AEC022EF
:101A8000123717900148E5BAF053BA0F43BA10E481
:101A9000900142F0900142E0FFC394025017EF25FD
:101AA000E025E02400F81202EC0000000090014262
:101AB000E004F080DF9001427405F075ABFF123650
:101AC000ABE4900143F0900143E0FFC39402504126
:101AD000EF25E025E02400F8C00012025EC004C03B
:101AE00005C006C007900143E02424F8E6FF123049
:101AF000BEA804A905AA06AB07D007D006D005D01A
:101B00000412009FD0001202AF900143E004F08065
:101B1000B5E4F5AB1236ABE4900143F0900143E03D
:101B2000FFC394025041EF25E025E02400F8C000F7
:101B300012025EC004C005C006C007900143E02445
:101B400024F8E6FF1230BEA804A905AA06AB07D008
:101B500007D006D005D0041200ACD0001202AF901E
:101B60000143E004F080B5900142E014F0E060032E
:101B7000021AABE4900143F0900143E0FBC39402EE
:101B8000502AA31202BB00148200EB25E025E024BA
:101B900000F812027690014412025212014590019F
:101BA00043E0244CF8A607E004F080CC900148E024
:101BB000F5BA22439F04E453C6DFE5C600B5C6F379
:101BC00075830075820775FD0DE4E5FEF4FF7583EE
:101BD0000075820675FD0DE4E5FEB50704F59E80EF
:101BE00003759E0078100000D8FC53C6E043C60879
:101BF00043C68075960775970575830075820475D1
:101C0000FD0DE5FD0404F58F75830075820375FDF8
:101C10000DE4E5FEF4FF75830075820275FD0DE4A9
:101C2000E5FEB50704F595800375958375BE0E53E3
:101C300092FE9001007F007E02E4F0A3DFFCDEFA5A
:101C400078007F00E4F208DFFC78FFE4F6D8FD7549
:101C500081B6021C83020000022B10E493A3F8E477
:101C600093A34003F68001F208DFF48029E493A3F4
:101C7000F85407240CC8C333C4540F4420C883400D
:101C800004F456800146F6DFE4800B0102040810DC
:101C9000204080903738E47E019360BCA3FF543F1E
:101CA00030E509541FFEE493A360010ECF54C02514
:101CB000E060A840B8E493A3FAE493A3F8E493A304
:101CC000C8C582C8CAC583CAF0A3C8C582C8CAC568
:101CD00083CADFE9DEE780BE122C33122E451237AD
:101CE000949000F7EFF0123570EF7003021DE97F5A
:101CF000011235A0AD07AC06D390010DE094009021
:101D0000010CE094004010ECC4F854F0C868FCEDFD
:101D1000C4540F48FD8030301810ECC4F854F0C89B
:101D200068FCEDC4540F48FD801DC390009EE094F4
:101D30001E90009DE09400500EECC4F854F0C8686A
:101D4000FCEDC4540F48FDAE04AF05120920E49029
:101D50000142F0900142E0FFC39402507674017E8C
:101D600000A807088005C333CE33CED8F9FF900012
:101D7000F8E0FDE4EF5D60407F061235A09001427F
:101D8000E025E02408F582E43401F583E0FCA3E0DB
:101D9000D39FEC9E400AE49000F7F0A3F01238BD08
:101DA000900142E025E02408F582E43401F583E463
:101DB00075F0011200898013900142E025E02408AB
:101DC000F582E43401F583E4F0A3F0900142E004ED
:101DD000F080809000F8E0FFA3E06F601C122BA45D
:101DE0009000F8E0A3F0A3E054F0600D7F071235F7
:101DF000A090010EEEF0A3EFF0229001427407F0E4
:101E0000FBA31202BB00000000123717900142E052
:101E1000FF602074017E00A807088005C333CE331D
:101E2000CED8F9FFADACE4EF5D7008900142E0144C
:101E3000F080D9EB601B74017E00A803088005C305
:101E400033CE33CED8F9FFADAEE4EF5D70031B8027
:101E5000E2900142E0FF7401A807088002C333D872
:101E6000FCF5AC7401A803088002C333D8FCFFF56D
:101E7000AD8FAE53AACF90014BE5BAF053BA0F43E2
:101E8000BA101236ABE4900142F0900142E0FFC379
:101E900094015035742C2FF8E6FF1230BE900147A4
:101EA0001202A390014712025290014312026AC328
:101EB0001201ED500C9001471202529001431202A0
:101EC000A3900142E004F080C190014312026AC075
:101ED0000090014312025278031201FED00012005A
:101EE0009F9001431202A39001431202527888127C
:101EF00002AF43AA3090014BE0F5BA75AC0375AD63
:101F0000C075AEC02290014D1202A3E47BE87A03B3
:101F1000F9F890014D12025212014590015D120232
:101F2000A3E47FE87E03FDFC90015D12026A1200CB
:101F3000BAA804A905AA06AB0790014D12025212D5
:101F400000AC9001611202A390015512025290015F
:101F50005D12026A1200BA9001591202A390015157
:101F600012026A9001591202521201459001651243
:101F700002A390015112025290016512026A1200EE
:101F8000BAA804A905AA06AB079001591202521279
:101F900000AC9001691202A3900155120252900107
:101FA0006112026A1200BA9001591202A3900159FB
:101FB00012026AC000C001C002C003E47FE87E03D1
:101FC000FDFC90016912026A1200BAD003D002D05F
:101FD00001D00012009F9001591202A390015112EA
:101FE000026A90015912025212014590016D1202CB
:101FF000A3E47FE87E03FDFC90016512026A1200F3
:10200000BA90016D12026A12009F22E4FFD3900180
:102010000DE0940090010CE09400400774FFF5F08F
:10202000120089D390010FE0940090010EE094001B
:10203000400774FFF5F0120089D3900117E0940077
:10204000900116E09400401374FFF5F0120089909F
:102050000116E07002A3E07002D205900104E4755D
:10206000F001120089E4FFEF25E02410F582E4344A
:1020700001F583E0FCA3E0D39400EC94004013EF5F
:1020800025E02410F582E43401F58374FFF5F012A5
:102090000089EF25E02412F582E43401F583E0FCA9
:1020A000A3E0D39400EC94004033EF25E02412F534
:1020B00082E43401F58374FFF5F0120089EF25E026
:1020C0002412F582E43401F583E0FCA3E04C700DAA
:1020D00074012FF582E43401F5837401F00FEF648D
:1020E000017084D3900115E09400900114E09400F5
:1020F000400774FFF5F0120089D3900103E09400CB
:10210000900102E09400400774FFF5F0120089226C
:10211000E4900142F07846F6FF1237E4900142EF76
:10212000F0BFFF06784776088004784776FF784846
:10213000761CE408F6784B76FFFFEF25E024E5F502
:1021400082E43433F583E493FC740193FDEF75F07E
:1021500008A42456F8A60408A605EF75F008A424E0
:1021600058F8E4F608F6EF75F008A4245AF8E4F6F7
:1021700008F6EF75F008A4245CF8E4F608F60FEF13
:10218000B402B7E4FFEF25E024EDF582E43433F543
:1021900083E493FC740193FDEFC454F02476F8A615
:1021A0000408A605EF25E024EDF582E43433F58339
:1021B00074019324CEFDE49334FFFCEFC454F02467
:1021C00078F8A60408A605EFC454F0247AF876023D
:1021D000087626EFC454F0247CF8E4F608F6EFC441
:1021E00054F0247EF8E4F608F6EFC454F02480F8A6
:1021F000E4F608F6EFC454F02482F8E4F608F6EFAB
:10220000C454F02484F8E4F60FEF64016003022163
:1022100075754146229001431202BB000000003058
:102220000053E4900142F0900142E0FB244CF8E6B8
:10223000FFE4FCFDFEEB25E025E02400F812027629
:102240001200BA78071201FE900142E0FB25E0255A
:10225000E02408F81202AFEB25E025E02408F8128C
:10226000025EEC4D4E4F70037F0222900142E0046B
:10227000F0E0B402B2784EE6FFE4FCFDFE782012F6
:1022800002761200BA78071201FE78241202AF78A3
:102290002412025EEC4D4E4F70037F0222E4900147
:1022A00042F0900142E0FB244FF8E6FFE4FCFDFE23
:1022B000EB25E025E0242AF81202761200BA78070E
:1022C0001201FE9001431202A390014312025290A8
:1022D0000142E0FB25E025E0242EF81202AFEB25B9
:1022E000E025E0242EF812025EEC4D4E4F70037F85
:1022F0000222900142E004F0E0B401A67F0522C072
:10230000E0C0F0C083C082C0D075D008C2CFD20771
:1023100030CD030223CA30CB3920CC3685CE45E5FB
:1023200045C39480402475F003E545902C44120386
:10233000051203338B428A4389447842E475F001E5
:1023400012031112005EF5CE8008E5412545F8E63E
:10235000F5CE30CC47E545B4C0057537C08079E58A
:1023600045B4C105753790806FE545B4C205753732
:10237000918065E54564C3605FE545C39480401086
:102380007842E475F00112031112005EF5CE804828
:102390000545E5412545F8E6F5CE803C20CB39855D
:1023A000CE1CE5457022E51CB41009900193E0F4C1
:1023B00052808024E51CB42008900193E042808084
:1023C00017851C3705458010E545C3940A500774EE
:1023D000372545F8A61C0545D205D0D0D082D0833C
:1023E000D0F0D0E0327B077A079001421202BB00A6
:1023F000000000123717EB601B74017E00A8030871
:102400008005C333CE33CED8F9FFADACE4EF5D70B9
:10241000031B80E2EA601B74017E00A802088005AD
:10242000C333CE33CED8F9FFADAEE4EF5D70031AFF
:1024300080E2AF037401A807088002C333D8FCF51B
:10244000AC7401A802088002C333D8FCFFF5AD8F3D
:10245000AE53AACF90014AE5BAF053BA0F43BA106F
:102460001236ABAF281230BE9001461202A3900183
:102470004612025290014212026AC31201ED500C40
:102480009001461202529001421202A390014212A0
:10249000026AC00090014212025278031201FED07B
:1024A0000012009F9001421202A3900142120252B8
:1024B0009000F31202A343AA3090014AE0F5BA75E6
:1024C000AC0375ADC075AEC022E4900143F090013D
:1024D00043E0FF25E02414F8E2FC08E2FDEF25E0EC
:1024E0002410F8E2FE08E2FFD39DEE9C401BE0259D
:1024F000E02414F8E2FC08E2FDC3EF9DFFEE9CFE31
:10250000E4FCFDA31202A3800A9001441202BB0066
:102510000000009001441202527807120225900137
:10252000441202A3900143E025E02418F8E2FE08DB
:10253000E2FFE4FCFD78071202259001481202A395
:102540009000F8E070247F03FEFDFC90014412022D
:102550006A1200BA90014812026A12009F780212B1
:1025600001FE9001481202A3801A90014412025207
:1025700090014812026A12009F78011201FE900138
:10258000481202A390014812025278071201FE90ED
:102590000143E025E02418F8EEF208EFF2E004F041
:1025A000E0640260030224BE221238AD9000FCEF0A
:1025B000F0122CBCEF700302266F1229E17F021289
:1025C00035A0AD07AC06D390010DE0940090010C4E
:1025D000E09400400FED7805CEC313CE13D8F9FD7B
:1025E000AC06801DD3900103E09400900102E094BA
:1025F00000400EECC4F854F0C868FCEDC4540F4819
:10260000FDAE04AF0512113D9000FDE0FFA3E06FA9
:10261000606D122A7BE4900142F0900142E0FFC31A
:102620009401505574017E00A807088005C333CE7D
:1026300033CED8F9FF9000FFE0FDE4EF5D60327F1C
:10264000081235A0900142E025E02410F582E43420
:1026500001F583EEF0A3EFF07F111235A090014257
:10266000E025E02412F582E43401F583EEF0A3EFD7
:10267000F0900142E004F080A19000FDE0A3F02280
:10268000C0E0C0F0C083C082C0D075D01053B9FD87
:10269000900121E06401703C900171F0900171E0C3
:1026A000FFC39402501C74242FF8E6FF1230BEE0E2
:1026B00025E025E02400F81202AF900171E004F05B
:1026C00080DA7F011235FC43B901D2D89001217420
:1026D00002F0805A900121E0B4021CAF281230BEF3
:1026E00078201202AF7F0112368043B901D2D89010
:1026F00001217406F08037900121E06406702F906C
:102700000171F0900171E0FFC39401501C742C2FF3
:10271000F8E6FF1230BEE025E025E0242AF8120298
:10272000AF900171E004F080DA900121E4F0D0D0A4
:10273000D082D083D0F0D0E032E4900143F0900119
:1027400043E0FBC3940140030227D3EB25E025E0DF
:102750002455F812025EEB75F014A42466F8C0004C
:10276000787AE2D00025E025E028F81202AF900147
:10277000451202BB00000000A20A300601B3505A05
:10278000E4900144F0900144E0FFC39405502EA36F
:1027900012026AC000900143E075F014A42466F8A8
:1027A000EF25E025E028F812025ED00012009F908D
:1027B00001451202A3900144E004F080C8E47B05C7
:1027C000FAF9F8900145120252120145900143E0D6
:1027D00025E025E0247BF81202AF900143E004F0ED
:1027E00002272E787AE204F2E275F00584E5F0F231
:1027F00022E4900142F090011EE054036030C205D3
:102800007F0A1235A0900116EEF0A3EFF090011EA2
:10281000E054FCF0C292753500753696E5361536F3
:10282000AE35700215354E60030080F0D2929001F3
:102830001EE0FF30E2179000FFE0540FFE602A78A0
:1028400055F6E47846F690014204F0801CEF30E340
:10285000189000FFE0540FFF600FC454F07855F655
:10286000E47846F690014204F090011EE054F3F043
:10287000200F2F900142E06029C2057F0A1235A087
:10288000900116EEF0A3EFF0753500753696C29202
:10289000E5361536AE35700215354E60030080F012
:1028A000D29222E4900142F0A3F030071790010683
:1028B000F0A3742DF07F0C1235A0900114EEF0A35C
:1028C000EFF0C207A206920A7849E6FF20E1033042
:1028D000E20D900106E4F0A3742DF0C2068038D317
:1028E00090010DE0940090010CE0940050119001D3
:1028F00015E09400900114E09400500320050D9021
:102900000106E4F0A3742DF0C206800B900106E4EA
:10291000F0A37403F0D206300608E4FF1234CF129D
:102920003629A20A300601B350179000FDE060047A
:10293000D20D800D7F031235A0900102EEF0A3EFBF
:10294000F09000FDE07008300D03123303C20D2239
:102950009001421202BB00000000E4900146F01218
:102960003717900147E5BAF053BA0F43BA107820F1
:102970001202EC000000009001467405F075ABFFF8
:102980001236AB7820120276AF281230BE12009FAA
:1029900078201202AFE4F5AB1236AB782012025E5B
:1029A000C004C005C006C007AF281230BEA804A9E5
:1029B00005AA06AB07D007D006D005D0041200AC9C
:1029C00078201202AF900146E014F0E070AF900161
:1029D000421202BB00203A00782012027690014297
:1029E000120252120145784EA607900147E0F5BA4F
:1029F00022E4900143F0900143E0FF25E02434F805
:102A0000E2FC08E2FDEF25E02432F8E2FE08E2FFF6
:102A1000C39DEE9C503FE025E02435F8C3E29FFFC4
:102A200018E29EFED3EF9432EE94004015E025E0CC
:102A3000241AF582E43401F583E475F0011200896B
:102A40008013900143E025E0241AF582E43401F577
:102A500083E4F0A3F07F051235A0900143E0FD254B
:102A6000E0241AF582E43401F583E0FAA3E0D39F71
:102A7000EA9E4007747F2DF87401F2900143E00450
:102A8000F0E0C3940150030229E622900143EFF0E5
:102A900090011EE06003022B0FF9FFFE7401A806EF
:102AA000088002C333D8FCFD900143E05DFC900038
:102AB000FEE05D6C600D30010A200F0790011EE002
:102AC0004402F09000FEE05DB50513EE2404FC74B2
:102AD00001A804088002C333D8FC49F9800D7401B1
:102AE000A806088002C333D8FC49F9900143E05D91
:102AF000B5050F7401A806088002C333D8FC4FFF48
:102B00008011EE2404FD7401A805088002C333D8A7
:102B1000FC4FFF0EEE64017083E95F9000FFF0222E
:102B20001237761238551238A01221001236F512DB
:102B3000353C123219D2AF753401E53424FE6022DF
:102B400024FE603114604314604D2405705A12371E
:102B5000B212381212386A1238291237FB7F021269
:102B60003399D2D8122F90900121E070FA12000E02
:102B70007534048036D2D8900121E070FA12220513
:102B80008F3412289312000E80211231C88F341214
:102B90000B4D121FFB8014300003121CC812259924
:102BA000122FF775340480037534011238B6120DF4
:102BB00052808722900143EFF090011EE0600302F3
:102BC0002C32F9FFFE7401A806088002C333D8FC3A
:102BD000FD900143E05DFC9000F9E05D6C600790C2
:102BE000011EE04401F09000F9E05DB50513EE240C
:102BF00004FC7401A804088002C333D8FC49F9809E
:102C00000D7401A806088002C333D8FC49F990016D
:102C100043E05DB5050F7401A806088002C333D8F0
:102C2000FC4FFF8011EE2404FD7401A8050880020A
:102C3000C333D8FC4FFF0EEE64027089E95F900049
:102C4000FAF022781CE2FE08E2FF900143EEF0A3C6
:102C5000EFF0A3EEF0A3EFF07F01EF25E0241CF8E6
:102C6000E2FC08E2FDD3900144E09D900143E09C2A
:102C7000400FEF25E0241CF8E2FD08E2CDF0A3EDC3
:102C8000F0EF25E0241CF8E2FC08E2FDC3900146C9
:102C9000E09D900145E09C500FEF25E0241CF8E2F8
:102CA000FD08E2CDF0A3EDF00FEFB402AD900143CB
:102CB000E0FFA3E090009FCFF0A3EFF0900145E08C
:102CC000FFA3E090009DCFF0A3EFF022900143EF2F
:102CD000F0E4F99001447405F074017E00A8010845
:102CE0008005C333CE33CED8F9FF900143E0FDE435
:102CF000EF5DFD9000FDE0FBE4EF5B6D7001E460D3
:102D000014900143E09000FDF0741D29F582E43435
:102D100001F583E4F09000FDE07006900144740238
:102D2000F0741D29F582E43401F583E004FFF0908E
:102D30000144E0FEEFC39E50037F0022741D29F57D
:102D400082E43401F5837405F009E9640170847F3D
:102D5000012290014F1202A390014C12032A90010C
:102D6000541202BB0000000090014F12025278047E
:102D700012022590014F1202A3900153E024FFFF9D
:102D8000E434FFFEE4FCFD1202831200BA90014F0E
:102D900012026A12009FC007900153E0FFFBE4FAA1
:102DA000F9F8D0071201459001541202A390015482
:102DB00012025290014C1203211202389001541257
:102DC000025278041201FE9001541202A3900154A1
:102DD00012025222FE0010FE0028FE0032FE0014F5
:102DE000FE0034FE0018FE0036FE001CFE0038FE19
:102DF0000000FE0020FE002AFE0008FE0024FE0067
:102E00002EFE0055FE0059FE005DFE005F0100CA67
:102E10000100D20100DA0100E201019001019101FB
:102E200000F70100F80100FA0101920100FC010025
:102E3000FD0100FF01010801010401010601010C6F
:102E400001011401011601010C01012201012A01F5
:102E5000011A010110E4900143F0900143E0FF25C5
:102E6000E02414F8E2FC08E2FDEF25E02410F8E28B
:102E7000FE08E2FFC39DEE9C5043E025E02415F8D8
:102E8000C3E29FFF18E29EFE7C007D64120365C0D2
:102E900006C007E025E02495F582E43400F583E0E0
:102EA000FEA3E0FFFBAA06E4F9F8D007D006120162
:102EB00045D3EF940AEE94004003D21822900143C8
:102EC000E004F0E0B4029322E4900143F090014367
:102ED000E0FFC39402505BEF25E025E0248DF582EE
:102EE000E43400F58312026AC000900143E025E05B
:102EF00025E02408F812025ED0001200AC900144D4
:102F00001202A3E47FFF7EFFFDFC90014412026ADF
:102F1000C31201ED40037F0222900144120252903D
:102F20000143E025E02410F8EEF208EFF2E004F0AF
:102F3000809B7F0622E4FF9000F8F0A3F090011C34
:102F4000F090010EF0A3F09000FAF0A3F0F523EF5B
:102F500025E02408F582E43401F583E4F0A3F0EFE2
:102F600025E02495F582E43400F583E0FCA3E0FD40
:102F700090011FEC8DF01200890FEFB402D1900187
:102F80001FE0C313F0A3E013F090011FE0FEA3E0E5
:102F90007802CEC313CE13D8F9F0EE90011FF022C1
:102FA0007849E6FF30E104D2008002C200EF30E24F
:102FB00004D2018002C201E4900104F0A3F0900168
:102FC00072F0A3F0A202300001B35018A2009202E6
:102FD000122F2530000BE4FF1235CF0F1214C780DB
:102FE000031238BD30080BE4FF1235CF0F1214C79F
:102FF000C208A203300101B35004A20192033009B8
:1030000005123303C209229000FBE0FF9000FAE0B2
:10301000FE6F601D900100E0FD9000FFE0FC6D6020
:10302000103000047846A6063001337855A6048097
:103030002D9000FAE0FE6F600D3000227846A60663
:10304000E47855F68018900100E0FF9000FFE0FE64
:103050006F600B3001087855A606E47846F69000BC
:10306000FAE0A3F09000FFE0A3F022E4FBFE900062
:103070008CE0FD74242EF8E69033DD93FCED4C904B
:10308000008CF00EEEB402E69000B5E0FFE528906B
:1030900033DD93FDEF4D9000B5F0E4FE783AE2FFAA
:1030A000742C2EF8E69033DD93FDEF4D783AF20E56
:1030B000EEB401E89000B5E0FF90008CE04FFF789F
:1030C0003AE24FFB42D442F442E4F452DC22EFC332
:1030D0009404500553B9EF800343B910EF6003B473
:1030E000040B85B71985B61A85B51B803AEF6401C4
:1030F0006004EFB4050B85EB1985EA1A85E91B809E
:1031000026EF64026004EFB4060B85F31985F21A0A
:1031100085F11B8012EF64036004EFB4070985FB9F
:103120001985FA1A85F91BAF1BAE1AAD19AC182216
:10313000E4900143F0900143E0FFC394025047EF55
:1031400025E02418F8E2FE08E2FF7C007D6412030B
:1031500065C006C007E025E02495F582E43400F55B
:1031600083E0FEA3E0FFFBAA06E4F9F8D007D0064F
:10317000120145900143E025E0241CF8EEF208EF2F
:10318000F2E004F080AF22E4900143F0900143E0CC
:10319000FFC394015041EF25E02436F8E2FE08E237
:1031A000FF7C007D64120365C006C007E025E024B3
:1031B0003BF8E2FE08E2FFFBAA06E4F9F8D007D0EC
:1031C00006120145900143E025E02438F8EEF208AC
:1031D000EFF2E004F080B5229001427406F0300076
:1031E00016122EB8900142EFF0BF0205D208E0FFA0
:1031F000221224B9123120121662900142EFF0BF60
:103200000205D208E0FF22120681900142EFF0BFD2
:103210000205D209E0FF221227291232B7123177B4
:10322000123655900142E0FF22E4FFEF25E024052D
:10323000F582E43434F583E493FC740193FDEF25C7
:10324000E02495F582E43400F583ECF0A3EDF00F73
:10325000EFB402D7E4FFEF25E0240DF582E4343427
:10326000F583E493F8740193FDEF25E0243BC8F265
:1032700008EDF20FEFB401DE22A907E4FFFEEEC372
:103280009400500E74302EF8E69033DD934FFF0E0D
:1032900080ECE96005EF42D48004EFF452D4EFF4FF
:1032A000FE52F4EF42E4ED6005EF42EC8003EE5293
:1032B000ECEFF4FE52DCEB6005EF42808003EE524F
:1032C00080900193EFF022E4FFEF25E02434F8E250
:1032D000FC08E2FDEF25E02432F8E2FA08E2FBD335
:1032E0009DEA9C401EEF25E02434F8E2FC08E2FD54
:1032F000C3EB9DFDEA9CF8EF25E02436C8F208ED0B
:10330000F2800AEF25E02436F8E4F208F20FEFB479
:1033100001B722900121E070FAE4FF1203BBE4FF41
:10332000120F49E49000FDF09000FFF0FF741D2F94
:10333000F582E43401F583E4F0EF25E02410F58212
:10334000E43401F583E4F0A3F0EF25E02412F582E4
:10335000E43401F583E4F0A3F00FEFB401CF22C011
:10336000E0C0F0C083C082C0D075D000C000C28D64
:10337000758C32758AEB900172E475F00112008948
:10338000C3900173E09414900172E09400400D909A
:103390000104E4F0A3F0900172F0A3F0D000D0D0CB
:1033A000D082D083D0F0D0E0327849A607EFB402C3
:1033B00008D202D200C203C201EFB40408C202C2A2
:1033C00000D203D201EFB40608D202D200D203D257
:1033D00001900106E4F0A3742DF07F0B1235A0904C
:1033E000010CEEF0A3EFF0C206C20A22140102049F
:1033F0000810204080002D002D003C003C04E20419
:10340000E2003C003C00780078003C003C03E8030C
:10341000E8003C003C00B401B800640064006400B3
:1034200064006400640000000000000000E4FF90FD
:1034300000FDF0A3F0A3F0A3F0C20D741D2FF582E0
:10344000E43401F583E4F0EF25E02410F582E43460
:1034500001F583E4F0A3F0EF25E02412F582E434D3
:1034600001F583E4F0A3F00FEFB401CF22E4FFFEF7
:10347000EE75F008A42457F8E624FDFD18E634FFA5
:10348000FCEE25E0241DF9C3E39D19E39C400D7477
:1034900001A806088002C333D8FC4FFF0EEEB40229
:1034A000CF900191EFF0229001461202A390014AC1
:1034B00012025290014612026AD31201ED4010909E
:1034C000014A12026A9001461202521200AC229086
:1034D000014612026A90014A1202521200AC22E422
:1034E000900121F053B9FD53B9DF43CC02C2D94357
:1034F0009F10539FFD438760759262C28DEF7006E7
:1035000075BD0D75BC0112384075BE0CD28C438759
:10351000030000000022E4FFFEEE75F008A424562C
:10352000F8E6FC08E6FDEE25E0241DF9C3E39D194D
:10353000E39C400D7401A806088002C333D8FC4FF9
:10354000FF0EEEB402D3900190EFF02243F808751D
:10355000CD4053CC7F43CC4043CC2043CC1043CC14
:103560000453CCFD43CB0243CB0153CBBF43E8080C
:1035700053E5FC43E30243F50343900343ED032289
:103580007E039000F8E06F6007EFF0E490011CF01C
:103590009000F8E070027E01AF0690011CE004F09C
:1035A000C39F50037F002290011C7403F07F01220F
:1035B0007B017A00EFC394125020EF25E024D2F56E
:1035C00082E43436F583E493FF7E00900106E0FC4C
:1035D000A3E0FD120077AA06AB07AE02AF032253A9
:1035E000BA0F43BA2075BBFF75A95090008CE0F567
:1035F000B4EF7009F5B375B26175B1A8229000B24D
:10360000E0F5B3A3E0F5B2A3E0F5B12253BA0F435E
:10361000BA2075BB8675A9C09000B5E0F5B4EF700F
:1036200009F5B375B27575B130229000F4E0F5B3C9
:10363000A3E0F5B2A3E0F5B122E4FF75BE0E439F0F
:10364000100FEFB4FFFB439F02539FEFE4FF0FEF18
:10365000B4FFFB75BC0243B920759276E4F5BFD286
:10366000D953CCFD227FB07E307D017C00782012C2
:103670000276D31201ED5012E47F107EA4FDFC7897
:1036800020120276C31201ED5003D20F22C20F2284
:1036900053BA0F43BA2075BB8675A9C0783AE2F5D4
:1036A000B4EF7009F5B375B2C375B150227889E2F1
:1036B000F5B308E2F5B208E2F5B12275BF0F0000DC
:1036C00000000000000000000000000000000000FA
:1036D000D2D853B9FD43B901E5B930E1FBE4F5BFF8
:1036E0002200020101020803010405050106060784
:1036F00001080109020A010B030C010D0F0E040F52
:1037000001103C1102438901C28DD2A953B8FDE4D6
:10371000900172F0A3F0900104F0A3F0758C327563
:103720008AEBD28CD2AF2253BAFEE5B920E00690E4
:103730000121E06005E5B930E1FBE4F5BF53B9FDD7
:1037400053B9FE900121F02204240304FFFF042852
:1037500000FFFFFF042C06FFFFFF0430FFFFFFFF09
:1037600004180000000000EF600543D504800353F7
:10377000D5FB53F5FB53E5FB43E30443ED04E49031
:10378000011EF0D29222E4F5E3439F10439F02FF13
:103790000FEFB4FFFB539FEF75BE0EE4F5BFF5B915
:1037A000759276221217F012350612345D9000F8E9
:1037B000E07007900190E0FB8005900191E0FBAF85
:1037C000032275AA3B53BAF343BA0875AC0375AD2F
:1037D000C075AEC043B92053B9BF22308504D20BA7
:1037E0008002C20BA20C300B01B35007123303A2AC
:1037F0000B920C22E4FFF582F5837440FEE493F40F
:103800002FFFA3EEB583F6227F0022E4900116F08D
:10381000A3F07F0C1235A0900114EEF0A3EFF0D2CC
:103820000522E4FF1235CF121A701219367F0112E9
:1038300035CF1214C7122F2522E4FF12368012381A
:103840007E121DEA7F011236801203BB12341D2244
:10385000438901C28CC28FE4900172F0A3F0758C91
:10386000FB758AED2212305B7B017D01E4FF123291
:10387000697F0112375712000322E4FF1235FC1250
:1038800029401223D57F011235FC120F4922E4FF93
:10389000784EE6FE744F2FF8A6060FEFB401F12222
:1038A00020C90CC2AFA807A60408A605D2AF2222E1
:1038B000C2DA53D80F43D8D0D2D8D2D92212132B80
:1038C000900192E0FF221227E11237CB22E4FF128F
:1038D00014C722FFFFFFFFFFFFFFFFFFFFFFFFFFF8
:1038E000FFFFFFFFFFFFFFFFFFFFFFFFFFFFFFFFE8
:00000001FF
